{
	"Auctionator.sol": {
		"Auctionator": {
			"abi": [
				{
					"inputs": [
						{
							"internalType": "uint256",
							"name": "durationInSeconds",
							"type": "uint256"
						}
					],
					"stateMutability": "nonpayable",
					"type": "constructor"
				},
				{
					"anonymous": false,
					"inputs": [
						{
							"indexed": true,
							"internalType": "address",
							"name": "winner",
							"type": "address"
						},
						{
							"indexed": false,
							"internalType": "uint256",
							"name": "winningAmount",
							"type": "uint256"
						}
					],
					"name": "AuctionConcluded",
					"type": "event"
				},
				{
					"anonymous": false,
					"inputs": [
						{
							"indexed": false,
							"internalType": "uint256",
							"name": "newEndTime",
							"type": "uint256"
						}
					],
					"name": "AuctionExtended",
					"type": "event"
				},
				{
					"anonymous": false,
					"inputs": [
						{
							"indexed": true,
							"internalType": "address",
							"name": "bidder",
							"type": "address"
						},
						{
							"indexed": false,
							"internalType": "uint256",
							"name": "amount",
							"type": "uint256"
						}
					],
					"name": "FullWithdrawal",
					"type": "event"
				},
				{
					"anonymous": false,
					"inputs": [
						{
							"indexed": true,
							"internalType": "address",
							"name": "bidder",
							"type": "address"
						},
						{
							"indexed": false,
							"internalType": "uint256",
							"name": "amount",
							"type": "uint256"
						},
						{
							"indexed": false,
							"internalType": "uint256",
							"name": "newEndTime",
							"type": "uint256"
						}
					],
					"name": "NewBid",
					"type": "event"
				},
				{
					"anonymous": false,
					"inputs": [
						{
							"indexed": true,
							"internalType": "address",
							"name": "bidder",
							"type": "address"
						},
						{
							"indexed": false,
							"internalType": "uint256",
							"name": "amount",
							"type": "uint256"
						}
					],
					"name": "PartialWithdrawal",
					"type": "event"
				},
				{
					"inputs": [],
					"name": "COMMISSION_PERCENT",
					"outputs": [
						{
							"internalType": "uint256",
							"name": "",
							"type": "uint256"
						}
					],
					"stateMutability": "view",
					"type": "function"
				},
				{
					"inputs": [],
					"name": "EXTENSION_DURATION",
					"outputs": [
						{
							"internalType": "uint256",
							"name": "",
							"type": "uint256"
						}
					],
					"stateMutability": "view",
					"type": "function"
				},
				{
					"inputs": [],
					"name": "EXTENSION_THRESHOLD",
					"outputs": [
						{
							"internalType": "uint256",
							"name": "",
							"type": "uint256"
						}
					],
					"stateMutability": "view",
					"type": "function"
				},
				{
					"inputs": [],
					"name": "MIN_BID_INCREASE_PERCENT",
					"outputs": [
						{
							"internalType": "uint256",
							"name": "",
							"type": "uint256"
						}
					],
					"stateMutability": "view",
					"type": "function"
				},
				{
					"inputs": [],
					"name": "auctionEndTime",
					"outputs": [
						{
							"internalType": "uint256",
							"name": "",
							"type": "uint256"
						}
					],
					"stateMutability": "view",
					"type": "function"
				},
				{
					"inputs": [],
					"name": "auctionEnded",
					"outputs": [
						{
							"internalType": "bool",
							"name": "",
							"type": "bool"
						}
					],
					"stateMutability": "view",
					"type": "function"
				},
				{
					"inputs": [
						{
							"internalType": "uint256",
							"name": "",
							"type": "uint256"
						}
					],
					"name": "bidHistory",
					"outputs": [
						{
							"internalType": "address",
							"name": "bidder",
							"type": "address"
						},
						{
							"internalType": "uint256",
							"name": "amount",
							"type": "uint256"
						},
						{
							"internalType": "bool",
							"name": "withdrawn",
							"type": "bool"
						}
					],
					"stateMutability": "view",
					"type": "function"
				},
				{
					"inputs": [],
					"name": "concludeAuction",
					"outputs": [],
					"stateMutability": "nonpayable",
					"type": "function"
				},
				{
					"inputs": [],
					"name": "getBidHistory",
					"outputs": [
						{
							"components": [
								{
									"internalType": "address",
									"name": "bidder",
									"type": "address"
								},
								{
									"internalType": "uint256",
									"name": "amount",
									"type": "uint256"
								},
								{
									"internalType": "bool",
									"name": "withdrawn",
									"type": "bool"
								}
							],
							"internalType": "struct Auctionator.Bid[]",
							"name": "",
							"type": "tuple[]"
						}
					],
					"stateMutability": "view",
					"type": "function"
				},
				{
					"inputs": [],
					"name": "getRemainingTime",
					"outputs": [
						{
							"internalType": "uint256",
							"name": "remainingTime",
							"type": "uint256"
						}
					],
					"stateMutability": "view",
					"type": "function"
				},
				{
					"inputs": [],
					"name": "getWinnerInfo",
					"outputs": [
						{
							"internalType": "address",
							"name": "winnerAddress",
							"type": "address"
						},
						{
							"internalType": "uint256",
							"name": "winningAmount",
							"type": "uint256"
						}
					],
					"stateMutability": "view",
					"type": "function"
				},
				{
					"inputs": [],
					"name": "highestBid",
					"outputs": [
						{
							"internalType": "uint256",
							"name": "",
							"type": "uint256"
						}
					],
					"stateMutability": "view",
					"type": "function"
				},
				{
					"inputs": [],
					"name": "highestBidder",
					"outputs": [
						{
							"internalType": "address",
							"name": "",
							"type": "address"
						}
					],
					"stateMutability": "view",
					"type": "function"
				},
				{
					"inputs": [],
					"name": "initialDuration",
					"outputs": [
						{
							"internalType": "uint256",
							"name": "",
							"type": "uint256"
						}
					],
					"stateMutability": "view",
					"type": "function"
				},
				{
					"inputs": [],
					"name": "owner",
					"outputs": [
						{
							"internalType": "address",
							"name": "",
							"type": "address"
						}
					],
					"stateMutability": "view",
					"type": "function"
				},
				{
					"inputs": [],
					"name": "placeBid",
					"outputs": [],
					"stateMutability": "payable",
					"type": "function"
				},
				{
					"inputs": [],
					"name": "withdrawFull",
					"outputs": [],
					"stateMutability": "nonpayable",
					"type": "function"
				},
				{
					"inputs": [
						{
							"internalType": "uint256",
							"name": "amountToWithdraw",
							"type": "uint256"
						}
					],
					"name": "withdrawPartial",
					"outputs": [],
					"stateMutability": "nonpayable",
					"type": "function"
				},
				{
					"stateMutability": "payable",
					"type": "receive"
				}
			],
			"devdoc": {
				"details": "Auction contract implementing all required features",
				"kind": "dev",
				"methods": {
					"concludeAuction()": {
						"details": "Transfers winning amount (minus commission) to owner"
					},
					"constructor": {
						"details": "Initializes the auction contract",
						"params": {
							"durationInSeconds": "Initial auction duration in seconds"
						}
					},
					"getBidHistory()": {
						"returns": {
							"_0": "Array of all bids placed"
						}
					},
					"getRemainingTime()": {
						"returns": {
							"remainingTime": "Time left in seconds (0 if ended)"
						}
					},
					"getWinnerInfo()": {
						"returns": {
							"winnerAddress": "Winner's address",
							"winningAmount": "Winning bid amount"
						}
					},
					"placeBid()": {
						"details": "Each new bid must be at least 5% higher than previous"
					},
					"withdrawFull()": {
						"details": "Only available after auction concludes"
					},
					"withdrawPartial(uint256)": {
						"details": "Remaining amount must cover user's last bid",
						"params": {
							"amountToWithdraw": "Amount to withdraw"
						}
					}
				},
				"title": "Auctionator",
				"version": 1
			},
			"evm": {
				"assembly": "    /* \"Auctionator.sol\":196:7695  contract Auctionator {... */\n  mstore(0x40, 0xc0)\n    /* \"Auctionator.sol\":2130:2407  constructor(uint256 durationInSeconds) {... */\n  callvalue\n  dup1\n  iszero\n  tag_1\n  jumpi\n  revert(0x00, 0x00)\ntag_1:\n  pop\n  mload(0x40)\n  sub(codesize, bytecodeSize)\n  dup1\n  bytecodeSize\n  dup4\n  codecopy\n  dup2\n  dup2\n  add\n  0x40\n  mstore\n  dup2\n  add\n  swap1\n  tag_2\n  swap2\n  swap1\n  tag_3\n  jump\t// in\ntag_2:\n    /* \"Auctionator.sol\":713:723  10 minutes */\n  0x0258\n    /* \"Auctionator.sol\":2188:2205  durationInSeconds */\n  dup2\n    /* \"Auctionator.sol\":2188:2228  durationInSeconds >= EXTENSION_THRESHOLD */\n  lt\n  iszero\n    /* \"Auctionator.sol\":2180:2251  require(durationInSeconds >= EXTENSION_THRESHOLD, \"Duration too short\") */\n  tag_6\n  jumpi\n  mload(0x40)\n  0x08c379a000000000000000000000000000000000000000000000000000000000\n  dup2\n  mstore\n  0x04\n  add\n  tag_7\n  swap1\n  tag_8\n  jump\t// in\ntag_7:\n  mload(0x40)\n  dup1\n  swap2\n  sub\n  swap1\n  revert\ntag_6:\n    /* \"Auctionator.sol\":2280:2290  msg.sender */\n  caller\n    /* \"Auctionator.sol\":2272:2290  owner = msg.sender */\n  0xffffffffffffffffffffffffffffffffffffffff\n  and\n  0x80\n  dup2\n  0xffffffffffffffffffffffffffffffffffffffff\n  and\n  dup2\n  mstore\n  pop\n  pop\n    /* \"Auctionator.sol\":2319:2336  durationInSeconds */\n  dup1\n    /* \"Auctionator.sol\":2301:2336  initialDuration = durationInSeconds */\n  0xa0\n  dup2\n  dup2\n  mstore\n  pop\n  pop\n    /* \"Auctionator.sol\":2382:2399  durationInSeconds */\n  dup1\n    /* \"Auctionator.sol\":2364:2379  block.timestamp */\n  timestamp\n    /* \"Auctionator.sol\":2364:2399  block.timestamp + durationInSeconds */\n  tag_9\n  swap2\n  swap1\n  tag_10\n  jump\t// in\ntag_9:\n    /* \"Auctionator.sol\":2347:2361  auctionEndTime */\n  0x00\n    /* \"Auctionator.sol\":2347:2399  auctionEndTime = block.timestamp + durationInSeconds */\n  dup2\n  swap1\n  sstore\n  pop\n    /* \"Auctionator.sol\":2130:2407  constructor(uint256 durationInSeconds) {... */\n  pop\n    /* \"Auctionator.sol\":196:7695  contract Auctionator {... */\n  jump(tag_11)\n    /* \"#utility.yul\":88:205   */\ntag_13:\n    /* \"#utility.yul\":197:198   */\n  0x00\n    /* \"#utility.yul\":194:195   */\n  0x00\n    /* \"#utility.yul\":187:199   */\n  revert\n    /* \"#utility.yul\":334:411   */\ntag_15:\n    /* \"#utility.yul\":371:378   */\n  0x00\n    /* \"#utility.yul\":400:405   */\n  dup2\n    /* \"#utility.yul\":389:405   */\n  swap1\n  pop\n    /* \"#utility.yul\":334:411   */\n  swap2\n  swap1\n  pop\n  jump\t// out\n    /* \"#utility.yul\":417:539   */\ntag_16:\n    /* \"#utility.yul\":490:514   */\n  tag_28\n    /* \"#utility.yul\":508:513   */\n  dup2\n    /* \"#utility.yul\":490:514   */\n  tag_15\n  jump\t// in\ntag_28:\n    /* \"#utility.yul\":483:488   */\n  dup2\n    /* \"#utility.yul\":480:515   */\n  eq\n    /* \"#utility.yul\":470:533   */\n  tag_29\n  jumpi\n    /* \"#utility.yul\":529:530   */\n  0x00\n    /* \"#utility.yul\":526:527   */\n  0x00\n    /* \"#utility.yul\":519:531   */\n  revert\n    /* \"#utility.yul\":470:533   */\ntag_29:\n    /* \"#utility.yul\":417:539   */\n  pop\n  jump\t// out\n    /* \"#utility.yul\":545:688   */\ntag_17:\n    /* \"#utility.yul\":602:607   */\n  0x00\n    /* \"#utility.yul\":633:639   */\n  dup2\n    /* \"#utility.yul\":627:640   */\n  mload\n    /* \"#utility.yul\":618:640   */\n  swap1\n  pop\n    /* \"#utility.yul\":649:682   */\n  tag_31\n    /* \"#utility.yul\":676:681   */\n  dup2\n    /* \"#utility.yul\":649:682   */\n  tag_16\n  jump\t// in\ntag_31:\n    /* \"#utility.yul\":545:688   */\n  swap3\n  swap2\n  pop\n  pop\n  jump\t// out\n    /* \"#utility.yul\":694:1045   */\ntag_3:\n    /* \"#utility.yul\":764:770   */\n  0x00\n    /* \"#utility.yul\":813:815   */\n  0x20\n    /* \"#utility.yul\":801:810   */\n  dup3\n    /* \"#utility.yul\":792:799   */\n  dup5\n    /* \"#utility.yul\":788:811   */\n  sub\n    /* \"#utility.yul\":784:816   */\n  slt\n    /* \"#utility.yul\":781:900   */\n  iszero\n  tag_33\n  jumpi\n    /* \"#utility.yul\":819:898   */\n  tag_34\n  tag_13\n  jump\t// in\ntag_34:\n    /* \"#utility.yul\":781:900   */\ntag_33:\n    /* \"#utility.yul\":939:940   */\n  0x00\n    /* \"#utility.yul\":964:1028   */\n  tag_35\n    /* \"#utility.yul\":1020:1027   */\n  dup5\n    /* \"#utility.yul\":1011:1017   */\n  dup3\n    /* \"#utility.yul\":1000:1009   */\n  dup6\n    /* \"#utility.yul\":996:1018   */\n  add\n    /* \"#utility.yul\":964:1028   */\n  tag_17\n  jump\t// in\ntag_35:\n    /* \"#utility.yul\":954:1028   */\n  swap2\n  pop\n    /* \"#utility.yul\":910:1038   */\n  pop\n    /* \"#utility.yul\":694:1045   */\n  swap3\n  swap2\n  pop\n  pop\n  jump\t// out\n    /* \"#utility.yul\":1051:1220   */\ntag_18:\n    /* \"#utility.yul\":1135:1146   */\n  0x00\n    /* \"#utility.yul\":1169:1175   */\n  dup3\n    /* \"#utility.yul\":1164:1167   */\n  dup3\n    /* \"#utility.yul\":1157:1176   */\n  mstore\n    /* \"#utility.yul\":1209:1213   */\n  0x20\n    /* \"#utility.yul\":1204:1207   */\n  dup3\n    /* \"#utility.yul\":1200:1214   */\n  add\n    /* \"#utility.yul\":1185:1214   */\n  swap1\n  pop\n    /* \"#utility.yul\":1051:1220   */\n  swap3\n  swap2\n  pop\n  pop\n  jump\t// out\n    /* \"#utility.yul\":1226:1394   */\ntag_19:\n    /* \"#utility.yul\":1366:1386   */\n  0x4475726174696f6e20746f6f2073686f72740000000000000000000000000000\n    /* \"#utility.yul\":1362:1363   */\n  0x00\n    /* \"#utility.yul\":1354:1360   */\n  dup3\n    /* \"#utility.yul\":1350:1364   */\n  add\n    /* \"#utility.yul\":1343:1387   */\n  mstore\n    /* \"#utility.yul\":1226:1394   */\n  pop\n  jump\t// out\n    /* \"#utility.yul\":1400:1766   */\ntag_20:\n    /* \"#utility.yul\":1542:1545   */\n  0x00\n    /* \"#utility.yul\":1563:1630   */\n  tag_39\n    /* \"#utility.yul\":1627:1629   */\n  0x12\n    /* \"#utility.yul\":1622:1625   */\n  dup4\n    /* \"#utility.yul\":1563:1630   */\n  tag_18\n  jump\t// in\ntag_39:\n    /* \"#utility.yul\":1556:1630   */\n  swap2\n  pop\n    /* \"#utility.yul\":1639:1732   */\n  tag_40\n    /* \"#utility.yul\":1728:1731   */\n  dup3\n    /* \"#utility.yul\":1639:1732   */\n  tag_19\n  jump\t// in\ntag_40:\n    /* \"#utility.yul\":1757:1759   */\n  0x20\n    /* \"#utility.yul\":1752:1755   */\n  dup3\n    /* \"#utility.yul\":1748:1760   */\n  add\n    /* \"#utility.yul\":1741:1760   */\n  swap1\n  pop\n    /* \"#utility.yul\":1400:1766   */\n  swap2\n  swap1\n  pop\n  jump\t// out\n    /* \"#utility.yul\":1772:2191   */\ntag_8:\n    /* \"#utility.yul\":1938:1942   */\n  0x00\n    /* \"#utility.yul\":1976:1978   */\n  0x20\n    /* \"#utility.yul\":1965:1974   */\n  dup3\n    /* \"#utility.yul\":1961:1979   */\n  add\n    /* \"#utility.yul\":1953:1979   */\n  swap1\n  pop\n    /* \"#utility.yul\":2025:2034   */\n  dup2\n    /* \"#utility.yul\":2019:2023   */\n  dup2\n    /* \"#utility.yul\":2015:2035   */\n  sub\n    /* \"#utility.yul\":2011:2012   */\n  0x00\n    /* \"#utility.yul\":2000:2009   */\n  dup4\n    /* \"#utility.yul\":1996:2013   */\n  add\n    /* \"#utility.yul\":1989:2036   */\n  mstore\n    /* \"#utility.yul\":2053:2184   */\n  tag_42\n    /* \"#utility.yul\":2179:2183   */\n  dup2\n    /* \"#utility.yul\":2053:2184   */\n  tag_20\n  jump\t// in\ntag_42:\n    /* \"#utility.yul\":2045:2184   */\n  swap1\n  pop\n    /* \"#utility.yul\":1772:2191   */\n  swap2\n  swap1\n  pop\n  jump\t// out\n    /* \"#utility.yul\":2197:2377   */\ntag_21:\n    /* \"#utility.yul\":2245:2322   */\n  0x4e487b7100000000000000000000000000000000000000000000000000000000\n    /* \"#utility.yul\":2242:2243   */\n  0x00\n    /* \"#utility.yul\":2235:2323   */\n  mstore\n    /* \"#utility.yul\":2342:2346   */\n  0x11\n    /* \"#utility.yul\":2339:2340   */\n  0x04\n    /* \"#utility.yul\":2332:2347   */\n  mstore\n    /* \"#utility.yul\":2366:2370   */\n  0x24\n    /* \"#utility.yul\":2363:2364   */\n  0x00\n    /* \"#utility.yul\":2356:2371   */\n  revert\n    /* \"#utility.yul\":2383:2574   */\ntag_10:\n    /* \"#utility.yul\":2423:2426   */\n  0x00\n    /* \"#utility.yul\":2442:2462   */\n  tag_45\n    /* \"#utility.yul\":2460:2461   */\n  dup3\n    /* \"#utility.yul\":2442:2462   */\n  tag_15\n  jump\t// in\ntag_45:\n    /* \"#utility.yul\":2437:2462   */\n  swap2\n  pop\n    /* \"#utility.yul\":2476:2496   */\n  tag_46\n    /* \"#utility.yul\":2494:2495   */\n  dup4\n    /* \"#utility.yul\":2476:2496   */\n  tag_15\n  jump\t// in\ntag_46:\n    /* \"#utility.yul\":2471:2496   */\n  swap3\n  pop\n    /* \"#utility.yul\":2519:2520   */\n  dup3\n    /* \"#utility.yul\":2516:2517   */\n  dup3\n    /* \"#utility.yul\":2512:2521   */\n  add\n    /* \"#utility.yul\":2505:2521   */\n  swap1\n  pop\n    /* \"#utility.yul\":2540:2543   */\n  dup1\n    /* \"#utility.yul\":2537:2538   */\n  dup3\n    /* \"#utility.yul\":2534:2544   */\n  gt\n    /* \"#utility.yul\":2531:2567   */\n  iszero\n  tag_47\n  jumpi\n    /* \"#utility.yul\":2547:2565   */\n  tag_48\n  tag_21\n  jump\t// in\ntag_48:\n    /* \"#utility.yul\":2531:2567   */\ntag_47:\n    /* \"#utility.yul\":2383:2574   */\n  swap3\n  swap2\n  pop\n  pop\n  jump\t// out\n    /* \"Auctionator.sol\":196:7695  contract Auctionator {... */\ntag_11:\n  mload(0x80)\n  mload(0xa0)\n  codecopy(0x00, dataOffset(sub_0), dataSize(sub_0))\n  0x00\n  assignImmutable(\"0xe4b1702d9298fee62dfeccc57d322a463ad55ca201256d01f62b45b2e1c21c10\")\n  0x00\n  assignImmutable(\"0x13600b294191fc92924bb3ce4b969c1e7e2bab8f4c93c3fc6d0a51733df3c060\")\n  return(0x00, dataSize(sub_0))\nstop\n\nsub_0: assembly {\n        /* \"Auctionator.sol\":196:7695  contract Auctionator {... */\n      mstore(0x40, 0x80)\n      jumpi(tag_1, lt(calldatasize, 0x04))\n      shr(0xe0, calldataload(0x00))\n      dup1\n      0x91f90157\n      gt\n      tag_21\n      jumpi\n      dup1\n      0xe0dd89ec\n      gt\n      tag_22\n      jumpi\n      dup1\n      0xe0dd89ec\n      eq\n      tag_16\n      jumpi\n      dup1\n      0xe1174717\n      eq\n      tag_17\n      jumpi\n      dup1\n      0xecde973d\n      eq\n      tag_18\n      jumpi\n      dup1\n      0xecfc7ecc\n      eq\n      tag_19\n      jumpi\n      dup1\n      0xefb98bcf\n      eq\n      tag_20\n      jumpi\n      jump(tag_2)\n    tag_22:\n      dup1\n      0x91f90157\n      eq\n      tag_12\n      jumpi\n      dup1\n      0xb404e001\n      eq\n      tag_13\n      jumpi\n      dup1\n      0xb815a357\n      eq\n      tag_14\n      jumpi\n      dup1\n      0xd57bde79\n      eq\n      tag_15\n      jumpi\n      jump(tag_2)\n    tag_21:\n      dup1\n      0x4b449cba\n      gt\n      tag_23\n      jumpi\n      dup1\n      0x4b449cba\n      eq\n      tag_7\n      jumpi\n      dup1\n      0x5dd624df\n      eq\n      tag_8\n      jumpi\n      dup1\n      0x7e50bb83\n      eq\n      tag_9\n      jumpi\n      dup1\n      0x86433374\n      eq\n      tag_10\n      jumpi\n      dup1\n      0x8da5cb5b\n      eq\n      tag_11\n      jumpi\n      jump(tag_2)\n    tag_23:\n      dup1\n      0x093d2769\n      eq\n      tag_3\n      jumpi\n      dup1\n      0x1211540c\n      eq\n      tag_4\n      jumpi\n      dup1\n      0x22bb26f7\n      eq\n      tag_5\n      jumpi\n      dup1\n      0x4a874bb9\n      eq\n      tag_6\n      jumpi\n      jump(tag_2)\n    tag_1:\n      jumpi(tag_2, calldatasize)\n      stop\n    tag_2:\n      revert(0x00, 0x00)\n        /* \"Auctionator.sol\":4202:4674  function concludeAuction() external whenAuctionEnded {... */\n    tag_3:\n      callvalue\n      dup1\n      iszero\n      tag_26\n      jumpi\n      revert(0x00, 0x00)\n    tag_26:\n      pop\n      tag_27\n      tag_28\n      jump\t// in\n    tag_27:\n      stop\n        /* \"Auctionator.sol\":5482:6375  function withdrawPartial(uint256 amountToWithdraw) external whenAuctionActive {... */\n    tag_4:\n      callvalue\n      dup1\n      iszero\n      tag_29\n      jumpi\n      revert(0x00, 0x00)\n    tag_29:\n      pop\n      tag_30\n      0x04\n      dup1\n      calldatasize\n      sub\n      dup2\n      add\n      swap1\n      tag_31\n      swap2\n      swap1\n      tag_32\n      jump\t// in\n    tag_31:\n      tag_33\n      jump\t// in\n    tag_30:\n      stop\n        /* \"Auctionator.sol\":6537:6745  function getWinnerInfo() external view returns (address winnerAddress, uint256 winningAmount) {... */\n    tag_5:\n      callvalue\n      dup1\n      iszero\n      tag_34\n      jumpi\n      revert(0x00, 0x00)\n    tag_34:\n      pop\n      tag_35\n      tag_36\n      jump\t// in\n    tag_35:\n      mload(0x40)\n      tag_37\n      swap3\n      swap2\n      swap1\n      tag_38\n      jump\t// in\n    tag_37:\n      mload(0x40)\n      dup1\n      swap2\n      sub\n      swap1\n      return\n        /* \"Auctionator.sol\":493:545  uint256 public constant MIN_BID_INCREASE_PERCENT = 5 */\n    tag_6:\n      callvalue\n      dup1\n      iszero\n      tag_39\n      jumpi\n      revert(0x00, 0x00)\n    tag_39:\n      pop\n      tag_40\n      tag_41\n      jump\t// in\n    tag_40:\n      mload(0x40)\n      tag_42\n      swap2\n      swap1\n      tag_43\n      jump\t// in\n    tag_42:\n      mload(0x40)\n      dup1\n      swap2\n      sub\n      swap1\n      return\n        /* \"Auctionator.sol\":292:321  uint256 public auctionEndTime */\n    tag_7:\n      callvalue\n      dup1\n      iszero\n      tag_44\n      jumpi\n      revert(0x00, 0x00)\n    tag_44:\n      pop\n      tag_45\n      tag_46\n      jump\t// in\n    tag_45:\n      mload(0x40)\n      tag_47\n      swap2\n      swap1\n      tag_43\n      jump\t// in\n    tag_47:\n      mload(0x40)\n      dup1\n      swap2\n      sub\n      swap1\n      return\n        /* \"Auctionator.sol\":605:660  uint256 public constant EXTENSION_DURATION = 10 minutes */\n    tag_8:\n      callvalue\n      dup1\n      iszero\n      tag_48\n      jumpi\n      revert(0x00, 0x00)\n    tag_48:\n      pop\n      tag_49\n      tag_50\n      jump\t// in\n    tag_49:\n      mload(0x40)\n      tag_51\n      swap2\n      swap1\n      tag_43\n      jump\t// in\n    tag_51:\n      mload(0x40)\n      dup1\n      swap2\n      sub\n      swap1\n      return\n        /* \"Auctionator.sol\":6854:6952  function getBidHistory() external view returns (Bid[] memory) {... */\n    tag_9:\n      callvalue\n      dup1\n      iszero\n      tag_52\n      jumpi\n      revert(0x00, 0x00)\n    tag_52:\n      pop\n      tag_53\n      tag_54\n      jump\t// in\n    tag_53:\n      mload(0x40)\n      tag_55\n      swap2\n      swap1\n      tag_56\n      jump\t// in\n    tag_55:\n      mload(0x40)\n      dup1\n      swap2\n      sub\n      swap1\n      return\n        /* \"Auctionator.sol\":442:466  bool public auctionEnded */\n    tag_10:\n      callvalue\n      dup1\n      iszero\n      tag_57\n      jumpi\n      revert(0x00, 0x00)\n    tag_57:\n      pop\n      tag_58\n      tag_59\n      jump\t// in\n    tag_58:\n      mload(0x40)\n      tag_60\n      swap2\n      swap1\n      tag_61\n      jump\t// in\n    tag_60:\n      mload(0x40)\n      dup1\n      swap2\n      sub\n      swap1\n      return\n        /* \"Auctionator.sol\":255:285  address public immutable owner */\n    tag_11:\n      callvalue\n      dup1\n      iszero\n      tag_62\n      jumpi\n      revert(0x00, 0x00)\n    tag_62:\n      pop\n      tag_63\n      tag_64\n      jump\t// in\n    tag_63:\n      mload(0x40)\n      tag_65\n      swap2\n      swap1\n      tag_66\n      jump\t// in\n    tag_65:\n      mload(0x40)\n      dup1\n      swap2\n      sub\n      swap1\n      return\n        /* \"Auctionator.sol\":407:435  address public highestBidder */\n    tag_12:\n      callvalue\n      dup1\n      iszero\n      tag_67\n      jumpi\n      revert(0x00, 0x00)\n    tag_67:\n      pop\n      tag_68\n      tag_69\n      jump\t// in\n    tag_68:\n      mload(0x40)\n      tag_70\n      swap2\n      swap1\n      tag_66\n      jump\t// in\n    tag_70:\n      mload(0x40)\n      dup1\n      swap2\n      sub\n      swap1\n      return\n        /* \"Auctionator.sol\":552:598  uint256 public constant COMMISSION_PERCENT = 2 */\n    tag_13:\n      callvalue\n      dup1\n      iszero\n      tag_71\n      jumpi\n      revert(0x00, 0x00)\n    tag_71:\n      pop\n      tag_72\n      tag_73\n      jump\t// in\n    tag_72:\n      mload(0x40)\n      tag_74\n      swap2\n      swap1\n      tag_43\n      jump\t// in\n    tag_74:\n      mload(0x40)\n      dup1\n      swap2\n      sub\n      swap1\n      return\n        /* \"Auctionator.sol\":328:368  uint256 public immutable initialDuration */\n    tag_14:\n      callvalue\n      dup1\n      iszero\n      tag_75\n      jumpi\n      revert(0x00, 0x00)\n    tag_75:\n      pop\n      tag_76\n      tag_77\n      jump\t// in\n    tag_76:\n      mload(0x40)\n      tag_78\n      swap2\n      swap1\n      tag_43\n      jump\t// in\n    tag_78:\n      mload(0x40)\n      dup1\n      swap2\n      sub\n      swap1\n      return\n        /* \"Auctionator.sol\":375:400  uint256 public highestBid */\n    tag_15:\n      callvalue\n      dup1\n      iszero\n      tag_79\n      jumpi\n      revert(0x00, 0x00)\n    tag_79:\n      pop\n      tag_80\n      tag_81\n      jump\t// in\n    tag_80:\n      mload(0x40)\n      tag_82\n      swap2\n      swap1\n      tag_43\n      jump\t// in\n    tag_82:\n      mload(0x40)\n      dup1\n      swap2\n      sub\n      swap1\n      return\n        /* \"Auctionator.sol\":4804:5291  function withdrawFull() external whenAuctionEnded onlyNonWinner {... */\n    tag_16:\n      callvalue\n      dup1\n      iszero\n      tag_83\n      jumpi\n      revert(0x00, 0x00)\n    tag_83:\n      pop\n      tag_84\n      tag_85\n      jump\t// in\n    tag_84:\n      stop\n        /* \"Auctionator.sol\":667:723  uint256 public constant EXTENSION_THRESHOLD = 10 minutes */\n    tag_17:\n      callvalue\n      dup1\n      iszero\n      tag_86\n      jumpi\n      revert(0x00, 0x00)\n    tag_86:\n      pop\n      tag_87\n      tag_88\n      jump\t// in\n    tag_87:\n      mload(0x40)\n      tag_89\n      swap2\n      swap1\n      tag_43\n      jump\t// in\n    tag_89:\n      mload(0x40)\n      dup1\n      swap2\n      sub\n      swap1\n      return\n        /* \"Auctionator.sol\":874:897  Bid[] public bidHistory */\n    tag_18:\n      callvalue\n      dup1\n      iszero\n      tag_90\n      jumpi\n      revert(0x00, 0x00)\n    tag_90:\n      pop\n      tag_91\n      0x04\n      dup1\n      calldatasize\n      sub\n      dup2\n      add\n      swap1\n      tag_92\n      swap2\n      swap1\n      tag_32\n      jump\t// in\n    tag_92:\n      tag_93\n      jump\t// in\n    tag_91:\n      mload(0x40)\n      tag_94\n      swap4\n      swap3\n      swap2\n      swap1\n      tag_95\n      jump\t// in\n    tag_94:\n      mload(0x40)\n      dup1\n      swap2\n      sub\n      swap1\n      return\n        /* \"Auctionator.sol\":2629:4050  function placeBid() external payable whenAuctionActive {... */\n    tag_19:\n      tag_96\n      tag_97\n      jump\t// in\n    tag_96:\n      stop\n        /* \"Auctionator.sol\":7086:7257  function getRemainingTime() external view returns (uint256 remainingTime) {... */\n    tag_20:\n      callvalue\n      dup1\n      iszero\n      tag_98\n      jumpi\n      revert(0x00, 0x00)\n    tag_98:\n      pop\n      tag_99\n      tag_100\n      jump\t// in\n    tag_99:\n      mload(0x40)\n      tag_101\n      swap2\n      swap1\n      tag_43\n      jump\t// in\n    tag_101:\n      mload(0x40)\n      dup1\n      swap2\n      sub\n      swap1\n      return\n        /* \"Auctionator.sol\":4202:4674  function concludeAuction() external whenAuctionEnded {... */\n    tag_28:\n        /* \"Auctionator.sol\":1725:1739  auctionEndTime */\n      sload(0x00)\n        /* \"Auctionator.sol\":1707:1722  block.timestamp */\n      timestamp\n        /* \"Auctionator.sol\":1707:1739  block.timestamp > auctionEndTime */\n      gt\n        /* \"Auctionator.sol\":1707:1755  block.timestamp > auctionEndTime || auctionEnded */\n      dup1\n      tag_103\n      jumpi\n      pop\n        /* \"Auctionator.sol\":1743:1755  auctionEnded */\n      0x02\n      0x14\n      swap1\n      sload\n      swap1\n      0x0100\n      exp\n      swap1\n      div\n      0xff\n      and\n        /* \"Auctionator.sol\":1707:1755  block.timestamp > auctionEndTime || auctionEnded */\n    tag_103:\n        /* \"Auctionator.sol\":1699:1780  require(block.timestamp > auctionEndTime || auctionEnded, \"Auction still active\") */\n      tag_104\n      jumpi\n      mload(0x40)\n      0x08c379a000000000000000000000000000000000000000000000000000000000\n      dup2\n      mstore\n      0x04\n      add\n      tag_105\n      swap1\n      tag_106\n      jump\t// in\n    tag_105:\n      mload(0x40)\n      dup1\n      swap2\n      sub\n      swap1\n      revert\n    tag_104:\n        /* \"Auctionator.sol\":4275:4287  auctionEnded */\n      0x02\n      0x14\n      swap1\n      sload\n      swap1\n      0x0100\n      exp\n      swap1\n      div\n      0xff\n      and\n        /* \"Auctionator.sol\":4274:4287  !auctionEnded */\n      iszero\n        /* \"Auctionator.sol\":4266:4317  require(!auctionEnded, \"Auction already concluded\") */\n      tag_108\n      jumpi\n      mload(0x40)\n      0x08c379a000000000000000000000000000000000000000000000000000000000\n      dup2\n      mstore\n      0x04\n      add\n      tag_109\n      swap1\n      tag_110\n      jump\t// in\n    tag_109:\n      mload(0x40)\n      dup1\n      swap2\n      sub\n      swap1\n      revert\n    tag_108:\n        /* \"Auctionator.sol\":4353:4357  true */\n      0x01\n        /* \"Auctionator.sol\":4338:4350  auctionEnded */\n      0x02\n      0x14\n        /* \"Auctionator.sol\":4338:4357  auctionEnded = true */\n      0x0100\n      exp\n      dup2\n      sload\n      dup2\n      0xff\n      mul\n      not\n      and\n      swap1\n      dup4\n      iszero\n      iszero\n      mul\n      or\n      swap1\n      sstore\n      pop\n        /* \"Auctionator.sol\":4387:4388  0 */\n      0x00\n        /* \"Auctionator.sol\":4374:4384  highestBid */\n      sload(0x01)\n        /* \"Auctionator.sol\":4374:4388  highestBid > 0 */\n      gt\n        /* \"Auctionator.sol\":4370:4606  if (highestBid > 0) {... */\n      iszero\n      tag_111\n      jumpi\n        /* \"Auctionator.sol\":4405:4423  uint256 commission */\n      0x00\n        /* \"Auctionator.sol\":4462:4465  100 */\n      0x64\n        /* \"Auctionator.sol\":597:598  2 */\n      0x02\n        /* \"Auctionator.sol\":4427:4437  highestBid */\n      sload(0x01)\n        /* \"Auctionator.sol\":4427:4458  highestBid * COMMISSION_PERCENT */\n      tag_112\n      swap2\n      swap1\n      tag_113\n      jump\t// in\n    tag_112:\n        /* \"Auctionator.sol\":4426:4465  (highestBid * COMMISSION_PERCENT) / 100 */\n      tag_114\n      swap2\n      swap1\n      tag_115\n      jump\t// in\n    tag_114:\n        /* \"Auctionator.sol\":4405:4465  uint256 commission = (highestBid * COMMISSION_PERCENT) / 100 */\n      swap1\n      pop\n        /* \"Auctionator.sol\":4480:4501  uint256 ownerProceeds */\n      0x00\n        /* \"Auctionator.sol\":4517:4527  commission */\n      dup2\n        /* \"Auctionator.sol\":4504:4514  highestBid */\n      sload(0x01)\n        /* \"Auctionator.sol\":4504:4527  highestBid - commission */\n      tag_116\n      swap2\n      swap1\n      tag_117\n      jump\t// in\n    tag_116:\n        /* \"Auctionator.sol\":4480:4527  uint256 ownerProceeds = highestBid - commission */\n      swap1\n      pop\n        /* \"Auctionator.sol\":4564:4569  owner */\n      immutable(\"0x13600b294191fc92924bb3ce4b969c1e7e2bab8f4c93c3fc6d0a51733df3c060\")\n        /* \"Auctionator.sol\":4556:4579  payable(owner).transfer */\n      0xffffffffffffffffffffffffffffffffffffffff\n      and\n        /* \"Auctionator.sol\":4556:4594  payable(owner).transfer(ownerProceeds) */\n      0x08fc\n        /* \"Auctionator.sol\":4580:4593  ownerProceeds */\n      dup3\n        /* \"Auctionator.sol\":4556:4594  payable(owner).transfer(ownerProceeds) */\n      swap1\n      dup2\n      iszero\n      mul\n      swap1\n      mload(0x40)\n      0x00\n      mload(0x40)\n      dup1\n      dup4\n      sub\n      dup2\n      dup6\n      dup9\n      dup9\n      call\n      swap4\n      pop\n      pop\n      pop\n      pop\n      iszero\n      dup1\n      iszero\n      tag_119\n      jumpi\n      returndatacopy(0x00, 0x00, returndatasize)\n      revert(0x00, returndatasize)\n    tag_119:\n      pop\n        /* \"Auctionator.sol\":4390:4606  {... */\n      pop\n      pop\n        /* \"Auctionator.sol\":4370:4606  if (highestBid > 0) {... */\n    tag_111:\n        /* \"Auctionator.sol\":4640:4653  highestBidder */\n      0x02\n      0x00\n      swap1\n      sload\n      swap1\n      0x0100\n      exp\n      swap1\n      div\n      0xffffffffffffffffffffffffffffffffffffffff\n      and\n        /* \"Auctionator.sol\":4623:4666  AuctionConcluded(highestBidder, highestBid) */\n      0xffffffffffffffffffffffffffffffffffffffff\n      and\n      0xb76f1dfdec2aecd1c5f01191cc10a8bad0dd5c2280438ccecc3fcd170533b42c\n        /* \"Auctionator.sol\":4655:4665  highestBid */\n      sload(0x01)\n        /* \"Auctionator.sol\":4623:4666  AuctionConcluded(highestBidder, highestBid) */\n      mload(0x40)\n      tag_120\n      swap2\n      swap1\n      tag_43\n      jump\t// in\n    tag_120:\n      mload(0x40)\n      dup1\n      swap2\n      sub\n      swap1\n      log2\n        /* \"Auctionator.sol\":4202:4674  function concludeAuction() external whenAuctionEnded {... */\n      jump\t// out\n        /* \"Auctionator.sol\":5482:6375  function withdrawPartial(uint256 amountToWithdraw) external whenAuctionActive {... */\n    tag_33:\n        /* \"Auctionator.sol\":1525:1539  auctionEndTime */\n      sload(0x00)\n        /* \"Auctionator.sol\":1506:1521  block.timestamp */\n      timestamp\n        /* \"Auctionator.sol\":1506:1539  block.timestamp <= auctionEndTime */\n      gt\n      iszero\n        /* \"Auctionator.sol\":1498:1565  require(block.timestamp <= auctionEndTime, \"Auction has concluded\") */\n      tag_122\n      jumpi\n      mload(0x40)\n      0x08c379a000000000000000000000000000000000000000000000000000000000\n      dup2\n      mstore\n      0x04\n      add\n      tag_123\n      swap1\n      tag_124\n      jump\t// in\n    tag_123:\n      mload(0x40)\n      dup1\n      swap2\n      sub\n      swap1\n      revert\n    tag_122:\n        /* \"Auctionator.sol\":1585:1597  auctionEnded */\n      0x02\n      0x14\n      swap1\n      sload\n      swap1\n      0x0100\n      exp\n      swap1\n      div\n      0xff\n      and\n        /* \"Auctionator.sol\":1584:1597  !auctionEnded */\n      iszero\n        /* \"Auctionator.sol\":1576:1632  require(!auctionEnded, \"Auction was manually concluded\") */\n      tag_125\n      jumpi\n      mload(0x40)\n      0x08c379a000000000000000000000000000000000000000000000000000000000\n      dup2\n      mstore\n      0x04\n      add\n      tag_126\n      swap1\n      tag_127\n      jump\t// in\n    tag_126:\n      mload(0x40)\n      dup1\n      swap2\n      sub\n      swap1\n      revert\n    tag_125:\n        /* \"Auctionator.sol\":5598:5599  0 */\n      0x00\n        /* \"Auctionator.sol\":5579:5595  amountToWithdraw */\n      dup2\n        /* \"Auctionator.sol\":5579:5599  amountToWithdraw > 0 */\n      gt\n        /* \"Auctionator.sol\":5571:5638  require(amountToWithdraw > 0, \"Withdrawal amount must be positive\") */\n      tag_129\n      jumpi\n      mload(0x40)\n      0x08c379a000000000000000000000000000000000000000000000000000000000\n      dup2\n      mstore\n      0x04\n      add\n      tag_130\n      swap1\n      tag_131\n      jump\t// in\n    tag_130:\n      mload(0x40)\n      dup1\n      swap2\n      sub\n      swap1\n      revert\n    tag_129:\n        /* \"Auctionator.sol\":5651:5667  uint256 bidIndex */\n      0x00\n        /* \"Auctionator.sol\":5670:5681  _bidIndices */\n      0x04\n        /* \"Auctionator.sol\":5670:5693  _bidIndices[msg.sender] */\n      0x00\n        /* \"Auctionator.sol\":5682:5692  msg.sender */\n      caller\n        /* \"Auctionator.sol\":5670:5693  _bidIndices[msg.sender] */\n      0xffffffffffffffffffffffffffffffffffffffff\n      and\n      0xffffffffffffffffffffffffffffffffffffffff\n      and\n      dup2\n      mstore\n      0x20\n      add\n      swap1\n      dup2\n      mstore\n      0x20\n      add\n      0x00\n      keccak256\n      sload\n        /* \"Auctionator.sol\":5651:5693  uint256 bidIndex = _bidIndices[msg.sender] */\n      swap1\n      pop\n        /* \"Auctionator.sol\":5723:5724  0 */\n      0x00\n        /* \"Auctionator.sol\":5712:5720  bidIndex */\n      dup2\n        /* \"Auctionator.sol\":5712:5724  bidIndex > 0 */\n      gt\n        /* \"Auctionator.sol\":5704:5753  require(bidIndex > 0, \"No bids placed by caller\") */\n      tag_132\n      jumpi\n      mload(0x40)\n      0x08c379a000000000000000000000000000000000000000000000000000000000\n      dup2\n      mstore\n      0x04\n      add\n      tag_133\n      swap1\n      tag_134\n      jump\t// in\n    tag_133:\n      mload(0x40)\n      dup1\n      swap2\n      sub\n      swap1\n      revert\n    tag_132:\n        /* \"Auctionator.sol\":5766:5785  Bid storage userBid */\n      0x00\n        /* \"Auctionator.sol\":5788:5798  bidHistory */\n      0x03\n        /* \"Auctionator.sol\":5810:5811  1 */\n      0x01\n        /* \"Auctionator.sol\":5799:5807  bidIndex */\n      dup4\n        /* \"Auctionator.sol\":5799:5811  bidIndex - 1 */\n      tag_135\n      swap2\n      swap1\n      tag_117\n      jump\t// in\n    tag_135:\n        /* \"Auctionator.sol\":5788:5812  bidHistory[bidIndex - 1] */\n      dup2\n      sload\n      dup2\n      lt\n      tag_136\n      jumpi\n      tag_137\n      tag_138\n      jump\t// in\n    tag_137:\n    tag_136:\n      swap1\n      0x00\n      mstore\n      keccak256(0x00, 0x20)\n      swap1\n      0x03\n      mul\n      add\n        /* \"Auctionator.sol\":5766:5812  Bid storage userBid = bidHistory[bidIndex - 1] */\n      swap1\n      pop\n        /* \"Auctionator.sol\":5833:5859  uint256 minRequiredBalance */\n      0x00\n        /* \"Auctionator.sol\":5877:5890  highestBidder */\n      0x02\n      0x00\n      swap1\n      sload\n      swap1\n      0x0100\n      exp\n      swap1\n      div\n      0xffffffffffffffffffffffffffffffffffffffff\n      and\n        /* \"Auctionator.sol\":5863:5890  msg.sender == highestBidder */\n      0xffffffffffffffffffffffffffffffffffffffff\n      and\n        /* \"Auctionator.sol\":5863:5873  msg.sender */\n      caller\n        /* \"Auctionator.sol\":5863:5890  msg.sender == highestBidder */\n      0xffffffffffffffffffffffffffffffffffffffff\n      and\n      eq\n        /* \"Auctionator.sol\":5862:5908  (msg.sender == highestBidder) ? highestBid : 0 */\n      tag_140\n      jumpi\n        /* \"Auctionator.sol\":5907:5908  0 */\n      0x00\n        /* \"Auctionator.sol\":5862:5908  (msg.sender == highestBidder) ? highestBid : 0 */\n      jump(tag_141)\n    tag_140:\n        /* \"Auctionator.sol\":5894:5904  highestBid */\n      sload(0x01)\n        /* \"Auctionator.sol\":5862:5908  (msg.sender == highestBidder) ? highestBid : 0 */\n    tag_141:\n        /* \"Auctionator.sol\":5833:5908  uint256 minRequiredBalance = (msg.sender == highestBidder) ? highestBid : 0 */\n      swap1\n      pop\n        /* \"Auctionator.sol\":5968:5986  minRequiredBalance */\n      dup1\n        /* \"Auctionator.sol\":5951:5958  userBid */\n      dup3\n        /* \"Auctionator.sol\":5951:5965  userBid.amount */\n      0x01\n      add\n      sload\n        /* \"Auctionator.sol\":5951:5986  userBid.amount > minRequiredBalance */\n      gt\n        /* \"Auctionator.sol\":5929:6039  require(... */\n      tag_142\n      jumpi\n      mload(0x40)\n      0x08c379a000000000000000000000000000000000000000000000000000000000\n      dup2\n      mstore\n      0x04\n      add\n      tag_143\n      swap1\n      tag_144\n      jump\t// in\n    tag_143:\n      mload(0x40)\n      dup1\n      swap2\n      sub\n      swap1\n      revert\n    tag_142:\n        /* \"Auctionator.sol\":6119:6137  minRequiredBalance */\n      dup1\n        /* \"Auctionator.sol\":6099:6115  amountToWithdraw */\n      dup5\n        /* \"Auctionator.sol\":6082:6089  userBid */\n      dup4\n        /* \"Auctionator.sol\":6082:6096  userBid.amount */\n      0x01\n      add\n      sload\n        /* \"Auctionator.sol\":6082:6115  userBid.amount - amountToWithdraw */\n      tag_145\n      swap2\n      swap1\n      tag_117\n      jump\t// in\n    tag_145:\n        /* \"Auctionator.sol\":6082:6137  userBid.amount - amountToWithdraw >= minRequiredBalance */\n      lt\n      iszero\n        /* \"Auctionator.sol\":6060:6200  require(... */\n      tag_146\n      jumpi\n      mload(0x40)\n      0x08c379a000000000000000000000000000000000000000000000000000000000\n      dup2\n      mstore\n      0x04\n      add\n      tag_147\n      swap1\n      tag_148\n      jump\t// in\n    tag_147:\n      mload(0x40)\n      dup1\n      swap2\n      sub\n      swap1\n      revert\n    tag_146:\n        /* \"Auctionator.sol\":6231:6247  amountToWithdraw */\n      dup4\n        /* \"Auctionator.sol\":6213:6220  userBid */\n      dup3\n        /* \"Auctionator.sol\":6213:6227  userBid.amount */\n      0x01\n      add\n      0x00\n        /* \"Auctionator.sol\":6213:6247  userBid.amount -= amountToWithdraw */\n      dup3\n      dup3\n      sload\n      tag_149\n      swap2\n      swap1\n      tag_117\n      jump\t// in\n    tag_149:\n      swap3\n      pop\n      pop\n      dup2\n      swap1\n      sstore\n      pop\n        /* \"Auctionator.sol\":6266:6276  msg.sender */\n      caller\n        /* \"Auctionator.sol\":6258:6286  payable(msg.sender).transfer */\n      0xffffffffffffffffffffffffffffffffffffffff\n      and\n        /* \"Auctionator.sol\":6258:6304  payable(msg.sender).transfer(amountToWithdraw) */\n      0x08fc\n        /* \"Auctionator.sol\":6287:6303  amountToWithdraw */\n      dup6\n        /* \"Auctionator.sol\":6258:6304  payable(msg.sender).transfer(amountToWithdraw) */\n      swap1\n      dup2\n      iszero\n      mul\n      swap1\n      mload(0x40)\n      0x00\n      mload(0x40)\n      dup1\n      dup4\n      sub\n      dup2\n      dup6\n      dup9\n      dup9\n      call\n      swap4\n      pop\n      pop\n      pop\n      pop\n      iszero\n      dup1\n      iszero\n      tag_151\n      jumpi\n      returndatacopy(0x00, 0x00, returndatasize)\n      revert(0x00, returndatasize)\n    tag_151:\n      pop\n        /* \"Auctionator.sol\":6338:6348  msg.sender */\n      caller\n        /* \"Auctionator.sol\":6320:6367  PartialWithdrawal(msg.sender, amountToWithdraw) */\n      0xffffffffffffffffffffffffffffffffffffffff\n      and\n      0x8468f8fa62fc679cf8165eab7662a1fa977705b501dd787e9ec07884885425f1\n        /* \"Auctionator.sol\":6350:6366  amountToWithdraw */\n      dup6\n        /* \"Auctionator.sol\":6320:6367  PartialWithdrawal(msg.sender, amountToWithdraw) */\n      mload(0x40)\n      tag_152\n      swap2\n      swap1\n      tag_43\n      jump\t// in\n    tag_152:\n      mload(0x40)\n      dup1\n      swap2\n      sub\n      swap1\n      log2\n        /* \"Auctionator.sol\":5560:6375  {... */\n      pop\n      pop\n      pop\n        /* \"Auctionator.sol\":5482:6375  function withdrawPartial(uint256 amountToWithdraw) external whenAuctionActive {... */\n      pop\n      jump\t// out\n        /* \"Auctionator.sol\":6537:6745  function getWinnerInfo() external view returns (address winnerAddress, uint256 winningAmount) {... */\n    tag_36:\n        /* \"Auctionator.sol\":6585:6606  address winnerAddress */\n      0x00\n        /* \"Auctionator.sol\":6608:6629  uint256 winningAmount */\n      0x00\n        /* \"Auctionator.sol\":6650:6662  auctionEnded */\n      0x02\n      0x14\n      swap1\n      sload\n      swap1\n      0x0100\n      exp\n      swap1\n      div\n      0xff\n      and\n        /* \"Auctionator.sol\":6642:6692  require(auctionEnded, \"Auction not yet concluded\") */\n      tag_154\n      jumpi\n      mload(0x40)\n      0x08c379a000000000000000000000000000000000000000000000000000000000\n      dup2\n      mstore\n      0x04\n      add\n      tag_155\n      swap1\n      tag_156\n      jump\t// in\n    tag_155:\n      mload(0x40)\n      dup1\n      swap2\n      sub\n      swap1\n      revert\n    tag_154:\n        /* \"Auctionator.sol\":6711:6724  highestBidder */\n      0x02\n      0x00\n      swap1\n      sload\n      swap1\n      0x0100\n      exp\n      swap1\n      div\n      0xffffffffffffffffffffffffffffffffffffffff\n      and\n        /* \"Auctionator.sol\":6726:6736  highestBid */\n      sload(0x01)\n        /* \"Auctionator.sol\":6703:6737  return (highestBidder, highestBid) */\n      swap2\n      pop\n      swap2\n      pop\n        /* \"Auctionator.sol\":6537:6745  function getWinnerInfo() external view returns (address winnerAddress, uint256 winningAmount) {... */\n      swap1\n      swap2\n      jump\t// out\n        /* \"Auctionator.sol\":493:545  uint256 public constant MIN_BID_INCREASE_PERCENT = 5 */\n    tag_41:\n        /* \"Auctionator.sol\":544:545  5 */\n      0x05\n        /* \"Auctionator.sol\":493:545  uint256 public constant MIN_BID_INCREASE_PERCENT = 5 */\n      dup2\n      jump\t// out\n        /* \"Auctionator.sol\":292:321  uint256 public auctionEndTime */\n    tag_46:\n      sload(0x00)\n      dup2\n      jump\t// out\n        /* \"Auctionator.sol\":605:660  uint256 public constant EXTENSION_DURATION = 10 minutes */\n    tag_50:\n        /* \"Auctionator.sol\":650:660  10 minutes */\n      0x0258\n        /* \"Auctionator.sol\":605:660  uint256 public constant EXTENSION_DURATION = 10 minutes */\n      dup2\n      jump\t// out\n        /* \"Auctionator.sol\":6854:6952  function getBidHistory() external view returns (Bid[] memory) {... */\n    tag_54:\n        /* \"Auctionator.sol\":6902:6914  Bid[] memory */\n      0x60\n        /* \"Auctionator.sol\":6934:6944  bidHistory */\n      0x03\n        /* \"Auctionator.sol\":6927:6944  return bidHistory */\n      dup1\n      sload\n      dup1\n      0x20\n      mul\n      0x20\n      add\n      mload(0x40)\n      swap1\n      dup2\n      add\n      0x40\n      mstore\n      dup1\n      swap3\n      swap2\n      swap1\n      dup2\n      dup2\n      mstore\n      0x20\n      add\n      0x00\n      swap1\n    tag_158:\n      dup3\n      dup3\n      lt\n      iszero\n      tag_159\n      jumpi\n      dup4\n      dup3\n      swap1\n      0x00\n      mstore\n      keccak256(0x00, 0x20)\n      swap1\n      0x03\n      mul\n      add\n      mload(0x40)\n      dup1\n      0x60\n      add\n      0x40\n      mstore\n      swap1\n      dup2\n      0x00\n      dup3\n      add\n      0x00\n      swap1\n      sload\n      swap1\n      0x0100\n      exp\n      swap1\n      div\n      0xffffffffffffffffffffffffffffffffffffffff\n      and\n      0xffffffffffffffffffffffffffffffffffffffff\n      and\n      0xffffffffffffffffffffffffffffffffffffffff\n      and\n      dup2\n      mstore\n      0x20\n      add\n      0x01\n      dup3\n      add\n      sload\n      dup2\n      mstore\n      0x20\n      add\n      0x02\n      dup3\n      add\n      0x00\n      swap1\n      sload\n      swap1\n      0x0100\n      exp\n      swap1\n      div\n      0xff\n      and\n      iszero\n      iszero\n      iszero\n      iszero\n      dup2\n      mstore\n      pop\n      pop\n      dup2\n      mstore\n      0x20\n      add\n      swap1\n      0x01\n      add\n      swap1\n      jump(tag_158)\n    tag_159:\n      pop\n      pop\n      pop\n      pop\n      swap1\n      pop\n        /* \"Auctionator.sol\":6854:6952  function getBidHistory() external view returns (Bid[] memory) {... */\n      swap1\n      jump\t// out\n        /* \"Auctionator.sol\":442:466  bool public auctionEnded */\n    tag_59:\n      0x02\n      0x14\n      swap1\n      sload\n      swap1\n      0x0100\n      exp\n      swap1\n      div\n      0xff\n      and\n      dup2\n      jump\t// out\n        /* \"Auctionator.sol\":255:285  address public immutable owner */\n    tag_64:\n      immutable(\"0x13600b294191fc92924bb3ce4b969c1e7e2bab8f4c93c3fc6d0a51733df3c060\")\n      dup2\n      jump\t// out\n        /* \"Auctionator.sol\":407:435  address public highestBidder */\n    tag_69:\n      0x02\n      0x00\n      swap1\n      sload\n      swap1\n      0x0100\n      exp\n      swap1\n      div\n      0xffffffffffffffffffffffffffffffffffffffff\n      and\n      dup2\n      jump\t// out\n        /* \"Auctionator.sol\":552:598  uint256 public constant COMMISSION_PERCENT = 2 */\n    tag_73:\n        /* \"Auctionator.sol\":597:598  2 */\n      0x02\n        /* \"Auctionator.sol\":552:598  uint256 public constant COMMISSION_PERCENT = 2 */\n      dup2\n      jump\t// out\n        /* \"Auctionator.sol\":328:368  uint256 public immutable initialDuration */\n    tag_77:\n      immutable(\"0xe4b1702d9298fee62dfeccc57d322a463ad55ca201256d01f62b45b2e1c21c10\")\n      dup2\n      jump\t// out\n        /* \"Auctionator.sol\":375:400  uint256 public highestBid */\n    tag_81:\n      sload(0x01)\n      dup2\n      jump\t// out\n        /* \"Auctionator.sol\":4804:5291  function withdrawFull() external whenAuctionEnded onlyNonWinner {... */\n    tag_85:\n        /* \"Auctionator.sol\":1725:1739  auctionEndTime */\n      sload(0x00)\n        /* \"Auctionator.sol\":1707:1722  block.timestamp */\n      timestamp\n        /* \"Auctionator.sol\":1707:1739  block.timestamp > auctionEndTime */\n      gt\n        /* \"Auctionator.sol\":1707:1755  block.timestamp > auctionEndTime || auctionEnded */\n      dup1\n      tag_162\n      jumpi\n      pop\n        /* \"Auctionator.sol\":1743:1755  auctionEnded */\n      0x02\n      0x14\n      swap1\n      sload\n      swap1\n      0x0100\n      exp\n      swap1\n      div\n      0xff\n      and\n        /* \"Auctionator.sol\":1707:1755  block.timestamp > auctionEndTime || auctionEnded */\n    tag_162:\n        /* \"Auctionator.sol\":1699:1780  require(block.timestamp > auctionEndTime || auctionEnded, \"Auction still active\") */\n      tag_163\n      jumpi\n      mload(0x40)\n      0x08c379a000000000000000000000000000000000000000000000000000000000\n      dup2\n      mstore\n      0x04\n      add\n      tag_164\n      swap1\n      tag_106\n      jump\t// in\n    tag_164:\n      mload(0x40)\n      dup1\n      swap2\n      sub\n      swap1\n      revert\n    tag_163:\n        /* \"Auctionator.sol\":1866:1879  highestBidder */\n      0x02\n      0x00\n      swap1\n      sload\n      swap1\n      0x0100\n      exp\n      swap1\n      div\n      0xffffffffffffffffffffffffffffffffffffffff\n      and\n        /* \"Auctionator.sol\":1852:1879  msg.sender != highestBidder */\n      0xffffffffffffffffffffffffffffffffffffffff\n      and\n        /* \"Auctionator.sol\":1852:1862  msg.sender */\n      caller\n        /* \"Auctionator.sol\":1852:1879  msg.sender != highestBidder */\n      0xffffffffffffffffffffffffffffffffffffffff\n      and\n      sub\n        /* \"Auctionator.sol\":1844:1917  require(msg.sender != highestBidder, \"Winner cannot perform this action\") */\n      tag_166\n      jumpi\n      mload(0x40)\n      0x08c379a000000000000000000000000000000000000000000000000000000000\n      dup2\n      mstore\n      0x04\n      add\n      tag_167\n      swap1\n      tag_168\n      jump\t// in\n    tag_167:\n      mload(0x40)\n      dup1\n      swap2\n      sub\n      swap1\n      revert\n    tag_166:\n        /* \"Auctionator.sol\":4879:4895  uint256 bidIndex */\n      0x00\n        /* \"Auctionator.sol\":4898:4909  _bidIndices */\n      0x04\n        /* \"Auctionator.sol\":4898:4921  _bidIndices[msg.sender] */\n      0x00\n        /* \"Auctionator.sol\":4910:4920  msg.sender */\n      caller\n        /* \"Auctionator.sol\":4898:4921  _bidIndices[msg.sender] */\n      0xffffffffffffffffffffffffffffffffffffffff\n      and\n      0xffffffffffffffffffffffffffffffffffffffff\n      and\n      dup2\n      mstore\n      0x20\n      add\n      swap1\n      dup2\n      mstore\n      0x20\n      add\n      0x00\n      keccak256\n      sload\n        /* \"Auctionator.sol\":4879:4921  uint256 bidIndex = _bidIndices[msg.sender] */\n      swap1\n      pop\n        /* \"Auctionator.sol\":4951:4952  0 */\n      0x00\n        /* \"Auctionator.sol\":4940:4948  bidIndex */\n      dup2\n        /* \"Auctionator.sol\":4940:4952  bidIndex > 0 */\n      gt\n        /* \"Auctionator.sol\":4932:4981  require(bidIndex > 0, \"No bids placed by caller\") */\n      tag_170\n      jumpi\n      mload(0x40)\n      0x08c379a000000000000000000000000000000000000000000000000000000000\n      dup2\n      mstore\n      0x04\n      add\n      tag_171\n      swap1\n      tag_134\n      jump\t// in\n    tag_171:\n      mload(0x40)\n      dup1\n      swap2\n      sub\n      swap1\n      revert\n    tag_170:\n        /* \"Auctionator.sol\":4994:5013  Bid storage userBid */\n      0x00\n        /* \"Auctionator.sol\":5016:5026  bidHistory */\n      0x03\n        /* \"Auctionator.sol\":5038:5039  1 */\n      0x01\n        /* \"Auctionator.sol\":5027:5035  bidIndex */\n      dup4\n        /* \"Auctionator.sol\":5027:5039  bidIndex - 1 */\n      tag_172\n      swap2\n      swap1\n      tag_117\n      jump\t// in\n    tag_172:\n        /* \"Auctionator.sol\":5016:5040  bidHistory[bidIndex - 1] */\n      dup2\n      sload\n      dup2\n      lt\n      tag_173\n      jumpi\n      tag_174\n      tag_138\n      jump\t// in\n    tag_174:\n    tag_173:\n      swap1\n      0x00\n      mstore\n      keccak256(0x00, 0x20)\n      swap1\n      0x03\n      mul\n      add\n        /* \"Auctionator.sol\":4994:5040  Bid storage userBid = bidHistory[bidIndex - 1] */\n      swap1\n      pop\n        /* \"Auctionator.sol\":5060:5067  userBid */\n      dup1\n        /* \"Auctionator.sol\":5060:5077  userBid.withdrawn */\n      0x02\n      add\n      0x00\n      swap1\n      sload\n      swap1\n      0x0100\n      exp\n      swap1\n      div\n      0xff\n      and\n        /* \"Auctionator.sol\":5059:5077  !userBid.withdrawn */\n      iszero\n        /* \"Auctionator.sol\":5051:5105  require(!userBid.withdrawn, \"Funds already withdrawn\") */\n      tag_176\n      jumpi\n      mload(0x40)\n      0x08c379a000000000000000000000000000000000000000000000000000000000\n      dup2\n      mstore\n      0x04\n      add\n      tag_177\n      swap1\n      tag_178\n      jump\t// in\n    tag_177:\n      mload(0x40)\n      dup1\n      swap2\n      sub\n      swap1\n      revert\n    tag_176:\n        /* \"Auctionator.sol\":5138:5142  true */\n      0x01\n        /* \"Auctionator.sol\":5118:5125  userBid */\n      dup2\n        /* \"Auctionator.sol\":5118:5135  userBid.withdrawn */\n      0x02\n      add\n      0x00\n        /* \"Auctionator.sol\":5118:5142  userBid.withdrawn = true */\n      0x0100\n      exp\n      dup2\n      sload\n      dup2\n      0xff\n      mul\n      not\n      and\n      swap1\n      dup4\n      iszero\n      iszero\n      mul\n      or\n      swap1\n      sstore\n      pop\n        /* \"Auctionator.sol\":5153:5167  uint256 amount */\n      0x00\n        /* \"Auctionator.sol\":5170:5177  userBid */\n      dup2\n        /* \"Auctionator.sol\":5170:5184  userBid.amount */\n      0x01\n      add\n      sload\n        /* \"Auctionator.sol\":5153:5184  uint256 amount = userBid.amount */\n      swap1\n      pop\n        /* \"Auctionator.sol\":5205:5215  msg.sender */\n      caller\n        /* \"Auctionator.sol\":5197:5225  payable(msg.sender).transfer */\n      0xffffffffffffffffffffffffffffffffffffffff\n      and\n        /* \"Auctionator.sol\":5197:5233  payable(msg.sender).transfer(amount) */\n      0x08fc\n        /* \"Auctionator.sol\":5226:5232  amount */\n      dup3\n        /* \"Auctionator.sol\":5197:5233  payable(msg.sender).transfer(amount) */\n      swap1\n      dup2\n      iszero\n      mul\n      swap1\n      mload(0x40)\n      0x00\n      mload(0x40)\n      dup1\n      dup4\n      sub\n      dup2\n      dup6\n      dup9\n      dup9\n      call\n      swap4\n      pop\n      pop\n      pop\n      pop\n      iszero\n      dup1\n      iszero\n      tag_180\n      jumpi\n      returndatacopy(0x00, 0x00, returndatasize)\n      revert(0x00, returndatasize)\n    tag_180:\n      pop\n        /* \"Auctionator.sol\":5264:5274  msg.sender */\n      caller\n        /* \"Auctionator.sol\":5249:5283  FullWithdrawal(msg.sender, amount) */\n      0xffffffffffffffffffffffffffffffffffffffff\n      and\n      0x779c86999fb727ca861d0288aa11ed4104347721c571e4f0da5172afb607d885\n        /* \"Auctionator.sol\":5276:5282  amount */\n      dup3\n        /* \"Auctionator.sol\":5249:5283  FullWithdrawal(msg.sender, amount) */\n      mload(0x40)\n      tag_181\n      swap2\n      swap1\n      tag_43\n      jump\t// in\n    tag_181:\n      mload(0x40)\n      dup1\n      swap2\n      sub\n      swap1\n      log2\n        /* \"Auctionator.sol\":4868:5291  {... */\n      pop\n      pop\n      pop\n        /* \"Auctionator.sol\":4804:5291  function withdrawFull() external whenAuctionEnded onlyNonWinner {... */\n      jump\t// out\n        /* \"Auctionator.sol\":667:723  uint256 public constant EXTENSION_THRESHOLD = 10 minutes */\n    tag_88:\n        /* \"Auctionator.sol\":713:723  10 minutes */\n      0x0258\n        /* \"Auctionator.sol\":667:723  uint256 public constant EXTENSION_THRESHOLD = 10 minutes */\n      dup2\n      jump\t// out\n        /* \"Auctionator.sol\":874:897  Bid[] public bidHistory */\n    tag_93:\n      0x03\n      dup2\n      dup2\n      sload\n      dup2\n      lt\n      tag_182\n      jumpi\n      0x00\n      dup1\n      revert\n    tag_182:\n      swap1\n      0x00\n      mstore\n      keccak256(0x00, 0x20)\n      swap1\n      0x03\n      mul\n      add\n      0x00\n      swap2\n      pop\n      swap1\n      pop\n      dup1\n      0x00\n      add\n      0x00\n      swap1\n      sload\n      swap1\n      0x0100\n      exp\n      swap1\n      div\n      0xffffffffffffffffffffffffffffffffffffffff\n      and\n      swap1\n      dup1\n      0x01\n      add\n      sload\n      swap1\n      dup1\n      0x02\n      add\n      0x00\n      swap1\n      sload\n      swap1\n      0x0100\n      exp\n      swap1\n      div\n      0xff\n      and\n      swap1\n      pop\n      dup4\n      jump\t// out\n        /* \"Auctionator.sol\":2629:4050  function placeBid() external payable whenAuctionActive {... */\n    tag_97:\n        /* \"Auctionator.sol\":1525:1539  auctionEndTime */\n      sload(0x00)\n        /* \"Auctionator.sol\":1506:1521  block.timestamp */\n      timestamp\n        /* \"Auctionator.sol\":1506:1539  block.timestamp <= auctionEndTime */\n      gt\n      iszero\n        /* \"Auctionator.sol\":1498:1565  require(block.timestamp <= auctionEndTime, \"Auction has concluded\") */\n      tag_185\n      jumpi\n      mload(0x40)\n      0x08c379a000000000000000000000000000000000000000000000000000000000\n      dup2\n      mstore\n      0x04\n      add\n      tag_186\n      swap1\n      tag_124\n      jump\t// in\n    tag_186:\n      mload(0x40)\n      dup1\n      swap2\n      sub\n      swap1\n      revert\n    tag_185:\n        /* \"Auctionator.sol\":1585:1597  auctionEnded */\n      0x02\n      0x14\n      swap1\n      sload\n      swap1\n      0x0100\n      exp\n      swap1\n      div\n      0xff\n      and\n        /* \"Auctionator.sol\":1584:1597  !auctionEnded */\n      iszero\n        /* \"Auctionator.sol\":1576:1632  require(!auctionEnded, \"Auction was manually concluded\") */\n      tag_187\n      jumpi\n      mload(0x40)\n      0x08c379a000000000000000000000000000000000000000000000000000000000\n      dup2\n      mstore\n      0x04\n      add\n      tag_188\n      swap1\n      tag_127\n      jump\t// in\n    tag_188:\n      mload(0x40)\n      dup1\n      swap2\n      sub\n      swap1\n      revert\n    tag_187:\n        /* \"Auctionator.sol\":2715:2716  0 */\n      0x00\n        /* \"Auctionator.sol\":2703:2712  msg.value */\n      callvalue\n        /* \"Auctionator.sol\":2703:2716  msg.value > 0 */\n      gt\n        /* \"Auctionator.sol\":2695:2747  require(msg.value > 0, \"Bid value must be positive\") */\n      tag_190\n      jumpi\n      mload(0x40)\n      0x08c379a000000000000000000000000000000000000000000000000000000000\n      dup2\n      mstore\n      0x04\n      add\n      tag_191\n      swap1\n      tag_192\n      jump\t// in\n    tag_191:\n      mload(0x40)\n      dup1\n      swap2\n      sub\n      swap1\n      revert\n    tag_190:\n        /* \"Auctionator.sol\":2803:2825  uint256 minRequiredBid */\n      0x00\n        /* \"Auctionator.sol\":2882:2885  100 */\n      0x64\n        /* \"Auctionator.sol\":544:545  5 */\n      0x05\n        /* \"Auctionator.sol\":2842:2852  highestBid */\n      sload(0x01)\n        /* \"Auctionator.sol\":2842:2879  highestBid * MIN_BID_INCREASE_PERCENT */\n      tag_193\n      swap2\n      swap1\n      tag_113\n      jump\t// in\n    tag_193:\n        /* \"Auctionator.sol\":2842:2885  highestBid * MIN_BID_INCREASE_PERCENT / 100 */\n      tag_194\n      swap2\n      swap1\n      tag_115\n      jump\t// in\n    tag_194:\n        /* \"Auctionator.sol\":2828:2838  highestBid */\n      sload(0x01)\n        /* \"Auctionator.sol\":2828:2886  highestBid + (highestBid * MIN_BID_INCREASE_PERCENT / 100) */\n      tag_195\n      swap2\n      swap1\n      tag_196\n      jump\t// in\n    tag_195:\n        /* \"Auctionator.sol\":2803:2886  uint256 minRequiredBid = highestBid + (highestBid * MIN_BID_INCREASE_PERCENT / 100) */\n      swap1\n      pop\n        /* \"Auctionator.sol\":2962:2963  0 */\n      0x00\n        /* \"Auctionator.sol\":2948:2958  highestBid */\n      sload(0x01)\n        /* \"Auctionator.sol\":2948:2963  highestBid == 0 */\n      sub\n        /* \"Auctionator.sol\":2944:3010  if (highestBid == 0) {... */\n      tag_197\n      jumpi\n        /* \"Auctionator.sol\":2997:2998  0 */\n      0x00\n        /* \"Auctionator.sol\":2980:2998  minRequiredBid = 0 */\n      swap1\n      pop\n        /* \"Auctionator.sol\":2944:3010  if (highestBid == 0) {... */\n    tag_197:\n        /* \"Auctionator.sol\":3056:3070  minRequiredBid */\n      dup1\n        /* \"Auctionator.sol\":3044:3053  msg.value */\n      callvalue\n        /* \"Auctionator.sol\":3044:3070  msg.value > minRequiredBid */\n      gt\n        /* \"Auctionator.sol\":3022:3144  require(... */\n      tag_198\n      jumpi\n      mload(0x40)\n      0x08c379a000000000000000000000000000000000000000000000000000000000\n      dup2\n      mstore\n      0x04\n      add\n      tag_199\n      swap1\n      tag_200\n      jump\t// in\n    tag_199:\n      mload(0x40)\n      dup1\n      swap2\n      sub\n      swap1\n      revert\n    tag_198:\n        /* \"Auctionator.sol\":3184:3200  uint256 bidIndex */\n      0x00\n        /* \"Auctionator.sol\":3203:3214  _bidIndices */\n      0x04\n        /* \"Auctionator.sol\":3203:3226  _bidIndices[msg.sender] */\n      0x00\n        /* \"Auctionator.sol\":3215:3225  msg.sender */\n      caller\n        /* \"Auctionator.sol\":3203:3226  _bidIndices[msg.sender] */\n      0xffffffffffffffffffffffffffffffffffffffff\n      and\n      0xffffffffffffffffffffffffffffffffffffffff\n      and\n      dup2\n      mstore\n      0x20\n      add\n      swap1\n      dup2\n      mstore\n      0x20\n      add\n      0x00\n      keccak256\n      sload\n        /* \"Auctionator.sol\":3184:3226  uint256 bidIndex = _bidIndices[msg.sender] */\n      swap1\n      pop\n        /* \"Auctionator.sol\":3252:3253  0 */\n      0x00\n        /* \"Auctionator.sol\":3241:3249  bidIndex */\n      dup2\n        /* \"Auctionator.sol\":3241:3253  bidIndex > 0 */\n      gt\n        /* \"Auctionator.sol\":3237:3692  if (bidIndex > 0) {... */\n      iszero\n      tag_201\n      jumpi\n        /* \"Auctionator.sol\":3321:3344  Bid storage existingBid */\n      0x00\n        /* \"Auctionator.sol\":3347:3357  bidHistory */\n      0x03\n        /* \"Auctionator.sol\":3369:3370  1 */\n      0x01\n        /* \"Auctionator.sol\":3358:3366  bidIndex */\n      dup4\n        /* \"Auctionator.sol\":3358:3370  bidIndex - 1 */\n      tag_202\n      swap2\n      swap1\n      tag_117\n      jump\t// in\n    tag_202:\n        /* \"Auctionator.sol\":3347:3371  bidHistory[bidIndex - 1] */\n      dup2\n      sload\n      dup2\n      lt\n      tag_203\n      jumpi\n      tag_204\n      tag_138\n      jump\t// in\n    tag_204:\n    tag_203:\n      swap1\n      0x00\n      mstore\n      keccak256(0x00, 0x20)\n      swap1\n      0x03\n      mul\n      add\n        /* \"Auctionator.sol\":3321:3371  Bid storage existingBid = bidHistory[bidIndex - 1] */\n      swap1\n      pop\n        /* \"Auctionator.sol\":3408:3417  msg.value */\n      callvalue\n        /* \"Auctionator.sol\":3386:3397  existingBid */\n      dup2\n        /* \"Auctionator.sol\":3386:3404  existingBid.amount */\n      0x01\n      add\n      0x00\n        /* \"Auctionator.sol\":3386:3417  existingBid.amount += msg.value */\n      dup3\n      dup3\n      sload\n      tag_206\n      swap2\n      swap1\n      tag_196\n      jump\t// in\n    tag_206:\n      swap3\n      pop\n      pop\n      dup2\n      swap1\n      sstore\n      pop\n        /* \"Auctionator.sol\":3255:3429  {... */\n      pop\n        /* \"Auctionator.sol\":3237:3692  if (bidIndex > 0) {... */\n      jump(tag_207)\n    tag_201:\n        /* \"Auctionator.sol\":3477:3487  bidHistory */\n      0x03\n        /* \"Auctionator.sol\":3493:3621  Bid({... */\n      mload(0x40)\n      dup1\n      0x60\n      add\n      0x40\n      mstore\n      dup1\n        /* \"Auctionator.sol\":3524:3534  msg.sender */\n      caller\n        /* \"Auctionator.sol\":3493:3621  Bid({... */\n      0xffffffffffffffffffffffffffffffffffffffff\n      and\n      dup2\n      mstore\n      0x20\n      add\n        /* \"Auctionator.sol\":3561:3570  msg.value */\n      callvalue\n        /* \"Auctionator.sol\":3493:3621  Bid({... */\n      dup2\n      mstore\n      0x20\n      add\n        /* \"Auctionator.sol\":3600:3605  false */\n      0x00\n        /* \"Auctionator.sol\":3493:3621  Bid({... */\n      iszero\n      iszero\n      dup2\n      mstore\n      pop\n        /* \"Auctionator.sol\":3477:3622  bidHistory.push(Bid({... */\n      swap1\n      dup1\n      0x01\n      dup2\n      sload\n      add\n      dup1\n      dup3\n      sstore\n      dup1\n      swap2\n      pop\n      pop\n      0x01\n      swap1\n      sub\n      swap1\n      0x00\n      mstore\n      keccak256(0x00, 0x20)\n      swap1\n      0x03\n      mul\n      add\n      0x00\n      swap1\n      swap2\n      swap1\n      swap2\n      swap1\n      swap2\n      pop\n      0x00\n      dup3\n      add\n      mload\n      dup2\n      0x00\n      add\n      exp(0x0100, 0x00)\n      dup2\n      sload\n      dup2\n      0xffffffffffffffffffffffffffffffffffffffff\n      mul\n      not\n      and\n      swap1\n      dup4\n      0xffffffffffffffffffffffffffffffffffffffff\n      and\n      mul\n      or\n      swap1\n      sstore\n      pop\n      0x20\n      dup3\n      add\n      mload\n      dup2\n      0x01\n      add\n      sstore\n      0x40\n      dup3\n      add\n      mload\n      dup2\n      0x02\n      add\n      exp(0x0100, 0x00)\n      dup2\n      sload\n      dup2\n      0xff\n      mul\n      not\n      and\n      swap1\n      dup4\n      iszero\n      iszero\n      mul\n      or\n      swap1\n      sstore\n      pop\n      pop\n      pop\n        /* \"Auctionator.sol\":3663:3673  bidHistory */\n      0x03\n        /* \"Auctionator.sol\":3663:3680  bidHistory.length */\n      dup1\n      sload\n      swap1\n      pop\n        /* \"Auctionator.sol\":3637:3648  _bidIndices */\n      0x04\n        /* \"Auctionator.sol\":3637:3660  _bidIndices[msg.sender] */\n      0x00\n        /* \"Auctionator.sol\":3649:3659  msg.sender */\n      caller\n        /* \"Auctionator.sol\":3637:3660  _bidIndices[msg.sender] */\n      0xffffffffffffffffffffffffffffffffffffffff\n      and\n      0xffffffffffffffffffffffffffffffffffffffff\n      and\n      dup2\n      mstore\n      0x20\n      add\n      swap1\n      dup2\n      mstore\n      0x20\n      add\n      0x00\n      keccak256\n        /* \"Auctionator.sol\":3637:3680  _bidIndices[msg.sender] = bidHistory.length */\n      dup2\n      swap1\n      sstore\n      pop\n        /* \"Auctionator.sol\":3237:3692  if (bidIndex > 0) {... */\n    tag_207:\n        /* \"Auctionator.sol\":3748:3757  msg.value */\n      callvalue\n        /* \"Auctionator.sol\":3735:3745  highestBid */\n      0x01\n        /* \"Auctionator.sol\":3735:3757  highestBid = msg.value */\n      dup2\n      swap1\n      sstore\n      pop\n        /* \"Auctionator.sol\":3784:3794  msg.sender */\n      caller\n        /* \"Auctionator.sol\":3768:3781  highestBidder */\n      0x02\n      0x00\n        /* \"Auctionator.sol\":3768:3794  highestBidder = msg.sender */\n      0x0100\n      exp\n      dup2\n      sload\n      dup2\n      0xffffffffffffffffffffffffffffffffffffffff\n      mul\n      not\n      and\n      swap1\n      dup4\n      0xffffffffffffffffffffffffffffffffffffffff\n      and\n      mul\n      or\n      swap1\n      sstore\n      pop\n        /* \"Auctionator.sol\":3844:3857  bool extended */\n      0x00\n        /* \"Auctionator.sol\":3860:3884  _extendAuctionIfNeeded() */\n      tag_209\n        /* \"Auctionator.sol\":3860:3882  _extendAuctionIfNeeded */\n      tag_210\n        /* \"Auctionator.sol\":3860:3884  _extendAuctionIfNeeded() */\n      jump\t// in\n    tag_209:\n        /* \"Auctionator.sol\":3844:3884  bool extended = _extendAuctionIfNeeded() */\n      swap1\n      pop\n        /* \"Auctionator.sol\":3917:3927  msg.sender */\n      caller\n        /* \"Auctionator.sol\":3910:3955  NewBid(msg.sender, msg.value, auctionEndTime) */\n      0xffffffffffffffffffffffffffffffffffffffff\n      and\n      0x87f5b2fe112bf269d30fb8ca9dc0bde0afd0cc39258e13fafd75fe794795bf0e\n        /* \"Auctionator.sol\":3929:3938  msg.value */\n      callvalue\n        /* \"Auctionator.sol\":3940:3954  auctionEndTime */\n      sload(0x00)\n        /* \"Auctionator.sol\":3910:3955  NewBid(msg.sender, msg.value, auctionEndTime) */\n      mload(0x40)\n      tag_211\n      swap3\n      swap2\n      swap1\n      tag_212\n      jump\t// in\n    tag_211:\n      mload(0x40)\n      dup1\n      swap2\n      sub\n      swap1\n      log2\n        /* \"Auctionator.sol\":3970:3978  extended */\n      dup1\n        /* \"Auctionator.sol\":3966:4043  if (extended) {... */\n      iszero\n      tag_213\n      jumpi\n        /* \"Auctionator.sol\":4000:4031  AuctionExtended(auctionEndTime) */\n      0xc2b459809119087ca9d2bc10dea53a51b7d848b1a11075db037bdca58292c3e8\n        /* \"Auctionator.sol\":4016:4030  auctionEndTime */\n      sload(0x00)\n        /* \"Auctionator.sol\":4000:4031  AuctionExtended(auctionEndTime) */\n      mload(0x40)\n      tag_214\n      swap2\n      swap1\n      tag_43\n      jump\t// in\n    tag_214:\n      mload(0x40)\n      dup1\n      swap2\n      sub\n      swap1\n      log1\n        /* \"Auctionator.sol\":3966:4043  if (extended) {... */\n    tag_213:\n        /* \"Auctionator.sol\":2684:4050  {... */\n      pop\n      pop\n      pop\n        /* \"Auctionator.sol\":2629:4050  function placeBid() external payable whenAuctionActive {... */\n      jump\t// out\n        /* \"Auctionator.sol\":7086:7257  function getRemainingTime() external view returns (uint256 remainingTime) {... */\n    tag_100:\n        /* \"Auctionator.sol\":7137:7158  uint256 remainingTime */\n      0x00\n        /* \"Auctionator.sol\":7196:7210  auctionEndTime */\n      sload(0x00)\n        /* \"Auctionator.sol\":7178:7193  block.timestamp */\n      timestamp\n        /* \"Auctionator.sol\":7178:7210  block.timestamp < auctionEndTime */\n      lt\n        /* \"Auctionator.sol\":7178:7249  block.timestamp < auctionEndTime ? auctionEndTime - block.timestamp : 0 */\n      tag_216\n      jumpi\n        /* \"Auctionator.sol\":7248:7249  0 */\n      0x00\n        /* \"Auctionator.sol\":7178:7249  block.timestamp < auctionEndTime ? auctionEndTime - block.timestamp : 0 */\n      jump(tag_217)\n    tag_216:\n        /* \"Auctionator.sol\":7230:7245  block.timestamp */\n      timestamp\n        /* \"Auctionator.sol\":7213:7227  auctionEndTime */\n      sload(0x00)\n        /* \"Auctionator.sol\":7213:7245  auctionEndTime - block.timestamp */\n      tag_218\n      swap2\n      swap1\n      tag_117\n      jump\t// in\n    tag_218:\n        /* \"Auctionator.sol\":7178:7249  block.timestamp < auctionEndTime ? auctionEndTime - block.timestamp : 0 */\n    tag_217:\n        /* \"Auctionator.sol\":7171:7249  return block.timestamp < auctionEndTime ? auctionEndTime - block.timestamp : 0 */\n      swap1\n      pop\n        /* \"Auctionator.sol\":7086:7257  function getRemainingTime() external view returns (uint256 remainingTime) {... */\n      swap1\n      jump\t// out\n        /* \"Auctionator.sol\":7398:7655  function _extendAuctionIfNeeded() private returns (bool extended) {... */\n    tag_210:\n        /* \"Auctionator.sol\":7449:7462  bool extended */\n      0x00\n        /* \"Auctionator.sol\":713:723  10 minutes */\n      0x0258\n        /* \"Auctionator.sol\":7496:7511  block.timestamp */\n      timestamp\n        /* \"Auctionator.sol\":7479:7493  auctionEndTime */\n      sload(0x00)\n        /* \"Auctionator.sol\":7479:7511  auctionEndTime - block.timestamp */\n      tag_220\n      swap2\n      swap1\n      tag_117\n      jump\t// in\n    tag_220:\n        /* \"Auctionator.sol\":7479:7534  auctionEndTime - block.timestamp <= EXTENSION_THRESHOLD */\n      gt\n        /* \"Auctionator.sol\":7475:7625  if (auctionEndTime - block.timestamp <= EXTENSION_THRESHOLD) {... */\n      tag_221\n      jumpi\n        /* \"Auctionator.sol\":650:660  10 minutes */\n      0x0258\n        /* \"Auctionator.sol\":7551:7565  auctionEndTime */\n      0x00\n      0x00\n        /* \"Auctionator.sol\":7551:7587  auctionEndTime += EXTENSION_DURATION */\n      dup3\n      dup3\n      sload\n      tag_222\n      swap2\n      swap1\n      tag_196\n      jump\t// in\n    tag_222:\n      swap3\n      pop\n      pop\n      dup2\n      swap1\n      sstore\n      pop\n        /* \"Auctionator.sol\":7609:7613  true */\n      0x01\n        /* \"Auctionator.sol\":7602:7613  return true */\n      swap1\n      pop\n      jump(tag_219)\n        /* \"Auctionator.sol\":7475:7625  if (auctionEndTime - block.timestamp <= EXTENSION_THRESHOLD) {... */\n    tag_221:\n        /* \"Auctionator.sol\":7642:7647  false */\n      0x00\n        /* \"Auctionator.sol\":7635:7647  return false */\n      swap1\n      pop\n        /* \"Auctionator.sol\":7398:7655  function _extendAuctionIfNeeded() private returns (bool extended) {... */\n    tag_219:\n      swap1\n      jump\t// out\n        /* \"#utility.yul\":88:205   */\n    tag_224:\n        /* \"#utility.yul\":197:198   */\n      0x00\n        /* \"#utility.yul\":194:195   */\n      0x00\n        /* \"#utility.yul\":187:199   */\n      revert\n        /* \"#utility.yul\":334:411   */\n    tag_226:\n        /* \"#utility.yul\":371:378   */\n      0x00\n        /* \"#utility.yul\":400:405   */\n      dup2\n        /* \"#utility.yul\":389:405   */\n      swap1\n      pop\n        /* \"#utility.yul\":334:411   */\n      swap2\n      swap1\n      pop\n      jump\t// out\n        /* \"#utility.yul\":417:539   */\n    tag_227:\n        /* \"#utility.yul\":490:514   */\n      tag_280\n        /* \"#utility.yul\":508:513   */\n      dup2\n        /* \"#utility.yul\":490:514   */\n      tag_226\n      jump\t// in\n    tag_280:\n        /* \"#utility.yul\":483:488   */\n      dup2\n        /* \"#utility.yul\":480:515   */\n      eq\n        /* \"#utility.yul\":470:533   */\n      tag_281\n      jumpi\n        /* \"#utility.yul\":529:530   */\n      0x00\n        /* \"#utility.yul\":526:527   */\n      0x00\n        /* \"#utility.yul\":519:531   */\n      revert\n        /* \"#utility.yul\":470:533   */\n    tag_281:\n        /* \"#utility.yul\":417:539   */\n      pop\n      jump\t// out\n        /* \"#utility.yul\":545:684   */\n    tag_228:\n        /* \"#utility.yul\":591:596   */\n      0x00\n        /* \"#utility.yul\":629:635   */\n      dup2\n        /* \"#utility.yul\":616:636   */\n      calldataload\n        /* \"#utility.yul\":607:636   */\n      swap1\n      pop\n        /* \"#utility.yul\":645:678   */\n      tag_283\n        /* \"#utility.yul\":672:677   */\n      dup2\n        /* \"#utility.yul\":645:678   */\n      tag_227\n      jump\t// in\n    tag_283:\n        /* \"#utility.yul\":545:684   */\n      swap3\n      swap2\n      pop\n      pop\n      jump\t// out\n        /* \"#utility.yul\":690:1019   */\n    tag_32:\n        /* \"#utility.yul\":749:755   */\n      0x00\n        /* \"#utility.yul\":798:800   */\n      0x20\n        /* \"#utility.yul\":786:795   */\n      dup3\n        /* \"#utility.yul\":777:784   */\n      dup5\n        /* \"#utility.yul\":773:796   */\n      sub\n        /* \"#utility.yul\":769:801   */\n      slt\n        /* \"#utility.yul\":766:885   */\n      iszero\n      tag_285\n      jumpi\n        /* \"#utility.yul\":804:883   */\n      tag_286\n      tag_224\n      jump\t// in\n    tag_286:\n        /* \"#utility.yul\":766:885   */\n    tag_285:\n        /* \"#utility.yul\":924:925   */\n      0x00\n        /* \"#utility.yul\":949:1002   */\n      tag_287\n        /* \"#utility.yul\":994:1001   */\n      dup5\n        /* \"#utility.yul\":985:991   */\n      dup3\n        /* \"#utility.yul\":974:983   */\n      dup6\n        /* \"#utility.yul\":970:992   */\n      add\n        /* \"#utility.yul\":949:1002   */\n      tag_228\n      jump\t// in\n    tag_287:\n        /* \"#utility.yul\":939:1002   */\n      swap2\n      pop\n        /* \"#utility.yul\":895:1012   */\n      pop\n        /* \"#utility.yul\":690:1019   */\n      swap3\n      swap2\n      pop\n      pop\n      jump\t// out\n        /* \"#utility.yul\":1025:1151   */\n    tag_229:\n        /* \"#utility.yul\":1062:1069   */\n      0x00\n        /* \"#utility.yul\":1102:1144   */\n      0xffffffffffffffffffffffffffffffffffffffff\n        /* \"#utility.yul\":1095:1100   */\n      dup3\n        /* \"#utility.yul\":1091:1145   */\n      and\n        /* \"#utility.yul\":1080:1145   */\n      swap1\n      pop\n        /* \"#utility.yul\":1025:1151   */\n      swap2\n      swap1\n      pop\n      jump\t// out\n        /* \"#utility.yul\":1157:1253   */\n    tag_230:\n        /* \"#utility.yul\":1194:1201   */\n      0x00\n        /* \"#utility.yul\":1223:1247   */\n      tag_290\n        /* \"#utility.yul\":1241:1246   */\n      dup3\n        /* \"#utility.yul\":1223:1247   */\n      tag_229\n      jump\t// in\n    tag_290:\n        /* \"#utility.yul\":1212:1247   */\n      swap1\n      pop\n        /* \"#utility.yul\":1157:1253   */\n      swap2\n      swap1\n      pop\n      jump\t// out\n        /* \"#utility.yul\":1259:1377   */\n    tag_231:\n        /* \"#utility.yul\":1346:1370   */\n      tag_292\n        /* \"#utility.yul\":1364:1369   */\n      dup2\n        /* \"#utility.yul\":1346:1370   */\n      tag_230\n      jump\t// in\n    tag_292:\n        /* \"#utility.yul\":1341:1344   */\n      dup3\n        /* \"#utility.yul\":1334:1371   */\n      mstore\n        /* \"#utility.yul\":1259:1377   */\n      pop\n      pop\n      jump\t// out\n        /* \"#utility.yul\":1383:1501   */\n    tag_232:\n        /* \"#utility.yul\":1470:1494   */\n      tag_294\n        /* \"#utility.yul\":1488:1493   */\n      dup2\n        /* \"#utility.yul\":1470:1494   */\n      tag_226\n      jump\t// in\n    tag_294:\n        /* \"#utility.yul\":1465:1468   */\n      dup3\n        /* \"#utility.yul\":1458:1495   */\n      mstore\n        /* \"#utility.yul\":1383:1501   */\n      pop\n      pop\n      jump\t// out\n        /* \"#utility.yul\":1507:1839   */\n    tag_38:\n        /* \"#utility.yul\":1628:1632   */\n      0x00\n        /* \"#utility.yul\":1666:1668   */\n      0x40\n        /* \"#utility.yul\":1655:1664   */\n      dup3\n        /* \"#utility.yul\":1651:1669   */\n      add\n        /* \"#utility.yul\":1643:1669   */\n      swap1\n      pop\n        /* \"#utility.yul\":1679:1750   */\n      tag_296\n        /* \"#utility.yul\":1747:1748   */\n      0x00\n        /* \"#utility.yul\":1736:1745   */\n      dup4\n        /* \"#utility.yul\":1732:1749   */\n      add\n        /* \"#utility.yul\":1723:1729   */\n      dup6\n        /* \"#utility.yul\":1679:1750   */\n      tag_231\n      jump\t// in\n    tag_296:\n        /* \"#utility.yul\":1760:1832   */\n      tag_297\n        /* \"#utility.yul\":1828:1830   */\n      0x20\n        /* \"#utility.yul\":1817:1826   */\n      dup4\n        /* \"#utility.yul\":1813:1831   */\n      add\n        /* \"#utility.yul\":1804:1810   */\n      dup5\n        /* \"#utility.yul\":1760:1832   */\n      tag_232\n      jump\t// in\n    tag_297:\n        /* \"#utility.yul\":1507:1839   */\n      swap4\n      swap3\n      pop\n      pop\n      pop\n      jump\t// out\n        /* \"#utility.yul\":1845:2067   */\n    tag_43:\n        /* \"#utility.yul\":1938:1942   */\n      0x00\n        /* \"#utility.yul\":1976:1978   */\n      0x20\n        /* \"#utility.yul\":1965:1974   */\n      dup3\n        /* \"#utility.yul\":1961:1979   */\n      add\n        /* \"#utility.yul\":1953:1979   */\n      swap1\n      pop\n        /* \"#utility.yul\":1989:2060   */\n      tag_299\n        /* \"#utility.yul\":2057:2058   */\n      0x00\n        /* \"#utility.yul\":2046:2055   */\n      dup4\n        /* \"#utility.yul\":2042:2059   */\n      add\n        /* \"#utility.yul\":2033:2039   */\n      dup5\n        /* \"#utility.yul\":1989:2060   */\n      tag_232\n      jump\t// in\n    tag_299:\n        /* \"#utility.yul\":1845:2067   */\n      swap3\n      swap2\n      pop\n      pop\n      jump\t// out\n        /* \"#utility.yul\":2073:2206   */\n    tag_233:\n        /* \"#utility.yul\":2159:2165   */\n      0x00\n        /* \"#utility.yul\":2193:2198   */\n      dup2\n        /* \"#utility.yul\":2187:2199   */\n      mload\n        /* \"#utility.yul\":2177:2199   */\n      swap1\n      pop\n        /* \"#utility.yul\":2073:2206   */\n      swap2\n      swap1\n      pop\n      jump\t// out\n        /* \"#utility.yul\":2212:2415   */\n    tag_234:\n        /* \"#utility.yul\":2330:2341   */\n      0x00\n        /* \"#utility.yul\":2364:2370   */\n      dup3\n        /* \"#utility.yul\":2359:2362   */\n      dup3\n        /* \"#utility.yul\":2352:2371   */\n      mstore\n        /* \"#utility.yul\":2404:2408   */\n      0x20\n        /* \"#utility.yul\":2399:2402   */\n      dup3\n        /* \"#utility.yul\":2395:2409   */\n      add\n        /* \"#utility.yul\":2380:2409   */\n      swap1\n      pop\n        /* \"#utility.yul\":2212:2415   */\n      swap3\n      swap2\n      pop\n      pop\n      jump\t// out\n        /* \"#utility.yul\":2421:2572   */\n    tag_235:\n        /* \"#utility.yul\":2507:2511   */\n      0x00\n        /* \"#utility.yul\":2530:2533   */\n      dup2\n        /* \"#utility.yul\":2522:2533   */\n      swap1\n      pop\n        /* \"#utility.yul\":2560:2564   */\n      0x20\n        /* \"#utility.yul\":2555:2558   */\n      dup3\n        /* \"#utility.yul\":2551:2565   */\n      add\n        /* \"#utility.yul\":2543:2565   */\n      swap1\n      pop\n        /* \"#utility.yul\":2421:2572   */\n      swap2\n      swap1\n      pop\n      jump\t// out\n        /* \"#utility.yul\":2578:2686   */\n    tag_236:\n        /* \"#utility.yul\":2655:2679   */\n      tag_304\n        /* \"#utility.yul\":2673:2678   */\n      dup2\n        /* \"#utility.yul\":2655:2679   */\n      tag_230\n      jump\t// in\n    tag_304:\n        /* \"#utility.yul\":2650:2653   */\n      dup3\n        /* \"#utility.yul\":2643:2680   */\n      mstore\n        /* \"#utility.yul\":2578:2686   */\n      pop\n      pop\n      jump\t// out\n        /* \"#utility.yul\":2692:2800   */\n    tag_237:\n        /* \"#utility.yul\":2769:2793   */\n      tag_306\n        /* \"#utility.yul\":2787:2792   */\n      dup2\n        /* \"#utility.yul\":2769:2793   */\n      tag_226\n      jump\t// in\n    tag_306:\n        /* \"#utility.yul\":2764:2767   */\n      dup3\n        /* \"#utility.yul\":2757:2794   */\n      mstore\n        /* \"#utility.yul\":2692:2800   */\n      pop\n      pop\n      jump\t// out\n        /* \"#utility.yul\":2806:2896   */\n    tag_238:\n        /* \"#utility.yul\":2840:2847   */\n      0x00\n        /* \"#utility.yul\":2883:2888   */\n      dup2\n        /* \"#utility.yul\":2876:2889   */\n      iszero\n        /* \"#utility.yul\":2869:2890   */\n      iszero\n        /* \"#utility.yul\":2858:2890   */\n      swap1\n      pop\n        /* \"#utility.yul\":2806:2896   */\n      swap2\n      swap1\n      pop\n      jump\t// out\n        /* \"#utility.yul\":2902:3001   */\n    tag_239:\n        /* \"#utility.yul\":2973:2994   */\n      tag_309\n        /* \"#utility.yul\":2988:2993   */\n      dup2\n        /* \"#utility.yul\":2973:2994   */\n      tag_238\n      jump\t// in\n    tag_309:\n        /* \"#utility.yul\":2968:2971   */\n      dup3\n        /* \"#utility.yul\":2961:2995   */\n      mstore\n        /* \"#utility.yul\":2902:3001   */\n      pop\n      pop\n      jump\t// out\n        /* \"#utility.yul\":3063:3725   */\n    tag_240:\n        /* \"#utility.yul\":3188:3192   */\n      0x60\n        /* \"#utility.yul\":3183:3186   */\n      dup3\n        /* \"#utility.yul\":3179:3193   */\n      add\n        /* \"#utility.yul\":3277:3281   */\n      0x00\n        /* \"#utility.yul\":3270:3275   */\n      dup3\n        /* \"#utility.yul\":3266:3282   */\n      add\n        /* \"#utility.yul\":3260:3283   */\n      mload\n        /* \"#utility.yul\":3296:3359   */\n      tag_311\n        /* \"#utility.yul\":3353:3357   */\n      0x00\n        /* \"#utility.yul\":3348:3351   */\n      dup6\n        /* \"#utility.yul\":3344:3358   */\n      add\n        /* \"#utility.yul\":3330:3342   */\n      dup3\n        /* \"#utility.yul\":3296:3359   */\n      tag_236\n      jump\t// in\n    tag_311:\n        /* \"#utility.yul\":3203:3369   */\n      pop\n        /* \"#utility.yul\":3453:3457   */\n      0x20\n        /* \"#utility.yul\":3446:3451   */\n      dup3\n        /* \"#utility.yul\":3442:3458   */\n      add\n        /* \"#utility.yul\":3436:3459   */\n      mload\n        /* \"#utility.yul\":3472:3535   */\n      tag_312\n        /* \"#utility.yul\":3529:3533   */\n      0x20\n        /* \"#utility.yul\":3524:3527   */\n      dup6\n        /* \"#utility.yul\":3520:3534   */\n      add\n        /* \"#utility.yul\":3506:3518   */\n      dup3\n        /* \"#utility.yul\":3472:3535   */\n      tag_237\n      jump\t// in\n    tag_312:\n        /* \"#utility.yul\":3379:3545   */\n      pop\n        /* \"#utility.yul\":3632:3636   */\n      0x40\n        /* \"#utility.yul\":3625:3630   */\n      dup3\n        /* \"#utility.yul\":3621:3637   */\n      add\n        /* \"#utility.yul\":3615:3638   */\n      mload\n        /* \"#utility.yul\":3651:3708   */\n      tag_313\n        /* \"#utility.yul\":3702:3706   */\n      0x40\n        /* \"#utility.yul\":3697:3700   */\n      dup6\n        /* \"#utility.yul\":3693:3707   */\n      add\n        /* \"#utility.yul\":3679:3691   */\n      dup3\n        /* \"#utility.yul\":3651:3708   */\n      tag_239\n      jump\t// in\n    tag_313:\n        /* \"#utility.yul\":3555:3718   */\n      pop\n        /* \"#utility.yul\":3157:3725   */\n      pop\n        /* \"#utility.yul\":3063:3725   */\n      pop\n      pop\n      jump\t// out\n        /* \"#utility.yul\":3731:3986   */\n    tag_241:\n        /* \"#utility.yul\":3838:3848   */\n      0x00\n        /* \"#utility.yul\":3859:3943   */\n      tag_315\n        /* \"#utility.yul\":3939:3942   */\n      dup4\n        /* \"#utility.yul\":3931:3937   */\n      dup4\n        /* \"#utility.yul\":3859:3943   */\n      tag_240\n      jump\t// in\n    tag_315:\n        /* \"#utility.yul\":3975:3979   */\n      0x60\n        /* \"#utility.yul\":3970:3973   */\n      dup4\n        /* \"#utility.yul\":3966:3980   */\n      add\n        /* \"#utility.yul\":3952:3980   */\n      swap1\n      pop\n        /* \"#utility.yul\":3731:3986   */\n      swap3\n      swap2\n      pop\n      pop\n      jump\t// out\n        /* \"#utility.yul\":3992:4124   */\n    tag_242:\n        /* \"#utility.yul\":4081:4085   */\n      0x00\n        /* \"#utility.yul\":4113:4117   */\n      0x20\n        /* \"#utility.yul\":4108:4111   */\n      dup3\n        /* \"#utility.yul\":4104:4118   */\n      add\n        /* \"#utility.yul\":4096:4118   */\n      swap1\n      pop\n        /* \"#utility.yul\":3992:4124   */\n      swap2\n      swap1\n      pop\n      jump\t// out\n        /* \"#utility.yul\":4190:5074   */\n    tag_243:\n        /* \"#utility.yul\":4347:4350   */\n      0x00\n        /* \"#utility.yul\":4376:4449   */\n      tag_318\n        /* \"#utility.yul\":4443:4448   */\n      dup3\n        /* \"#utility.yul\":4376:4449   */\n      tag_233\n      jump\t// in\n    tag_318:\n        /* \"#utility.yul\":4465:4570   */\n      tag_319\n        /* \"#utility.yul\":4563:4569   */\n      dup2\n        /* \"#utility.yul\":4558:4561   */\n      dup6\n        /* \"#utility.yul\":4465:4570   */\n      tag_234\n      jump\t// in\n    tag_319:\n        /* \"#utility.yul\":4458:4570   */\n      swap4\n      pop\n        /* \"#utility.yul\":4594:4669   */\n      tag_320\n        /* \"#utility.yul\":4663:4668   */\n      dup4\n        /* \"#utility.yul\":4594:4669   */\n      tag_235\n      jump\t// in\n    tag_320:\n        /* \"#utility.yul\":4692:4699   */\n      dup1\n        /* \"#utility.yul\":4723:4724   */\n      0x00\n        /* \"#utility.yul\":4708:5049   */\n    tag_321:\n        /* \"#utility.yul\":4733:4739   */\n      dup4\n        /* \"#utility.yul\":4730:4731   */\n      dup2\n        /* \"#utility.yul\":4727:4740   */\n      lt\n        /* \"#utility.yul\":4708:5049   */\n      iszero\n      tag_323\n      jumpi\n        /* \"#utility.yul\":4809:4815   */\n      dup2\n        /* \"#utility.yul\":4803:4816   */\n      mload\n        /* \"#utility.yul\":4836:4937   */\n      tag_324\n        /* \"#utility.yul\":4933:4936   */\n      dup9\n        /* \"#utility.yul\":4918:4931   */\n      dup3\n        /* \"#utility.yul\":4836:4937   */\n      tag_241\n      jump\t// in\n    tag_324:\n        /* \"#utility.yul\":4829:4937   */\n      swap8\n      pop\n        /* \"#utility.yul\":4960:5039   */\n      tag_325\n        /* \"#utility.yul\":5032:5038   */\n      dup4\n        /* \"#utility.yul\":4960:5039   */\n      tag_242\n      jump\t// in\n    tag_325:\n        /* \"#utility.yul\":4950:5039   */\n      swap3\n      pop\n        /* \"#utility.yul\":4768:5049   */\n      pop\n        /* \"#utility.yul\":4755:4756   */\n      0x01\n        /* \"#utility.yul\":4752:4753   */\n      dup2\n        /* \"#utility.yul\":4748:4757   */\n      add\n        /* \"#utility.yul\":4743:4757   */\n      swap1\n      pop\n        /* \"#utility.yul\":4708:5049   */\n      jump(tag_321)\n    tag_323:\n        /* \"#utility.yul\":4712:4726   */\n      pop\n        /* \"#utility.yul\":5065:5068   */\n      dup6\n        /* \"#utility.yul\":5058:5068   */\n      swap4\n      pop\n        /* \"#utility.yul\":4352:5074   */\n      pop\n      pop\n      pop\n        /* \"#utility.yul\":4190:5074   */\n      swap3\n      swap2\n      pop\n      pop\n      jump\t// out\n        /* \"#utility.yul\":5080:5529   */\n    tag_56:\n        /* \"#utility.yul\":5261:5265   */\n      0x00\n        /* \"#utility.yul\":5299:5301   */\n      0x20\n        /* \"#utility.yul\":5288:5297   */\n      dup3\n        /* \"#utility.yul\":5284:5302   */\n      add\n        /* \"#utility.yul\":5276:5302   */\n      swap1\n      pop\n        /* \"#utility.yul\":5348:5357   */\n      dup2\n        /* \"#utility.yul\":5342:5346   */\n      dup2\n        /* \"#utility.yul\":5338:5358   */\n      sub\n        /* \"#utility.yul\":5334:5335   */\n      0x00\n        /* \"#utility.yul\":5323:5332   */\n      dup4\n        /* \"#utility.yul\":5319:5336   */\n      add\n        /* \"#utility.yul\":5312:5359   */\n      mstore\n        /* \"#utility.yul\":5376:5522   */\n      tag_327\n        /* \"#utility.yul\":5517:5521   */\n      dup2\n        /* \"#utility.yul\":5508:5514   */\n      dup5\n        /* \"#utility.yul\":5376:5522   */\n      tag_243\n      jump\t// in\n    tag_327:\n        /* \"#utility.yul\":5368:5522   */\n      swap1\n      pop\n        /* \"#utility.yul\":5080:5529   */\n      swap3\n      swap2\n      pop\n      pop\n      jump\t// out\n        /* \"#utility.yul\":5535:5644   */\n    tag_244:\n        /* \"#utility.yul\":5616:5637   */\n      tag_329\n        /* \"#utility.yul\":5631:5636   */\n      dup2\n        /* \"#utility.yul\":5616:5637   */\n      tag_238\n      jump\t// in\n    tag_329:\n        /* \"#utility.yul\":5611:5614   */\n      dup3\n        /* \"#utility.yul\":5604:5638   */\n      mstore\n        /* \"#utility.yul\":5535:5644   */\n      pop\n      pop\n      jump\t// out\n        /* \"#utility.yul\":5650:5860   */\n    tag_61:\n        /* \"#utility.yul\":5737:5741   */\n      0x00\n        /* \"#utility.yul\":5775:5777   */\n      0x20\n        /* \"#utility.yul\":5764:5773   */\n      dup3\n        /* \"#utility.yul\":5760:5778   */\n      add\n        /* \"#utility.yul\":5752:5778   */\n      swap1\n      pop\n        /* \"#utility.yul\":5788:5853   */\n      tag_331\n        /* \"#utility.yul\":5850:5851   */\n      0x00\n        /* \"#utility.yul\":5839:5848   */\n      dup4\n        /* \"#utility.yul\":5835:5852   */\n      add\n        /* \"#utility.yul\":5826:5832   */\n      dup5\n        /* \"#utility.yul\":5788:5853   */\n      tag_244\n      jump\t// in\n    tag_331:\n        /* \"#utility.yul\":5650:5860   */\n      swap3\n      swap2\n      pop\n      pop\n      jump\t// out\n        /* \"#utility.yul\":5866:6088   */\n    tag_66:\n        /* \"#utility.yul\":5959:5963   */\n      0x00\n        /* \"#utility.yul\":5997:5999   */\n      0x20\n        /* \"#utility.yul\":5986:5995   */\n      dup3\n        /* \"#utility.yul\":5982:6000   */\n      add\n        /* \"#utility.yul\":5974:6000   */\n      swap1\n      pop\n        /* \"#utility.yul\":6010:6081   */\n      tag_333\n        /* \"#utility.yul\":6078:6079   */\n      0x00\n        /* \"#utility.yul\":6067:6076   */\n      dup4\n        /* \"#utility.yul\":6063:6080   */\n      add\n        /* \"#utility.yul\":6054:6060   */\n      dup5\n        /* \"#utility.yul\":6010:6081   */\n      tag_231\n      jump\t// in\n    tag_333:\n        /* \"#utility.yul\":5866:6088   */\n      swap3\n      swap2\n      pop\n      pop\n      jump\t// out\n        /* \"#utility.yul\":6094:6524   */\n    tag_95:\n        /* \"#utility.yul\":6237:6241   */\n      0x00\n        /* \"#utility.yul\":6275:6277   */\n      0x60\n        /* \"#utility.yul\":6264:6273   */\n      dup3\n        /* \"#utility.yul\":6260:6278   */\n      add\n        /* \"#utility.yul\":6252:6278   */\n      swap1\n      pop\n        /* \"#utility.yul\":6288:6359   */\n      tag_335\n        /* \"#utility.yul\":6356:6357   */\n      0x00\n        /* \"#utility.yul\":6345:6354   */\n      dup4\n        /* \"#utility.yul\":6341:6358   */\n      add\n        /* \"#utility.yul\":6332:6338   */\n      dup7\n        /* \"#utility.yul\":6288:6359   */\n      tag_231\n      jump\t// in\n    tag_335:\n        /* \"#utility.yul\":6369:6441   */\n      tag_336\n        /* \"#utility.yul\":6437:6439   */\n      0x20\n        /* \"#utility.yul\":6426:6435   */\n      dup4\n        /* \"#utility.yul\":6422:6440   */\n      add\n        /* \"#utility.yul\":6413:6419   */\n      dup6\n        /* \"#utility.yul\":6369:6441   */\n      tag_232\n      jump\t// in\n    tag_336:\n        /* \"#utility.yul\":6451:6517   */\n      tag_337\n        /* \"#utility.yul\":6513:6515   */\n      0x40\n        /* \"#utility.yul\":6502:6511   */\n      dup4\n        /* \"#utility.yul\":6498:6516   */\n      add\n        /* \"#utility.yul\":6489:6495   */\n      dup5\n        /* \"#utility.yul\":6451:6517   */\n      tag_244\n      jump\t// in\n    tag_337:\n        /* \"#utility.yul\":6094:6524   */\n      swap5\n      swap4\n      pop\n      pop\n      pop\n      pop\n      jump\t// out\n        /* \"#utility.yul\":6530:6699   */\n    tag_245:\n        /* \"#utility.yul\":6614:6625   */\n      0x00\n        /* \"#utility.yul\":6648:6654   */\n      dup3\n        /* \"#utility.yul\":6643:6646   */\n      dup3\n        /* \"#utility.yul\":6636:6655   */\n      mstore\n        /* \"#utility.yul\":6688:6692   */\n      0x20\n        /* \"#utility.yul\":6683:6686   */\n      dup3\n        /* \"#utility.yul\":6679:6693   */\n      add\n        /* \"#utility.yul\":6664:6693   */\n      swap1\n      pop\n        /* \"#utility.yul\":6530:6699   */\n      swap3\n      swap2\n      pop\n      pop\n      jump\t// out\n        /* \"#utility.yul\":6705:6875   */\n    tag_246:\n        /* \"#utility.yul\":6845:6867   */\n      0x41756374696f6e207374696c6c20616374697665000000000000000000000000\n        /* \"#utility.yul\":6841:6842   */\n      0x00\n        /* \"#utility.yul\":6833:6839   */\n      dup3\n        /* \"#utility.yul\":6829:6843   */\n      add\n        /* \"#utility.yul\":6822:6868   */\n      mstore\n        /* \"#utility.yul\":6705:6875   */\n      pop\n      jump\t// out\n        /* \"#utility.yul\":6881:7247   */\n    tag_247:\n        /* \"#utility.yul\":7023:7026   */\n      0x00\n        /* \"#utility.yul\":7044:7111   */\n      tag_341\n        /* \"#utility.yul\":7108:7110   */\n      0x14\n        /* \"#utility.yul\":7103:7106   */\n      dup4\n        /* \"#utility.yul\":7044:7111   */\n      tag_245\n      jump\t// in\n    tag_341:\n        /* \"#utility.yul\":7037:7111   */\n      swap2\n      pop\n        /* \"#utility.yul\":7120:7213   */\n      tag_342\n        /* \"#utility.yul\":7209:7212   */\n      dup3\n        /* \"#utility.yul\":7120:7213   */\n      tag_246\n      jump\t// in\n    tag_342:\n        /* \"#utility.yul\":7238:7240   */\n      0x20\n        /* \"#utility.yul\":7233:7236   */\n      dup3\n        /* \"#utility.yul\":7229:7241   */\n      add\n        /* \"#utility.yul\":7222:7241   */\n      swap1\n      pop\n        /* \"#utility.yul\":6881:7247   */\n      swap2\n      swap1\n      pop\n      jump\t// out\n        /* \"#utility.yul\":7253:7672   */\n    tag_106:\n        /* \"#utility.yul\":7419:7423   */\n      0x00\n        /* \"#utility.yul\":7457:7459   */\n      0x20\n        /* \"#utility.yul\":7446:7455   */\n      dup3\n        /* \"#utility.yul\":7442:7460   */\n      add\n        /* \"#utility.yul\":7434:7460   */\n      swap1\n      pop\n        /* \"#utility.yul\":7506:7515   */\n      dup2\n        /* \"#utility.yul\":7500:7504   */\n      dup2\n        /* \"#utility.yul\":7496:7516   */\n      sub\n        /* \"#utility.yul\":7492:7493   */\n      0x00\n        /* \"#utility.yul\":7481:7490   */\n      dup4\n        /* \"#utility.yul\":7477:7494   */\n      add\n        /* \"#utility.yul\":7470:7517   */\n      mstore\n        /* \"#utility.yul\":7534:7665   */\n      tag_344\n        /* \"#utility.yul\":7660:7664   */\n      dup2\n        /* \"#utility.yul\":7534:7665   */\n      tag_247\n      jump\t// in\n    tag_344:\n        /* \"#utility.yul\":7526:7665   */\n      swap1\n      pop\n        /* \"#utility.yul\":7253:7672   */\n      swap2\n      swap1\n      pop\n      jump\t// out\n        /* \"#utility.yul\":7678:7853   */\n    tag_248:\n        /* \"#utility.yul\":7818:7845   */\n      0x41756374696f6e20616c726561647920636f6e636c7564656400000000000000\n        /* \"#utility.yul\":7814:7815   */\n      0x00\n        /* \"#utility.yul\":7806:7812   */\n      dup3\n        /* \"#utility.yul\":7802:7816   */\n      add\n        /* \"#utility.yul\":7795:7846   */\n      mstore\n        /* \"#utility.yul\":7678:7853   */\n      pop\n      jump\t// out\n        /* \"#utility.yul\":7859:8225   */\n    tag_249:\n        /* \"#utility.yul\":8001:8004   */\n      0x00\n        /* \"#utility.yul\":8022:8089   */\n      tag_347\n        /* \"#utility.yul\":8086:8088   */\n      0x19\n        /* \"#utility.yul\":8081:8084   */\n      dup4\n        /* \"#utility.yul\":8022:8089   */\n      tag_245\n      jump\t// in\n    tag_347:\n        /* \"#utility.yul\":8015:8089   */\n      swap2\n      pop\n        /* \"#utility.yul\":8098:8191   */\n      tag_348\n        /* \"#utility.yul\":8187:8190   */\n      dup3\n        /* \"#utility.yul\":8098:8191   */\n      tag_248\n      jump\t// in\n    tag_348:\n        /* \"#utility.yul\":8216:8218   */\n      0x20\n        /* \"#utility.yul\":8211:8214   */\n      dup3\n        /* \"#utility.yul\":8207:8219   */\n      add\n        /* \"#utility.yul\":8200:8219   */\n      swap1\n      pop\n        /* \"#utility.yul\":7859:8225   */\n      swap2\n      swap1\n      pop\n      jump\t// out\n        /* \"#utility.yul\":8231:8650   */\n    tag_110:\n        /* \"#utility.yul\":8397:8401   */\n      0x00\n        /* \"#utility.yul\":8435:8437   */\n      0x20\n        /* \"#utility.yul\":8424:8433   */\n      dup3\n        /* \"#utility.yul\":8420:8438   */\n      add\n        /* \"#utility.yul\":8412:8438   */\n      swap1\n      pop\n        /* \"#utility.yul\":8484:8493   */\n      dup2\n        /* \"#utility.yul\":8478:8482   */\n      dup2\n        /* \"#utility.yul\":8474:8494   */\n      sub\n        /* \"#utility.yul\":8470:8471   */\n      0x00\n        /* \"#utility.yul\":8459:8468   */\n      dup4\n        /* \"#utility.yul\":8455:8472   */\n      add\n        /* \"#utility.yul\":8448:8495   */\n      mstore\n        /* \"#utility.yul\":8512:8643   */\n      tag_350\n        /* \"#utility.yul\":8638:8642   */\n      dup2\n        /* \"#utility.yul\":8512:8643   */\n      tag_249\n      jump\t// in\n    tag_350:\n        /* \"#utility.yul\":8504:8643   */\n      swap1\n      pop\n        /* \"#utility.yul\":8231:8650   */\n      swap2\n      swap1\n      pop\n      jump\t// out\n        /* \"#utility.yul\":8656:8836   */\n    tag_250:\n        /* \"#utility.yul\":8704:8781   */\n      0x4e487b7100000000000000000000000000000000000000000000000000000000\n        /* \"#utility.yul\":8701:8702   */\n      0x00\n        /* \"#utility.yul\":8694:8782   */\n      mstore\n        /* \"#utility.yul\":8801:8805   */\n      0x11\n        /* \"#utility.yul\":8798:8799   */\n      0x04\n        /* \"#utility.yul\":8791:8806   */\n      mstore\n        /* \"#utility.yul\":8825:8829   */\n      0x24\n        /* \"#utility.yul\":8822:8823   */\n      0x00\n        /* \"#utility.yul\":8815:8830   */\n      revert\n        /* \"#utility.yul\":8842:9252   */\n    tag_113:\n        /* \"#utility.yul\":8882:8889   */\n      0x00\n        /* \"#utility.yul\":8905:8925   */\n      tag_353\n        /* \"#utility.yul\":8923:8924   */\n      dup3\n        /* \"#utility.yul\":8905:8925   */\n      tag_226\n      jump\t// in\n    tag_353:\n        /* \"#utility.yul\":8900:8925   */\n      swap2\n      pop\n        /* \"#utility.yul\":8939:8959   */\n      tag_354\n        /* \"#utility.yul\":8957:8958   */\n      dup4\n        /* \"#utility.yul\":8939:8959   */\n      tag_226\n      jump\t// in\n    tag_354:\n        /* \"#utility.yul\":8934:8959   */\n      swap3\n      pop\n        /* \"#utility.yul\":8994:8995   */\n      dup3\n        /* \"#utility.yul\":8991:8992   */\n      dup3\n        /* \"#utility.yul\":8987:8996   */\n      mul\n        /* \"#utility.yul\":9016:9046   */\n      tag_355\n        /* \"#utility.yul\":9034:9045   */\n      dup2\n        /* \"#utility.yul\":9016:9046   */\n      tag_226\n      jump\t// in\n    tag_355:\n        /* \"#utility.yul\":9005:9046   */\n      swap2\n      pop\n        /* \"#utility.yul\":9195:9196   */\n      dup3\n        /* \"#utility.yul\":9186:9193   */\n      dup3\n        /* \"#utility.yul\":9182:9197   */\n      div\n        /* \"#utility.yul\":9179:9180   */\n      dup5\n        /* \"#utility.yul\":9176:9198   */\n      eq\n        /* \"#utility.yul\":9156:9157   */\n      dup4\n        /* \"#utility.yul\":9149:9158   */\n      iszero\n        /* \"#utility.yul\":9129:9212   */\n      or\n        /* \"#utility.yul\":9106:9245   */\n      tag_356\n      jumpi\n        /* \"#utility.yul\":9225:9243   */\n      tag_357\n      tag_250\n      jump\t// in\n    tag_357:\n        /* \"#utility.yul\":9106:9245   */\n    tag_356:\n        /* \"#utility.yul\":8890:9252   */\n      pop\n        /* \"#utility.yul\":8842:9252   */\n      swap3\n      swap2\n      pop\n      pop\n      jump\t// out\n        /* \"#utility.yul\":9258:9438   */\n    tag_251:\n        /* \"#utility.yul\":9306:9383   */\n      0x4e487b7100000000000000000000000000000000000000000000000000000000\n        /* \"#utility.yul\":9303:9304   */\n      0x00\n        /* \"#utility.yul\":9296:9384   */\n      mstore\n        /* \"#utility.yul\":9403:9407   */\n      0x12\n        /* \"#utility.yul\":9400:9401   */\n      0x04\n        /* \"#utility.yul\":9393:9408   */\n      mstore\n        /* \"#utility.yul\":9427:9431   */\n      0x24\n        /* \"#utility.yul\":9424:9425   */\n      0x00\n        /* \"#utility.yul\":9417:9432   */\n      revert\n        /* \"#utility.yul\":9444:9629   */\n    tag_115:\n        /* \"#utility.yul\":9484:9485   */\n      0x00\n        /* \"#utility.yul\":9501:9521   */\n      tag_360\n        /* \"#utility.yul\":9519:9520   */\n      dup3\n        /* \"#utility.yul\":9501:9521   */\n      tag_226\n      jump\t// in\n    tag_360:\n        /* \"#utility.yul\":9496:9521   */\n      swap2\n      pop\n        /* \"#utility.yul\":9535:9555   */\n      tag_361\n        /* \"#utility.yul\":9553:9554   */\n      dup4\n        /* \"#utility.yul\":9535:9555   */\n      tag_226\n      jump\t// in\n    tag_361:\n        /* \"#utility.yul\":9530:9555   */\n      swap3\n      pop\n        /* \"#utility.yul\":9574:9575   */\n      dup3\n        /* \"#utility.yul\":9564:9599   */\n      tag_362\n      jumpi\n        /* \"#utility.yul\":9579:9597   */\n      tag_363\n      tag_251\n      jump\t// in\n    tag_363:\n        /* \"#utility.yul\":9564:9599   */\n    tag_362:\n        /* \"#utility.yul\":9621:9622   */\n      dup3\n        /* \"#utility.yul\":9618:9619   */\n      dup3\n        /* \"#utility.yul\":9614:9623   */\n      div\n        /* \"#utility.yul\":9609:9623   */\n      swap1\n      pop\n        /* \"#utility.yul\":9444:9629   */\n      swap3\n      swap2\n      pop\n      pop\n      jump\t// out\n        /* \"#utility.yul\":9635:9829   */\n    tag_117:\n        /* \"#utility.yul\":9675:9679   */\n      0x00\n        /* \"#utility.yul\":9695:9715   */\n      tag_365\n        /* \"#utility.yul\":9713:9714   */\n      dup3\n        /* \"#utility.yul\":9695:9715   */\n      tag_226\n      jump\t// in\n    tag_365:\n        /* \"#utility.yul\":9690:9715   */\n      swap2\n      pop\n        /* \"#utility.yul\":9729:9749   */\n      tag_366\n        /* \"#utility.yul\":9747:9748   */\n      dup4\n        /* \"#utility.yul\":9729:9749   */\n      tag_226\n      jump\t// in\n    tag_366:\n        /* \"#utility.yul\":9724:9749   */\n      swap3\n      pop\n        /* \"#utility.yul\":9773:9774   */\n      dup3\n        /* \"#utility.yul\":9770:9771   */\n      dup3\n        /* \"#utility.yul\":9766:9775   */\n      sub\n        /* \"#utility.yul\":9758:9775   */\n      swap1\n      pop\n        /* \"#utility.yul\":9797:9798   */\n      dup2\n        /* \"#utility.yul\":9791:9795   */\n      dup2\n        /* \"#utility.yul\":9788:9799   */\n      gt\n        /* \"#utility.yul\":9785:9822   */\n      iszero\n      tag_367\n      jumpi\n        /* \"#utility.yul\":9802:9820   */\n      tag_368\n      tag_250\n      jump\t// in\n    tag_368:\n        /* \"#utility.yul\":9785:9822   */\n    tag_367:\n        /* \"#utility.yul\":9635:9829   */\n      swap3\n      swap2\n      pop\n      pop\n      jump\t// out\n        /* \"#utility.yul\":9835:10006   */\n    tag_252:\n        /* \"#utility.yul\":9975:9998   */\n      0x41756374696f6e2068617320636f6e636c756465640000000000000000000000\n        /* \"#utility.yul\":9971:9972   */\n      0x00\n        /* \"#utility.yul\":9963:9969   */\n      dup3\n        /* \"#utility.yul\":9959:9973   */\n      add\n        /* \"#utility.yul\":9952:9999   */\n      mstore\n        /* \"#utility.yul\":9835:10006   */\n      pop\n      jump\t// out\n        /* \"#utility.yul\":10012:10378   */\n    tag_253:\n        /* \"#utility.yul\":10154:10157   */\n      0x00\n        /* \"#utility.yul\":10175:10242   */\n      tag_371\n        /* \"#utility.yul\":10239:10241   */\n      0x15\n        /* \"#utility.yul\":10234:10237   */\n      dup4\n        /* \"#utility.yul\":10175:10242   */\n      tag_245\n      jump\t// in\n    tag_371:\n        /* \"#utility.yul\":10168:10242   */\n      swap2\n      pop\n        /* \"#utility.yul\":10251:10344   */\n      tag_372\n        /* \"#utility.yul\":10340:10343   */\n      dup3\n        /* \"#utility.yul\":10251:10344   */\n      tag_252\n      jump\t// in\n    tag_372:\n        /* \"#utility.yul\":10369:10371   */\n      0x20\n        /* \"#utility.yul\":10364:10367   */\n      dup3\n        /* \"#utility.yul\":10360:10372   */\n      add\n        /* \"#utility.yul\":10353:10372   */\n      swap1\n      pop\n        /* \"#utility.yul\":10012:10378   */\n      swap2\n      swap1\n      pop\n      jump\t// out\n        /* \"#utility.yul\":10384:10803   */\n    tag_124:\n        /* \"#utility.yul\":10550:10554   */\n      0x00\n        /* \"#utility.yul\":10588:10590   */\n      0x20\n        /* \"#utility.yul\":10577:10586   */\n      dup3\n        /* \"#utility.yul\":10573:10591   */\n      add\n        /* \"#utility.yul\":10565:10591   */\n      swap1\n      pop\n        /* \"#utility.yul\":10637:10646   */\n      dup2\n        /* \"#utility.yul\":10631:10635   */\n      dup2\n        /* \"#utility.yul\":10627:10647   */\n      sub\n        /* \"#utility.yul\":10623:10624   */\n      0x00\n        /* \"#utility.yul\":10612:10621   */\n      dup4\n        /* \"#utility.yul\":10608:10625   */\n      add\n        /* \"#utility.yul\":10601:10648   */\n      mstore\n        /* \"#utility.yul\":10665:10796   */\n      tag_374\n        /* \"#utility.yul\":10791:10795   */\n      dup2\n        /* \"#utility.yul\":10665:10796   */\n      tag_253\n      jump\t// in\n    tag_374:\n        /* \"#utility.yul\":10657:10796   */\n      swap1\n      pop\n        /* \"#utility.yul\":10384:10803   */\n      swap2\n      swap1\n      pop\n      jump\t// out\n        /* \"#utility.yul\":10809:10989   */\n    tag_254:\n        /* \"#utility.yul\":10949:10981   */\n      0x41756374696f6e20776173206d616e75616c6c7920636f6e636c756465640000\n        /* \"#utility.yul\":10945:10946   */\n      0x00\n        /* \"#utility.yul\":10937:10943   */\n      dup3\n        /* \"#utility.yul\":10933:10947   */\n      add\n        /* \"#utility.yul\":10926:10982   */\n      mstore\n        /* \"#utility.yul\":10809:10989   */\n      pop\n      jump\t// out\n        /* \"#utility.yul\":10995:11361   */\n    tag_255:\n        /* \"#utility.yul\":11137:11140   */\n      0x00\n        /* \"#utility.yul\":11158:11225   */\n      tag_377\n        /* \"#utility.yul\":11222:11224   */\n      0x1e\n        /* \"#utility.yul\":11217:11220   */\n      dup4\n        /* \"#utility.yul\":11158:11225   */\n      tag_245\n      jump\t// in\n    tag_377:\n        /* \"#utility.yul\":11151:11225   */\n      swap2\n      pop\n        /* \"#utility.yul\":11234:11327   */\n      tag_378\n        /* \"#utility.yul\":11323:11326   */\n      dup3\n        /* \"#utility.yul\":11234:11327   */\n      tag_254\n      jump\t// in\n    tag_378:\n        /* \"#utility.yul\":11352:11354   */\n      0x20\n        /* \"#utility.yul\":11347:11350   */\n      dup3\n        /* \"#utility.yul\":11343:11355   */\n      add\n        /* \"#utility.yul\":11336:11355   */\n      swap1\n      pop\n        /* \"#utility.yul\":10995:11361   */\n      swap2\n      swap1\n      pop\n      jump\t// out\n        /* \"#utility.yul\":11367:11786   */\n    tag_127:\n        /* \"#utility.yul\":11533:11537   */\n      0x00\n        /* \"#utility.yul\":11571:11573   */\n      0x20\n        /* \"#utility.yul\":11560:11569   */\n      dup3\n        /* \"#utility.yul\":11556:11574   */\n      add\n        /* \"#utility.yul\":11548:11574   */\n      swap1\n      pop\n        /* \"#utility.yul\":11620:11629   */\n      dup2\n        /* \"#utility.yul\":11614:11618   */\n      dup2\n        /* \"#utility.yul\":11610:11630   */\n      sub\n        /* \"#utility.yul\":11606:11607   */\n      0x00\n        /* \"#utility.yul\":11595:11604   */\n      dup4\n        /* \"#utility.yul\":11591:11608   */\n      add\n        /* \"#utility.yul\":11584:11631   */\n      mstore\n        /* \"#utility.yul\":11648:11779   */\n      tag_380\n        /* \"#utility.yul\":11774:11778   */\n      dup2\n        /* \"#utility.yul\":11648:11779   */\n      tag_255\n      jump\t// in\n    tag_380:\n        /* \"#utility.yul\":11640:11779   */\n      swap1\n      pop\n        /* \"#utility.yul\":11367:11786   */\n      swap2\n      swap1\n      pop\n      jump\t// out\n        /* \"#utility.yul\":11792:12013   */\n    tag_256:\n        /* \"#utility.yul\":11932:11966   */\n      0x5769746864726177616c20616d6f756e74206d75737420626520706f73697469\n        /* \"#utility.yul\":11928:11929   */\n      0x00\n        /* \"#utility.yul\":11920:11926   */\n      dup3\n        /* \"#utility.yul\":11916:11930   */\n      add\n        /* \"#utility.yul\":11909:11967   */\n      mstore\n        /* \"#utility.yul\":12001:12005   */\n      0x7665000000000000000000000000000000000000000000000000000000000000\n        /* \"#utility.yul\":11996:11998   */\n      0x20\n        /* \"#utility.yul\":11988:11994   */\n      dup3\n        /* \"#utility.yul\":11984:11999   */\n      add\n        /* \"#utility.yul\":11977:12006   */\n      mstore\n        /* \"#utility.yul\":11792:12013   */\n      pop\n      jump\t// out\n        /* \"#utility.yul\":12019:12385   */\n    tag_257:\n        /* \"#utility.yul\":12161:12164   */\n      0x00\n        /* \"#utility.yul\":12182:12249   */\n      tag_383\n        /* \"#utility.yul\":12246:12248   */\n      0x22\n        /* \"#utility.yul\":12241:12244   */\n      dup4\n        /* \"#utility.yul\":12182:12249   */\n      tag_245\n      jump\t// in\n    tag_383:\n        /* \"#utility.yul\":12175:12249   */\n      swap2\n      pop\n        /* \"#utility.yul\":12258:12351   */\n      tag_384\n        /* \"#utility.yul\":12347:12350   */\n      dup3\n        /* \"#utility.yul\":12258:12351   */\n      tag_256\n      jump\t// in\n    tag_384:\n        /* \"#utility.yul\":12376:12378   */\n      0x40\n        /* \"#utility.yul\":12371:12374   */\n      dup3\n        /* \"#utility.yul\":12367:12379   */\n      add\n        /* \"#utility.yul\":12360:12379   */\n      swap1\n      pop\n        /* \"#utility.yul\":12019:12385   */\n      swap2\n      swap1\n      pop\n      jump\t// out\n        /* \"#utility.yul\":12391:12810   */\n    tag_131:\n        /* \"#utility.yul\":12557:12561   */\n      0x00\n        /* \"#utility.yul\":12595:12597   */\n      0x20\n        /* \"#utility.yul\":12584:12593   */\n      dup3\n        /* \"#utility.yul\":12580:12598   */\n      add\n        /* \"#utility.yul\":12572:12598   */\n      swap1\n      pop\n        /* \"#utility.yul\":12644:12653   */\n      dup2\n        /* \"#utility.yul\":12638:12642   */\n      dup2\n        /* \"#utility.yul\":12634:12654   */\n      sub\n        /* \"#utility.yul\":12630:12631   */\n      0x00\n        /* \"#utility.yul\":12619:12628   */\n      dup4\n        /* \"#utility.yul\":12615:12632   */\n      add\n        /* \"#utility.yul\":12608:12655   */\n      mstore\n        /* \"#utility.yul\":12672:12803   */\n      tag_386\n        /* \"#utility.yul\":12798:12802   */\n      dup2\n        /* \"#utility.yul\":12672:12803   */\n      tag_257\n      jump\t// in\n    tag_386:\n        /* \"#utility.yul\":12664:12803   */\n      swap1\n      pop\n        /* \"#utility.yul\":12391:12810   */\n      swap2\n      swap1\n      pop\n      jump\t// out\n        /* \"#utility.yul\":12816:12990   */\n    tag_258:\n        /* \"#utility.yul\":12956:12982   */\n      0x4e6f206269647320706c616365642062792063616c6c65720000000000000000\n        /* \"#utility.yul\":12952:12953   */\n      0x00\n        /* \"#utility.yul\":12944:12950   */\n      dup3\n        /* \"#utility.yul\":12940:12954   */\n      add\n        /* \"#utility.yul\":12933:12983   */\n      mstore\n        /* \"#utility.yul\":12816:12990   */\n      pop\n      jump\t// out\n        /* \"#utility.yul\":12996:13362   */\n    tag_259:\n        /* \"#utility.yul\":13138:13141   */\n      0x00\n        /* \"#utility.yul\":13159:13226   */\n      tag_389\n        /* \"#utility.yul\":13223:13225   */\n      0x18\n        /* \"#utility.yul\":13218:13221   */\n      dup4\n        /* \"#utility.yul\":13159:13226   */\n      tag_245\n      jump\t// in\n    tag_389:\n        /* \"#utility.yul\":13152:13226   */\n      swap2\n      pop\n        /* \"#utility.yul\":13235:13328   */\n      tag_390\n        /* \"#utility.yul\":13324:13327   */\n      dup3\n        /* \"#utility.yul\":13235:13328   */\n      tag_258\n      jump\t// in\n    tag_390:\n        /* \"#utility.yul\":13353:13355   */\n      0x20\n        /* \"#utility.yul\":13348:13351   */\n      dup3\n        /* \"#utility.yul\":13344:13356   */\n      add\n        /* \"#utility.yul\":13337:13356   */\n      swap1\n      pop\n        /* \"#utility.yul\":12996:13362   */\n      swap2\n      swap1\n      pop\n      jump\t// out\n        /* \"#utility.yul\":13368:13787   */\n    tag_134:\n        /* \"#utility.yul\":13534:13538   */\n      0x00\n        /* \"#utility.yul\":13572:13574   */\n      0x20\n        /* \"#utility.yul\":13561:13570   */\n      dup3\n        /* \"#utility.yul\":13557:13575   */\n      add\n        /* \"#utility.yul\":13549:13575   */\n      swap1\n      pop\n        /* \"#utility.yul\":13621:13630   */\n      dup2\n        /* \"#utility.yul\":13615:13619   */\n      dup2\n        /* \"#utility.yul\":13611:13631   */\n      sub\n        /* \"#utility.yul\":13607:13608   */\n      0x00\n        /* \"#utility.yul\":13596:13605   */\n      dup4\n        /* \"#utility.yul\":13592:13609   */\n      add\n        /* \"#utility.yul\":13585:13632   */\n      mstore\n        /* \"#utility.yul\":13649:13780   */\n      tag_392\n        /* \"#utility.yul\":13775:13779   */\n      dup2\n        /* \"#utility.yul\":13649:13780   */\n      tag_259\n      jump\t// in\n    tag_392:\n        /* \"#utility.yul\":13641:13780   */\n      swap1\n      pop\n        /* \"#utility.yul\":13368:13787   */\n      swap2\n      swap1\n      pop\n      jump\t// out\n        /* \"#utility.yul\":13793:13973   */\n    tag_138:\n        /* \"#utility.yul\":13841:13918   */\n      0x4e487b7100000000000000000000000000000000000000000000000000000000\n        /* \"#utility.yul\":13838:13839   */\n      0x00\n        /* \"#utility.yul\":13831:13919   */\n      mstore\n        /* \"#utility.yul\":13938:13942   */\n      0x32\n        /* \"#utility.yul\":13935:13936   */\n      0x04\n        /* \"#utility.yul\":13928:13943   */\n      mstore\n        /* \"#utility.yul\":13962:13966   */\n      0x24\n        /* \"#utility.yul\":13959:13960   */\n      0x00\n        /* \"#utility.yul\":13952:13967   */\n      revert\n        /* \"#utility.yul\":13979:14154   */\n    tag_260:\n        /* \"#utility.yul\":14119:14146   */\n      0x4e6f206578636573732066756e647320617661696c61626c6500000000000000\n        /* \"#utility.yul\":14115:14116   */\n      0x00\n        /* \"#utility.yul\":14107:14113   */\n      dup3\n        /* \"#utility.yul\":14103:14117   */\n      add\n        /* \"#utility.yul\":14096:14147   */\n      mstore\n        /* \"#utility.yul\":13979:14154   */\n      pop\n      jump\t// out\n        /* \"#utility.yul\":14160:14526   */\n    tag_261:\n        /* \"#utility.yul\":14302:14305   */\n      0x00\n        /* \"#utility.yul\":14323:14390   */\n      tag_396\n        /* \"#utility.yul\":14387:14389   */\n      0x19\n        /* \"#utility.yul\":14382:14385   */\n      dup4\n        /* \"#utility.yul\":14323:14390   */\n      tag_245\n      jump\t// in\n    tag_396:\n        /* \"#utility.yul\":14316:14390   */\n      swap2\n      pop\n        /* \"#utility.yul\":14399:14492   */\n      tag_397\n        /* \"#utility.yul\":14488:14491   */\n      dup3\n        /* \"#utility.yul\":14399:14492   */\n      tag_260\n      jump\t// in\n    tag_397:\n        /* \"#utility.yul\":14517:14519   */\n      0x20\n        /* \"#utility.yul\":14512:14515   */\n      dup3\n        /* \"#utility.yul\":14508:14520   */\n      add\n        /* \"#utility.yul\":14501:14520   */\n      swap1\n      pop\n        /* \"#utility.yul\":14160:14526   */\n      swap2\n      swap1\n      pop\n      jump\t// out\n        /* \"#utility.yul\":14532:14951   */\n    tag_144:\n        /* \"#utility.yul\":14698:14702   */\n      0x00\n        /* \"#utility.yul\":14736:14738   */\n      0x20\n        /* \"#utility.yul\":14725:14734   */\n      dup3\n        /* \"#utility.yul\":14721:14739   */\n      add\n        /* \"#utility.yul\":14713:14739   */\n      swap1\n      pop\n        /* \"#utility.yul\":14785:14794   */\n      dup2\n        /* \"#utility.yul\":14779:14783   */\n      dup2\n        /* \"#utility.yul\":14775:14795   */\n      sub\n        /* \"#utility.yul\":14771:14772   */\n      0x00\n        /* \"#utility.yul\":14760:14769   */\n      dup4\n        /* \"#utility.yul\":14756:14773   */\n      add\n        /* \"#utility.yul\":14749:14796   */\n      mstore\n        /* \"#utility.yul\":14813:14944   */\n      tag_399\n        /* \"#utility.yul\":14939:14943   */\n      dup2\n        /* \"#utility.yul\":14813:14944   */\n      tag_261\n      jump\t// in\n    tag_399:\n        /* \"#utility.yul\":14805:14944   */\n      swap1\n      pop\n        /* \"#utility.yul\":14532:14951   */\n      swap2\n      swap1\n      pop\n      jump\t// out\n        /* \"#utility.yul\":14957:15179   */\n    tag_262:\n        /* \"#utility.yul\":15097:15131   */\n      0x5769746864726177616c206578636565647320617661696c61626c6520657863\n        /* \"#utility.yul\":15093:15094   */\n      0x00\n        /* \"#utility.yul\":15085:15091   */\n      dup3\n        /* \"#utility.yul\":15081:15095   */\n      add\n        /* \"#utility.yul\":15074:15132   */\n      mstore\n        /* \"#utility.yul\":15166:15171   */\n      0x6573730000000000000000000000000000000000000000000000000000000000\n        /* \"#utility.yul\":15161:15163   */\n      0x20\n        /* \"#utility.yul\":15153:15159   */\n      dup3\n        /* \"#utility.yul\":15149:15164   */\n      add\n        /* \"#utility.yul\":15142:15172   */\n      mstore\n        /* \"#utility.yul\":14957:15179   */\n      pop\n      jump\t// out\n        /* \"#utility.yul\":15185:15551   */\n    tag_263:\n        /* \"#utility.yul\":15327:15330   */\n      0x00\n        /* \"#utility.yul\":15348:15415   */\n      tag_402\n        /* \"#utility.yul\":15412:15414   */\n      0x23\n        /* \"#utility.yul\":15407:15410   */\n      dup4\n        /* \"#utility.yul\":15348:15415   */\n      tag_245\n      jump\t// in\n    tag_402:\n        /* \"#utility.yul\":15341:15415   */\n      swap2\n      pop\n        /* \"#utility.yul\":15424:15517   */\n      tag_403\n        /* \"#utility.yul\":15513:15516   */\n      dup3\n        /* \"#utility.yul\":15424:15517   */\n      tag_262\n      jump\t// in\n    tag_403:\n        /* \"#utility.yul\":15542:15544   */\n      0x40\n        /* \"#utility.yul\":15537:15540   */\n      dup3\n        /* \"#utility.yul\":15533:15545   */\n      add\n        /* \"#utility.yul\":15526:15545   */\n      swap1\n      pop\n        /* \"#utility.yul\":15185:15551   */\n      swap2\n      swap1\n      pop\n      jump\t// out\n        /* \"#utility.yul\":15557:15976   */\n    tag_148:\n        /* \"#utility.yul\":15723:15727   */\n      0x00\n        /* \"#utility.yul\":15761:15763   */\n      0x20\n        /* \"#utility.yul\":15750:15759   */\n      dup3\n        /* \"#utility.yul\":15746:15764   */\n      add\n        /* \"#utility.yul\":15738:15764   */\n      swap1\n      pop\n        /* \"#utility.yul\":15810:15819   */\n      dup2\n        /* \"#utility.yul\":15804:15808   */\n      dup2\n        /* \"#utility.yul\":15800:15820   */\n      sub\n        /* \"#utility.yul\":15796:15797   */\n      0x00\n        /* \"#utility.yul\":15785:15794   */\n      dup4\n        /* \"#utility.yul\":15781:15798   */\n      add\n        /* \"#utility.yul\":15774:15821   */\n      mstore\n        /* \"#utility.yul\":15838:15969   */\n      tag_405\n        /* \"#utility.yul\":15964:15968   */\n      dup2\n        /* \"#utility.yul\":15838:15969   */\n      tag_263\n      jump\t// in\n    tag_405:\n        /* \"#utility.yul\":15830:15969   */\n      swap1\n      pop\n        /* \"#utility.yul\":15557:15976   */\n      swap2\n      swap1\n      pop\n      jump\t// out\n        /* \"#utility.yul\":15982:16157   */\n    tag_264:\n        /* \"#utility.yul\":16122:16149   */\n      0x41756374696f6e206e6f742079657420636f6e636c7564656400000000000000\n        /* \"#utility.yul\":16118:16119   */\n      0x00\n        /* \"#utility.yul\":16110:16116   */\n      dup3\n        /* \"#utility.yul\":16106:16120   */\n      add\n        /* \"#utility.yul\":16099:16150   */\n      mstore\n        /* \"#utility.yul\":15982:16157   */\n      pop\n      jump\t// out\n        /* \"#utility.yul\":16163:16529   */\n    tag_265:\n        /* \"#utility.yul\":16305:16308   */\n      0x00\n        /* \"#utility.yul\":16326:16393   */\n      tag_408\n        /* \"#utility.yul\":16390:16392   */\n      0x19\n        /* \"#utility.yul\":16385:16388   */\n      dup4\n        /* \"#utility.yul\":16326:16393   */\n      tag_245\n      jump\t// in\n    tag_408:\n        /* \"#utility.yul\":16319:16393   */\n      swap2\n      pop\n        /* \"#utility.yul\":16402:16495   */\n      tag_409\n        /* \"#utility.yul\":16491:16494   */\n      dup3\n        /* \"#utility.yul\":16402:16495   */\n      tag_264\n      jump\t// in\n    tag_409:\n        /* \"#utility.yul\":16520:16522   */\n      0x20\n        /* \"#utility.yul\":16515:16518   */\n      dup3\n        /* \"#utility.yul\":16511:16523   */\n      add\n        /* \"#utility.yul\":16504:16523   */\n      swap1\n      pop\n        /* \"#utility.yul\":16163:16529   */\n      swap2\n      swap1\n      pop\n      jump\t// out\n        /* \"#utility.yul\":16535:16954   */\n    tag_156:\n        /* \"#utility.yul\":16701:16705   */\n      0x00\n        /* \"#utility.yul\":16739:16741   */\n      0x20\n        /* \"#utility.yul\":16728:16737   */\n      dup3\n        /* \"#utility.yul\":16724:16742   */\n      add\n        /* \"#utility.yul\":16716:16742   */\n      swap1\n      pop\n        /* \"#utility.yul\":16788:16797   */\n      dup2\n        /* \"#utility.yul\":16782:16786   */\n      dup2\n        /* \"#utility.yul\":16778:16798   */\n      sub\n        /* \"#utility.yul\":16774:16775   */\n      0x00\n        /* \"#utility.yul\":16763:16772   */\n      dup4\n        /* \"#utility.yul\":16759:16776   */\n      add\n        /* \"#utility.yul\":16752:16799   */\n      mstore\n        /* \"#utility.yul\":16816:16947   */\n      tag_411\n        /* \"#utility.yul\":16942:16946   */\n      dup2\n        /* \"#utility.yul\":16816:16947   */\n      tag_265\n      jump\t// in\n    tag_411:\n        /* \"#utility.yul\":16808:16947   */\n      swap1\n      pop\n        /* \"#utility.yul\":16535:16954   */\n      swap2\n      swap1\n      pop\n      jump\t// out\n        /* \"#utility.yul\":16960:17180   */\n    tag_266:\n        /* \"#utility.yul\":17100:17134   */\n      0x57696e6e65722063616e6e6f7420706572666f726d207468697320616374696f\n        /* \"#utility.yul\":17096:17097   */\n      0x00\n        /* \"#utility.yul\":17088:17094   */\n      dup3\n        /* \"#utility.yul\":17084:17098   */\n      add\n        /* \"#utility.yul\":17077:17135   */\n      mstore\n        /* \"#utility.yul\":17169:17172   */\n      0x6e00000000000000000000000000000000000000000000000000000000000000\n        /* \"#utility.yul\":17164:17166   */\n      0x20\n        /* \"#utility.yul\":17156:17162   */\n      dup3\n        /* \"#utility.yul\":17152:17167   */\n      add\n        /* \"#utility.yul\":17145:17173   */\n      mstore\n        /* \"#utility.yul\":16960:17180   */\n      pop\n      jump\t// out\n        /* \"#utility.yul\":17186:17552   */\n    tag_267:\n        /* \"#utility.yul\":17328:17331   */\n      0x00\n        /* \"#utility.yul\":17349:17416   */\n      tag_414\n        /* \"#utility.yul\":17413:17415   */\n      0x21\n        /* \"#utility.yul\":17408:17411   */\n      dup4\n        /* \"#utility.yul\":17349:17416   */\n      tag_245\n      jump\t// in\n    tag_414:\n        /* \"#utility.yul\":17342:17416   */\n      swap2\n      pop\n        /* \"#utility.yul\":17425:17518   */\n      tag_415\n        /* \"#utility.yul\":17514:17517   */\n      dup3\n        /* \"#utility.yul\":17425:17518   */\n      tag_266\n      jump\t// in\n    tag_415:\n        /* \"#utility.yul\":17543:17545   */\n      0x40\n        /* \"#utility.yul\":17538:17541   */\n      dup3\n        /* \"#utility.yul\":17534:17546   */\n      add\n        /* \"#utility.yul\":17527:17546   */\n      swap1\n      pop\n        /* \"#utility.yul\":17186:17552   */\n      swap2\n      swap1\n      pop\n      jump\t// out\n        /* \"#utility.yul\":17558:17977   */\n    tag_168:\n        /* \"#utility.yul\":17724:17728   */\n      0x00\n        /* \"#utility.yul\":17762:17764   */\n      0x20\n        /* \"#utility.yul\":17751:17760   */\n      dup3\n        /* \"#utility.yul\":17747:17765   */\n      add\n        /* \"#utility.yul\":17739:17765   */\n      swap1\n      pop\n        /* \"#utility.yul\":17811:17820   */\n      dup2\n        /* \"#utility.yul\":17805:17809   */\n      dup2\n        /* \"#utility.yul\":17801:17821   */\n      sub\n        /* \"#utility.yul\":17797:17798   */\n      0x00\n        /* \"#utility.yul\":17786:17795   */\n      dup4\n        /* \"#utility.yul\":17782:17799   */\n      add\n        /* \"#utility.yul\":17775:17822   */\n      mstore\n        /* \"#utility.yul\":17839:17970   */\n      tag_417\n        /* \"#utility.yul\":17965:17969   */\n      dup2\n        /* \"#utility.yul\":17839:17970   */\n      tag_267\n      jump\t// in\n    tag_417:\n        /* \"#utility.yul\":17831:17970   */\n      swap1\n      pop\n        /* \"#utility.yul\":17558:17977   */\n      swap2\n      swap1\n      pop\n      jump\t// out\n        /* \"#utility.yul\":17983:18156   */\n    tag_268:\n        /* \"#utility.yul\":18123:18148   */\n      0x46756e647320616c72656164792077697468647261776e000000000000000000\n        /* \"#utility.yul\":18119:18120   */\n      0x00\n        /* \"#utility.yul\":18111:18117   */\n      dup3\n        /* \"#utility.yul\":18107:18121   */\n      add\n        /* \"#utility.yul\":18100:18149   */\n      mstore\n        /* \"#utility.yul\":17983:18156   */\n      pop\n      jump\t// out\n        /* \"#utility.yul\":18162:18528   */\n    tag_269:\n        /* \"#utility.yul\":18304:18307   */\n      0x00\n        /* \"#utility.yul\":18325:18392   */\n      tag_420\n        /* \"#utility.yul\":18389:18391   */\n      0x17\n        /* \"#utility.yul\":18384:18387   */\n      dup4\n        /* \"#utility.yul\":18325:18392   */\n      tag_245\n      jump\t// in\n    tag_420:\n        /* \"#utility.yul\":18318:18392   */\n      swap2\n      pop\n        /* \"#utility.yul\":18401:18494   */\n      tag_421\n        /* \"#utility.yul\":18490:18493   */\n      dup3\n        /* \"#utility.yul\":18401:18494   */\n      tag_268\n      jump\t// in\n    tag_421:\n        /* \"#utility.yul\":18519:18521   */\n      0x20\n        /* \"#utility.yul\":18514:18517   */\n      dup3\n        /* \"#utility.yul\":18510:18522   */\n      add\n        /* \"#utility.yul\":18503:18522   */\n      swap1\n      pop\n        /* \"#utility.yul\":18162:18528   */\n      swap2\n      swap1\n      pop\n      jump\t// out\n        /* \"#utility.yul\":18534:18953   */\n    tag_178:\n        /* \"#utility.yul\":18700:18704   */\n      0x00\n        /* \"#utility.yul\":18738:18740   */\n      0x20\n        /* \"#utility.yul\":18727:18736   */\n      dup3\n        /* \"#utility.yul\":18723:18741   */\n      add\n        /* \"#utility.yul\":18715:18741   */\n      swap1\n      pop\n        /* \"#utility.yul\":18787:18796   */\n      dup2\n        /* \"#utility.yul\":18781:18785   */\n      dup2\n        /* \"#utility.yul\":18777:18797   */\n      sub\n        /* \"#utility.yul\":18773:18774   */\n      0x00\n        /* \"#utility.yul\":18762:18771   */\n      dup4\n        /* \"#utility.yul\":18758:18775   */\n      add\n        /* \"#utility.yul\":18751:18798   */\n      mstore\n        /* \"#utility.yul\":18815:18946   */\n      tag_423\n        /* \"#utility.yul\":18941:18945   */\n      dup2\n        /* \"#utility.yul\":18815:18946   */\n      tag_269\n      jump\t// in\n    tag_423:\n        /* \"#utility.yul\":18807:18946   */\n      swap1\n      pop\n        /* \"#utility.yul\":18534:18953   */\n      swap2\n      swap1\n      pop\n      jump\t// out\n        /* \"#utility.yul\":18959:19135   */\n    tag_270:\n        /* \"#utility.yul\":19099:19127   */\n      0x4269642076616c7565206d75737420626520706f736974697665000000000000\n        /* \"#utility.yul\":19095:19096   */\n      0x00\n        /* \"#utility.yul\":19087:19093   */\n      dup3\n        /* \"#utility.yul\":19083:19097   */\n      add\n        /* \"#utility.yul\":19076:19128   */\n      mstore\n        /* \"#utility.yul\":18959:19135   */\n      pop\n      jump\t// out\n        /* \"#utility.yul\":19141:19507   */\n    tag_271:\n        /* \"#utility.yul\":19283:19286   */\n      0x00\n        /* \"#utility.yul\":19304:19371   */\n      tag_426\n        /* \"#utility.yul\":19368:19370   */\n      0x1a\n        /* \"#utility.yul\":19363:19366   */\n      dup4\n        /* \"#utility.yul\":19304:19371   */\n      tag_245\n      jump\t// in\n    tag_426:\n        /* \"#utility.yul\":19297:19371   */\n      swap2\n      pop\n        /* \"#utility.yul\":19380:19473   */\n      tag_427\n        /* \"#utility.yul\":19469:19472   */\n      dup3\n        /* \"#utility.yul\":19380:19473   */\n      tag_270\n      jump\t// in\n    tag_427:\n        /* \"#utility.yul\":19498:19500   */\n      0x20\n        /* \"#utility.yul\":19493:19496   */\n      dup3\n        /* \"#utility.yul\":19489:19501   */\n      add\n        /* \"#utility.yul\":19482:19501   */\n      swap1\n      pop\n        /* \"#utility.yul\":19141:19507   */\n      swap2\n      swap1\n      pop\n      jump\t// out\n        /* \"#utility.yul\":19513:19932   */\n    tag_192:\n        /* \"#utility.yul\":19679:19683   */\n      0x00\n        /* \"#utility.yul\":19717:19719   */\n      0x20\n        /* \"#utility.yul\":19706:19715   */\n      dup3\n        /* \"#utility.yul\":19702:19720   */\n      add\n        /* \"#utility.yul\":19694:19720   */\n      swap1\n      pop\n        /* \"#utility.yul\":19766:19775   */\n      dup2\n        /* \"#utility.yul\":19760:19764   */\n      dup2\n        /* \"#utility.yul\":19756:19776   */\n      sub\n        /* \"#utility.yul\":19752:19753   */\n      0x00\n        /* \"#utility.yul\":19741:19750   */\n      dup4\n        /* \"#utility.yul\":19737:19754   */\n      add\n        /* \"#utility.yul\":19730:19777   */\n      mstore\n        /* \"#utility.yul\":19794:19925   */\n      tag_429\n        /* \"#utility.yul\":19920:19924   */\n      dup2\n        /* \"#utility.yul\":19794:19925   */\n      tag_271\n      jump\t// in\n    tag_429:\n        /* \"#utility.yul\":19786:19925   */\n      swap1\n      pop\n        /* \"#utility.yul\":19513:19932   */\n      swap2\n      swap1\n      pop\n      jump\t// out\n        /* \"#utility.yul\":19938:20129   */\n    tag_196:\n        /* \"#utility.yul\":19978:19981   */\n      0x00\n        /* \"#utility.yul\":19997:20017   */\n      tag_431\n        /* \"#utility.yul\":20015:20016   */\n      dup3\n        /* \"#utility.yul\":19997:20017   */\n      tag_226\n      jump\t// in\n    tag_431:\n        /* \"#utility.yul\":19992:20017   */\n      swap2\n      pop\n        /* \"#utility.yul\":20031:20051   */\n      tag_432\n        /* \"#utility.yul\":20049:20050   */\n      dup4\n        /* \"#utility.yul\":20031:20051   */\n      tag_226\n      jump\t// in\n    tag_432:\n        /* \"#utility.yul\":20026:20051   */\n      swap3\n      pop\n        /* \"#utility.yul\":20074:20075   */\n      dup3\n        /* \"#utility.yul\":20071:20072   */\n      dup3\n        /* \"#utility.yul\":20067:20076   */\n      add\n        /* \"#utility.yul\":20060:20076   */\n      swap1\n      pop\n        /* \"#utility.yul\":20095:20098   */\n      dup1\n        /* \"#utility.yul\":20092:20093   */\n      dup3\n        /* \"#utility.yul\":20089:20099   */\n      gt\n        /* \"#utility.yul\":20086:20122   */\n      iszero\n      tag_433\n      jumpi\n        /* \"#utility.yul\":20102:20120   */\n      tag_434\n      tag_250\n      jump\t// in\n    tag_434:\n        /* \"#utility.yul\":20086:20122   */\n    tag_433:\n        /* \"#utility.yul\":19938:20129   */\n      swap3\n      swap2\n      pop\n      pop\n      jump\t// out\n        /* \"#utility.yul\":20135:20368   */\n    tag_272:\n        /* \"#utility.yul\":20275:20309   */\n      0x426964206d757374206578636565642063757272656e74206869676865737420\n        /* \"#utility.yul\":20271:20272   */\n      0x00\n        /* \"#utility.yul\":20263:20269   */\n      dup3\n        /* \"#utility.yul\":20259:20273   */\n      add\n        /* \"#utility.yul\":20252:20310   */\n      mstore\n        /* \"#utility.yul\":20344:20360   */\n      0x6279206174206c65617374203525000000000000000000000000000000000000\n        /* \"#utility.yul\":20339:20341   */\n      0x20\n        /* \"#utility.yul\":20331:20337   */\n      dup3\n        /* \"#utility.yul\":20327:20342   */\n      add\n        /* \"#utility.yul\":20320:20361   */\n      mstore\n        /* \"#utility.yul\":20135:20368   */\n      pop\n      jump\t// out\n        /* \"#utility.yul\":20374:20740   */\n    tag_273:\n        /* \"#utility.yul\":20516:20519   */\n      0x00\n        /* \"#utility.yul\":20537:20604   */\n      tag_437\n        /* \"#utility.yul\":20601:20603   */\n      0x2e\n        /* \"#utility.yul\":20596:20599   */\n      dup4\n        /* \"#utility.yul\":20537:20604   */\n      tag_245\n      jump\t// in\n    tag_437:\n        /* \"#utility.yul\":20530:20604   */\n      swap2\n      pop\n        /* \"#utility.yul\":20613:20706   */\n      tag_438\n        /* \"#utility.yul\":20702:20705   */\n      dup3\n        /* \"#utility.yul\":20613:20706   */\n      tag_272\n      jump\t// in\n    tag_438:\n        /* \"#utility.yul\":20731:20733   */\n      0x40\n        /* \"#utility.yul\":20726:20729   */\n      dup3\n        /* \"#utility.yul\":20722:20734   */\n      add\n        /* \"#utility.yul\":20715:20734   */\n      swap1\n      pop\n        /* \"#utility.yul\":20374:20740   */\n      swap2\n      swap1\n      pop\n      jump\t// out\n        /* \"#utility.yul\":20746:21165   */\n    tag_200:\n        /* \"#utility.yul\":20912:20916   */\n      0x00\n        /* \"#utility.yul\":20950:20952   */\n      0x20\n        /* \"#utility.yul\":20939:20948   */\n      dup3\n        /* \"#utility.yul\":20935:20953   */\n      add\n        /* \"#utility.yul\":20927:20953   */\n      swap1\n      pop\n        /* \"#utility.yul\":20999:21008   */\n      dup2\n        /* \"#utility.yul\":20993:20997   */\n      dup2\n        /* \"#utility.yul\":20989:21009   */\n      sub\n        /* \"#utility.yul\":20985:20986   */\n      0x00\n        /* \"#utility.yul\":20974:20983   */\n      dup4\n        /* \"#utility.yul\":20970:20987   */\n      add\n        /* \"#utility.yul\":20963:21010   */\n      mstore\n        /* \"#utility.yul\":21027:21158   */\n      tag_440\n        /* \"#utility.yul\":21153:21157   */\n      dup2\n        /* \"#utility.yul\":21027:21158   */\n      tag_273\n      jump\t// in\n    tag_440:\n        /* \"#utility.yul\":21019:21158   */\n      swap1\n      pop\n        /* \"#utility.yul\":20746:21165   */\n      swap2\n      swap1\n      pop\n      jump\t// out\n        /* \"#utility.yul\":21171:21503   */\n    tag_212:\n        /* \"#utility.yul\":21292:21296   */\n      0x00\n        /* \"#utility.yul\":21330:21332   */\n      0x40\n        /* \"#utility.yul\":21319:21328   */\n      dup3\n        /* \"#utility.yul\":21315:21333   */\n      add\n        /* \"#utility.yul\":21307:21333   */\n      swap1\n      pop\n        /* \"#utility.yul\":21343:21414   */\n      tag_442\n        /* \"#utility.yul\":21411:21412   */\n      0x00\n        /* \"#utility.yul\":21400:21409   */\n      dup4\n        /* \"#utility.yul\":21396:21413   */\n      add\n        /* \"#utility.yul\":21387:21393   */\n      dup6\n        /* \"#utility.yul\":21343:21414   */\n      tag_232\n      jump\t// in\n    tag_442:\n        /* \"#utility.yul\":21424:21496   */\n      tag_443\n        /* \"#utility.yul\":21492:21494   */\n      0x20\n        /* \"#utility.yul\":21481:21490   */\n      dup4\n        /* \"#utility.yul\":21477:21495   */\n      add\n        /* \"#utility.yul\":21468:21474   */\n      dup5\n        /* \"#utility.yul\":21424:21496   */\n      tag_232\n      jump\t// in\n    tag_443:\n        /* \"#utility.yul\":21171:21503   */\n      swap4\n      swap3\n      pop\n      pop\n      pop\n      jump\t// out\n\n    auxdata: 0xa26469706673582212205a4313fd1cc70e9fb94a881db39b385ea3bc3a116ce8ed5e47dd142ebf6ac9cb64736f6c634300081e0033\n}\n",
				"bytecode": {
					"linkReferences": {},
					"object": "60c060405234801561000f575f5ffd5b50604051611e99380380611e9983398181016040528101906100319190610100565b610258811015610076576040517f08c379a000000000000000000000000000000000000000000000000000000000815260040161006d90610185565b60405180910390fd5b3373ffffffffffffffffffffffffffffffffffffffff1660808173ffffffffffffffffffffffffffffffffffffffff16815250508060a0818152505080426100be91906101d0565b5f8190555050610203565b5f5ffd5b5f819050919050565b6100df816100cd565b81146100e9575f5ffd5b50565b5f815190506100fa816100d6565b92915050565b5f60208284031215610115576101146100c9565b5b5f610122848285016100ec565b91505092915050565b5f82825260208201905092915050565b7f4475726174696f6e20746f6f2073686f727400000000000000000000000000005f82015250565b5f61016f60128361012b565b915061017a8261013b565b602082019050919050565b5f6020820190508181035f83015261019c81610163565b9050919050565b7f4e487b71000000000000000000000000000000000000000000000000000000005f52601160045260245ffd5b5f6101da826100cd565b91506101e5836100cd565b92508282019050808211156101fd576101fc6101a3565b5b92915050565b60805160a051611c6e61022b5f395f610aa601525f81816104d60152610a580152611c6e5ff3fe60806040526004361061010c575f3560e01c806391f9015711610094578063e0dd89ec11610063578063e0dd89ec14610324578063e11747171461033a578063ecde973d14610364578063ecfc7ecc146103a2578063efb98bcf146103ac57610113565b806391f901571461027c578063b404e001146102a6578063b815a357146102d0578063d57bde79146102fa57610113565b80634b449cba116100db5780634b449cba146101aa5780635dd624df146101d45780637e50bb83146101fe57806386433374146102285780638da5cb5b1461025257610113565b8063093d2769146101175780631211540c1461012d57806322bb26f7146101555780634a874bb91461018057610113565b3661011357005b5f5ffd5b348015610122575f5ffd5b5061012b6103d6565b005b348015610138575f5ffd5b50610153600480360381019061014e9190611254565b6105ae565b005b348015610160575f5ffd5b506101696108e1565b6040516101779291906112cd565b60405180910390f35b34801561018b575f5ffd5b5061019461095f565b6040516101a191906112f4565b60405180910390f35b3480156101b5575f5ffd5b506101be610964565b6040516101cb91906112f4565b60405180910390f35b3480156101df575f5ffd5b506101e8610969565b6040516101f591906112f4565b60405180910390f35b348015610209575f5ffd5b5061021261096f565b60405161021f919061142d565b60405180910390f35b348015610233575f5ffd5b5061023c610a43565b604051610249919061145c565b60405180910390f35b34801561025d575f5ffd5b50610266610a56565b6040516102739190611475565b60405180910390f35b348015610287575f5ffd5b50610290610a7a565b60405161029d9190611475565b60405180910390f35b3480156102b1575f5ffd5b506102ba610a9f565b6040516102c791906112f4565b60405180910390f35b3480156102db575f5ffd5b506102e4610aa4565b6040516102f191906112f4565b60405180910390f35b348015610305575f5ffd5b5061030e610ac8565b60405161031b91906112f4565b60405180910390f35b34801561032f575f5ffd5b50610338610ace565b005b348015610345575f5ffd5b5061034e610d75565b60405161035b91906112f4565b60405180910390f35b34801561036f575f5ffd5b5061038a60048036038101906103859190611254565b610d7b565b6040516103999392919061148e565b60405180910390f35b6103aa610ddb565b005b3480156103b7575f5ffd5b506103c06111bc565b6040516103cd91906112f4565b60405180910390f35b5f544211806103f15750600260149054906101000a900460ff165b610430576040517f08c379a00000000000000000000000000000000000000000000000000000000081526004016104279061151d565b60405180910390fd5b600260149054906101000a900460ff1615610480576040517f08c379a000000000000000000000000000000000000000000000000000000000815260040161047790611585565b60405180910390fd5b6001600260146101000a81548160ff0219169083151502179055505f600154111561053b575f606460026001546104b791906115d0565b6104c1919061163e565b90505f816001546104d2919061166e565b90507f000000000000000000000000000000000000000000000000000000000000000073ffffffffffffffffffffffffffffffffffffffff166108fc8290811502906040515f60405180830381858888f19350505050158015610537573d5f5f3e3d5ffd5b5050505b60025f9054906101000a900473ffffffffffffffffffffffffffffffffffffffff1673ffffffffffffffffffffffffffffffffffffffff167fb76f1dfdec2aecd1c5f01191cc10a8bad0dd5c2280438ccecc3fcd170533b42c6001546040516105a491906112f4565b60405180910390a2565b5f544211156105f2576040517f08c379a00000000000000000000000000000000000000000000000000000000081526004016105e9906116eb565b60405180910390fd5b600260149054906101000a900460ff1615610642576040517f08c379a000000000000000000000000000000000000000000000000000000000815260040161063990611753565b60405180910390fd5b5f8111610684576040517f08c379a000000000000000000000000000000000000000000000000000000000815260040161067b906117e1565b60405180910390fd5b5f60045f3373ffffffffffffffffffffffffffffffffffffffff1673ffffffffffffffffffffffffffffffffffffffff1681526020019081526020015f205490505f8111610707576040517f08c379a00000000000000000000000000000000000000000000000000000000081526004016106fe90611849565b60405180910390fd5b5f6003600183610717919061166e565b8154811061072857610727611867565b5b905f5260205f20906003020190505f60025f9054906101000a900473ffffffffffffffffffffffffffffffffffffffff1673ffffffffffffffffffffffffffffffffffffffff163373ffffffffffffffffffffffffffffffffffffffff1614610791575f610795565b6001545b9050808260010154116107dd576040517f08c379a00000000000000000000000000000000000000000000000000000000081526004016107d4906118de565b60405180910390fd5b808483600101546107ee919061166e565b101561082f576040517f08c379a00000000000000000000000000000000000000000000000000000000081526004016108269061196c565b60405180910390fd5b83826001015f828254610842919061166e565b925050819055503373ffffffffffffffffffffffffffffffffffffffff166108fc8590811502906040515f60405180830381858888f1935050505015801561088c573d5f5f3e3d5ffd5b503373ffffffffffffffffffffffffffffffffffffffff167f8468f8fa62fc679cf8165eab7662a1fa977705b501dd787e9ec07884885425f1856040516108d391906112f4565b60405180910390a250505050565b5f5f600260149054906101000a900460ff16610932576040517f08c379a0000000000000000000000000000000000000000000000000000000008152600401610929906119d4565b60405180910390fd5b60025f9054906101000a900473ffffffffffffffffffffffffffffffffffffffff16600154915091509091565b600581565b5f5481565b61025881565b60606003805480602002602001604051908101604052809291908181526020015f905b82821015610a3a578382905f5260205f2090600302016040518060600160405290815f82015f9054906101000a900473ffffffffffffffffffffffffffffffffffffffff1673ffffffffffffffffffffffffffffffffffffffff1673ffffffffffffffffffffffffffffffffffffffff16815260200160018201548152602001600282015f9054906101000a900460ff16151515158152505081526020019060010190610992565b50505050905090565b600260149054906101000a900460ff1681565b7f000000000000000000000000000000000000000000000000000000000000000081565b60025f9054906101000a900473ffffffffffffffffffffffffffffffffffffffff1681565b600281565b7f000000000000000000000000000000000000000000000000000000000000000081565b60015481565b5f54421180610ae95750600260149054906101000a900460ff165b610b28576040517f08c379a0000000000000000000000000000000000000000000000000000000008152600401610b1f9061151d565b60405180910390fd5b60025f9054906101000a900473ffffffffffffffffffffffffffffffffffffffff1673ffffffffffffffffffffffffffffffffffffffff163373ffffffffffffffffffffffffffffffffffffffff1603610bb7576040517f08c379a0000000000000000000000000000000000000000000000000000000008152600401610bae90611a62565b60405180910390fd5b5f60045f3373ffffffffffffffffffffffffffffffffffffffff1673ffffffffffffffffffffffffffffffffffffffff1681526020019081526020015f205490505f8111610c3a576040517f08c379a0000000000000000000000000000000000000000000000000000000008152600401610c3190611849565b60405180910390fd5b5f6003600183610c4a919061166e565b81548110610c5b57610c5a611867565b5b905f5260205f2090600302019050806002015f9054906101000a900460ff1615610cba576040517f08c379a0000000000000000000000000000000000000000000000000000000008152600401610cb190611aca565b60405180910390fd5b6001816002015f6101000a81548160ff0219169083151502179055505f816001015490503373ffffffffffffffffffffffffffffffffffffffff166108fc8290811502906040515f60405180830381858888f19350505050158015610d21573d5f5f3e3d5ffd5b503373ffffffffffffffffffffffffffffffffffffffff167f779c86999fb727ca861d0288aa11ed4104347721c571e4f0da5172afb607d88582604051610d6891906112f4565b60405180910390a2505050565b61025881565b60038181548110610d8a575f80fd5b905f5260205f2090600302015f91509050805f015f9054906101000a900473ffffffffffffffffffffffffffffffffffffffff1690806001015490806002015f9054906101000a900460ff16905083565b5f54421115610e1f576040517f08c379a0000000000000000000000000000000000000000000000000000000008152600401610e16906116eb565b60405180910390fd5b600260149054906101000a900460ff1615610e6f576040517f08c379a0000000000000000000000000000000000000000000000000000000008152600401610e6690611753565b60405180910390fd5b5f3411610eb1576040517f08c379a0000000000000000000000000000000000000000000000000000000008152600401610ea890611b32565b60405180910390fd5b5f60646005600154610ec391906115d0565b610ecd919061163e565b600154610eda9190611b50565b90505f60015403610ee9575f90505b803411610f2b576040517f08c379a0000000000000000000000000000000000000000000000000000000008152600401610f2290611bf3565b60405180910390fd5b5f60045f3373ffffffffffffffffffffffffffffffffffffffff1673ffffffffffffffffffffffffffffffffffffffff1681526020019081526020015f205490505f811115610fc3575f6003600183610f84919061166e565b81548110610f9557610f94611867565b5b905f5260205f209060030201905034816001015f828254610fb69190611b50565b92505081905550506110d5565b600360405180606001604052803373ffffffffffffffffffffffffffffffffffffffff1681526020013481526020015f1515815250908060018154018082558091505060019003905f5260205f2090600302015f909190919091505f820151815f015f6101000a81548173ffffffffffffffffffffffffffffffffffffffff021916908373ffffffffffffffffffffffffffffffffffffffff160217905550602082015181600101556040820151816002015f6101000a81548160ff021916908315150217905550505060038054905060045f3373ffffffffffffffffffffffffffffffffffffffff1673ffffffffffffffffffffffffffffffffffffffff1681526020019081526020015f20819055505b346001819055503360025f6101000a81548173ffffffffffffffffffffffffffffffffffffffff021916908373ffffffffffffffffffffffffffffffffffffffff1602179055505f6111256111de565b90503373ffffffffffffffffffffffffffffffffffffffff167f87f5b2fe112bf269d30fb8ca9dc0bde0afd0cc39258e13fafd75fe794795bf0e345f54604051611170929190611c11565b60405180910390a280156111b7577fc2b459809119087ca9d2bc10dea53a51b7d848b1a11075db037bdca58292c3e85f546040516111ae91906112f4565b60405180910390a15b505050565b5f5f5442106111cb575f6111d9565b425f546111d8919061166e565b5b905090565b5f610258425f546111ef919061166e565b11611216576102585f5f8282546112069190611b50565b925050819055506001905061121a565b5f90505b90565b5f5ffd5b5f819050919050565b61123381611221565b811461123d575f5ffd5b50565b5f8135905061124e8161122a565b92915050565b5f602082840312156112695761126861121d565b5b5f61127684828501611240565b91505092915050565b5f73ffffffffffffffffffffffffffffffffffffffff82169050919050565b5f6112a88261127f565b9050919050565b6112b88161129e565b82525050565b6112c781611221565b82525050565b5f6040820190506112e05f8301856112af565b6112ed60208301846112be565b9392505050565b5f6020820190506113075f8301846112be565b92915050565b5f81519050919050565b5f82825260208201905092915050565b5f819050602082019050919050565b61133f8161129e565b82525050565b61134e81611221565b82525050565b5f8115159050919050565b61136881611354565b82525050565b606082015f8201516113825f850182611336565b5060208201516113956020850182611345565b5060408201516113a8604085018261135f565b50505050565b5f6113b9838361136e565b60608301905092915050565b5f602082019050919050565b5f6113db8261130d565b6113e58185611317565b93506113f083611327565b805f5b8381101561142057815161140788826113ae565b9750611412836113c5565b9250506001810190506113f3565b5085935050505092915050565b5f6020820190508181035f83015261144581846113d1565b905092915050565b61145681611354565b82525050565b5f60208201905061146f5f83018461144d565b92915050565b5f6020820190506114885f8301846112af565b92915050565b5f6060820190506114a15f8301866112af565b6114ae60208301856112be565b6114bb604083018461144d565b949350505050565b5f82825260208201905092915050565b7f41756374696f6e207374696c6c206163746976650000000000000000000000005f82015250565b5f6115076014836114c3565b9150611512826114d3565b602082019050919050565b5f6020820190508181035f830152611534816114fb565b9050919050565b7f41756374696f6e20616c726561647920636f6e636c75646564000000000000005f82015250565b5f61156f6019836114c3565b915061157a8261153b565b602082019050919050565b5f6020820190508181035f83015261159c81611563565b9050919050565b7f4e487b71000000000000000000000000000000000000000000000000000000005f52601160045260245ffd5b5f6115da82611221565b91506115e583611221565b92508282026115f381611221565b9150828204841483151761160a576116096115a3565b5b5092915050565b7f4e487b71000000000000000000000000000000000000000000000000000000005f52601260045260245ffd5b5f61164882611221565b915061165383611221565b92508261166357611662611611565b5b828204905092915050565b5f61167882611221565b915061168383611221565b925082820390508181111561169b5761169a6115a3565b5b92915050565b7f41756374696f6e2068617320636f6e636c7564656400000000000000000000005f82015250565b5f6116d56015836114c3565b91506116e0826116a1565b602082019050919050565b5f6020820190508181035f830152611702816116c9565b9050919050565b7f41756374696f6e20776173206d616e75616c6c7920636f6e636c7564656400005f82015250565b5f61173d601e836114c3565b915061174882611709565b602082019050919050565b5f6020820190508181035f83015261176a81611731565b9050919050565b7f5769746864726177616c20616d6f756e74206d75737420626520706f736974695f8201527f7665000000000000000000000000000000000000000000000000000000000000602082015250565b5f6117cb6022836114c3565b91506117d682611771565b604082019050919050565b5f6020820190508181035f8301526117f8816117bf565b9050919050565b7f4e6f206269647320706c616365642062792063616c6c657200000000000000005f82015250565b5f6118336018836114c3565b915061183e826117ff565b602082019050919050565b5f6020820190508181035f83015261186081611827565b9050919050565b7f4e487b71000000000000000000000000000000000000000000000000000000005f52603260045260245ffd5b7f4e6f206578636573732066756e647320617661696c61626c65000000000000005f82015250565b5f6118c86019836114c3565b91506118d382611894565b602082019050919050565b5f6020820190508181035f8301526118f5816118bc565b9050919050565b7f5769746864726177616c206578636565647320617661696c61626c65206578635f8201527f6573730000000000000000000000000000000000000000000000000000000000602082015250565b5f6119566023836114c3565b9150611961826118fc565b604082019050919050565b5f6020820190508181035f8301526119838161194a565b9050919050565b7f41756374696f6e206e6f742079657420636f6e636c75646564000000000000005f82015250565b5f6119be6019836114c3565b91506119c98261198a565b602082019050919050565b5f6020820190508181035f8301526119eb816119b2565b9050919050565b7f57696e6e65722063616e6e6f7420706572666f726d207468697320616374696f5f8201527f6e00000000000000000000000000000000000000000000000000000000000000602082015250565b5f611a4c6021836114c3565b9150611a57826119f2565b604082019050919050565b5f6020820190508181035f830152611a7981611a40565b9050919050565b7f46756e647320616c72656164792077697468647261776e0000000000000000005f82015250565b5f611ab46017836114c3565b9150611abf82611a80565b602082019050919050565b5f6020820190508181035f830152611ae181611aa8565b9050919050565b7f4269642076616c7565206d75737420626520706f7369746976650000000000005f82015250565b5f611b1c601a836114c3565b9150611b2782611ae8565b602082019050919050565b5f6020820190508181035f830152611b4981611b10565b9050919050565b5f611b5a82611221565b9150611b6583611221565b9250828201905080821115611b7d57611b7c6115a3565b5b92915050565b7f426964206d757374206578636565642063757272656e742068696768657374205f8201527f6279206174206c65617374203525000000000000000000000000000000000000602082015250565b5f611bdd602e836114c3565b9150611be882611b83565b604082019050919050565b5f6020820190508181035f830152611c0a81611bd1565b9050919050565b5f604082019050611c245f8301856112be565b611c3160208301846112be565b939250505056fea26469706673582212205a4313fd1cc70e9fb94a881db39b385ea3bc3a116ce8ed5e47dd142ebf6ac9cb64736f6c634300081e0033",
					"opcodes": "PUSH1 0xC0 PUSH1 0x40 MSTORE CALLVALUE DUP1 ISZERO PUSH2 0xF JUMPI PUSH0 PUSH0 REVERT JUMPDEST POP PUSH1 0x40 MLOAD PUSH2 0x1E99 CODESIZE SUB DUP1 PUSH2 0x1E99 DUP4 CODECOPY DUP2 DUP2 ADD PUSH1 0x40 MSTORE DUP2 ADD SWAP1 PUSH2 0x31 SWAP2 SWAP1 PUSH2 0x100 JUMP JUMPDEST PUSH2 0x258 DUP2 LT ISZERO PUSH2 0x76 JUMPI PUSH1 0x40 MLOAD PUSH32 0x8C379A000000000000000000000000000000000000000000000000000000000 DUP2 MSTORE PUSH1 0x4 ADD PUSH2 0x6D SWAP1 PUSH2 0x185 JUMP JUMPDEST PUSH1 0x40 MLOAD DUP1 SWAP2 SUB SWAP1 REVERT JUMPDEST CALLER PUSH20 0xFFFFFFFFFFFFFFFFFFFFFFFFFFFFFFFFFFFFFFFF AND PUSH1 0x80 DUP2 PUSH20 0xFFFFFFFFFFFFFFFFFFFFFFFFFFFFFFFFFFFFFFFF AND DUP2 MSTORE POP POP DUP1 PUSH1 0xA0 DUP2 DUP2 MSTORE POP POP DUP1 TIMESTAMP PUSH2 0xBE SWAP2 SWAP1 PUSH2 0x1D0 JUMP JUMPDEST PUSH0 DUP2 SWAP1 SSTORE POP POP PUSH2 0x203 JUMP JUMPDEST PUSH0 PUSH0 REVERT JUMPDEST PUSH0 DUP2 SWAP1 POP SWAP2 SWAP1 POP JUMP JUMPDEST PUSH2 0xDF DUP2 PUSH2 0xCD JUMP JUMPDEST DUP2 EQ PUSH2 0xE9 JUMPI PUSH0 PUSH0 REVERT JUMPDEST POP JUMP JUMPDEST PUSH0 DUP2 MLOAD SWAP1 POP PUSH2 0xFA DUP2 PUSH2 0xD6 JUMP JUMPDEST SWAP3 SWAP2 POP POP JUMP JUMPDEST PUSH0 PUSH1 0x20 DUP3 DUP5 SUB SLT ISZERO PUSH2 0x115 JUMPI PUSH2 0x114 PUSH2 0xC9 JUMP JUMPDEST JUMPDEST PUSH0 PUSH2 0x122 DUP5 DUP3 DUP6 ADD PUSH2 0xEC JUMP JUMPDEST SWAP2 POP POP SWAP3 SWAP2 POP POP JUMP JUMPDEST PUSH0 DUP3 DUP3 MSTORE PUSH1 0x20 DUP3 ADD SWAP1 POP SWAP3 SWAP2 POP POP JUMP JUMPDEST PUSH32 0x4475726174696F6E20746F6F2073686F72740000000000000000000000000000 PUSH0 DUP3 ADD MSTORE POP JUMP JUMPDEST PUSH0 PUSH2 0x16F PUSH1 0x12 DUP4 PUSH2 0x12B JUMP JUMPDEST SWAP2 POP PUSH2 0x17A DUP3 PUSH2 0x13B JUMP JUMPDEST PUSH1 0x20 DUP3 ADD SWAP1 POP SWAP2 SWAP1 POP JUMP JUMPDEST PUSH0 PUSH1 0x20 DUP3 ADD SWAP1 POP DUP2 DUP2 SUB PUSH0 DUP4 ADD MSTORE PUSH2 0x19C DUP2 PUSH2 0x163 JUMP JUMPDEST SWAP1 POP SWAP2 SWAP1 POP JUMP JUMPDEST PUSH32 0x4E487B7100000000000000000000000000000000000000000000000000000000 PUSH0 MSTORE PUSH1 0x11 PUSH1 0x4 MSTORE PUSH1 0x24 PUSH0 REVERT JUMPDEST PUSH0 PUSH2 0x1DA DUP3 PUSH2 0xCD JUMP JUMPDEST SWAP2 POP PUSH2 0x1E5 DUP4 PUSH2 0xCD JUMP JUMPDEST SWAP3 POP DUP3 DUP3 ADD SWAP1 POP DUP1 DUP3 GT ISZERO PUSH2 0x1FD JUMPI PUSH2 0x1FC PUSH2 0x1A3 JUMP JUMPDEST JUMPDEST SWAP3 SWAP2 POP POP JUMP JUMPDEST PUSH1 0x80 MLOAD PUSH1 0xA0 MLOAD PUSH2 0x1C6E PUSH2 0x22B PUSH0 CODECOPY PUSH0 PUSH2 0xAA6 ADD MSTORE PUSH0 DUP2 DUP2 PUSH2 0x4D6 ADD MSTORE PUSH2 0xA58 ADD MSTORE PUSH2 0x1C6E PUSH0 RETURN INVALID PUSH1 0x80 PUSH1 0x40 MSTORE PUSH1 0x4 CALLDATASIZE LT PUSH2 0x10C JUMPI PUSH0 CALLDATALOAD PUSH1 0xE0 SHR DUP1 PUSH4 0x91F90157 GT PUSH2 0x94 JUMPI DUP1 PUSH4 0xE0DD89EC GT PUSH2 0x63 JUMPI DUP1 PUSH4 0xE0DD89EC EQ PUSH2 0x324 JUMPI DUP1 PUSH4 0xE1174717 EQ PUSH2 0x33A JUMPI DUP1 PUSH4 0xECDE973D EQ PUSH2 0x364 JUMPI DUP1 PUSH4 0xECFC7ECC EQ PUSH2 0x3A2 JUMPI DUP1 PUSH4 0xEFB98BCF EQ PUSH2 0x3AC JUMPI PUSH2 0x113 JUMP JUMPDEST DUP1 PUSH4 0x91F90157 EQ PUSH2 0x27C JUMPI DUP1 PUSH4 0xB404E001 EQ PUSH2 0x2A6 JUMPI DUP1 PUSH4 0xB815A357 EQ PUSH2 0x2D0 JUMPI DUP1 PUSH4 0xD57BDE79 EQ PUSH2 0x2FA JUMPI PUSH2 0x113 JUMP JUMPDEST DUP1 PUSH4 0x4B449CBA GT PUSH2 0xDB JUMPI DUP1 PUSH4 0x4B449CBA EQ PUSH2 0x1AA JUMPI DUP1 PUSH4 0x5DD624DF EQ PUSH2 0x1D4 JUMPI DUP1 PUSH4 0x7E50BB83 EQ PUSH2 0x1FE JUMPI DUP1 PUSH4 0x86433374 EQ PUSH2 0x228 JUMPI DUP1 PUSH4 0x8DA5CB5B EQ PUSH2 0x252 JUMPI PUSH2 0x113 JUMP JUMPDEST DUP1 PUSH4 0x93D2769 EQ PUSH2 0x117 JUMPI DUP1 PUSH4 0x1211540C EQ PUSH2 0x12D JUMPI DUP1 PUSH4 0x22BB26F7 EQ PUSH2 0x155 JUMPI DUP1 PUSH4 0x4A874BB9 EQ PUSH2 0x180 JUMPI PUSH2 0x113 JUMP JUMPDEST CALLDATASIZE PUSH2 0x113 JUMPI STOP JUMPDEST PUSH0 PUSH0 REVERT JUMPDEST CALLVALUE DUP1 ISZERO PUSH2 0x122 JUMPI PUSH0 PUSH0 REVERT JUMPDEST POP PUSH2 0x12B PUSH2 0x3D6 JUMP JUMPDEST STOP JUMPDEST CALLVALUE DUP1 ISZERO PUSH2 0x138 JUMPI PUSH0 PUSH0 REVERT JUMPDEST POP PUSH2 0x153 PUSH1 0x4 DUP1 CALLDATASIZE SUB DUP2 ADD SWAP1 PUSH2 0x14E SWAP2 SWAP1 PUSH2 0x1254 JUMP JUMPDEST PUSH2 0x5AE JUMP JUMPDEST STOP JUMPDEST CALLVALUE DUP1 ISZERO PUSH2 0x160 JUMPI PUSH0 PUSH0 REVERT JUMPDEST POP PUSH2 0x169 PUSH2 0x8E1 JUMP JUMPDEST PUSH1 0x40 MLOAD PUSH2 0x177 SWAP3 SWAP2 SWAP1 PUSH2 0x12CD JUMP JUMPDEST PUSH1 0x40 MLOAD DUP1 SWAP2 SUB SWAP1 RETURN JUMPDEST CALLVALUE DUP1 ISZERO PUSH2 0x18B JUMPI PUSH0 PUSH0 REVERT JUMPDEST POP PUSH2 0x194 PUSH2 0x95F JUMP JUMPDEST PUSH1 0x40 MLOAD PUSH2 0x1A1 SWAP2 SWAP1 PUSH2 0x12F4 JUMP JUMPDEST PUSH1 0x40 MLOAD DUP1 SWAP2 SUB SWAP1 RETURN JUMPDEST CALLVALUE DUP1 ISZERO PUSH2 0x1B5 JUMPI PUSH0 PUSH0 REVERT JUMPDEST POP PUSH2 0x1BE PUSH2 0x964 JUMP JUMPDEST PUSH1 0x40 MLOAD PUSH2 0x1CB SWAP2 SWAP1 PUSH2 0x12F4 JUMP JUMPDEST PUSH1 0x40 MLOAD DUP1 SWAP2 SUB SWAP1 RETURN JUMPDEST CALLVALUE DUP1 ISZERO PUSH2 0x1DF JUMPI PUSH0 PUSH0 REVERT JUMPDEST POP PUSH2 0x1E8 PUSH2 0x969 JUMP JUMPDEST PUSH1 0x40 MLOAD PUSH2 0x1F5 SWAP2 SWAP1 PUSH2 0x12F4 JUMP JUMPDEST PUSH1 0x40 MLOAD DUP1 SWAP2 SUB SWAP1 RETURN JUMPDEST CALLVALUE DUP1 ISZERO PUSH2 0x209 JUMPI PUSH0 PUSH0 REVERT JUMPDEST POP PUSH2 0x212 PUSH2 0x96F JUMP JUMPDEST PUSH1 0x40 MLOAD PUSH2 0x21F SWAP2 SWAP1 PUSH2 0x142D JUMP JUMPDEST PUSH1 0x40 MLOAD DUP1 SWAP2 SUB SWAP1 RETURN JUMPDEST CALLVALUE DUP1 ISZERO PUSH2 0x233 JUMPI PUSH0 PUSH0 REVERT JUMPDEST POP PUSH2 0x23C PUSH2 0xA43 JUMP JUMPDEST PUSH1 0x40 MLOAD PUSH2 0x249 SWAP2 SWAP1 PUSH2 0x145C JUMP JUMPDEST PUSH1 0x40 MLOAD DUP1 SWAP2 SUB SWAP1 RETURN JUMPDEST CALLVALUE DUP1 ISZERO PUSH2 0x25D JUMPI PUSH0 PUSH0 REVERT JUMPDEST POP PUSH2 0x266 PUSH2 0xA56 JUMP JUMPDEST PUSH1 0x40 MLOAD PUSH2 0x273 SWAP2 SWAP1 PUSH2 0x1475 JUMP JUMPDEST PUSH1 0x40 MLOAD DUP1 SWAP2 SUB SWAP1 RETURN JUMPDEST CALLVALUE DUP1 ISZERO PUSH2 0x287 JUMPI PUSH0 PUSH0 REVERT JUMPDEST POP PUSH2 0x290 PUSH2 0xA7A JUMP JUMPDEST PUSH1 0x40 MLOAD PUSH2 0x29D SWAP2 SWAP1 PUSH2 0x1475 JUMP JUMPDEST PUSH1 0x40 MLOAD DUP1 SWAP2 SUB SWAP1 RETURN JUMPDEST CALLVALUE DUP1 ISZERO PUSH2 0x2B1 JUMPI PUSH0 PUSH0 REVERT JUMPDEST POP PUSH2 0x2BA PUSH2 0xA9F JUMP JUMPDEST PUSH1 0x40 MLOAD PUSH2 0x2C7 SWAP2 SWAP1 PUSH2 0x12F4 JUMP JUMPDEST PUSH1 0x40 MLOAD DUP1 SWAP2 SUB SWAP1 RETURN JUMPDEST CALLVALUE DUP1 ISZERO PUSH2 0x2DB JUMPI PUSH0 PUSH0 REVERT JUMPDEST POP PUSH2 0x2E4 PUSH2 0xAA4 JUMP JUMPDEST PUSH1 0x40 MLOAD PUSH2 0x2F1 SWAP2 SWAP1 PUSH2 0x12F4 JUMP JUMPDEST PUSH1 0x40 MLOAD DUP1 SWAP2 SUB SWAP1 RETURN JUMPDEST CALLVALUE DUP1 ISZERO PUSH2 0x305 JUMPI PUSH0 PUSH0 REVERT JUMPDEST POP PUSH2 0x30E PUSH2 0xAC8 JUMP JUMPDEST PUSH1 0x40 MLOAD PUSH2 0x31B SWAP2 SWAP1 PUSH2 0x12F4 JUMP JUMPDEST PUSH1 0x40 MLOAD DUP1 SWAP2 SUB SWAP1 RETURN JUMPDEST CALLVALUE DUP1 ISZERO PUSH2 0x32F JUMPI PUSH0 PUSH0 REVERT JUMPDEST POP PUSH2 0x338 PUSH2 0xACE JUMP JUMPDEST STOP JUMPDEST CALLVALUE DUP1 ISZERO PUSH2 0x345 JUMPI PUSH0 PUSH0 REVERT JUMPDEST POP PUSH2 0x34E PUSH2 0xD75 JUMP JUMPDEST PUSH1 0x40 MLOAD PUSH2 0x35B SWAP2 SWAP1 PUSH2 0x12F4 JUMP JUMPDEST PUSH1 0x40 MLOAD DUP1 SWAP2 SUB SWAP1 RETURN JUMPDEST CALLVALUE DUP1 ISZERO PUSH2 0x36F JUMPI PUSH0 PUSH0 REVERT JUMPDEST POP PUSH2 0x38A PUSH1 0x4 DUP1 CALLDATASIZE SUB DUP2 ADD SWAP1 PUSH2 0x385 SWAP2 SWAP1 PUSH2 0x1254 JUMP JUMPDEST PUSH2 0xD7B JUMP JUMPDEST PUSH1 0x40 MLOAD PUSH2 0x399 SWAP4 SWAP3 SWAP2 SWAP1 PUSH2 0x148E JUMP JUMPDEST PUSH1 0x40 MLOAD DUP1 SWAP2 SUB SWAP1 RETURN JUMPDEST PUSH2 0x3AA PUSH2 0xDDB JUMP JUMPDEST STOP JUMPDEST CALLVALUE DUP1 ISZERO PUSH2 0x3B7 JUMPI PUSH0 PUSH0 REVERT JUMPDEST POP PUSH2 0x3C0 PUSH2 0x11BC JUMP JUMPDEST PUSH1 0x40 MLOAD PUSH2 0x3CD SWAP2 SWAP1 PUSH2 0x12F4 JUMP JUMPDEST PUSH1 0x40 MLOAD DUP1 SWAP2 SUB SWAP1 RETURN JUMPDEST PUSH0 SLOAD TIMESTAMP GT DUP1 PUSH2 0x3F1 JUMPI POP PUSH1 0x2 PUSH1 0x14 SWAP1 SLOAD SWAP1 PUSH2 0x100 EXP SWAP1 DIV PUSH1 0xFF AND JUMPDEST PUSH2 0x430 JUMPI PUSH1 0x40 MLOAD PUSH32 0x8C379A000000000000000000000000000000000000000000000000000000000 DUP2 MSTORE PUSH1 0x4 ADD PUSH2 0x427 SWAP1 PUSH2 0x151D JUMP JUMPDEST PUSH1 0x40 MLOAD DUP1 SWAP2 SUB SWAP1 REVERT JUMPDEST PUSH1 0x2 PUSH1 0x14 SWAP1 SLOAD SWAP1 PUSH2 0x100 EXP SWAP1 DIV PUSH1 0xFF AND ISZERO PUSH2 0x480 JUMPI PUSH1 0x40 MLOAD PUSH32 0x8C379A000000000000000000000000000000000000000000000000000000000 DUP2 MSTORE PUSH1 0x4 ADD PUSH2 0x477 SWAP1 PUSH2 0x1585 JUMP JUMPDEST PUSH1 0x40 MLOAD DUP1 SWAP2 SUB SWAP1 REVERT JUMPDEST PUSH1 0x1 PUSH1 0x2 PUSH1 0x14 PUSH2 0x100 EXP DUP2 SLOAD DUP2 PUSH1 0xFF MUL NOT AND SWAP1 DUP4 ISZERO ISZERO MUL OR SWAP1 SSTORE POP PUSH0 PUSH1 0x1 SLOAD GT ISZERO PUSH2 0x53B JUMPI PUSH0 PUSH1 0x64 PUSH1 0x2 PUSH1 0x1 SLOAD PUSH2 0x4B7 SWAP2 SWAP1 PUSH2 0x15D0 JUMP JUMPDEST PUSH2 0x4C1 SWAP2 SWAP1 PUSH2 0x163E JUMP JUMPDEST SWAP1 POP PUSH0 DUP2 PUSH1 0x1 SLOAD PUSH2 0x4D2 SWAP2 SWAP1 PUSH2 0x166E JUMP JUMPDEST SWAP1 POP PUSH32 0x0 PUSH20 0xFFFFFFFFFFFFFFFFFFFFFFFFFFFFFFFFFFFFFFFF AND PUSH2 0x8FC DUP3 SWAP1 DUP2 ISZERO MUL SWAP1 PUSH1 0x40 MLOAD PUSH0 PUSH1 0x40 MLOAD DUP1 DUP4 SUB DUP2 DUP6 DUP9 DUP9 CALL SWAP4 POP POP POP POP ISZERO DUP1 ISZERO PUSH2 0x537 JUMPI RETURNDATASIZE PUSH0 PUSH0 RETURNDATACOPY RETURNDATASIZE PUSH0 REVERT JUMPDEST POP POP POP JUMPDEST PUSH1 0x2 PUSH0 SWAP1 SLOAD SWAP1 PUSH2 0x100 EXP SWAP1 DIV PUSH20 0xFFFFFFFFFFFFFFFFFFFFFFFFFFFFFFFFFFFFFFFF AND PUSH20 0xFFFFFFFFFFFFFFFFFFFFFFFFFFFFFFFFFFFFFFFF AND PUSH32 0xB76F1DFDEC2AECD1C5F01191CC10A8BAD0DD5C2280438CCECC3FCD170533B42C PUSH1 0x1 SLOAD PUSH1 0x40 MLOAD PUSH2 0x5A4 SWAP2 SWAP1 PUSH2 0x12F4 JUMP JUMPDEST PUSH1 0x40 MLOAD DUP1 SWAP2 SUB SWAP1 LOG2 JUMP JUMPDEST PUSH0 SLOAD TIMESTAMP GT ISZERO PUSH2 0x5F2 JUMPI PUSH1 0x40 MLOAD PUSH32 0x8C379A000000000000000000000000000000000000000000000000000000000 DUP2 MSTORE PUSH1 0x4 ADD PUSH2 0x5E9 SWAP1 PUSH2 0x16EB JUMP JUMPDEST PUSH1 0x40 MLOAD DUP1 SWAP2 SUB SWAP1 REVERT JUMPDEST PUSH1 0x2 PUSH1 0x14 SWAP1 SLOAD SWAP1 PUSH2 0x100 EXP SWAP1 DIV PUSH1 0xFF AND ISZERO PUSH2 0x642 JUMPI PUSH1 0x40 MLOAD PUSH32 0x8C379A000000000000000000000000000000000000000000000000000000000 DUP2 MSTORE PUSH1 0x4 ADD PUSH2 0x639 SWAP1 PUSH2 0x1753 JUMP JUMPDEST PUSH1 0x40 MLOAD DUP1 SWAP2 SUB SWAP1 REVERT JUMPDEST PUSH0 DUP2 GT PUSH2 0x684 JUMPI PUSH1 0x40 MLOAD PUSH32 0x8C379A000000000000000000000000000000000000000000000000000000000 DUP2 MSTORE PUSH1 0x4 ADD PUSH2 0x67B SWAP1 PUSH2 0x17E1 JUMP JUMPDEST PUSH1 0x40 MLOAD DUP1 SWAP2 SUB SWAP1 REVERT JUMPDEST PUSH0 PUSH1 0x4 PUSH0 CALLER PUSH20 0xFFFFFFFFFFFFFFFFFFFFFFFFFFFFFFFFFFFFFFFF AND PUSH20 0xFFFFFFFFFFFFFFFFFFFFFFFFFFFFFFFFFFFFFFFF AND DUP2 MSTORE PUSH1 0x20 ADD SWAP1 DUP2 MSTORE PUSH1 0x20 ADD PUSH0 KECCAK256 SLOAD SWAP1 POP PUSH0 DUP2 GT PUSH2 0x707 JUMPI PUSH1 0x40 MLOAD PUSH32 0x8C379A000000000000000000000000000000000000000000000000000000000 DUP2 MSTORE PUSH1 0x4 ADD PUSH2 0x6FE SWAP1 PUSH2 0x1849 JUMP JUMPDEST PUSH1 0x40 MLOAD DUP1 SWAP2 SUB SWAP1 REVERT JUMPDEST PUSH0 PUSH1 0x3 PUSH1 0x1 DUP4 PUSH2 0x717 SWAP2 SWAP1 PUSH2 0x166E JUMP JUMPDEST DUP2 SLOAD DUP2 LT PUSH2 0x728 JUMPI PUSH2 0x727 PUSH2 0x1867 JUMP JUMPDEST JUMPDEST SWAP1 PUSH0 MSTORE PUSH1 0x20 PUSH0 KECCAK256 SWAP1 PUSH1 0x3 MUL ADD SWAP1 POP PUSH0 PUSH1 0x2 PUSH0 SWAP1 SLOAD SWAP1 PUSH2 0x100 EXP SWAP1 DIV PUSH20 0xFFFFFFFFFFFFFFFFFFFFFFFFFFFFFFFFFFFFFFFF AND PUSH20 0xFFFFFFFFFFFFFFFFFFFFFFFFFFFFFFFFFFFFFFFF AND CALLER PUSH20 0xFFFFFFFFFFFFFFFFFFFFFFFFFFFFFFFFFFFFFFFF AND EQ PUSH2 0x791 JUMPI PUSH0 PUSH2 0x795 JUMP JUMPDEST PUSH1 0x1 SLOAD JUMPDEST SWAP1 POP DUP1 DUP3 PUSH1 0x1 ADD SLOAD GT PUSH2 0x7DD JUMPI PUSH1 0x40 MLOAD PUSH32 0x8C379A000000000000000000000000000000000000000000000000000000000 DUP2 MSTORE PUSH1 0x4 ADD PUSH2 0x7D4 SWAP1 PUSH2 0x18DE JUMP JUMPDEST PUSH1 0x40 MLOAD DUP1 SWAP2 SUB SWAP1 REVERT JUMPDEST DUP1 DUP5 DUP4 PUSH1 0x1 ADD SLOAD PUSH2 0x7EE SWAP2 SWAP1 PUSH2 0x166E JUMP JUMPDEST LT ISZERO PUSH2 0x82F JUMPI PUSH1 0x40 MLOAD PUSH32 0x8C379A000000000000000000000000000000000000000000000000000000000 DUP2 MSTORE PUSH1 0x4 ADD PUSH2 0x826 SWAP1 PUSH2 0x196C JUMP JUMPDEST PUSH1 0x40 MLOAD DUP1 SWAP2 SUB SWAP1 REVERT JUMPDEST DUP4 DUP3 PUSH1 0x1 ADD PUSH0 DUP3 DUP3 SLOAD PUSH2 0x842 SWAP2 SWAP1 PUSH2 0x166E JUMP JUMPDEST SWAP3 POP POP DUP2 SWAP1 SSTORE POP CALLER PUSH20 0xFFFFFFFFFFFFFFFFFFFFFFFFFFFFFFFFFFFFFFFF AND PUSH2 0x8FC DUP6 SWAP1 DUP2 ISZERO MUL SWAP1 PUSH1 0x40 MLOAD PUSH0 PUSH1 0x40 MLOAD DUP1 DUP4 SUB DUP2 DUP6 DUP9 DUP9 CALL SWAP4 POP POP POP POP ISZERO DUP1 ISZERO PUSH2 0x88C JUMPI RETURNDATASIZE PUSH0 PUSH0 RETURNDATACOPY RETURNDATASIZE PUSH0 REVERT JUMPDEST POP CALLER PUSH20 0xFFFFFFFFFFFFFFFFFFFFFFFFFFFFFFFFFFFFFFFF AND PUSH32 0x8468F8FA62FC679CF8165EAB7662A1FA977705B501DD787E9EC07884885425F1 DUP6 PUSH1 0x40 MLOAD PUSH2 0x8D3 SWAP2 SWAP1 PUSH2 0x12F4 JUMP JUMPDEST PUSH1 0x40 MLOAD DUP1 SWAP2 SUB SWAP1 LOG2 POP POP POP POP JUMP JUMPDEST PUSH0 PUSH0 PUSH1 0x2 PUSH1 0x14 SWAP1 SLOAD SWAP1 PUSH2 0x100 EXP SWAP1 DIV PUSH1 0xFF AND PUSH2 0x932 JUMPI PUSH1 0x40 MLOAD PUSH32 0x8C379A000000000000000000000000000000000000000000000000000000000 DUP2 MSTORE PUSH1 0x4 ADD PUSH2 0x929 SWAP1 PUSH2 0x19D4 JUMP JUMPDEST PUSH1 0x40 MLOAD DUP1 SWAP2 SUB SWAP1 REVERT JUMPDEST PUSH1 0x2 PUSH0 SWAP1 SLOAD SWAP1 PUSH2 0x100 EXP SWAP1 DIV PUSH20 0xFFFFFFFFFFFFFFFFFFFFFFFFFFFFFFFFFFFFFFFF AND PUSH1 0x1 SLOAD SWAP2 POP SWAP2 POP SWAP1 SWAP2 JUMP JUMPDEST PUSH1 0x5 DUP2 JUMP JUMPDEST PUSH0 SLOAD DUP2 JUMP JUMPDEST PUSH2 0x258 DUP2 JUMP JUMPDEST PUSH1 0x60 PUSH1 0x3 DUP1 SLOAD DUP1 PUSH1 0x20 MUL PUSH1 0x20 ADD PUSH1 0x40 MLOAD SWAP1 DUP2 ADD PUSH1 0x40 MSTORE DUP1 SWAP3 SWAP2 SWAP1 DUP2 DUP2 MSTORE PUSH1 0x20 ADD PUSH0 SWAP1 JUMPDEST DUP3 DUP3 LT ISZERO PUSH2 0xA3A JUMPI DUP4 DUP3 SWAP1 PUSH0 MSTORE PUSH1 0x20 PUSH0 KECCAK256 SWAP1 PUSH1 0x3 MUL ADD PUSH1 0x40 MLOAD DUP1 PUSH1 0x60 ADD PUSH1 0x40 MSTORE SWAP1 DUP2 PUSH0 DUP3 ADD PUSH0 SWAP1 SLOAD SWAP1 PUSH2 0x100 EXP SWAP1 DIV PUSH20 0xFFFFFFFFFFFFFFFFFFFFFFFFFFFFFFFFFFFFFFFF AND PUSH20 0xFFFFFFFFFFFFFFFFFFFFFFFFFFFFFFFFFFFFFFFF AND PUSH20 0xFFFFFFFFFFFFFFFFFFFFFFFFFFFFFFFFFFFFFFFF AND DUP2 MSTORE PUSH1 0x20 ADD PUSH1 0x1 DUP3 ADD SLOAD DUP2 MSTORE PUSH1 0x20 ADD PUSH1 0x2 DUP3 ADD PUSH0 SWAP1 SLOAD SWAP1 PUSH2 0x100 EXP SWAP1 DIV PUSH1 0xFF AND ISZERO ISZERO ISZERO ISZERO DUP2 MSTORE POP POP DUP2 MSTORE PUSH1 0x20 ADD SWAP1 PUSH1 0x1 ADD SWAP1 PUSH2 0x992 JUMP JUMPDEST POP POP POP POP SWAP1 POP SWAP1 JUMP JUMPDEST PUSH1 0x2 PUSH1 0x14 SWAP1 SLOAD SWAP1 PUSH2 0x100 EXP SWAP1 DIV PUSH1 0xFF AND DUP2 JUMP JUMPDEST PUSH32 0x0 DUP2 JUMP JUMPDEST PUSH1 0x2 PUSH0 SWAP1 SLOAD SWAP1 PUSH2 0x100 EXP SWAP1 DIV PUSH20 0xFFFFFFFFFFFFFFFFFFFFFFFFFFFFFFFFFFFFFFFF AND DUP2 JUMP JUMPDEST PUSH1 0x2 DUP2 JUMP JUMPDEST PUSH32 0x0 DUP2 JUMP JUMPDEST PUSH1 0x1 SLOAD DUP2 JUMP JUMPDEST PUSH0 SLOAD TIMESTAMP GT DUP1 PUSH2 0xAE9 JUMPI POP PUSH1 0x2 PUSH1 0x14 SWAP1 SLOAD SWAP1 PUSH2 0x100 EXP SWAP1 DIV PUSH1 0xFF AND JUMPDEST PUSH2 0xB28 JUMPI PUSH1 0x40 MLOAD PUSH32 0x8C379A000000000000000000000000000000000000000000000000000000000 DUP2 MSTORE PUSH1 0x4 ADD PUSH2 0xB1F SWAP1 PUSH2 0x151D JUMP JUMPDEST PUSH1 0x40 MLOAD DUP1 SWAP2 SUB SWAP1 REVERT JUMPDEST PUSH1 0x2 PUSH0 SWAP1 SLOAD SWAP1 PUSH2 0x100 EXP SWAP1 DIV PUSH20 0xFFFFFFFFFFFFFFFFFFFFFFFFFFFFFFFFFFFFFFFF AND PUSH20 0xFFFFFFFFFFFFFFFFFFFFFFFFFFFFFFFFFFFFFFFF AND CALLER PUSH20 0xFFFFFFFFFFFFFFFFFFFFFFFFFFFFFFFFFFFFFFFF AND SUB PUSH2 0xBB7 JUMPI PUSH1 0x40 MLOAD PUSH32 0x8C379A000000000000000000000000000000000000000000000000000000000 DUP2 MSTORE PUSH1 0x4 ADD PUSH2 0xBAE SWAP1 PUSH2 0x1A62 JUMP JUMPDEST PUSH1 0x40 MLOAD DUP1 SWAP2 SUB SWAP1 REVERT JUMPDEST PUSH0 PUSH1 0x4 PUSH0 CALLER PUSH20 0xFFFFFFFFFFFFFFFFFFFFFFFFFFFFFFFFFFFFFFFF AND PUSH20 0xFFFFFFFFFFFFFFFFFFFFFFFFFFFFFFFFFFFFFFFF AND DUP2 MSTORE PUSH1 0x20 ADD SWAP1 DUP2 MSTORE PUSH1 0x20 ADD PUSH0 KECCAK256 SLOAD SWAP1 POP PUSH0 DUP2 GT PUSH2 0xC3A JUMPI PUSH1 0x40 MLOAD PUSH32 0x8C379A000000000000000000000000000000000000000000000000000000000 DUP2 MSTORE PUSH1 0x4 ADD PUSH2 0xC31 SWAP1 PUSH2 0x1849 JUMP JUMPDEST PUSH1 0x40 MLOAD DUP1 SWAP2 SUB SWAP1 REVERT JUMPDEST PUSH0 PUSH1 0x3 PUSH1 0x1 DUP4 PUSH2 0xC4A SWAP2 SWAP1 PUSH2 0x166E JUMP JUMPDEST DUP2 SLOAD DUP2 LT PUSH2 0xC5B JUMPI PUSH2 0xC5A PUSH2 0x1867 JUMP JUMPDEST JUMPDEST SWAP1 PUSH0 MSTORE PUSH1 0x20 PUSH0 KECCAK256 SWAP1 PUSH1 0x3 MUL ADD SWAP1 POP DUP1 PUSH1 0x2 ADD PUSH0 SWAP1 SLOAD SWAP1 PUSH2 0x100 EXP SWAP1 DIV PUSH1 0xFF AND ISZERO PUSH2 0xCBA JUMPI PUSH1 0x40 MLOAD PUSH32 0x8C379A000000000000000000000000000000000000000000000000000000000 DUP2 MSTORE PUSH1 0x4 ADD PUSH2 0xCB1 SWAP1 PUSH2 0x1ACA JUMP JUMPDEST PUSH1 0x40 MLOAD DUP1 SWAP2 SUB SWAP1 REVERT JUMPDEST PUSH1 0x1 DUP2 PUSH1 0x2 ADD PUSH0 PUSH2 0x100 EXP DUP2 SLOAD DUP2 PUSH1 0xFF MUL NOT AND SWAP1 DUP4 ISZERO ISZERO MUL OR SWAP1 SSTORE POP PUSH0 DUP2 PUSH1 0x1 ADD SLOAD SWAP1 POP CALLER PUSH20 0xFFFFFFFFFFFFFFFFFFFFFFFFFFFFFFFFFFFFFFFF AND PUSH2 0x8FC DUP3 SWAP1 DUP2 ISZERO MUL SWAP1 PUSH1 0x40 MLOAD PUSH0 PUSH1 0x40 MLOAD DUP1 DUP4 SUB DUP2 DUP6 DUP9 DUP9 CALL SWAP4 POP POP POP POP ISZERO DUP1 ISZERO PUSH2 0xD21 JUMPI RETURNDATASIZE PUSH0 PUSH0 RETURNDATACOPY RETURNDATASIZE PUSH0 REVERT JUMPDEST POP CALLER PUSH20 0xFFFFFFFFFFFFFFFFFFFFFFFFFFFFFFFFFFFFFFFF AND PUSH32 0x779C86999FB727CA861D0288AA11ED4104347721C571E4F0DA5172AFB607D885 DUP3 PUSH1 0x40 MLOAD PUSH2 0xD68 SWAP2 SWAP1 PUSH2 0x12F4 JUMP JUMPDEST PUSH1 0x40 MLOAD DUP1 SWAP2 SUB SWAP1 LOG2 POP POP POP JUMP JUMPDEST PUSH2 0x258 DUP2 JUMP JUMPDEST PUSH1 0x3 DUP2 DUP2 SLOAD DUP2 LT PUSH2 0xD8A JUMPI PUSH0 DUP1 REVERT JUMPDEST SWAP1 PUSH0 MSTORE PUSH1 0x20 PUSH0 KECCAK256 SWAP1 PUSH1 0x3 MUL ADD PUSH0 SWAP2 POP SWAP1 POP DUP1 PUSH0 ADD PUSH0 SWAP1 SLOAD SWAP1 PUSH2 0x100 EXP SWAP1 DIV PUSH20 0xFFFFFFFFFFFFFFFFFFFFFFFFFFFFFFFFFFFFFFFF AND SWAP1 DUP1 PUSH1 0x1 ADD SLOAD SWAP1 DUP1 PUSH1 0x2 ADD PUSH0 SWAP1 SLOAD SWAP1 PUSH2 0x100 EXP SWAP1 DIV PUSH1 0xFF AND SWAP1 POP DUP4 JUMP JUMPDEST PUSH0 SLOAD TIMESTAMP GT ISZERO PUSH2 0xE1F JUMPI PUSH1 0x40 MLOAD PUSH32 0x8C379A000000000000000000000000000000000000000000000000000000000 DUP2 MSTORE PUSH1 0x4 ADD PUSH2 0xE16 SWAP1 PUSH2 0x16EB JUMP JUMPDEST PUSH1 0x40 MLOAD DUP1 SWAP2 SUB SWAP1 REVERT JUMPDEST PUSH1 0x2 PUSH1 0x14 SWAP1 SLOAD SWAP1 PUSH2 0x100 EXP SWAP1 DIV PUSH1 0xFF AND ISZERO PUSH2 0xE6F JUMPI PUSH1 0x40 MLOAD PUSH32 0x8C379A000000000000000000000000000000000000000000000000000000000 DUP2 MSTORE PUSH1 0x4 ADD PUSH2 0xE66 SWAP1 PUSH2 0x1753 JUMP JUMPDEST PUSH1 0x40 MLOAD DUP1 SWAP2 SUB SWAP1 REVERT JUMPDEST PUSH0 CALLVALUE GT PUSH2 0xEB1 JUMPI PUSH1 0x40 MLOAD PUSH32 0x8C379A000000000000000000000000000000000000000000000000000000000 DUP2 MSTORE PUSH1 0x4 ADD PUSH2 0xEA8 SWAP1 PUSH2 0x1B32 JUMP JUMPDEST PUSH1 0x40 MLOAD DUP1 SWAP2 SUB SWAP1 REVERT JUMPDEST PUSH0 PUSH1 0x64 PUSH1 0x5 PUSH1 0x1 SLOAD PUSH2 0xEC3 SWAP2 SWAP1 PUSH2 0x15D0 JUMP JUMPDEST PUSH2 0xECD SWAP2 SWAP1 PUSH2 0x163E JUMP JUMPDEST PUSH1 0x1 SLOAD PUSH2 0xEDA SWAP2 SWAP1 PUSH2 0x1B50 JUMP JUMPDEST SWAP1 POP PUSH0 PUSH1 0x1 SLOAD SUB PUSH2 0xEE9 JUMPI PUSH0 SWAP1 POP JUMPDEST DUP1 CALLVALUE GT PUSH2 0xF2B JUMPI PUSH1 0x40 MLOAD PUSH32 0x8C379A000000000000000000000000000000000000000000000000000000000 DUP2 MSTORE PUSH1 0x4 ADD PUSH2 0xF22 SWAP1 PUSH2 0x1BF3 JUMP JUMPDEST PUSH1 0x40 MLOAD DUP1 SWAP2 SUB SWAP1 REVERT JUMPDEST PUSH0 PUSH1 0x4 PUSH0 CALLER PUSH20 0xFFFFFFFFFFFFFFFFFFFFFFFFFFFFFFFFFFFFFFFF AND PUSH20 0xFFFFFFFFFFFFFFFFFFFFFFFFFFFFFFFFFFFFFFFF AND DUP2 MSTORE PUSH1 0x20 ADD SWAP1 DUP2 MSTORE PUSH1 0x20 ADD PUSH0 KECCAK256 SLOAD SWAP1 POP PUSH0 DUP2 GT ISZERO PUSH2 0xFC3 JUMPI PUSH0 PUSH1 0x3 PUSH1 0x1 DUP4 PUSH2 0xF84 SWAP2 SWAP1 PUSH2 0x166E JUMP JUMPDEST DUP2 SLOAD DUP2 LT PUSH2 0xF95 JUMPI PUSH2 0xF94 PUSH2 0x1867 JUMP JUMPDEST JUMPDEST SWAP1 PUSH0 MSTORE PUSH1 0x20 PUSH0 KECCAK256 SWAP1 PUSH1 0x3 MUL ADD SWAP1 POP CALLVALUE DUP2 PUSH1 0x1 ADD PUSH0 DUP3 DUP3 SLOAD PUSH2 0xFB6 SWAP2 SWAP1 PUSH2 0x1B50 JUMP JUMPDEST SWAP3 POP POP DUP2 SWAP1 SSTORE POP POP PUSH2 0x10D5 JUMP JUMPDEST PUSH1 0x3 PUSH1 0x40 MLOAD DUP1 PUSH1 0x60 ADD PUSH1 0x40 MSTORE DUP1 CALLER PUSH20 0xFFFFFFFFFFFFFFFFFFFFFFFFFFFFFFFFFFFFFFFF AND DUP2 MSTORE PUSH1 0x20 ADD CALLVALUE DUP2 MSTORE PUSH1 0x20 ADD PUSH0 ISZERO ISZERO DUP2 MSTORE POP SWAP1 DUP1 PUSH1 0x1 DUP2 SLOAD ADD DUP1 DUP3 SSTORE DUP1 SWAP2 POP POP PUSH1 0x1 SWAP1 SUB SWAP1 PUSH0 MSTORE PUSH1 0x20 PUSH0 KECCAK256 SWAP1 PUSH1 0x3 MUL ADD PUSH0 SWAP1 SWAP2 SWAP1 SWAP2 SWAP1 SWAP2 POP PUSH0 DUP3 ADD MLOAD DUP2 PUSH0 ADD PUSH0 PUSH2 0x100 EXP DUP2 SLOAD DUP2 PUSH20 0xFFFFFFFFFFFFFFFFFFFFFFFFFFFFFFFFFFFFFFFF MUL NOT AND SWAP1 DUP4 PUSH20 0xFFFFFFFFFFFFFFFFFFFFFFFFFFFFFFFFFFFFFFFF AND MUL OR SWAP1 SSTORE POP PUSH1 0x20 DUP3 ADD MLOAD DUP2 PUSH1 0x1 ADD SSTORE PUSH1 0x40 DUP3 ADD MLOAD DUP2 PUSH1 0x2 ADD PUSH0 PUSH2 0x100 EXP DUP2 SLOAD DUP2 PUSH1 0xFF MUL NOT AND SWAP1 DUP4 ISZERO ISZERO MUL OR SWAP1 SSTORE POP POP POP PUSH1 0x3 DUP1 SLOAD SWAP1 POP PUSH1 0x4 PUSH0 CALLER PUSH20 0xFFFFFFFFFFFFFFFFFFFFFFFFFFFFFFFFFFFFFFFF AND PUSH20 0xFFFFFFFFFFFFFFFFFFFFFFFFFFFFFFFFFFFFFFFF AND DUP2 MSTORE PUSH1 0x20 ADD SWAP1 DUP2 MSTORE PUSH1 0x20 ADD PUSH0 KECCAK256 DUP2 SWAP1 SSTORE POP JUMPDEST CALLVALUE PUSH1 0x1 DUP2 SWAP1 SSTORE POP CALLER PUSH1 0x2 PUSH0 PUSH2 0x100 EXP DUP2 SLOAD DUP2 PUSH20 0xFFFFFFFFFFFFFFFFFFFFFFFFFFFFFFFFFFFFFFFF MUL NOT AND SWAP1 DUP4 PUSH20 0xFFFFFFFFFFFFFFFFFFFFFFFFFFFFFFFFFFFFFFFF AND MUL OR SWAP1 SSTORE POP PUSH0 PUSH2 0x1125 PUSH2 0x11DE JUMP JUMPDEST SWAP1 POP CALLER PUSH20 0xFFFFFFFFFFFFFFFFFFFFFFFFFFFFFFFFFFFFFFFF AND PUSH32 0x87F5B2FE112BF269D30FB8CA9DC0BDE0AFD0CC39258E13FAFD75FE794795BF0E CALLVALUE PUSH0 SLOAD PUSH1 0x40 MLOAD PUSH2 0x1170 SWAP3 SWAP2 SWAP1 PUSH2 0x1C11 JUMP JUMPDEST PUSH1 0x40 MLOAD DUP1 SWAP2 SUB SWAP1 LOG2 DUP1 ISZERO PUSH2 0x11B7 JUMPI PUSH32 0xC2B459809119087CA9D2BC10DEA53A51B7D848B1A11075DB037BDCA58292C3E8 PUSH0 SLOAD PUSH1 0x40 MLOAD PUSH2 0x11AE SWAP2 SWAP1 PUSH2 0x12F4 JUMP JUMPDEST PUSH1 0x40 MLOAD DUP1 SWAP2 SUB SWAP1 LOG1 JUMPDEST POP POP POP JUMP JUMPDEST PUSH0 PUSH0 SLOAD TIMESTAMP LT PUSH2 0x11CB JUMPI PUSH0 PUSH2 0x11D9 JUMP JUMPDEST TIMESTAMP PUSH0 SLOAD PUSH2 0x11D8 SWAP2 SWAP1 PUSH2 0x166E JUMP JUMPDEST JUMPDEST SWAP1 POP SWAP1 JUMP JUMPDEST PUSH0 PUSH2 0x258 TIMESTAMP PUSH0 SLOAD PUSH2 0x11EF SWAP2 SWAP1 PUSH2 0x166E JUMP JUMPDEST GT PUSH2 0x1216 JUMPI PUSH2 0x258 PUSH0 PUSH0 DUP3 DUP3 SLOAD PUSH2 0x1206 SWAP2 SWAP1 PUSH2 0x1B50 JUMP JUMPDEST SWAP3 POP POP DUP2 SWAP1 SSTORE POP PUSH1 0x1 SWAP1 POP PUSH2 0x121A JUMP JUMPDEST PUSH0 SWAP1 POP JUMPDEST SWAP1 JUMP JUMPDEST PUSH0 PUSH0 REVERT JUMPDEST PUSH0 DUP2 SWAP1 POP SWAP2 SWAP1 POP JUMP JUMPDEST PUSH2 0x1233 DUP2 PUSH2 0x1221 JUMP JUMPDEST DUP2 EQ PUSH2 0x123D JUMPI PUSH0 PUSH0 REVERT JUMPDEST POP JUMP JUMPDEST PUSH0 DUP2 CALLDATALOAD SWAP1 POP PUSH2 0x124E DUP2 PUSH2 0x122A JUMP JUMPDEST SWAP3 SWAP2 POP POP JUMP JUMPDEST PUSH0 PUSH1 0x20 DUP3 DUP5 SUB SLT ISZERO PUSH2 0x1269 JUMPI PUSH2 0x1268 PUSH2 0x121D JUMP JUMPDEST JUMPDEST PUSH0 PUSH2 0x1276 DUP5 DUP3 DUP6 ADD PUSH2 0x1240 JUMP JUMPDEST SWAP2 POP POP SWAP3 SWAP2 POP POP JUMP JUMPDEST PUSH0 PUSH20 0xFFFFFFFFFFFFFFFFFFFFFFFFFFFFFFFFFFFFFFFF DUP3 AND SWAP1 POP SWAP2 SWAP1 POP JUMP JUMPDEST PUSH0 PUSH2 0x12A8 DUP3 PUSH2 0x127F JUMP JUMPDEST SWAP1 POP SWAP2 SWAP1 POP JUMP JUMPDEST PUSH2 0x12B8 DUP2 PUSH2 0x129E JUMP JUMPDEST DUP3 MSTORE POP POP JUMP JUMPDEST PUSH2 0x12C7 DUP2 PUSH2 0x1221 JUMP JUMPDEST DUP3 MSTORE POP POP JUMP JUMPDEST PUSH0 PUSH1 0x40 DUP3 ADD SWAP1 POP PUSH2 0x12E0 PUSH0 DUP4 ADD DUP6 PUSH2 0x12AF JUMP JUMPDEST PUSH2 0x12ED PUSH1 0x20 DUP4 ADD DUP5 PUSH2 0x12BE JUMP JUMPDEST SWAP4 SWAP3 POP POP POP JUMP JUMPDEST PUSH0 PUSH1 0x20 DUP3 ADD SWAP1 POP PUSH2 0x1307 PUSH0 DUP4 ADD DUP5 PUSH2 0x12BE JUMP JUMPDEST SWAP3 SWAP2 POP POP JUMP JUMPDEST PUSH0 DUP2 MLOAD SWAP1 POP SWAP2 SWAP1 POP JUMP JUMPDEST PUSH0 DUP3 DUP3 MSTORE PUSH1 0x20 DUP3 ADD SWAP1 POP SWAP3 SWAP2 POP POP JUMP JUMPDEST PUSH0 DUP2 SWAP1 POP PUSH1 0x20 DUP3 ADD SWAP1 POP SWAP2 SWAP1 POP JUMP JUMPDEST PUSH2 0x133F DUP2 PUSH2 0x129E JUMP JUMPDEST DUP3 MSTORE POP POP JUMP JUMPDEST PUSH2 0x134E DUP2 PUSH2 0x1221 JUMP JUMPDEST DUP3 MSTORE POP POP JUMP JUMPDEST PUSH0 DUP2 ISZERO ISZERO SWAP1 POP SWAP2 SWAP1 POP JUMP JUMPDEST PUSH2 0x1368 DUP2 PUSH2 0x1354 JUMP JUMPDEST DUP3 MSTORE POP POP JUMP JUMPDEST PUSH1 0x60 DUP3 ADD PUSH0 DUP3 ADD MLOAD PUSH2 0x1382 PUSH0 DUP6 ADD DUP3 PUSH2 0x1336 JUMP JUMPDEST POP PUSH1 0x20 DUP3 ADD MLOAD PUSH2 0x1395 PUSH1 0x20 DUP6 ADD DUP3 PUSH2 0x1345 JUMP JUMPDEST POP PUSH1 0x40 DUP3 ADD MLOAD PUSH2 0x13A8 PUSH1 0x40 DUP6 ADD DUP3 PUSH2 0x135F JUMP JUMPDEST POP POP POP POP JUMP JUMPDEST PUSH0 PUSH2 0x13B9 DUP4 DUP4 PUSH2 0x136E JUMP JUMPDEST PUSH1 0x60 DUP4 ADD SWAP1 POP SWAP3 SWAP2 POP POP JUMP JUMPDEST PUSH0 PUSH1 0x20 DUP3 ADD SWAP1 POP SWAP2 SWAP1 POP JUMP JUMPDEST PUSH0 PUSH2 0x13DB DUP3 PUSH2 0x130D JUMP JUMPDEST PUSH2 0x13E5 DUP2 DUP6 PUSH2 0x1317 JUMP JUMPDEST SWAP4 POP PUSH2 0x13F0 DUP4 PUSH2 0x1327 JUMP JUMPDEST DUP1 PUSH0 JUMPDEST DUP4 DUP2 LT ISZERO PUSH2 0x1420 JUMPI DUP2 MLOAD PUSH2 0x1407 DUP9 DUP3 PUSH2 0x13AE JUMP JUMPDEST SWAP8 POP PUSH2 0x1412 DUP4 PUSH2 0x13C5 JUMP JUMPDEST SWAP3 POP POP PUSH1 0x1 DUP2 ADD SWAP1 POP PUSH2 0x13F3 JUMP JUMPDEST POP DUP6 SWAP4 POP POP POP POP SWAP3 SWAP2 POP POP JUMP JUMPDEST PUSH0 PUSH1 0x20 DUP3 ADD SWAP1 POP DUP2 DUP2 SUB PUSH0 DUP4 ADD MSTORE PUSH2 0x1445 DUP2 DUP5 PUSH2 0x13D1 JUMP JUMPDEST SWAP1 POP SWAP3 SWAP2 POP POP JUMP JUMPDEST PUSH2 0x1456 DUP2 PUSH2 0x1354 JUMP JUMPDEST DUP3 MSTORE POP POP JUMP JUMPDEST PUSH0 PUSH1 0x20 DUP3 ADD SWAP1 POP PUSH2 0x146F PUSH0 DUP4 ADD DUP5 PUSH2 0x144D JUMP JUMPDEST SWAP3 SWAP2 POP POP JUMP JUMPDEST PUSH0 PUSH1 0x20 DUP3 ADD SWAP1 POP PUSH2 0x1488 PUSH0 DUP4 ADD DUP5 PUSH2 0x12AF JUMP JUMPDEST SWAP3 SWAP2 POP POP JUMP JUMPDEST PUSH0 PUSH1 0x60 DUP3 ADD SWAP1 POP PUSH2 0x14A1 PUSH0 DUP4 ADD DUP7 PUSH2 0x12AF JUMP JUMPDEST PUSH2 0x14AE PUSH1 0x20 DUP4 ADD DUP6 PUSH2 0x12BE JUMP JUMPDEST PUSH2 0x14BB PUSH1 0x40 DUP4 ADD DUP5 PUSH2 0x144D JUMP JUMPDEST SWAP5 SWAP4 POP POP POP POP JUMP JUMPDEST PUSH0 DUP3 DUP3 MSTORE PUSH1 0x20 DUP3 ADD SWAP1 POP SWAP3 SWAP2 POP POP JUMP JUMPDEST PUSH32 0x41756374696F6E207374696C6C20616374697665000000000000000000000000 PUSH0 DUP3 ADD MSTORE POP JUMP JUMPDEST PUSH0 PUSH2 0x1507 PUSH1 0x14 DUP4 PUSH2 0x14C3 JUMP JUMPDEST SWAP2 POP PUSH2 0x1512 DUP3 PUSH2 0x14D3 JUMP JUMPDEST PUSH1 0x20 DUP3 ADD SWAP1 POP SWAP2 SWAP1 POP JUMP JUMPDEST PUSH0 PUSH1 0x20 DUP3 ADD SWAP1 POP DUP2 DUP2 SUB PUSH0 DUP4 ADD MSTORE PUSH2 0x1534 DUP2 PUSH2 0x14FB JUMP JUMPDEST SWAP1 POP SWAP2 SWAP1 POP JUMP JUMPDEST PUSH32 0x41756374696F6E20616C726561647920636F6E636C7564656400000000000000 PUSH0 DUP3 ADD MSTORE POP JUMP JUMPDEST PUSH0 PUSH2 0x156F PUSH1 0x19 DUP4 PUSH2 0x14C3 JUMP JUMPDEST SWAP2 POP PUSH2 0x157A DUP3 PUSH2 0x153B JUMP JUMPDEST PUSH1 0x20 DUP3 ADD SWAP1 POP SWAP2 SWAP1 POP JUMP JUMPDEST PUSH0 PUSH1 0x20 DUP3 ADD SWAP1 POP DUP2 DUP2 SUB PUSH0 DUP4 ADD MSTORE PUSH2 0x159C DUP2 PUSH2 0x1563 JUMP JUMPDEST SWAP1 POP SWAP2 SWAP1 POP JUMP JUMPDEST PUSH32 0x4E487B7100000000000000000000000000000000000000000000000000000000 PUSH0 MSTORE PUSH1 0x11 PUSH1 0x4 MSTORE PUSH1 0x24 PUSH0 REVERT JUMPDEST PUSH0 PUSH2 0x15DA DUP3 PUSH2 0x1221 JUMP JUMPDEST SWAP2 POP PUSH2 0x15E5 DUP4 PUSH2 0x1221 JUMP JUMPDEST SWAP3 POP DUP3 DUP3 MUL PUSH2 0x15F3 DUP2 PUSH2 0x1221 JUMP JUMPDEST SWAP2 POP DUP3 DUP3 DIV DUP5 EQ DUP4 ISZERO OR PUSH2 0x160A JUMPI PUSH2 0x1609 PUSH2 0x15A3 JUMP JUMPDEST JUMPDEST POP SWAP3 SWAP2 POP POP JUMP JUMPDEST PUSH32 0x4E487B7100000000000000000000000000000000000000000000000000000000 PUSH0 MSTORE PUSH1 0x12 PUSH1 0x4 MSTORE PUSH1 0x24 PUSH0 REVERT JUMPDEST PUSH0 PUSH2 0x1648 DUP3 PUSH2 0x1221 JUMP JUMPDEST SWAP2 POP PUSH2 0x1653 DUP4 PUSH2 0x1221 JUMP JUMPDEST SWAP3 POP DUP3 PUSH2 0x1663 JUMPI PUSH2 0x1662 PUSH2 0x1611 JUMP JUMPDEST JUMPDEST DUP3 DUP3 DIV SWAP1 POP SWAP3 SWAP2 POP POP JUMP JUMPDEST PUSH0 PUSH2 0x1678 DUP3 PUSH2 0x1221 JUMP JUMPDEST SWAP2 POP PUSH2 0x1683 DUP4 PUSH2 0x1221 JUMP JUMPDEST SWAP3 POP DUP3 DUP3 SUB SWAP1 POP DUP2 DUP2 GT ISZERO PUSH2 0x169B JUMPI PUSH2 0x169A PUSH2 0x15A3 JUMP JUMPDEST JUMPDEST SWAP3 SWAP2 POP POP JUMP JUMPDEST PUSH32 0x41756374696F6E2068617320636F6E636C756465640000000000000000000000 PUSH0 DUP3 ADD MSTORE POP JUMP JUMPDEST PUSH0 PUSH2 0x16D5 PUSH1 0x15 DUP4 PUSH2 0x14C3 JUMP JUMPDEST SWAP2 POP PUSH2 0x16E0 DUP3 PUSH2 0x16A1 JUMP JUMPDEST PUSH1 0x20 DUP3 ADD SWAP1 POP SWAP2 SWAP1 POP JUMP JUMPDEST PUSH0 PUSH1 0x20 DUP3 ADD SWAP1 POP DUP2 DUP2 SUB PUSH0 DUP4 ADD MSTORE PUSH2 0x1702 DUP2 PUSH2 0x16C9 JUMP JUMPDEST SWAP1 POP SWAP2 SWAP1 POP JUMP JUMPDEST PUSH32 0x41756374696F6E20776173206D616E75616C6C7920636F6E636C756465640000 PUSH0 DUP3 ADD MSTORE POP JUMP JUMPDEST PUSH0 PUSH2 0x173D PUSH1 0x1E DUP4 PUSH2 0x14C3 JUMP JUMPDEST SWAP2 POP PUSH2 0x1748 DUP3 PUSH2 0x1709 JUMP JUMPDEST PUSH1 0x20 DUP3 ADD SWAP1 POP SWAP2 SWAP1 POP JUMP JUMPDEST PUSH0 PUSH1 0x20 DUP3 ADD SWAP1 POP DUP2 DUP2 SUB PUSH0 DUP4 ADD MSTORE PUSH2 0x176A DUP2 PUSH2 0x1731 JUMP JUMPDEST SWAP1 POP SWAP2 SWAP1 POP JUMP JUMPDEST PUSH32 0x5769746864726177616C20616D6F756E74206D75737420626520706F73697469 PUSH0 DUP3 ADD MSTORE PUSH32 0x7665000000000000000000000000000000000000000000000000000000000000 PUSH1 0x20 DUP3 ADD MSTORE POP JUMP JUMPDEST PUSH0 PUSH2 0x17CB PUSH1 0x22 DUP4 PUSH2 0x14C3 JUMP JUMPDEST SWAP2 POP PUSH2 0x17D6 DUP3 PUSH2 0x1771 JUMP JUMPDEST PUSH1 0x40 DUP3 ADD SWAP1 POP SWAP2 SWAP1 POP JUMP JUMPDEST PUSH0 PUSH1 0x20 DUP3 ADD SWAP1 POP DUP2 DUP2 SUB PUSH0 DUP4 ADD MSTORE PUSH2 0x17F8 DUP2 PUSH2 0x17BF JUMP JUMPDEST SWAP1 POP SWAP2 SWAP1 POP JUMP JUMPDEST PUSH32 0x4E6F206269647320706C616365642062792063616C6C65720000000000000000 PUSH0 DUP3 ADD MSTORE POP JUMP JUMPDEST PUSH0 PUSH2 0x1833 PUSH1 0x18 DUP4 PUSH2 0x14C3 JUMP JUMPDEST SWAP2 POP PUSH2 0x183E DUP3 PUSH2 0x17FF JUMP JUMPDEST PUSH1 0x20 DUP3 ADD SWAP1 POP SWAP2 SWAP1 POP JUMP JUMPDEST PUSH0 PUSH1 0x20 DUP3 ADD SWAP1 POP DUP2 DUP2 SUB PUSH0 DUP4 ADD MSTORE PUSH2 0x1860 DUP2 PUSH2 0x1827 JUMP JUMPDEST SWAP1 POP SWAP2 SWAP1 POP JUMP JUMPDEST PUSH32 0x4E487B7100000000000000000000000000000000000000000000000000000000 PUSH0 MSTORE PUSH1 0x32 PUSH1 0x4 MSTORE PUSH1 0x24 PUSH0 REVERT JUMPDEST PUSH32 0x4E6F206578636573732066756E647320617661696C61626C6500000000000000 PUSH0 DUP3 ADD MSTORE POP JUMP JUMPDEST PUSH0 PUSH2 0x18C8 PUSH1 0x19 DUP4 PUSH2 0x14C3 JUMP JUMPDEST SWAP2 POP PUSH2 0x18D3 DUP3 PUSH2 0x1894 JUMP JUMPDEST PUSH1 0x20 DUP3 ADD SWAP1 POP SWAP2 SWAP1 POP JUMP JUMPDEST PUSH0 PUSH1 0x20 DUP3 ADD SWAP1 POP DUP2 DUP2 SUB PUSH0 DUP4 ADD MSTORE PUSH2 0x18F5 DUP2 PUSH2 0x18BC JUMP JUMPDEST SWAP1 POP SWAP2 SWAP1 POP JUMP JUMPDEST PUSH32 0x5769746864726177616C206578636565647320617661696C61626C6520657863 PUSH0 DUP3 ADD MSTORE PUSH32 0x6573730000000000000000000000000000000000000000000000000000000000 PUSH1 0x20 DUP3 ADD MSTORE POP JUMP JUMPDEST PUSH0 PUSH2 0x1956 PUSH1 0x23 DUP4 PUSH2 0x14C3 JUMP JUMPDEST SWAP2 POP PUSH2 0x1961 DUP3 PUSH2 0x18FC JUMP JUMPDEST PUSH1 0x40 DUP3 ADD SWAP1 POP SWAP2 SWAP1 POP JUMP JUMPDEST PUSH0 PUSH1 0x20 DUP3 ADD SWAP1 POP DUP2 DUP2 SUB PUSH0 DUP4 ADD MSTORE PUSH2 0x1983 DUP2 PUSH2 0x194A JUMP JUMPDEST SWAP1 POP SWAP2 SWAP1 POP JUMP JUMPDEST PUSH32 0x41756374696F6E206E6F742079657420636F6E636C7564656400000000000000 PUSH0 DUP3 ADD MSTORE POP JUMP JUMPDEST PUSH0 PUSH2 0x19BE PUSH1 0x19 DUP4 PUSH2 0x14C3 JUMP JUMPDEST SWAP2 POP PUSH2 0x19C9 DUP3 PUSH2 0x198A JUMP JUMPDEST PUSH1 0x20 DUP3 ADD SWAP1 POP SWAP2 SWAP1 POP JUMP JUMPDEST PUSH0 PUSH1 0x20 DUP3 ADD SWAP1 POP DUP2 DUP2 SUB PUSH0 DUP4 ADD MSTORE PUSH2 0x19EB DUP2 PUSH2 0x19B2 JUMP JUMPDEST SWAP1 POP SWAP2 SWAP1 POP JUMP JUMPDEST PUSH32 0x57696E6E65722063616E6E6F7420706572666F726D207468697320616374696F PUSH0 DUP3 ADD MSTORE PUSH32 0x6E00000000000000000000000000000000000000000000000000000000000000 PUSH1 0x20 DUP3 ADD MSTORE POP JUMP JUMPDEST PUSH0 PUSH2 0x1A4C PUSH1 0x21 DUP4 PUSH2 0x14C3 JUMP JUMPDEST SWAP2 POP PUSH2 0x1A57 DUP3 PUSH2 0x19F2 JUMP JUMPDEST PUSH1 0x40 DUP3 ADD SWAP1 POP SWAP2 SWAP1 POP JUMP JUMPDEST PUSH0 PUSH1 0x20 DUP3 ADD SWAP1 POP DUP2 DUP2 SUB PUSH0 DUP4 ADD MSTORE PUSH2 0x1A79 DUP2 PUSH2 0x1A40 JUMP JUMPDEST SWAP1 POP SWAP2 SWAP1 POP JUMP JUMPDEST PUSH32 0x46756E647320616C72656164792077697468647261776E000000000000000000 PUSH0 DUP3 ADD MSTORE POP JUMP JUMPDEST PUSH0 PUSH2 0x1AB4 PUSH1 0x17 DUP4 PUSH2 0x14C3 JUMP JUMPDEST SWAP2 POP PUSH2 0x1ABF DUP3 PUSH2 0x1A80 JUMP JUMPDEST PUSH1 0x20 DUP3 ADD SWAP1 POP SWAP2 SWAP1 POP JUMP JUMPDEST PUSH0 PUSH1 0x20 DUP3 ADD SWAP1 POP DUP2 DUP2 SUB PUSH0 DUP4 ADD MSTORE PUSH2 0x1AE1 DUP2 PUSH2 0x1AA8 JUMP JUMPDEST SWAP1 POP SWAP2 SWAP1 POP JUMP JUMPDEST PUSH32 0x4269642076616C7565206D75737420626520706F736974697665000000000000 PUSH0 DUP3 ADD MSTORE POP JUMP JUMPDEST PUSH0 PUSH2 0x1B1C PUSH1 0x1A DUP4 PUSH2 0x14C3 JUMP JUMPDEST SWAP2 POP PUSH2 0x1B27 DUP3 PUSH2 0x1AE8 JUMP JUMPDEST PUSH1 0x20 DUP3 ADD SWAP1 POP SWAP2 SWAP1 POP JUMP JUMPDEST PUSH0 PUSH1 0x20 DUP3 ADD SWAP1 POP DUP2 DUP2 SUB PUSH0 DUP4 ADD MSTORE PUSH2 0x1B49 DUP2 PUSH2 0x1B10 JUMP JUMPDEST SWAP1 POP SWAP2 SWAP1 POP JUMP JUMPDEST PUSH0 PUSH2 0x1B5A DUP3 PUSH2 0x1221 JUMP JUMPDEST SWAP2 POP PUSH2 0x1B65 DUP4 PUSH2 0x1221 JUMP JUMPDEST SWAP3 POP DUP3 DUP3 ADD SWAP1 POP DUP1 DUP3 GT ISZERO PUSH2 0x1B7D JUMPI PUSH2 0x1B7C PUSH2 0x15A3 JUMP JUMPDEST JUMPDEST SWAP3 SWAP2 POP POP JUMP JUMPDEST PUSH32 0x426964206D757374206578636565642063757272656E74206869676865737420 PUSH0 DUP3 ADD MSTORE PUSH32 0x6279206174206C65617374203525000000000000000000000000000000000000 PUSH1 0x20 DUP3 ADD MSTORE POP JUMP JUMPDEST PUSH0 PUSH2 0x1BDD PUSH1 0x2E DUP4 PUSH2 0x14C3 JUMP JUMPDEST SWAP2 POP PUSH2 0x1BE8 DUP3 PUSH2 0x1B83 JUMP JUMPDEST PUSH1 0x40 DUP3 ADD SWAP1 POP SWAP2 SWAP1 POP JUMP JUMPDEST PUSH0 PUSH1 0x20 DUP3 ADD SWAP1 POP DUP2 DUP2 SUB PUSH0 DUP4 ADD MSTORE PUSH2 0x1C0A DUP2 PUSH2 0x1BD1 JUMP JUMPDEST SWAP1 POP SWAP2 SWAP1 POP JUMP JUMPDEST PUSH0 PUSH1 0x40 DUP3 ADD SWAP1 POP PUSH2 0x1C24 PUSH0 DUP4 ADD DUP6 PUSH2 0x12BE JUMP JUMPDEST PUSH2 0x1C31 PUSH1 0x20 DUP4 ADD DUP5 PUSH2 0x12BE JUMP JUMPDEST SWAP4 SWAP3 POP POP POP JUMP INVALID LOG2 PUSH5 0x6970667358 0x22 SLT KECCAK256 GAS NUMBER SGT REVERT SHR 0xC7 0xE SWAP16 0xB9 BLOBBASEFEE DUP9 SAR 0xB3 SWAP12 CODESIZE MCOPY LOG3 0xBC GASPRICE GT PUSH13 0xE8ED5E47DD142EBF6AC9CB6473 PUSH16 0x6C634300081E00330000000000000000 "
				},
				"gasEstimates": {
					"creation": {
						"codeDepositCost": "1455600",
						"executionCost": "infinite",
						"totalCost": "infinite"
					},
					"external": {
						"COMMISSION_PERCENT()": "370",
						"EXTENSION_DURATION()": "370",
						"EXTENSION_THRESHOLD()": "369",
						"MIN_BID_INCREASE_PERCENT()": "415",
						"auctionEndTime()": "2447",
						"auctionEnded()": "2606",
						"bidHistory(uint256)": "infinite",
						"concludeAuction()": "infinite",
						"getBidHistory()": "infinite",
						"getRemainingTime()": "infinite",
						"getWinnerInfo()": "6998",
						"highestBid()": "2514",
						"highestBidder()": "2531",
						"initialDuration()": "infinite",
						"owner()": "infinite",
						"placeBid()": "infinite",
						"withdrawFull()": "infinite",
						"withdrawPartial(uint256)": "infinite"
					},
					"internal": {
						"_extendAuctionIfNeeded()": "infinite"
					}
				},
				"methodIdentifiers": {
					"COMMISSION_PERCENT()": "b404e001",
					"EXTENSION_DURATION()": "5dd624df",
					"EXTENSION_THRESHOLD()": "e1174717",
					"MIN_BID_INCREASE_PERCENT()": "4a874bb9",
					"auctionEndTime()": "4b449cba",
					"auctionEnded()": "86433374",
					"bidHistory(uint256)": "ecde973d",
					"concludeAuction()": "093d2769",
					"getBidHistory()": "7e50bb83",
					"getRemainingTime()": "efb98bcf",
					"getWinnerInfo()": "22bb26f7",
					"highestBid()": "d57bde79",
					"highestBidder()": "91f90157",
					"initialDuration()": "b815a357",
					"owner()": "8da5cb5b",
					"placeBid()": "ecfc7ecc",
					"withdrawFull()": "e0dd89ec",
					"withdrawPartial(uint256)": "1211540c"
				}
			},
			"storageLayout": {
				"storage": [
					{
						"astId": 6,
						"contract": "Auctionator.sol:Auctionator",
						"label": "auctionEndTime",
						"offset": 0,
						"slot": "0",
						"type": "t_uint256"
					},
					{
						"astId": 10,
						"contract": "Auctionator.sol:Auctionator",
						"label": "highestBid",
						"offset": 0,
						"slot": "1",
						"type": "t_uint256"
					},
					{
						"astId": 12,
						"contract": "Auctionator.sol:Auctionator",
						"label": "highestBidder",
						"offset": 0,
						"slot": "2",
						"type": "t_address"
					},
					{
						"astId": 14,
						"contract": "Auctionator.sol:Auctionator",
						"label": "auctionEnded",
						"offset": 20,
						"slot": "2",
						"type": "t_bool"
					},
					{
						"astId": 37,
						"contract": "Auctionator.sol:Auctionator",
						"label": "bidHistory",
						"offset": 0,
						"slot": "3",
						"type": "t_array(t_struct(Bid)33_storage)dyn_storage"
					},
					{
						"astId": 41,
						"contract": "Auctionator.sol:Auctionator",
						"label": "_bidIndices",
						"offset": 0,
						"slot": "4",
						"type": "t_mapping(t_address,t_uint256)"
					}
				],
				"types": {
					"t_address": {
						"encoding": "inplace",
						"label": "address",
						"numberOfBytes": "20"
					},
					"t_array(t_struct(Bid)33_storage)dyn_storage": {
						"base": "t_struct(Bid)33_storage",
						"encoding": "dynamic_array",
						"label": "struct Auctionator.Bid[]",
						"numberOfBytes": "32"
					},
					"t_bool": {
						"encoding": "inplace",
						"label": "bool",
						"numberOfBytes": "1"
					},
					"t_mapping(t_address,t_uint256)": {
						"encoding": "mapping",
						"key": "t_address",
						"label": "mapping(address => uint256)",
						"numberOfBytes": "32",
						"value": "t_uint256"
					},
					"t_struct(Bid)33_storage": {
						"encoding": "inplace",
						"label": "struct Auctionator.Bid",
						"members": [
							{
								"astId": 28,
								"contract": "Auctionator.sol:Auctionator",
								"label": "bidder",
								"offset": 0,
								"slot": "0",
								"type": "t_address"
							},
							{
								"astId": 30,
								"contract": "Auctionator.sol:Auctionator",
								"label": "amount",
								"offset": 0,
								"slot": "1",
								"type": "t_uint256"
							},
							{
								"astId": 32,
								"contract": "Auctionator.sol:Auctionator",
								"label": "withdrawn",
								"offset": 0,
								"slot": "2",
								"type": "t_bool"
							}
						],
						"numberOfBytes": "96"
					},
					"t_uint256": {
						"encoding": "inplace",
						"label": "uint256",
						"numberOfBytes": "32"
					}
				}
			},
			"userdoc": {
				"kind": "user",
				"methods": {
					"concludeAuction()": {
						"notice": "Concludes the auction and distributes funds"
					},
					"constructor": {
						"notice": "Contract deployer becomes the owner"
					},
					"getBidHistory()": {
						"notice": "Gets complete bid history"
					},
					"getRemainingTime()": {
						"notice": "Gets remaining auction time"
					},
					"getWinnerInfo()": {
						"notice": "Gets winner information"
					},
					"placeBid()": {
						"notice": "Allows participants to place bidsExtends auction by 10 minutes if placed within last 10 minutes"
					},
					"withdrawFull()": {
						"notice": "Allows losers to withdraw full bids"
					},
					"withdrawPartial(uint256)": {
						"notice": "Allows partial withdrawal during auction"
					}
				},
				"notice": "Implements an auction system.",
				"version": 1
			}
		}
	}
}