{
	"Auctionator.sol": {
		"Auctionator": {
			"abi": [
				{
					"inputs": [
						{
							"internalType": "uint256",
							"name": "durationInSeconds",
							"type": "uint256"
						}
					],
					"stateMutability": "nonpayable",
					"type": "constructor"
				},
				{
					"anonymous": false,
					"inputs": [
						{
							"indexed": true,
							"internalType": "address",
							"name": "winner",
							"type": "address"
						},
						{
							"indexed": false,
							"internalType": "uint256",
							"name": "winningAmount",
							"type": "uint256"
						}
					],
					"name": "AuctionConcluded",
					"type": "event"
				},
				{
					"anonymous": false,
					"inputs": [
						{
							"indexed": false,
							"internalType": "uint256",
							"name": "newEndTime",
							"type": "uint256"
						}
					],
					"name": "AuctionExtended",
					"type": "event"
				},
				{
					"anonymous": false,
					"inputs": [
						{
							"indexed": true,
							"internalType": "address",
							"name": "bidder",
							"type": "address"
						},
						{
							"indexed": false,
							"internalType": "uint256",
							"name": "amount",
							"type": "uint256"
						}
					],
					"name": "FullWithdrawal",
					"type": "event"
				},
				{
					"anonymous": false,
					"inputs": [
						{
							"indexed": true,
							"internalType": "address",
							"name": "bidder",
							"type": "address"
						},
						{
							"indexed": false,
							"internalType": "uint256",
							"name": "amount",
							"type": "uint256"
						},
						{
							"indexed": false,
							"internalType": "uint256",
							"name": "newEndTime",
							"type": "uint256"
						}
					],
					"name": "NewBid",
					"type": "event"
				},
				{
					"anonymous": false,
					"inputs": [
						{
							"indexed": true,
							"internalType": "address",
							"name": "bidder",
							"type": "address"
						},
						{
							"indexed": false,
							"internalType": "uint256",
							"name": "amount",
							"type": "uint256"
						}
					],
					"name": "PartialWithdrawal",
					"type": "event"
				},
				{
					"inputs": [],
					"name": "COMMISSION_PERCENT",
					"outputs": [
						{
							"internalType": "uint256",
							"name": "",
							"type": "uint256"
						}
					],
					"stateMutability": "view",
					"type": "function"
				},
				{
					"inputs": [],
					"name": "EXTENSION_DURATION",
					"outputs": [
						{
							"internalType": "uint256",
							"name": "",
							"type": "uint256"
						}
					],
					"stateMutability": "view",
					"type": "function"
				},
				{
					"inputs": [],
					"name": "EXTENSION_THRESHOLD",
					"outputs": [
						{
							"internalType": "uint256",
							"name": "",
							"type": "uint256"
						}
					],
					"stateMutability": "view",
					"type": "function"
				},
				{
					"inputs": [],
					"name": "MIN_BID_INCREASE_PERCENT",
					"outputs": [
						{
							"internalType": "uint256",
							"name": "",
							"type": "uint256"
						}
					],
					"stateMutability": "view",
					"type": "function"
				},
				{
					"inputs": [],
					"name": "auctionEndTime",
					"outputs": [
						{
							"internalType": "uint256",
							"name": "",
							"type": "uint256"
						}
					],
					"stateMutability": "view",
					"type": "function"
				},
				{
					"inputs": [],
					"name": "auctionEnded",
					"outputs": [
						{
							"internalType": "bool",
							"name": "",
							"type": "bool"
						}
					],
					"stateMutability": "view",
					"type": "function"
				},
				{
					"inputs": [
						{
							"internalType": "uint256",
							"name": "",
							"type": "uint256"
						}
					],
					"name": "bidHistory",
					"outputs": [
						{
							"internalType": "address",
							"name": "bidder",
							"type": "address"
						},
						{
							"internalType": "uint256",
							"name": "amount",
							"type": "uint256"
						},
						{
							"internalType": "bool",
							"name": "withdrawn",
							"type": "bool"
						}
					],
					"stateMutability": "view",
					"type": "function"
				},
				{
					"inputs": [],
					"name": "concludeAuction",
					"outputs": [],
					"stateMutability": "nonpayable",
					"type": "function"
				},
				{
					"inputs": [],
					"name": "getBidHistory",
					"outputs": [
						{
							"components": [
								{
									"internalType": "address",
									"name": "bidder",
									"type": "address"
								},
								{
									"internalType": "uint256",
									"name": "amount",
									"type": "uint256"
								},
								{
									"internalType": "bool",
									"name": "withdrawn",
									"type": "bool"
								}
							],
							"internalType": "struct Auctionator.Bid[]",
							"name": "",
							"type": "tuple[]"
						}
					],
					"stateMutability": "view",
					"type": "function"
				},
				{
					"inputs": [],
					"name": "getRemainingTime",
					"outputs": [
						{
							"internalType": "uint256",
							"name": "remainingTime",
							"type": "uint256"
						}
					],
					"stateMutability": "view",
					"type": "function"
				},
				{
					"inputs": [],
					"name": "getWinnerInfo",
					"outputs": [
						{
							"internalType": "address",
							"name": "winnerAddress",
							"type": "address"
						},
						{
							"internalType": "uint256",
							"name": "winningAmount",
							"type": "uint256"
						}
					],
					"stateMutability": "view",
					"type": "function"
				},
				{
					"inputs": [],
					"name": "highestBid",
					"outputs": [
						{
							"internalType": "uint256",
							"name": "",
							"type": "uint256"
						}
					],
					"stateMutability": "view",
					"type": "function"
				},
				{
					"inputs": [],
					"name": "highestBidder",
					"outputs": [
						{
							"internalType": "address",
							"name": "",
							"type": "address"
						}
					],
					"stateMutability": "view",
					"type": "function"
				},
				{
					"inputs": [],
					"name": "initialDuration",
					"outputs": [
						{
							"internalType": "uint256",
							"name": "",
							"type": "uint256"
						}
					],
					"stateMutability": "view",
					"type": "function"
				},
				{
					"inputs": [],
					"name": "owner",
					"outputs": [
						{
							"internalType": "address",
							"name": "",
							"type": "address"
						}
					],
					"stateMutability": "view",
					"type": "function"
				},
				{
					"inputs": [],
					"name": "placeBid",
					"outputs": [],
					"stateMutability": "payable",
					"type": "function"
				},
				{
					"inputs": [],
					"name": "withdrawFull",
					"outputs": [],
					"stateMutability": "nonpayable",
					"type": "function"
				},
				{
					"inputs": [
						{
							"internalType": "uint256",
							"name": "amountToWithdraw",
							"type": "uint256"
						}
					],
					"name": "withdrawPartial",
					"outputs": [],
					"stateMutability": "nonpayable",
					"type": "function"
				},
				{
					"stateMutability": "payable",
					"type": "receive"
				}
			],
			"devdoc": {
				"details": "Auction contract implementing all required features",
				"kind": "dev",
				"methods": {
					"concludeAuction()": {
						"details": "Transfers winning amount (minus commission) to owner"
					},
					"constructor": {
						"details": "Initializes the auction contract",
						"params": {
							"durationInSeconds": "Initial auction duration in seconds"
						}
					},
					"getBidHistory()": {
						"returns": {
							"_0": "Array of all bids placed"
						}
					},
					"getRemainingTime()": {
						"returns": {
							"remainingTime": "Time left in seconds (0 if ended)"
						}
					},
					"getWinnerInfo()": {
						"returns": {
							"winnerAddress": "Winner's address",
							"winningAmount": "Winning bid amount"
						}
					},
					"placeBid()": {
						"details": "Each new bid must be at least 5% higher than previous"
					},
					"withdrawFull()": {
						"details": "Sends back each user's bid minus 2% commission"
					},
					"withdrawPartial(uint256)": {
						"details": "Remaining amount must cover user's last bid",
						"params": {
							"amountToWithdraw": "Amount to withdraw"
						}
					}
				},
				"title": "Auctionator",
				"version": 1
			},
			"evm": {
				"assembly": "    /* \"Auctionator.sol\":196:7105  contract Auctionator {... */\n  mstore(0x40, 0xc0)\n    /* \"Auctionator.sol\":2064:2329  constructor(uint256 durationInSeconds) {... */\n  callvalue\n  dup1\n  iszero\n  tag_1\n  jumpi\n  revert(0x00, 0x00)\ntag_1:\n  pop\n  mload(0x40)\n  sub(codesize, bytecodeSize)\n  dup1\n  bytecodeSize\n  dup4\n  codecopy\n  dup2\n  dup2\n  add\n  0x40\n  mstore\n  dup2\n  add\n  swap1\n  tag_2\n  swap2\n  swap1\n  tag_3\n  jump\t// in\ntag_2:\n    /* \"Auctionator.sol\":462:472  10 minutes */\n  0x0258\n    /* \"Auctionator.sol\":2122:2139  durationInSeconds */\n  dup2\n    /* \"Auctionator.sol\":2122:2162  durationInSeconds >= EXTENSION_THRESHOLD */\n  lt\n  iszero\n    /* \"Auctionator.sol\":2114:2181  require(durationInSeconds >= EXTENSION_THRESHOLD, \"Short duration\") */\n  tag_6\n  jumpi\n  mload(0x40)\n  0x08c379a000000000000000000000000000000000000000000000000000000000\n  dup2\n  mstore\n  0x04\n  add\n  tag_7\n  swap1\n  tag_8\n  jump\t// in\ntag_7:\n  mload(0x40)\n  dup1\n  swap2\n  sub\n  swap1\n  revert\ntag_6:\n    /* \"Auctionator.sol\":2202:2212  msg.sender */\n  caller\n    /* \"Auctionator.sol\":2194:2212  owner = msg.sender */\n  0xffffffffffffffffffffffffffffffffffffffff\n  and\n  0x80\n  dup2\n  0xffffffffffffffffffffffffffffffffffffffff\n  and\n  dup2\n  mstore\n  pop\n  pop\n    /* \"Auctionator.sol\":2241:2258  durationInSeconds */\n  dup1\n    /* \"Auctionator.sol\":2223:2258  initialDuration = durationInSeconds */\n  0xa0\n  dup2\n  dup2\n  mstore\n  pop\n  pop\n    /* \"Auctionator.sol\":2304:2321  durationInSeconds */\n  dup1\n    /* \"Auctionator.sol\":2286:2301  block.timestamp */\n  timestamp\n    /* \"Auctionator.sol\":2286:2321  block.timestamp + durationInSeconds */\n  tag_9\n  swap2\n  swap1\n  tag_10\n  jump\t// in\ntag_9:\n    /* \"Auctionator.sol\":2269:2283  auctionEndTime */\n  0x00\n    /* \"Auctionator.sol\":2269:2321  auctionEndTime = block.timestamp + durationInSeconds */\n  dup2\n  swap1\n  sstore\n  pop\n    /* \"Auctionator.sol\":2064:2329  constructor(uint256 durationInSeconds) {... */\n  pop\n    /* \"Auctionator.sol\":196:7105  contract Auctionator {... */\n  jump(tag_11)\n    /* \"#utility.yul\":88:205   */\ntag_13:\n    /* \"#utility.yul\":197:198   */\n  0x00\n    /* \"#utility.yul\":194:195   */\n  0x00\n    /* \"#utility.yul\":187:199   */\n  revert\n    /* \"#utility.yul\":334:411   */\ntag_15:\n    /* \"#utility.yul\":371:378   */\n  0x00\n    /* \"#utility.yul\":400:405   */\n  dup2\n    /* \"#utility.yul\":389:405   */\n  swap1\n  pop\n    /* \"#utility.yul\":334:411   */\n  swap2\n  swap1\n  pop\n  jump\t// out\n    /* \"#utility.yul\":417:539   */\ntag_16:\n    /* \"#utility.yul\":490:514   */\n  tag_28\n    /* \"#utility.yul\":508:513   */\n  dup2\n    /* \"#utility.yul\":490:514   */\n  tag_15\n  jump\t// in\ntag_28:\n    /* \"#utility.yul\":483:488   */\n  dup2\n    /* \"#utility.yul\":480:515   */\n  eq\n    /* \"#utility.yul\":470:533   */\n  tag_29\n  jumpi\n    /* \"#utility.yul\":529:530   */\n  0x00\n    /* \"#utility.yul\":526:527   */\n  0x00\n    /* \"#utility.yul\":519:531   */\n  revert\n    /* \"#utility.yul\":470:533   */\ntag_29:\n    /* \"#utility.yul\":417:539   */\n  pop\n  jump\t// out\n    /* \"#utility.yul\":545:688   */\ntag_17:\n    /* \"#utility.yul\":602:607   */\n  0x00\n    /* \"#utility.yul\":633:639   */\n  dup2\n    /* \"#utility.yul\":627:640   */\n  mload\n    /* \"#utility.yul\":618:640   */\n  swap1\n  pop\n    /* \"#utility.yul\":649:682   */\n  tag_31\n    /* \"#utility.yul\":676:681   */\n  dup2\n    /* \"#utility.yul\":649:682   */\n  tag_16\n  jump\t// in\ntag_31:\n    /* \"#utility.yul\":545:688   */\n  swap3\n  swap2\n  pop\n  pop\n  jump\t// out\n    /* \"#utility.yul\":694:1045   */\ntag_3:\n    /* \"#utility.yul\":764:770   */\n  0x00\n    /* \"#utility.yul\":813:815   */\n  0x20\n    /* \"#utility.yul\":801:810   */\n  dup3\n    /* \"#utility.yul\":792:799   */\n  dup5\n    /* \"#utility.yul\":788:811   */\n  sub\n    /* \"#utility.yul\":784:816   */\n  slt\n    /* \"#utility.yul\":781:900   */\n  iszero\n  tag_33\n  jumpi\n    /* \"#utility.yul\":819:898   */\n  tag_34\n  tag_13\n  jump\t// in\ntag_34:\n    /* \"#utility.yul\":781:900   */\ntag_33:\n    /* \"#utility.yul\":939:940   */\n  0x00\n    /* \"#utility.yul\":964:1028   */\n  tag_35\n    /* \"#utility.yul\":1020:1027   */\n  dup5\n    /* \"#utility.yul\":1011:1017   */\n  dup3\n    /* \"#utility.yul\":1000:1009   */\n  dup6\n    /* \"#utility.yul\":996:1018   */\n  add\n    /* \"#utility.yul\":964:1028   */\n  tag_17\n  jump\t// in\ntag_35:\n    /* \"#utility.yul\":954:1028   */\n  swap2\n  pop\n    /* \"#utility.yul\":910:1038   */\n  pop\n    /* \"#utility.yul\":694:1045   */\n  swap3\n  swap2\n  pop\n  pop\n  jump\t// out\n    /* \"#utility.yul\":1051:1220   */\ntag_18:\n    /* \"#utility.yul\":1135:1146   */\n  0x00\n    /* \"#utility.yul\":1169:1175   */\n  dup3\n    /* \"#utility.yul\":1164:1167   */\n  dup3\n    /* \"#utility.yul\":1157:1176   */\n  mstore\n    /* \"#utility.yul\":1209:1213   */\n  0x20\n    /* \"#utility.yul\":1204:1207   */\n  dup3\n    /* \"#utility.yul\":1200:1214   */\n  add\n    /* \"#utility.yul\":1185:1214   */\n  swap1\n  pop\n    /* \"#utility.yul\":1051:1220   */\n  swap3\n  swap2\n  pop\n  pop\n  jump\t// out\n    /* \"#utility.yul\":1226:1390   */\ntag_19:\n    /* \"#utility.yul\":1366:1382   */\n  0x53686f7274206475726174696f6e000000000000000000000000000000000000\n    /* \"#utility.yul\":1362:1363   */\n  0x00\n    /* \"#utility.yul\":1354:1360   */\n  dup3\n    /* \"#utility.yul\":1350:1364   */\n  add\n    /* \"#utility.yul\":1343:1383   */\n  mstore\n    /* \"#utility.yul\":1226:1390   */\n  pop\n  jump\t// out\n    /* \"#utility.yul\":1396:1762   */\ntag_20:\n    /* \"#utility.yul\":1538:1541   */\n  0x00\n    /* \"#utility.yul\":1559:1626   */\n  tag_39\n    /* \"#utility.yul\":1623:1625   */\n  0x0e\n    /* \"#utility.yul\":1618:1621   */\n  dup4\n    /* \"#utility.yul\":1559:1626   */\n  tag_18\n  jump\t// in\ntag_39:\n    /* \"#utility.yul\":1552:1626   */\n  swap2\n  pop\n    /* \"#utility.yul\":1635:1728   */\n  tag_40\n    /* \"#utility.yul\":1724:1727   */\n  dup3\n    /* \"#utility.yul\":1635:1728   */\n  tag_19\n  jump\t// in\ntag_40:\n    /* \"#utility.yul\":1753:1755   */\n  0x20\n    /* \"#utility.yul\":1748:1751   */\n  dup3\n    /* \"#utility.yul\":1744:1756   */\n  add\n    /* \"#utility.yul\":1737:1756   */\n  swap1\n  pop\n    /* \"#utility.yul\":1396:1762   */\n  swap2\n  swap1\n  pop\n  jump\t// out\n    /* \"#utility.yul\":1768:2187   */\ntag_8:\n    /* \"#utility.yul\":1934:1938   */\n  0x00\n    /* \"#utility.yul\":1972:1974   */\n  0x20\n    /* \"#utility.yul\":1961:1970   */\n  dup3\n    /* \"#utility.yul\":1957:1975   */\n  add\n    /* \"#utility.yul\":1949:1975   */\n  swap1\n  pop\n    /* \"#utility.yul\":2021:2030   */\n  dup2\n    /* \"#utility.yul\":2015:2019   */\n  dup2\n    /* \"#utility.yul\":2011:2031   */\n  sub\n    /* \"#utility.yul\":2007:2008   */\n  0x00\n    /* \"#utility.yul\":1996:2005   */\n  dup4\n    /* \"#utility.yul\":1992:2009   */\n  add\n    /* \"#utility.yul\":1985:2032   */\n  mstore\n    /* \"#utility.yul\":2049:2180   */\n  tag_42\n    /* \"#utility.yul\":2175:2179   */\n  dup2\n    /* \"#utility.yul\":2049:2180   */\n  tag_20\n  jump\t// in\ntag_42:\n    /* \"#utility.yul\":2041:2180   */\n  swap1\n  pop\n    /* \"#utility.yul\":1768:2187   */\n  swap2\n  swap1\n  pop\n  jump\t// out\n    /* \"#utility.yul\":2193:2373   */\ntag_21:\n    /* \"#utility.yul\":2241:2318   */\n  0x4e487b7100000000000000000000000000000000000000000000000000000000\n    /* \"#utility.yul\":2238:2239   */\n  0x00\n    /* \"#utility.yul\":2231:2319   */\n  mstore\n    /* \"#utility.yul\":2338:2342   */\n  0x11\n    /* \"#utility.yul\":2335:2336   */\n  0x04\n    /* \"#utility.yul\":2328:2343   */\n  mstore\n    /* \"#utility.yul\":2362:2366   */\n  0x24\n    /* \"#utility.yul\":2359:2360   */\n  0x00\n    /* \"#utility.yul\":2352:2367   */\n  revert\n    /* \"#utility.yul\":2379:2570   */\ntag_10:\n    /* \"#utility.yul\":2419:2422   */\n  0x00\n    /* \"#utility.yul\":2438:2458   */\n  tag_45\n    /* \"#utility.yul\":2456:2457   */\n  dup3\n    /* \"#utility.yul\":2438:2458   */\n  tag_15\n  jump\t// in\ntag_45:\n    /* \"#utility.yul\":2433:2458   */\n  swap2\n  pop\n    /* \"#utility.yul\":2472:2492   */\n  tag_46\n    /* \"#utility.yul\":2490:2491   */\n  dup4\n    /* \"#utility.yul\":2472:2492   */\n  tag_15\n  jump\t// in\ntag_46:\n    /* \"#utility.yul\":2467:2492   */\n  swap3\n  pop\n    /* \"#utility.yul\":2515:2516   */\n  dup3\n    /* \"#utility.yul\":2512:2513   */\n  dup3\n    /* \"#utility.yul\":2508:2517   */\n  add\n    /* \"#utility.yul\":2501:2517   */\n  swap1\n  pop\n    /* \"#utility.yul\":2536:2539   */\n  dup1\n    /* \"#utility.yul\":2533:2534   */\n  dup3\n    /* \"#utility.yul\":2530:2540   */\n  gt\n    /* \"#utility.yul\":2527:2563   */\n  iszero\n  tag_47\n  jumpi\n    /* \"#utility.yul\":2543:2561   */\n  tag_48\n  tag_21\n  jump\t// in\ntag_48:\n    /* \"#utility.yul\":2527:2563   */\ntag_47:\n    /* \"#utility.yul\":2379:2570   */\n  swap3\n  swap2\n  pop\n  pop\n  jump\t// out\n    /* \"Auctionator.sol\":196:7105  contract Auctionator {... */\ntag_11:\n  mload(0x80)\n  mload(0xa0)\n  codecopy(0x00, dataOffset(sub_0), dataSize(sub_0))\n  0x00\n  assignImmutable(\"0x8fef2229291b68be841adf029e58b87f39ba144b2d3b0af1760243d0a9bc6a1c\")\n  0x00\n  assignImmutable(\"0x277ab82e5a4641341820a4a2933a62c1de997e42e92548657ae21b3728d580fe\")\n  return(0x00, dataSize(sub_0))\nstop\n\nsub_0: assembly {\n        /* \"Auctionator.sol\":196:7105  contract Auctionator {... */\n      mstore(0x40, 0x80)\n      jumpi(tag_1, lt(calldatasize, 0x04))\n      shr(0xe0, calldataload(0x00))\n      dup1\n      0x91f90157\n      gt\n      tag_21\n      jumpi\n      dup1\n      0xe0dd89ec\n      gt\n      tag_22\n      jumpi\n      dup1\n      0xe0dd89ec\n      eq\n      tag_16\n      jumpi\n      dup1\n      0xe1174717\n      eq\n      tag_17\n      jumpi\n      dup1\n      0xecde973d\n      eq\n      tag_18\n      jumpi\n      dup1\n      0xecfc7ecc\n      eq\n      tag_19\n      jumpi\n      dup1\n      0xefb98bcf\n      eq\n      tag_20\n      jumpi\n      jump(tag_2)\n    tag_22:\n      dup1\n      0x91f90157\n      eq\n      tag_12\n      jumpi\n      dup1\n      0xb404e001\n      eq\n      tag_13\n      jumpi\n      dup1\n      0xb815a357\n      eq\n      tag_14\n      jumpi\n      dup1\n      0xd57bde79\n      eq\n      tag_15\n      jumpi\n      jump(tag_2)\n    tag_21:\n      dup1\n      0x4b449cba\n      gt\n      tag_23\n      jumpi\n      dup1\n      0x4b449cba\n      eq\n      tag_7\n      jumpi\n      dup1\n      0x5dd624df\n      eq\n      tag_8\n      jumpi\n      dup1\n      0x7e50bb83\n      eq\n      tag_9\n      jumpi\n      dup1\n      0x86433374\n      eq\n      tag_10\n      jumpi\n      dup1\n      0x8da5cb5b\n      eq\n      tag_11\n      jumpi\n      jump(tag_2)\n    tag_23:\n      dup1\n      0x093d2769\n      eq\n      tag_3\n      jumpi\n      dup1\n      0x1211540c\n      eq\n      tag_4\n      jumpi\n      dup1\n      0x22bb26f7\n      eq\n      tag_5\n      jumpi\n      dup1\n      0x4a874bb9\n      eq\n      tag_6\n      jumpi\n      jump(tag_2)\n    tag_1:\n      jumpi(tag_2, calldatasize)\n      stop\n    tag_2:\n      revert(0x00, 0x00)\n        /* \"Auctionator.sol\":3772:4251  function concludeAuction() external whenAuctionEnded {... */\n    tag_3:\n      callvalue\n      dup1\n      iszero\n      tag_26\n      jumpi\n      revert(0x00, 0x00)\n    tag_26:\n      pop\n      tag_27\n      tag_28\n      jump\t// in\n    tag_27:\n      stop\n        /* \"Auctionator.sol\":5109:5802  function withdrawPartial(uint256 amountToWithdraw) external whenAuctionActive {... */\n    tag_4:\n      callvalue\n      dup1\n      iszero\n      tag_29\n      jumpi\n      revert(0x00, 0x00)\n    tag_29:\n      pop\n      tag_30\n      0x04\n      dup1\n      calldatasize\n      sub\n      dup2\n      add\n      swap1\n      tag_31\n      swap2\n      swap1\n      tag_32\n      jump\t// in\n    tag_31:\n      tag_33\n      jump\t// in\n    tag_30:\n      stop\n        /* \"Auctionator.sol\":5964:6155  function getWinnerInfo() external view returns (address winnerAddress, uint256 winningAmount) {... */\n    tag_5:\n      callvalue\n      dup1\n      iszero\n      tag_34\n      jumpi\n      revert(0x00, 0x00)\n    tag_34:\n      pop\n      tag_35\n      tag_36\n      jump\t// in\n    tag_35:\n      mload(0x40)\n      tag_37\n      swap3\n      swap2\n      swap1\n      tag_38\n      jump\t// in\n    tag_37:\n      mload(0x40)\n      dup1\n      swap2\n      sub\n      swap1\n      return\n        /* \"Auctionator.sol\":242:294  uint256 public constant MIN_BID_INCREASE_PERCENT = 5 */\n    tag_6:\n      callvalue\n      dup1\n      iszero\n      tag_39\n      jumpi\n      revert(0x00, 0x00)\n    tag_39:\n      pop\n      tag_40\n      tag_41\n      jump\t// in\n    tag_40:\n      mload(0x40)\n      tag_42\n      swap2\n      swap1\n      tag_43\n      jump\t// in\n    tag_42:\n      mload(0x40)\n      dup1\n      swap2\n      sub\n      swap1\n      return\n        /* \"Auctionator.sol\":616:645  uint256 public auctionEndTime */\n    tag_7:\n      callvalue\n      dup1\n      iszero\n      tag_44\n      jumpi\n      revert(0x00, 0x00)\n    tag_44:\n      pop\n      tag_45\n      tag_46\n      jump\t// in\n    tag_45:\n      mload(0x40)\n      tag_47\n      swap2\n      swap1\n      tag_43\n      jump\t// in\n    tag_47:\n      mload(0x40)\n      dup1\n      swap2\n      sub\n      swap1\n      return\n        /* \"Auctionator.sol\":354:409  uint256 public constant EXTENSION_DURATION = 10 minutes */\n    tag_8:\n      callvalue\n      dup1\n      iszero\n      tag_48\n      jumpi\n      revert(0x00, 0x00)\n    tag_48:\n      pop\n      tag_49\n      tag_50\n      jump\t// in\n    tag_49:\n      mload(0x40)\n      tag_51\n      swap2\n      swap1\n      tag_43\n      jump\t// in\n    tag_51:\n      mload(0x40)\n      dup1\n      swap2\n      sub\n      swap1\n      return\n        /* \"Auctionator.sol\":6264:6362  function getBidHistory() external view returns (Bid[] memory) {... */\n    tag_9:\n      callvalue\n      dup1\n      iszero\n      tag_52\n      jumpi\n      revert(0x00, 0x00)\n    tag_52:\n      pop\n      tag_53\n      tag_54\n      jump\t// in\n    tag_53:\n      mload(0x40)\n      tag_55\n      swap2\n      swap1\n      tag_56\n      jump\t// in\n    tag_55:\n      mload(0x40)\n      dup1\n      swap2\n      sub\n      swap1\n      return\n        /* \"Auctionator.sol\":719:743  bool public auctionEnded */\n    tag_10:\n      callvalue\n      dup1\n      iszero\n      tag_57\n      jumpi\n      revert(0x00, 0x00)\n    tag_57:\n      pop\n      tag_58\n      tag_59\n      jump\t// in\n    tag_58:\n      mload(0x40)\n      tag_60\n      swap2\n      swap1\n      tag_61\n      jump\t// in\n    tag_60:\n      mload(0x40)\n      dup1\n      swap2\n      sub\n      swap1\n      return\n        /* \"Auctionator.sol\":532:562  address public immutable owner */\n    tag_11:\n      callvalue\n      dup1\n      iszero\n      tag_62\n      jumpi\n      revert(0x00, 0x00)\n    tag_62:\n      pop\n      tag_63\n      tag_64\n      jump\t// in\n    tag_63:\n      mload(0x40)\n      tag_65\n      swap2\n      swap1\n      tag_66\n      jump\t// in\n    tag_65:\n      mload(0x40)\n      dup1\n      swap2\n      sub\n      swap1\n      return\n        /* \"Auctionator.sol\":684:712  address public highestBidder */\n    tag_12:\n      callvalue\n      dup1\n      iszero\n      tag_67\n      jumpi\n      revert(0x00, 0x00)\n    tag_67:\n      pop\n      tag_68\n      tag_69\n      jump\t// in\n    tag_68:\n      mload(0x40)\n      tag_70\n      swap2\n      swap1\n      tag_66\n      jump\t// in\n    tag_70:\n      mload(0x40)\n      dup1\n      swap2\n      sub\n      swap1\n      return\n        /* \"Auctionator.sol\":301:347  uint256 public constant COMMISSION_PERCENT = 2 */\n    tag_13:\n      callvalue\n      dup1\n      iszero\n      tag_71\n      jumpi\n      revert(0x00, 0x00)\n    tag_71:\n      pop\n      tag_72\n      tag_73\n      jump\t// in\n    tag_72:\n      mload(0x40)\n      tag_74\n      swap2\n      swap1\n      tag_43\n      jump\t// in\n    tag_74:\n      mload(0x40)\n      dup1\n      swap2\n      sub\n      swap1\n      return\n        /* \"Auctionator.sol\":569:609  uint256 public immutable initialDuration */\n    tag_14:\n      callvalue\n      dup1\n      iszero\n      tag_75\n      jumpi\n      revert(0x00, 0x00)\n    tag_75:\n      pop\n      tag_76\n      tag_77\n      jump\t// in\n    tag_76:\n      mload(0x40)\n      tag_78\n      swap2\n      swap1\n      tag_43\n      jump\t// in\n    tag_78:\n      mload(0x40)\n      dup1\n      swap2\n      sub\n      swap1\n      return\n        /* \"Auctionator.sol\":652:677  uint256 public highestBid */\n    tag_15:\n      callvalue\n      dup1\n      iszero\n      tag_79\n      jumpi\n      revert(0x00, 0x00)\n    tag_79:\n      pop\n      tag_80\n      tag_81\n      jump\t// in\n    tag_80:\n      mload(0x40)\n      tag_82\n      swap2\n      swap1\n      tag_43\n      jump\t// in\n    tag_82:\n      mload(0x40)\n      dup1\n      swap2\n      sub\n      swap1\n      return\n        /* \"Auctionator.sol\":4409:4918  function withdrawFull() external onlyOwner whenAuctionEnded {... */\n    tag_16:\n      callvalue\n      dup1\n      iszero\n      tag_83\n      jumpi\n      revert(0x00, 0x00)\n    tag_83:\n      pop\n      tag_84\n      tag_85\n      jump\t// in\n    tag_84:\n      stop\n        /* \"Auctionator.sol\":416:472  uint256 public constant EXTENSION_THRESHOLD = 10 minutes */\n    tag_17:\n      callvalue\n      dup1\n      iszero\n      tag_86\n      jumpi\n      revert(0x00, 0x00)\n    tag_86:\n      pop\n      tag_87\n      tag_88\n      jump\t// in\n    tag_87:\n      mload(0x40)\n      tag_89\n      swap2\n      swap1\n      tag_43\n      jump\t// in\n    tag_89:\n      mload(0x40)\n      dup1\n      swap2\n      sub\n      swap1\n      return\n        /* \"Auctionator.sol\":894:917  Bid[] public bidHistory */\n    tag_18:\n      callvalue\n      dup1\n      iszero\n      tag_90\n      jumpi\n      revert(0x00, 0x00)\n    tag_90:\n      pop\n      tag_91\n      0x04\n      dup1\n      calldatasize\n      sub\n      dup2\n      add\n      swap1\n      tag_92\n      swap2\n      swap1\n      tag_32\n      jump\t// in\n    tag_92:\n      tag_93\n      jump\t// in\n    tag_91:\n      mload(0x40)\n      tag_94\n      swap4\n      swap3\n      swap2\n      swap1\n      tag_95\n      jump\t// in\n    tag_94:\n      mload(0x40)\n      dup1\n      swap2\n      sub\n      swap1\n      return\n        /* \"Auctionator.sol\":2551:3620  function placeBid() external payable whenAuctionActive {... */\n    tag_19:\n      tag_96\n      tag_97\n      jump\t// in\n    tag_96:\n      stop\n        /* \"Auctionator.sol\":6496:6667  function getRemainingTime() external view returns (uint256 remainingTime) {... */\n    tag_20:\n      callvalue\n      dup1\n      iszero\n      tag_98\n      jumpi\n      revert(0x00, 0x00)\n    tag_98:\n      pop\n      tag_99\n      tag_100\n      jump\t// in\n    tag_99:\n      mload(0x40)\n      tag_101\n      swap2\n      swap1\n      tag_43\n      jump\t// in\n    tag_101:\n      mload(0x40)\n      dup1\n      swap2\n      sub\n      swap1\n      return\n        /* \"Auctionator.sol\":3772:4251  function concludeAuction() external whenAuctionEnded {... */\n    tag_28:\n        /* \"Auctionator.sol\":1691:1705  auctionEndTime */\n      sload(0x00)\n        /* \"Auctionator.sol\":1673:1688  block.timestamp */\n      timestamp\n        /* \"Auctionator.sol\":1673:1705  block.timestamp > auctionEndTime */\n      gt\n        /* \"Auctionator.sol\":1673:1721  block.timestamp > auctionEndTime || auctionEnded */\n      dup1\n      tag_103\n      jumpi\n      pop\n        /* \"Auctionator.sol\":1709:1721  auctionEnded */\n      0x02\n      0x14\n      swap1\n      sload\n      swap1\n      0x0100\n      exp\n      swap1\n      div\n      0xff\n      and\n        /* \"Auctionator.sol\":1673:1721  block.timestamp > auctionEndTime || auctionEnded */\n    tag_103:\n        /* \"Auctionator.sol\":1665:1738  require(block.timestamp > auctionEndTime || auctionEnded, \"Still active\") */\n      tag_104\n      jumpi\n      mload(0x40)\n      0x08c379a000000000000000000000000000000000000000000000000000000000\n      dup2\n      mstore\n      0x04\n      add\n      tag_105\n      swap1\n      tag_106\n      jump\t// in\n    tag_105:\n      mload(0x40)\n      dup1\n      swap2\n      sub\n      swap1\n      revert\n    tag_104:\n        /* \"Auctionator.sol\":3845:3857  auctionEnded */\n      0x02\n      0x14\n      swap1\n      sload\n      swap1\n      0x0100\n      exp\n      swap1\n      div\n      0xff\n      and\n        /* \"Auctionator.sol\":3844:3857  !auctionEnded */\n      iszero\n        /* \"Auctionator.sol\":3836:3874  require(!auctionEnded, \"Already done\") */\n      tag_108\n      jumpi\n      mload(0x40)\n      0x08c379a000000000000000000000000000000000000000000000000000000000\n      dup2\n      mstore\n      0x04\n      add\n      tag_109\n      swap1\n      tag_110\n      jump\t// in\n    tag_109:\n      mload(0x40)\n      dup1\n      swap2\n      sub\n      swap1\n      revert\n    tag_108:\n        /* \"Auctionator.sol\":3902:3906  true */\n      0x01\n        /* \"Auctionator.sol\":3887:3899  auctionEnded */\n      0x02\n      0x14\n        /* \"Auctionator.sol\":3887:3906  auctionEnded = true */\n      0x0100\n      exp\n      dup2\n      sload\n      dup2\n      0xff\n      mul\n      not\n      and\n      swap1\n      dup4\n      iszero\n      iszero\n      mul\n      or\n      swap1\n      sstore\n      pop\n        /* \"Auctionator.sol\":3919:3937  uint256 winningBid */\n      0x00\n        /* \"Auctionator.sol\":3940:3950  highestBid */\n      sload(0x01)\n        /* \"Auctionator.sol\":3919:3950  uint256 winningBid = highestBid */\n      swap1\n      pop\n        /* \"Auctionator.sol\":3978:3979  0 */\n      0x00\n        /* \"Auctionator.sol\":3965:3975  winningBid */\n      dup2\n        /* \"Auctionator.sol\":3965:3979  winningBid > 0 */\n      gt\n        /* \"Auctionator.sol\":3961:4183  if (winningBid > 0) {... */\n      iszero\n      tag_111\n      jumpi\n        /* \"Auctionator.sol\":3996:4014  uint256 commission */\n      0x00\n        /* \"Auctionator.sol\":4053:4056  100 */\n      0x64\n        /* \"Auctionator.sol\":346:347  2 */\n      0x02\n        /* \"Auctionator.sol\":4018:4028  winningBid */\n      dup4\n        /* \"Auctionator.sol\":4018:4049  winningBid * COMMISSION_PERCENT */\n      tag_112\n      swap2\n      swap1\n      tag_113\n      jump\t// in\n    tag_112:\n        /* \"Auctionator.sol\":4017:4056  (winningBid * COMMISSION_PERCENT) / 100 */\n      tag_114\n      swap2\n      swap1\n      tag_115\n      jump\t// in\n    tag_114:\n        /* \"Auctionator.sol\":3996:4056  uint256 commission = (winningBid * COMMISSION_PERCENT) / 100 */\n      swap1\n      pop\n        /* \"Auctionator.sol\":4071:4092  uint256 ownerProceeds */\n      0x00\n        /* \"Auctionator.sol\":4108:4118  commission */\n      dup2\n        /* \"Auctionator.sol\":4095:4105  winningBid */\n      dup4\n        /* \"Auctionator.sol\":4095:4118  winningBid - commission */\n      tag_116\n      swap2\n      swap1\n      tag_117\n      jump\t// in\n    tag_116:\n        /* \"Auctionator.sol\":4071:4118  uint256 ownerProceeds = winningBid - commission */\n      swap1\n      pop\n        /* \"Auctionator.sol\":4141:4146  owner */\n      immutable(\"0x277ab82e5a4641341820a4a2933a62c1de997e42e92548657ae21b3728d580fe\")\n        /* \"Auctionator.sol\":4133:4156  payable(owner).transfer */\n      0xffffffffffffffffffffffffffffffffffffffff\n      and\n        /* \"Auctionator.sol\":4133:4171  payable(owner).transfer(ownerProceeds) */\n      0x08fc\n        /* \"Auctionator.sol\":4157:4170  ownerProceeds */\n      dup3\n        /* \"Auctionator.sol\":4133:4171  payable(owner).transfer(ownerProceeds) */\n      swap1\n      dup2\n      iszero\n      mul\n      swap1\n      mload(0x40)\n      0x00\n      mload(0x40)\n      dup1\n      dup4\n      sub\n      dup2\n      dup6\n      dup9\n      dup9\n      call\n      swap4\n      pop\n      pop\n      pop\n      pop\n      iszero\n      dup1\n      iszero\n      tag_119\n      jumpi\n      returndatacopy(0x00, 0x00, returndatasize)\n      revert(0x00, returndatasize)\n    tag_119:\n      pop\n        /* \"Auctionator.sol\":3981:4183  {... */\n      pop\n      pop\n        /* \"Auctionator.sol\":3961:4183  if (winningBid > 0) {... */\n    tag_111:\n        /* \"Auctionator.sol\":4217:4230  highestBidder */\n      0x02\n      0x00\n      swap1\n      sload\n      swap1\n      0x0100\n      exp\n      swap1\n      div\n      0xffffffffffffffffffffffffffffffffffffffff\n      and\n        /* \"Auctionator.sol\":4200:4243  AuctionConcluded(highestBidder, winningBid) */\n      0xffffffffffffffffffffffffffffffffffffffff\n      and\n      0xb76f1dfdec2aecd1c5f01191cc10a8bad0dd5c2280438ccecc3fcd170533b42c\n        /* \"Auctionator.sol\":4232:4242  winningBid */\n      dup3\n        /* \"Auctionator.sol\":4200:4243  AuctionConcluded(highestBidder, winningBid) */\n      mload(0x40)\n      tag_120\n      swap2\n      swap1\n      tag_43\n      jump\t// in\n    tag_120:\n      mload(0x40)\n      dup1\n      swap2\n      sub\n      swap1\n      log2\n        /* \"Auctionator.sol\":3825:4251  {... */\n      pop\n        /* \"Auctionator.sol\":3772:4251  function concludeAuction() external whenAuctionEnded {... */\n      jump\t// out\n        /* \"Auctionator.sol\":5109:5802  function withdrawPartial(uint256 amountToWithdraw) external whenAuctionActive {... */\n    tag_33:\n        /* \"Auctionator.sol\":1523:1537  auctionEndTime */\n      sload(0x00)\n        /* \"Auctionator.sol\":1504:1519  block.timestamp */\n      timestamp\n        /* \"Auctionator.sol\":1504:1537  block.timestamp <= auctionEndTime */\n      gt\n      iszero\n        /* \"Auctionator.sol\":1496:1547  require(block.timestamp <= auctionEndTime, \"Ended\") */\n      tag_122\n      jumpi\n      mload(0x40)\n      0x08c379a000000000000000000000000000000000000000000000000000000000\n      dup2\n      mstore\n      0x04\n      add\n      tag_123\n      swap1\n      tag_124\n      jump\t// in\n    tag_123:\n      mload(0x40)\n      dup1\n      swap2\n      sub\n      swap1\n      revert\n    tag_122:\n        /* \"Auctionator.sol\":1567:1579  auctionEnded */\n      0x02\n      0x14\n      swap1\n      sload\n      swap1\n      0x0100\n      exp\n      swap1\n      div\n      0xff\n      and\n        /* \"Auctionator.sol\":1566:1579  !auctionEnded */\n      iszero\n        /* \"Auctionator.sol\":1558:1598  require(!auctionEnded, \"Manually ended\") */\n      tag_125\n      jumpi\n      mload(0x40)\n      0x08c379a000000000000000000000000000000000000000000000000000000000\n      dup2\n      mstore\n      0x04\n      add\n      tag_126\n      swap1\n      tag_127\n      jump\t// in\n    tag_126:\n      mload(0x40)\n      dup1\n      swap2\n      sub\n      swap1\n      revert\n    tag_125:\n        /* \"Auctionator.sol\":5225:5226  0 */\n      0x00\n        /* \"Auctionator.sol\":5206:5222  amountToWithdraw */\n      dup2\n        /* \"Auctionator.sol\":5206:5226  amountToWithdraw > 0 */\n      gt\n        /* \"Auctionator.sol\":5198:5239  require(amountToWithdraw > 0, \"Zero amt\") */\n      tag_129\n      jumpi\n      mload(0x40)\n      0x08c379a000000000000000000000000000000000000000000000000000000000\n      dup2\n      mstore\n      0x04\n      add\n      tag_130\n      swap1\n      tag_131\n      jump\t// in\n    tag_130:\n      mload(0x40)\n      dup1\n      swap2\n      sub\n      swap1\n      revert\n    tag_129:\n        /* \"Auctionator.sol\":5252:5268  uint256 bidIndex */\n      0x00\n        /* \"Auctionator.sol\":5271:5282  _bidIndices */\n      0x04\n        /* \"Auctionator.sol\":5271:5294  _bidIndices[msg.sender] */\n      0x00\n        /* \"Auctionator.sol\":5283:5293  msg.sender */\n      caller\n        /* \"Auctionator.sol\":5271:5294  _bidIndices[msg.sender] */\n      0xffffffffffffffffffffffffffffffffffffffff\n      and\n      0xffffffffffffffffffffffffffffffffffffffff\n      and\n      dup2\n      mstore\n      0x20\n      add\n      swap1\n      dup2\n      mstore\n      0x20\n      add\n      0x00\n      keccak256\n      sload\n        /* \"Auctionator.sol\":5252:5294  uint256 bidIndex = _bidIndices[msg.sender] */\n      swap1\n      pop\n        /* \"Auctionator.sol\":5324:5325  0 */\n      0x00\n        /* \"Auctionator.sol\":5313:5321  bidIndex */\n      dup2\n        /* \"Auctionator.sol\":5313:5325  bidIndex > 0 */\n      gt\n        /* \"Auctionator.sol\":5305:5337  require(bidIndex > 0, \"No bids\") */\n      tag_132\n      jumpi\n      mload(0x40)\n      0x08c379a000000000000000000000000000000000000000000000000000000000\n      dup2\n      mstore\n      0x04\n      add\n      tag_133\n      swap1\n      tag_134\n      jump\t// in\n    tag_133:\n      mload(0x40)\n      dup1\n      swap2\n      sub\n      swap1\n      revert\n    tag_132:\n        /* \"Auctionator.sol\":5350:5369  Bid storage userBid */\n      0x00\n        /* \"Auctionator.sol\":5372:5382  bidHistory */\n      0x03\n        /* \"Auctionator.sol\":5394:5395  1 */\n      0x01\n        /* \"Auctionator.sol\":5383:5391  bidIndex */\n      dup4\n        /* \"Auctionator.sol\":5383:5395  bidIndex - 1 */\n      tag_135\n      swap2\n      swap1\n      tag_117\n      jump\t// in\n    tag_135:\n        /* \"Auctionator.sol\":5372:5396  bidHistory[bidIndex - 1] */\n      dup2\n      sload\n      dup2\n      lt\n      tag_136\n      jumpi\n      tag_137\n      tag_138\n      jump\t// in\n    tag_137:\n    tag_136:\n      swap1\n      0x00\n      mstore\n      keccak256(0x00, 0x20)\n      swap1\n      0x03\n      mul\n      add\n        /* \"Auctionator.sol\":5350:5396  Bid storage userBid = bidHistory[bidIndex - 1] */\n      swap1\n      pop\n        /* \"Auctionator.sol\":5407:5430  uint256 requiredBalance */\n      0x00\n        /* \"Auctionator.sol\":5447:5460  highestBidder */\n      0x02\n      0x00\n      swap1\n      sload\n      swap1\n      0x0100\n      exp\n      swap1\n      div\n      0xffffffffffffffffffffffffffffffffffffffff\n      and\n        /* \"Auctionator.sol\":5433:5460  msg.sender == highestBidder */\n      0xffffffffffffffffffffffffffffffffffffffff\n      and\n        /* \"Auctionator.sol\":5433:5443  msg.sender */\n      caller\n        /* \"Auctionator.sol\":5433:5460  msg.sender == highestBidder */\n      0xffffffffffffffffffffffffffffffffffffffff\n      and\n      eq\n        /* \"Auctionator.sol\":5433:5477  msg.sender == highestBidder ? highestBid : 0 */\n      tag_140\n      jumpi\n        /* \"Auctionator.sol\":5476:5477  0 */\n      0x00\n        /* \"Auctionator.sol\":5433:5477  msg.sender == highestBidder ? highestBid : 0 */\n      jump(tag_141)\n    tag_140:\n        /* \"Auctionator.sol\":5463:5473  highestBid */\n      sload(0x01)\n        /* \"Auctionator.sol\":5433:5477  msg.sender == highestBidder ? highestBid : 0 */\n    tag_141:\n        /* \"Auctionator.sol\":5407:5477  uint256 requiredBalance = msg.sender == highestBidder ? highestBid : 0 */\n      swap1\n      pop\n        /* \"Auctionator.sol\":5515:5530  requiredBalance */\n      dup1\n        /* \"Auctionator.sol\":5498:5505  userBid */\n      dup3\n        /* \"Auctionator.sol\":5498:5512  userBid.amount */\n      0x01\n      add\n      sload\n        /* \"Auctionator.sol\":5498:5530  userBid.amount > requiredBalance */\n      gt\n        /* \"Auctionator.sol\":5490:5544  require(userBid.amount > requiredBalance, \"No excess\") */\n      tag_142\n      jumpi\n      mload(0x40)\n      0x08c379a000000000000000000000000000000000000000000000000000000000\n      dup2\n      mstore\n      0x04\n      add\n      tag_143\n      swap1\n      tag_144\n      jump\t// in\n    tag_143:\n      mload(0x40)\n      dup1\n      swap2\n      sub\n      swap1\n      revert\n    tag_142:\n        /* \"Auctionator.sol\":5600:5615  requiredBalance */\n      dup1\n        /* \"Auctionator.sol\":5580:5596  amountToWithdraw */\n      dup5\n        /* \"Auctionator.sol\":5563:5570  userBid */\n      dup4\n        /* \"Auctionator.sol\":5563:5577  userBid.amount */\n      0x01\n      add\n      sload\n        /* \"Auctionator.sol\":5563:5596  userBid.amount - amountToWithdraw */\n      tag_145\n      swap2\n      swap1\n      tag_117\n      jump\t// in\n    tag_145:\n        /* \"Auctionator.sol\":5563:5615  userBid.amount - amountToWithdraw >= requiredBalance */\n      lt\n      iszero\n        /* \"Auctionator.sol\":5555:5627  require(userBid.amount - amountToWithdraw >= requiredBalance, \"Exceeds\") */\n      tag_146\n      jumpi\n      mload(0x40)\n      0x08c379a000000000000000000000000000000000000000000000000000000000\n      dup2\n      mstore\n      0x04\n      add\n      tag_147\n      swap1\n      tag_148\n      jump\t// in\n    tag_147:\n      mload(0x40)\n      dup1\n      swap2\n      sub\n      swap1\n      revert\n    tag_146:\n        /* \"Auctionator.sol\":5658:5674  amountToWithdraw */\n      dup4\n        /* \"Auctionator.sol\":5640:5647  userBid */\n      dup3\n        /* \"Auctionator.sol\":5640:5654  userBid.amount */\n      0x01\n      add\n      0x00\n        /* \"Auctionator.sol\":5640:5674  userBid.amount -= amountToWithdraw */\n      dup3\n      dup3\n      sload\n      tag_149\n      swap2\n      swap1\n      tag_117\n      jump\t// in\n    tag_149:\n      swap3\n      pop\n      pop\n      dup2\n      swap1\n      sstore\n      pop\n        /* \"Auctionator.sol\":5693:5703  msg.sender */\n      caller\n        /* \"Auctionator.sol\":5685:5713  payable(msg.sender).transfer */\n      0xffffffffffffffffffffffffffffffffffffffff\n      and\n        /* \"Auctionator.sol\":5685:5731  payable(msg.sender).transfer(amountToWithdraw) */\n      0x08fc\n        /* \"Auctionator.sol\":5714:5730  amountToWithdraw */\n      dup6\n        /* \"Auctionator.sol\":5685:5731  payable(msg.sender).transfer(amountToWithdraw) */\n      swap1\n      dup2\n      iszero\n      mul\n      swap1\n      mload(0x40)\n      0x00\n      mload(0x40)\n      dup1\n      dup4\n      sub\n      dup2\n      dup6\n      dup9\n      dup9\n      call\n      swap4\n      pop\n      pop\n      pop\n      pop\n      iszero\n      dup1\n      iszero\n      tag_151\n      jumpi\n      returndatacopy(0x00, 0x00, returndatasize)\n      revert(0x00, returndatasize)\n    tag_151:\n      pop\n        /* \"Auctionator.sol\":5765:5775  msg.sender */\n      caller\n        /* \"Auctionator.sol\":5747:5794  PartialWithdrawal(msg.sender, amountToWithdraw) */\n      0xffffffffffffffffffffffffffffffffffffffff\n      and\n      0x8468f8fa62fc679cf8165eab7662a1fa977705b501dd787e9ec07884885425f1\n        /* \"Auctionator.sol\":5777:5793  amountToWithdraw */\n      dup6\n        /* \"Auctionator.sol\":5747:5794  PartialWithdrawal(msg.sender, amountToWithdraw) */\n      mload(0x40)\n      tag_152\n      swap2\n      swap1\n      tag_43\n      jump\t// in\n    tag_152:\n      mload(0x40)\n      dup1\n      swap2\n      sub\n      swap1\n      log2\n        /* \"Auctionator.sol\":5187:5802  {... */\n      pop\n      pop\n      pop\n        /* \"Auctionator.sol\":5109:5802  function withdrawPartial(uint256 amountToWithdraw) external whenAuctionActive {... */\n      pop\n      jump\t// out\n        /* \"Auctionator.sol\":5964:6155  function getWinnerInfo() external view returns (address winnerAddress, uint256 winningAmount) {... */\n    tag_36:\n        /* \"Auctionator.sol\":6012:6033  address winnerAddress */\n      0x00\n        /* \"Auctionator.sol\":6035:6056  uint256 winningAmount */\n      0x00\n        /* \"Auctionator.sol\":6077:6089  auctionEnded */\n      0x02\n      0x14\n      swap1\n      sload\n      swap1\n      0x0100\n      exp\n      swap1\n      div\n      0xff\n      and\n        /* \"Auctionator.sol\":6069:6102  require(auctionEnded, \"Not over\") */\n      tag_154\n      jumpi\n      mload(0x40)\n      0x08c379a000000000000000000000000000000000000000000000000000000000\n      dup2\n      mstore\n      0x04\n      add\n      tag_155\n      swap1\n      tag_156\n      jump\t// in\n    tag_155:\n      mload(0x40)\n      dup1\n      swap2\n      sub\n      swap1\n      revert\n    tag_154:\n        /* \"Auctionator.sol\":6121:6134  highestBidder */\n      0x02\n      0x00\n      swap1\n      sload\n      swap1\n      0x0100\n      exp\n      swap1\n      div\n      0xffffffffffffffffffffffffffffffffffffffff\n      and\n        /* \"Auctionator.sol\":6136:6146  highestBid */\n      sload(0x01)\n        /* \"Auctionator.sol\":6113:6147  return (highestBidder, highestBid) */\n      swap2\n      pop\n      swap2\n      pop\n        /* \"Auctionator.sol\":5964:6155  function getWinnerInfo() external view returns (address winnerAddress, uint256 winningAmount) {... */\n      swap1\n      swap2\n      jump\t// out\n        /* \"Auctionator.sol\":242:294  uint256 public constant MIN_BID_INCREASE_PERCENT = 5 */\n    tag_41:\n        /* \"Auctionator.sol\":293:294  5 */\n      0x05\n        /* \"Auctionator.sol\":242:294  uint256 public constant MIN_BID_INCREASE_PERCENT = 5 */\n      dup2\n      jump\t// out\n        /* \"Auctionator.sol\":616:645  uint256 public auctionEndTime */\n    tag_46:\n      sload(0x00)\n      dup2\n      jump\t// out\n        /* \"Auctionator.sol\":354:409  uint256 public constant EXTENSION_DURATION = 10 minutes */\n    tag_50:\n        /* \"Auctionator.sol\":399:409  10 minutes */\n      0x0258\n        /* \"Auctionator.sol\":354:409  uint256 public constant EXTENSION_DURATION = 10 minutes */\n      dup2\n      jump\t// out\n        /* \"Auctionator.sol\":6264:6362  function getBidHistory() external view returns (Bid[] memory) {... */\n    tag_54:\n        /* \"Auctionator.sol\":6312:6324  Bid[] memory */\n      0x60\n        /* \"Auctionator.sol\":6344:6354  bidHistory */\n      0x03\n        /* \"Auctionator.sol\":6337:6354  return bidHistory */\n      dup1\n      sload\n      dup1\n      0x20\n      mul\n      0x20\n      add\n      mload(0x40)\n      swap1\n      dup2\n      add\n      0x40\n      mstore\n      dup1\n      swap3\n      swap2\n      swap1\n      dup2\n      dup2\n      mstore\n      0x20\n      add\n      0x00\n      swap1\n    tag_158:\n      dup3\n      dup3\n      lt\n      iszero\n      tag_159\n      jumpi\n      dup4\n      dup3\n      swap1\n      0x00\n      mstore\n      keccak256(0x00, 0x20)\n      swap1\n      0x03\n      mul\n      add\n      mload(0x40)\n      dup1\n      0x60\n      add\n      0x40\n      mstore\n      swap1\n      dup2\n      0x00\n      dup3\n      add\n      0x00\n      swap1\n      sload\n      swap1\n      0x0100\n      exp\n      swap1\n      div\n      0xffffffffffffffffffffffffffffffffffffffff\n      and\n      0xffffffffffffffffffffffffffffffffffffffff\n      and\n      0xffffffffffffffffffffffffffffffffffffffff\n      and\n      dup2\n      mstore\n      0x20\n      add\n      0x01\n      dup3\n      add\n      sload\n      dup2\n      mstore\n      0x20\n      add\n      0x02\n      dup3\n      add\n      0x00\n      swap1\n      sload\n      swap1\n      0x0100\n      exp\n      swap1\n      div\n      0xff\n      and\n      iszero\n      iszero\n      iszero\n      iszero\n      dup2\n      mstore\n      pop\n      pop\n      dup2\n      mstore\n      0x20\n      add\n      swap1\n      0x01\n      add\n      swap1\n      jump(tag_158)\n    tag_159:\n      pop\n      pop\n      pop\n      pop\n      swap1\n      pop\n        /* \"Auctionator.sol\":6264:6362  function getBidHistory() external view returns (Bid[] memory) {... */\n      swap1\n      jump\t// out\n        /* \"Auctionator.sol\":719:743  bool public auctionEnded */\n    tag_59:\n      0x02\n      0x14\n      swap1\n      sload\n      swap1\n      0x0100\n      exp\n      swap1\n      div\n      0xff\n      and\n      dup2\n      jump\t// out\n        /* \"Auctionator.sol\":532:562  address public immutable owner */\n    tag_64:\n      immutable(\"0x277ab82e5a4641341820a4a2933a62c1de997e42e92548657ae21b3728d580fe\")\n      dup2\n      jump\t// out\n        /* \"Auctionator.sol\":684:712  address public highestBidder */\n    tag_69:\n      0x02\n      0x00\n      swap1\n      sload\n      swap1\n      0x0100\n      exp\n      swap1\n      div\n      0xffffffffffffffffffffffffffffffffffffffff\n      and\n      dup2\n      jump\t// out\n        /* \"Auctionator.sol\":301:347  uint256 public constant COMMISSION_PERCENT = 2 */\n    tag_73:\n        /* \"Auctionator.sol\":346:347  2 */\n      0x02\n        /* \"Auctionator.sol\":301:347  uint256 public constant COMMISSION_PERCENT = 2 */\n      dup2\n      jump\t// out\n        /* \"Auctionator.sol\":569:609  uint256 public immutable initialDuration */\n    tag_77:\n      immutable(\"0x8fef2229291b68be841adf029e58b87f39ba144b2d3b0af1760243d0a9bc6a1c\")\n      dup2\n      jump\t// out\n        /* \"Auctionator.sol\":652:677  uint256 public highestBid */\n    tag_81:\n      sload(0x01)\n      dup2\n      jump\t// out\n        /* \"Auctionator.sol\":4409:4918  function withdrawFull() external onlyOwner whenAuctionEnded {... */\n    tag_85:\n        /* \"Auctionator.sol\":1409:1414  owner */\n      immutable(\"0x277ab82e5a4641341820a4a2933a62c1de997e42e92548657ae21b3728d580fe\")\n        /* \"Auctionator.sol\":1395:1414  msg.sender == owner */\n      0xffffffffffffffffffffffffffffffffffffffff\n      and\n        /* \"Auctionator.sol\":1395:1405  msg.sender */\n      caller\n        /* \"Auctionator.sol\":1395:1414  msg.sender == owner */\n      0xffffffffffffffffffffffffffffffffffffffff\n      and\n      eq\n        /* \"Auctionator.sol\":1387:1428  require(msg.sender == owner, \"Not owner\") */\n      tag_162\n      jumpi\n      mload(0x40)\n      0x08c379a000000000000000000000000000000000000000000000000000000000\n      dup2\n      mstore\n      0x04\n      add\n      tag_163\n      swap1\n      tag_164\n      jump\t// in\n    tag_163:\n      mload(0x40)\n      dup1\n      swap2\n      sub\n      swap1\n      revert\n    tag_162:\n        /* \"Auctionator.sol\":1691:1705  auctionEndTime */\n      sload(0x00)\n        /* \"Auctionator.sol\":1673:1688  block.timestamp */\n      timestamp\n        /* \"Auctionator.sol\":1673:1705  block.timestamp > auctionEndTime */\n      gt\n        /* \"Auctionator.sol\":1673:1721  block.timestamp > auctionEndTime || auctionEnded */\n      dup1\n      tag_166\n      jumpi\n      pop\n        /* \"Auctionator.sol\":1709:1721  auctionEnded */\n      0x02\n      0x14\n      swap1\n      sload\n      swap1\n      0x0100\n      exp\n      swap1\n      div\n      0xff\n      and\n        /* \"Auctionator.sol\":1673:1721  block.timestamp > auctionEndTime || auctionEnded */\n    tag_166:\n        /* \"Auctionator.sol\":1665:1738  require(block.timestamp > auctionEndTime || auctionEnded, \"Still active\") */\n      tag_167\n      jumpi\n      mload(0x40)\n      0x08c379a000000000000000000000000000000000000000000000000000000000\n      dup2\n      mstore\n      0x04\n      add\n      tag_168\n      swap1\n      tag_106\n      jump\t// in\n    tag_168:\n      mload(0x40)\n      dup1\n      swap2\n      sub\n      swap1\n      revert\n    tag_167:\n        /* \"Auctionator.sol\":4485:4494  uint256 i */\n      0x00\n        /* \"Auctionator.sol\":4497:4498  0 */\n      0x00\n        /* \"Auctionator.sol\":4485:4498  uint256 i = 0 */\n      swap1\n      pop\n        /* \"Auctionator.sol\":4480:4911  for (uint256 i = 0; i < bidHistory.length; i++) {... */\n    tag_170:\n        /* \"Auctionator.sol\":4504:4514  bidHistory */\n      0x03\n        /* \"Auctionator.sol\":4504:4521  bidHistory.length */\n      dup1\n      sload\n      swap1\n      pop\n        /* \"Auctionator.sol\":4500:4501  i */\n      dup2\n        /* \"Auctionator.sol\":4500:4521  i < bidHistory.length */\n      lt\n        /* \"Auctionator.sol\":4480:4911  for (uint256 i = 0; i < bidHistory.length; i++) {... */\n      iszero\n      tag_171\n      jumpi\n        /* \"Auctionator.sol\":4543:4558  Bid storage bid */\n      0x00\n        /* \"Auctionator.sol\":4561:4571  bidHistory */\n      0x03\n        /* \"Auctionator.sol\":4572:4573  i */\n      dup3\n        /* \"Auctionator.sol\":4561:4574  bidHistory[i] */\n      dup2\n      sload\n      dup2\n      lt\n      tag_173\n      jumpi\n      tag_174\n      tag_138\n      jump\t// in\n    tag_174:\n    tag_173:\n      swap1\n      0x00\n      mstore\n      keccak256(0x00, 0x20)\n      swap1\n      0x03\n      mul\n      add\n        /* \"Auctionator.sol\":4543:4574  Bid storage bid = bidHistory[i] */\n      swap1\n      pop\n        /* \"Auctionator.sol\":4596:4599  bid */\n      dup1\n        /* \"Auctionator.sol\":4596:4609  bid.withdrawn */\n      0x02\n      add\n      0x00\n      swap1\n      sload\n      swap1\n      0x0100\n      exp\n      swap1\n      div\n      0xff\n      and\n        /* \"Auctionator.sol\":4595:4609  !bid.withdrawn */\n      iszero\n        /* \"Auctionator.sol\":4595:4640  !bid.withdrawn && bid.bidder != highestBidder */\n      dup1\n      iszero\n      tag_176\n      jumpi\n      pop\n        /* \"Auctionator.sol\":4627:4640  highestBidder */\n      0x02\n      0x00\n      swap1\n      sload\n      swap1\n      0x0100\n      exp\n      swap1\n      div\n      0xffffffffffffffffffffffffffffffffffffffff\n      and\n        /* \"Auctionator.sol\":4613:4640  bid.bidder != highestBidder */\n      0xffffffffffffffffffffffffffffffffffffffff\n      and\n        /* \"Auctionator.sol\":4613:4616  bid */\n      dup2\n        /* \"Auctionator.sol\":4613:4623  bid.bidder */\n      0x00\n      add\n      0x00\n      swap1\n      sload\n      swap1\n      0x0100\n      exp\n      swap1\n      div\n      0xffffffffffffffffffffffffffffffffffffffff\n      and\n        /* \"Auctionator.sol\":4613:4640  bid.bidder != highestBidder */\n      0xffffffffffffffffffffffffffffffffffffffff\n      and\n      eq\n      iszero\n        /* \"Auctionator.sol\":4595:4640  !bid.withdrawn && bid.bidder != highestBidder */\n    tag_176:\n        /* \"Auctionator.sol\":4591:4900  if (!bid.withdrawn && bid.bidder != highestBidder) {... */\n      iszero\n      tag_177\n      jumpi\n        /* \"Auctionator.sol\":4677:4681  true */\n      0x01\n        /* \"Auctionator.sol\":4661:4664  bid */\n      dup2\n        /* \"Auctionator.sol\":4661:4674  bid.withdrawn */\n      0x02\n      add\n      0x00\n        /* \"Auctionator.sol\":4661:4681  bid.withdrawn = true */\n      0x0100\n      exp\n      dup2\n      sload\n      dup2\n      0xff\n      mul\n      not\n      and\n      swap1\n      dup4\n      iszero\n      iszero\n      mul\n      or\n      swap1\n      sstore\n      pop\n        /* \"Auctionator.sol\":4700:4714  uint256 refund */\n      0x00\n        /* \"Auctionator.sol\":4767:4770  100 */\n      0x64\n        /* \"Auctionator.sol\":346:347  2 */\n      0x02\n        /* \"Auctionator.sol\":4732:4735  bid */\n      dup4\n        /* \"Auctionator.sol\":4732:4742  bid.amount */\n      0x01\n      add\n      sload\n        /* \"Auctionator.sol\":4732:4763  bid.amount * COMMISSION_PERCENT */\n      tag_178\n      swap2\n      swap1\n      tag_113\n      jump\t// in\n    tag_178:\n        /* \"Auctionator.sol\":4731:4770  (bid.amount * COMMISSION_PERCENT) / 100 */\n      tag_179\n      swap2\n      swap1\n      tag_115\n      jump\t// in\n    tag_179:\n        /* \"Auctionator.sol\":4717:4720  bid */\n      dup3\n        /* \"Auctionator.sol\":4717:4727  bid.amount */\n      0x01\n      add\n      sload\n        /* \"Auctionator.sol\":4717:4771  bid.amount - ((bid.amount * COMMISSION_PERCENT) / 100) */\n      tag_180\n      swap2\n      swap1\n      tag_117\n      jump\t// in\n    tag_180:\n        /* \"Auctionator.sol\":4700:4771  uint256 refund = bid.amount - ((bid.amount * COMMISSION_PERCENT) / 100) */\n      swap1\n      pop\n        /* \"Auctionator.sol\":4798:4801  bid */\n      dup2\n        /* \"Auctionator.sol\":4798:4808  bid.bidder */\n      0x00\n      add\n      0x00\n      swap1\n      sload\n      swap1\n      0x0100\n      exp\n      swap1\n      div\n      0xffffffffffffffffffffffffffffffffffffffff\n      and\n        /* \"Auctionator.sol\":4790:4818  payable(bid.bidder).transfer */\n      0xffffffffffffffffffffffffffffffffffffffff\n      and\n        /* \"Auctionator.sol\":4790:4826  payable(bid.bidder).transfer(refund) */\n      0x08fc\n        /* \"Auctionator.sol\":4819:4825  refund */\n      dup3\n        /* \"Auctionator.sol\":4790:4826  payable(bid.bidder).transfer(refund) */\n      swap1\n      dup2\n      iszero\n      mul\n      swap1\n      mload(0x40)\n      0x00\n      mload(0x40)\n      dup1\n      dup4\n      sub\n      dup2\n      dup6\n      dup9\n      dup9\n      call\n      swap4\n      pop\n      pop\n      pop\n      pop\n      iszero\n      dup1\n      iszero\n      tag_182\n      jumpi\n      returndatacopy(0x00, 0x00, returndatasize)\n      revert(0x00, returndatasize)\n    tag_182:\n      pop\n        /* \"Auctionator.sol\":4865:4868  bid */\n      dup2\n        /* \"Auctionator.sol\":4865:4875  bid.bidder */\n      0x00\n      add\n      0x00\n      swap1\n      sload\n      swap1\n      0x0100\n      exp\n      swap1\n      div\n      0xffffffffffffffffffffffffffffffffffffffff\n      and\n        /* \"Auctionator.sol\":4850:4884  FullWithdrawal(bid.bidder, refund) */\n      0xffffffffffffffffffffffffffffffffffffffff\n      and\n      0x779c86999fb727ca861d0288aa11ed4104347721c571e4f0da5172afb607d885\n        /* \"Auctionator.sol\":4877:4883  refund */\n      dup3\n        /* \"Auctionator.sol\":4850:4884  FullWithdrawal(bid.bidder, refund) */\n      mload(0x40)\n      tag_183\n      swap2\n      swap1\n      tag_43\n      jump\t// in\n    tag_183:\n      mload(0x40)\n      dup1\n      swap2\n      sub\n      swap1\n      log2\n        /* \"Auctionator.sol\":4642:4900  {... */\n      pop\n        /* \"Auctionator.sol\":4591:4900  if (!bid.withdrawn && bid.bidder != highestBidder) {... */\n    tag_177:\n        /* \"Auctionator.sol\":4528:4911  {... */\n      pop\n        /* \"Auctionator.sol\":4523:4526  i++ */\n      dup1\n      dup1\n      0x01\n      add\n      swap2\n      pop\n      pop\n        /* \"Auctionator.sol\":4480:4911  for (uint256 i = 0; i < bidHistory.length; i++) {... */\n      jump(tag_170)\n    tag_171:\n      pop\n        /* \"Auctionator.sol\":4409:4918  function withdrawFull() external onlyOwner whenAuctionEnded {... */\n      jump\t// out\n        /* \"Auctionator.sol\":416:472  uint256 public constant EXTENSION_THRESHOLD = 10 minutes */\n    tag_88:\n        /* \"Auctionator.sol\":462:472  10 minutes */\n      0x0258\n        /* \"Auctionator.sol\":416:472  uint256 public constant EXTENSION_THRESHOLD = 10 minutes */\n      dup2\n      jump\t// out\n        /* \"Auctionator.sol\":894:917  Bid[] public bidHistory */\n    tag_93:\n      0x03\n      dup2\n      dup2\n      sload\n      dup2\n      lt\n      tag_184\n      jumpi\n      0x00\n      dup1\n      revert\n    tag_184:\n      swap1\n      0x00\n      mstore\n      keccak256(0x00, 0x20)\n      swap1\n      0x03\n      mul\n      add\n      0x00\n      swap2\n      pop\n      swap1\n      pop\n      dup1\n      0x00\n      add\n      0x00\n      swap1\n      sload\n      swap1\n      0x0100\n      exp\n      swap1\n      div\n      0xffffffffffffffffffffffffffffffffffffffff\n      and\n      swap1\n      dup1\n      0x01\n      add\n      sload\n      swap1\n      dup1\n      0x02\n      add\n      0x00\n      swap1\n      sload\n      swap1\n      0x0100\n      exp\n      swap1\n      div\n      0xff\n      and\n      swap1\n      pop\n      dup4\n      jump\t// out\n        /* \"Auctionator.sol\":2551:3620  function placeBid() external payable whenAuctionActive {... */\n    tag_97:\n        /* \"Auctionator.sol\":1523:1537  auctionEndTime */\n      sload(0x00)\n        /* \"Auctionator.sol\":1504:1519  block.timestamp */\n      timestamp\n        /* \"Auctionator.sol\":1504:1537  block.timestamp <= auctionEndTime */\n      gt\n      iszero\n        /* \"Auctionator.sol\":1496:1547  require(block.timestamp <= auctionEndTime, \"Ended\") */\n      tag_187\n      jumpi\n      mload(0x40)\n      0x08c379a000000000000000000000000000000000000000000000000000000000\n      dup2\n      mstore\n      0x04\n      add\n      tag_188\n      swap1\n      tag_124\n      jump\t// in\n    tag_188:\n      mload(0x40)\n      dup1\n      swap2\n      sub\n      swap1\n      revert\n    tag_187:\n        /* \"Auctionator.sol\":1567:1579  auctionEnded */\n      0x02\n      0x14\n      swap1\n      sload\n      swap1\n      0x0100\n      exp\n      swap1\n      div\n      0xff\n      and\n        /* \"Auctionator.sol\":1566:1579  !auctionEnded */\n      iszero\n        /* \"Auctionator.sol\":1558:1598  require(!auctionEnded, \"Manually ended\") */\n      tag_189\n      jumpi\n      mload(0x40)\n      0x08c379a000000000000000000000000000000000000000000000000000000000\n      dup2\n      mstore\n      0x04\n      add\n      tag_190\n      swap1\n      tag_127\n      jump\t// in\n    tag_190:\n      mload(0x40)\n      dup1\n      swap2\n      sub\n      swap1\n      revert\n    tag_189:\n        /* \"Auctionator.sol\":2617:2639  uint256 currentHighest */\n      0x00\n        /* \"Auctionator.sol\":2642:2652  highestBid */\n      sload(0x01)\n        /* \"Auctionator.sol\":2617:2652  uint256 currentHighest = highestBid */\n      swap1\n      pop\n        /* \"Auctionator.sol\":2663:2685  uint256 minRequiredBid */\n      0x00\n        /* \"Auctionator.sol\":2750:2753  100 */\n      0x64\n        /* \"Auctionator.sol\":293:294  5 */\n      0x05\n        /* \"Auctionator.sol\":2706:2720  currentHighest */\n      dup4\n        /* \"Auctionator.sol\":2706:2747  currentHighest * MIN_BID_INCREASE_PERCENT */\n      tag_192\n      swap2\n      swap1\n      tag_113\n      jump\t// in\n    tag_192:\n        /* \"Auctionator.sol\":2706:2753  currentHighest * MIN_BID_INCREASE_PERCENT / 100 */\n      tag_193\n      swap2\n      swap1\n      tag_115\n      jump\t// in\n    tag_193:\n        /* \"Auctionator.sol\":2688:2702  currentHighest */\n      dup3\n        /* \"Auctionator.sol\":2688:2754  currentHighest + (currentHighest * MIN_BID_INCREASE_PERCENT / 100) */\n      tag_194\n      swap2\n      swap1\n      tag_195\n      jump\t// in\n    tag_194:\n        /* \"Auctionator.sol\":2663:2754  uint256 minRequiredBid = currentHighest + (currentHighest * MIN_BID_INCREASE_PERCENT / 100) */\n      swap1\n      pop\n        /* \"Auctionator.sol\":2789:2790  0 */\n      0x00\n        /* \"Auctionator.sol\":2771:2785  currentHighest */\n      dup3\n        /* \"Auctionator.sol\":2771:2790  currentHighest == 0 */\n      sub\n        /* \"Auctionator.sol\":2767:2837  if (currentHighest == 0) {... */\n      tag_196\n      jumpi\n        /* \"Auctionator.sol\":2824:2825  0 */\n      0x00\n        /* \"Auctionator.sol\":2807:2825  minRequiredBid = 0 */\n      swap1\n      pop\n        /* \"Auctionator.sol\":2767:2837  if (currentHighest == 0) {... */\n    tag_196:\n        /* \"Auctionator.sol\":2869:2883  minRequiredBid */\n      dup1\n        /* \"Auctionator.sol\":2857:2866  msg.value */\n      callvalue\n        /* \"Auctionator.sol\":2857:2883  msg.value > minRequiredBid */\n      gt\n        /* \"Auctionator.sol\":2849:2895  require(msg.value > minRequiredBid, \"Too low\") */\n      tag_197\n      jumpi\n      mload(0x40)\n      0x08c379a000000000000000000000000000000000000000000000000000000000\n      dup2\n      mstore\n      0x04\n      add\n      tag_198\n      swap1\n      tag_199\n      jump\t// in\n    tag_198:\n      mload(0x40)\n      dup1\n      swap2\n      sub\n      swap1\n      revert\n    tag_197:\n        /* \"Auctionator.sol\":2908:2924  uint256 bidIndex */\n      0x00\n        /* \"Auctionator.sol\":2927:2938  _bidIndices */\n      0x04\n        /* \"Auctionator.sol\":2927:2950  _bidIndices[msg.sender] */\n      0x00\n        /* \"Auctionator.sol\":2939:2949  msg.sender */\n      caller\n        /* \"Auctionator.sol\":2927:2950  _bidIndices[msg.sender] */\n      0xffffffffffffffffffffffffffffffffffffffff\n      and\n      0xffffffffffffffffffffffffffffffffffffffff\n      and\n      dup2\n      mstore\n      0x20\n      add\n      swap1\n      dup2\n      mstore\n      0x20\n      add\n      0x00\n      keccak256\n      sload\n        /* \"Auctionator.sol\":2908:2950  uint256 bidIndex = _bidIndices[msg.sender] */\n      swap1\n      pop\n        /* \"Auctionator.sol\":2976:2977  0 */\n      0x00\n        /* \"Auctionator.sol\":2965:2973  bidIndex */\n      dup2\n        /* \"Auctionator.sol\":2965:2977  bidIndex > 0 */\n      gt\n        /* \"Auctionator.sol\":2961:3338  if (bidIndex > 0) {... */\n      iszero\n      tag_200\n      jumpi\n        /* \"Auctionator.sol\":2994:3017  Bid storage existingBid */\n      0x00\n        /* \"Auctionator.sol\":3020:3030  bidHistory */\n      0x03\n        /* \"Auctionator.sol\":3042:3043  1 */\n      0x01\n        /* \"Auctionator.sol\":3031:3039  bidIndex */\n      dup4\n        /* \"Auctionator.sol\":3031:3043  bidIndex - 1 */\n      tag_201\n      swap2\n      swap1\n      tag_117\n      jump\t// in\n    tag_201:\n        /* \"Auctionator.sol\":3020:3044  bidHistory[bidIndex - 1] */\n      dup2\n      sload\n      dup2\n      lt\n      tag_202\n      jumpi\n      tag_203\n      tag_138\n      jump\t// in\n    tag_203:\n    tag_202:\n      swap1\n      0x00\n      mstore\n      keccak256(0x00, 0x20)\n      swap1\n      0x03\n      mul\n      add\n        /* \"Auctionator.sol\":2994:3044  Bid storage existingBid = bidHistory[bidIndex - 1] */\n      swap1\n      pop\n        /* \"Auctionator.sol\":3081:3090  msg.value */\n      callvalue\n        /* \"Auctionator.sol\":3059:3070  existingBid */\n      dup2\n        /* \"Auctionator.sol\":3059:3077  existingBid.amount */\n      0x01\n      add\n      0x00\n        /* \"Auctionator.sol\":3059:3090  existingBid.amount += msg.value */\n      dup3\n      dup3\n      sload\n      tag_205\n      swap2\n      swap1\n      tag_195\n      jump\t// in\n    tag_205:\n      swap3\n      pop\n      pop\n      dup2\n      swap1\n      sstore\n      pop\n        /* \"Auctionator.sol\":2979:3102  {... */\n      pop\n        /* \"Auctionator.sol\":2961:3338  if (bidIndex > 0) {... */\n      jump(tag_206)\n    tag_200:\n        /* \"Auctionator.sol\":3123:3133  bidHistory */\n      0x03\n        /* \"Auctionator.sol\":3139:3267  Bid({... */\n      mload(0x40)\n      dup1\n      0x60\n      add\n      0x40\n      mstore\n      dup1\n        /* \"Auctionator.sol\":3170:3180  msg.sender */\n      caller\n        /* \"Auctionator.sol\":3139:3267  Bid({... */\n      0xffffffffffffffffffffffffffffffffffffffff\n      and\n      dup2\n      mstore\n      0x20\n      add\n        /* \"Auctionator.sol\":3207:3216  msg.value */\n      callvalue\n        /* \"Auctionator.sol\":3139:3267  Bid({... */\n      dup2\n      mstore\n      0x20\n      add\n        /* \"Auctionator.sol\":3246:3251  false */\n      0x00\n        /* \"Auctionator.sol\":3139:3267  Bid({... */\n      iszero\n      iszero\n      dup2\n      mstore\n      pop\n        /* \"Auctionator.sol\":3123:3268  bidHistory.push(Bid({... */\n      swap1\n      dup1\n      0x01\n      dup2\n      sload\n      add\n      dup1\n      dup3\n      sstore\n      dup1\n      swap2\n      pop\n      pop\n      0x01\n      swap1\n      sub\n      swap1\n      0x00\n      mstore\n      keccak256(0x00, 0x20)\n      swap1\n      0x03\n      mul\n      add\n      0x00\n      swap1\n      swap2\n      swap1\n      swap2\n      swap1\n      swap2\n      pop\n      0x00\n      dup3\n      add\n      mload\n      dup2\n      0x00\n      add\n      exp(0x0100, 0x00)\n      dup2\n      sload\n      dup2\n      0xffffffffffffffffffffffffffffffffffffffff\n      mul\n      not\n      and\n      swap1\n      dup4\n      0xffffffffffffffffffffffffffffffffffffffff\n      and\n      mul\n      or\n      swap1\n      sstore\n      pop\n      0x20\n      dup3\n      add\n      mload\n      dup2\n      0x01\n      add\n      sstore\n      0x40\n      dup3\n      add\n      mload\n      dup2\n      0x02\n      add\n      exp(0x0100, 0x00)\n      dup2\n      sload\n      dup2\n      0xff\n      mul\n      not\n      and\n      swap1\n      dup4\n      iszero\n      iszero\n      mul\n      or\n      swap1\n      sstore\n      pop\n      pop\n      pop\n        /* \"Auctionator.sol\":3309:3319  bidHistory */\n      0x03\n        /* \"Auctionator.sol\":3309:3326  bidHistory.length */\n      dup1\n      sload\n      swap1\n      pop\n        /* \"Auctionator.sol\":3283:3294  _bidIndices */\n      0x04\n        /* \"Auctionator.sol\":3283:3306  _bidIndices[msg.sender] */\n      0x00\n        /* \"Auctionator.sol\":3295:3305  msg.sender */\n      caller\n        /* \"Auctionator.sol\":3283:3306  _bidIndices[msg.sender] */\n      0xffffffffffffffffffffffffffffffffffffffff\n      and\n      0xffffffffffffffffffffffffffffffffffffffff\n      and\n      dup2\n      mstore\n      0x20\n      add\n      swap1\n      dup2\n      mstore\n      0x20\n      add\n      0x00\n      keccak256\n        /* \"Auctionator.sol\":3283:3326  _bidIndices[msg.sender] = bidHistory.length */\n      dup2\n      swap1\n      sstore\n      pop\n        /* \"Auctionator.sol\":2961:3338  if (bidIndex > 0) {... */\n    tag_206:\n        /* \"Auctionator.sol\":3363:3372  msg.value */\n      callvalue\n        /* \"Auctionator.sol\":3350:3360  highestBid */\n      0x01\n        /* \"Auctionator.sol\":3350:3372  highestBid = msg.value */\n      dup2\n      swap1\n      sstore\n      pop\n        /* \"Auctionator.sol\":3399:3409  msg.sender */\n      caller\n        /* \"Auctionator.sol\":3383:3396  highestBidder */\n      0x02\n      0x00\n        /* \"Auctionator.sol\":3383:3409  highestBidder = msg.sender */\n      0x0100\n      exp\n      dup2\n      sload\n      dup2\n      0xffffffffffffffffffffffffffffffffffffffff\n      mul\n      not\n      and\n      swap1\n      dup4\n      0xffffffffffffffffffffffffffffffffffffffff\n      and\n      mul\n      or\n      swap1\n      sstore\n      pop\n        /* \"Auctionator.sol\":3422:3435  bool extended */\n      0x00\n        /* \"Auctionator.sol\":3438:3462  _extendAuctionIfNeeded() */\n      tag_208\n        /* \"Auctionator.sol\":3438:3460  _extendAuctionIfNeeded */\n      tag_209\n        /* \"Auctionator.sol\":3438:3462  _extendAuctionIfNeeded() */\n      jump\t// in\n    tag_208:\n        /* \"Auctionator.sol\":3422:3462  bool extended = _extendAuctionIfNeeded() */\n      swap1\n      pop\n        /* \"Auctionator.sol\":3487:3497  msg.sender */\n      caller\n        /* \"Auctionator.sol\":3480:3525  NewBid(msg.sender, msg.value, auctionEndTime) */\n      0xffffffffffffffffffffffffffffffffffffffff\n      and\n      0x87f5b2fe112bf269d30fb8ca9dc0bde0afd0cc39258e13fafd75fe794795bf0e\n        /* \"Auctionator.sol\":3499:3508  msg.value */\n      callvalue\n        /* \"Auctionator.sol\":3510:3524  auctionEndTime */\n      sload(0x00)\n        /* \"Auctionator.sol\":3480:3525  NewBid(msg.sender, msg.value, auctionEndTime) */\n      mload(0x40)\n      tag_210\n      swap3\n      swap2\n      swap1\n      tag_211\n      jump\t// in\n    tag_210:\n      mload(0x40)\n      dup1\n      swap2\n      sub\n      swap1\n      log2\n        /* \"Auctionator.sol\":3540:3548  extended */\n      dup1\n        /* \"Auctionator.sol\":3536:3613  if (extended) {... */\n      iszero\n      tag_212\n      jumpi\n        /* \"Auctionator.sol\":3570:3601  AuctionExtended(auctionEndTime) */\n      0xc2b459809119087ca9d2bc10dea53a51b7d848b1a11075db037bdca58292c3e8\n        /* \"Auctionator.sol\":3586:3600  auctionEndTime */\n      sload(0x00)\n        /* \"Auctionator.sol\":3570:3601  AuctionExtended(auctionEndTime) */\n      mload(0x40)\n      tag_213\n      swap2\n      swap1\n      tag_43\n      jump\t// in\n    tag_213:\n      mload(0x40)\n      dup1\n      swap2\n      sub\n      swap1\n      log1\n        /* \"Auctionator.sol\":3536:3613  if (extended) {... */\n    tag_212:\n        /* \"Auctionator.sol\":2606:3620  {... */\n      pop\n      pop\n      pop\n      pop\n        /* \"Auctionator.sol\":2551:3620  function placeBid() external payable whenAuctionActive {... */\n      jump\t// out\n        /* \"Auctionator.sol\":6496:6667  function getRemainingTime() external view returns (uint256 remainingTime) {... */\n    tag_100:\n        /* \"Auctionator.sol\":6547:6568  uint256 remainingTime */\n      0x00\n        /* \"Auctionator.sol\":6606:6620  auctionEndTime */\n      sload(0x00)\n        /* \"Auctionator.sol\":6588:6603  block.timestamp */\n      timestamp\n        /* \"Auctionator.sol\":6588:6620  block.timestamp < auctionEndTime */\n      lt\n        /* \"Auctionator.sol\":6588:6659  block.timestamp < auctionEndTime ? auctionEndTime - block.timestamp : 0 */\n      tag_215\n      jumpi\n        /* \"Auctionator.sol\":6658:6659  0 */\n      0x00\n        /* \"Auctionator.sol\":6588:6659  block.timestamp < auctionEndTime ? auctionEndTime - block.timestamp : 0 */\n      jump(tag_216)\n    tag_215:\n        /* \"Auctionator.sol\":6640:6655  block.timestamp */\n      timestamp\n        /* \"Auctionator.sol\":6623:6637  auctionEndTime */\n      sload(0x00)\n        /* \"Auctionator.sol\":6623:6655  auctionEndTime - block.timestamp */\n      tag_217\n      swap2\n      swap1\n      tag_117\n      jump\t// in\n    tag_217:\n        /* \"Auctionator.sol\":6588:6659  block.timestamp < auctionEndTime ? auctionEndTime - block.timestamp : 0 */\n    tag_216:\n        /* \"Auctionator.sol\":6581:6659  return block.timestamp < auctionEndTime ? auctionEndTime - block.timestamp : 0 */\n      swap1\n      pop\n        /* \"Auctionator.sol\":6496:6667  function getRemainingTime() external view returns (uint256 remainingTime) {... */\n      swap1\n      jump\t// out\n        /* \"Auctionator.sol\":6808:7065  function _extendAuctionIfNeeded() private returns (bool extended) {... */\n    tag_209:\n        /* \"Auctionator.sol\":6859:6872  bool extended */\n      0x00\n        /* \"Auctionator.sol\":462:472  10 minutes */\n      0x0258\n        /* \"Auctionator.sol\":6906:6921  block.timestamp */\n      timestamp\n        /* \"Auctionator.sol\":6889:6903  auctionEndTime */\n      sload(0x00)\n        /* \"Auctionator.sol\":6889:6921  auctionEndTime - block.timestamp */\n      tag_219\n      swap2\n      swap1\n      tag_117\n      jump\t// in\n    tag_219:\n        /* \"Auctionator.sol\":6889:6944  auctionEndTime - block.timestamp <= EXTENSION_THRESHOLD */\n      gt\n        /* \"Auctionator.sol\":6885:7035  if (auctionEndTime - block.timestamp <= EXTENSION_THRESHOLD) {... */\n      tag_220\n      jumpi\n        /* \"Auctionator.sol\":399:409  10 minutes */\n      0x0258\n        /* \"Auctionator.sol\":6961:6975  auctionEndTime */\n      0x00\n      0x00\n        /* \"Auctionator.sol\":6961:6997  auctionEndTime += EXTENSION_DURATION */\n      dup3\n      dup3\n      sload\n      tag_221\n      swap2\n      swap1\n      tag_195\n      jump\t// in\n    tag_221:\n      swap3\n      pop\n      pop\n      dup2\n      swap1\n      sstore\n      pop\n        /* \"Auctionator.sol\":7019:7023  true */\n      0x01\n        /* \"Auctionator.sol\":7012:7023  return true */\n      swap1\n      pop\n      jump(tag_218)\n        /* \"Auctionator.sol\":6885:7035  if (auctionEndTime - block.timestamp <= EXTENSION_THRESHOLD) {... */\n    tag_220:\n        /* \"Auctionator.sol\":7052:7057  false */\n      0x00\n        /* \"Auctionator.sol\":7045:7057  return false */\n      swap1\n      pop\n        /* \"Auctionator.sol\":6808:7065  function _extendAuctionIfNeeded() private returns (bool extended) {... */\n    tag_218:\n      swap1\n      jump\t// out\n        /* \"#utility.yul\":88:205   */\n    tag_223:\n        /* \"#utility.yul\":197:198   */\n      0x00\n        /* \"#utility.yul\":194:195   */\n      0x00\n        /* \"#utility.yul\":187:199   */\n      revert\n        /* \"#utility.yul\":334:411   */\n    tag_225:\n        /* \"#utility.yul\":371:378   */\n      0x00\n        /* \"#utility.yul\":400:405   */\n      dup2\n        /* \"#utility.yul\":389:405   */\n      swap1\n      pop\n        /* \"#utility.yul\":334:411   */\n      swap2\n      swap1\n      pop\n      jump\t// out\n        /* \"#utility.yul\":417:539   */\n    tag_226:\n        /* \"#utility.yul\":490:514   */\n      tag_275\n        /* \"#utility.yul\":508:513   */\n      dup2\n        /* \"#utility.yul\":490:514   */\n      tag_225\n      jump\t// in\n    tag_275:\n        /* \"#utility.yul\":483:488   */\n      dup2\n        /* \"#utility.yul\":480:515   */\n      eq\n        /* \"#utility.yul\":470:533   */\n      tag_276\n      jumpi\n        /* \"#utility.yul\":529:530   */\n      0x00\n        /* \"#utility.yul\":526:527   */\n      0x00\n        /* \"#utility.yul\":519:531   */\n      revert\n        /* \"#utility.yul\":470:533   */\n    tag_276:\n        /* \"#utility.yul\":417:539   */\n      pop\n      jump\t// out\n        /* \"#utility.yul\":545:684   */\n    tag_227:\n        /* \"#utility.yul\":591:596   */\n      0x00\n        /* \"#utility.yul\":629:635   */\n      dup2\n        /* \"#utility.yul\":616:636   */\n      calldataload\n        /* \"#utility.yul\":607:636   */\n      swap1\n      pop\n        /* \"#utility.yul\":645:678   */\n      tag_278\n        /* \"#utility.yul\":672:677   */\n      dup2\n        /* \"#utility.yul\":645:678   */\n      tag_226\n      jump\t// in\n    tag_278:\n        /* \"#utility.yul\":545:684   */\n      swap3\n      swap2\n      pop\n      pop\n      jump\t// out\n        /* \"#utility.yul\":690:1019   */\n    tag_32:\n        /* \"#utility.yul\":749:755   */\n      0x00\n        /* \"#utility.yul\":798:800   */\n      0x20\n        /* \"#utility.yul\":786:795   */\n      dup3\n        /* \"#utility.yul\":777:784   */\n      dup5\n        /* \"#utility.yul\":773:796   */\n      sub\n        /* \"#utility.yul\":769:801   */\n      slt\n        /* \"#utility.yul\":766:885   */\n      iszero\n      tag_280\n      jumpi\n        /* \"#utility.yul\":804:883   */\n      tag_281\n      tag_223\n      jump\t// in\n    tag_281:\n        /* \"#utility.yul\":766:885   */\n    tag_280:\n        /* \"#utility.yul\":924:925   */\n      0x00\n        /* \"#utility.yul\":949:1002   */\n      tag_282\n        /* \"#utility.yul\":994:1001   */\n      dup5\n        /* \"#utility.yul\":985:991   */\n      dup3\n        /* \"#utility.yul\":974:983   */\n      dup6\n        /* \"#utility.yul\":970:992   */\n      add\n        /* \"#utility.yul\":949:1002   */\n      tag_227\n      jump\t// in\n    tag_282:\n        /* \"#utility.yul\":939:1002   */\n      swap2\n      pop\n        /* \"#utility.yul\":895:1012   */\n      pop\n        /* \"#utility.yul\":690:1019   */\n      swap3\n      swap2\n      pop\n      pop\n      jump\t// out\n        /* \"#utility.yul\":1025:1151   */\n    tag_228:\n        /* \"#utility.yul\":1062:1069   */\n      0x00\n        /* \"#utility.yul\":1102:1144   */\n      0xffffffffffffffffffffffffffffffffffffffff\n        /* \"#utility.yul\":1095:1100   */\n      dup3\n        /* \"#utility.yul\":1091:1145   */\n      and\n        /* \"#utility.yul\":1080:1145   */\n      swap1\n      pop\n        /* \"#utility.yul\":1025:1151   */\n      swap2\n      swap1\n      pop\n      jump\t// out\n        /* \"#utility.yul\":1157:1253   */\n    tag_229:\n        /* \"#utility.yul\":1194:1201   */\n      0x00\n        /* \"#utility.yul\":1223:1247   */\n      tag_285\n        /* \"#utility.yul\":1241:1246   */\n      dup3\n        /* \"#utility.yul\":1223:1247   */\n      tag_228\n      jump\t// in\n    tag_285:\n        /* \"#utility.yul\":1212:1247   */\n      swap1\n      pop\n        /* \"#utility.yul\":1157:1253   */\n      swap2\n      swap1\n      pop\n      jump\t// out\n        /* \"#utility.yul\":1259:1377   */\n    tag_230:\n        /* \"#utility.yul\":1346:1370   */\n      tag_287\n        /* \"#utility.yul\":1364:1369   */\n      dup2\n        /* \"#utility.yul\":1346:1370   */\n      tag_229\n      jump\t// in\n    tag_287:\n        /* \"#utility.yul\":1341:1344   */\n      dup3\n        /* \"#utility.yul\":1334:1371   */\n      mstore\n        /* \"#utility.yul\":1259:1377   */\n      pop\n      pop\n      jump\t// out\n        /* \"#utility.yul\":1383:1501   */\n    tag_231:\n        /* \"#utility.yul\":1470:1494   */\n      tag_289\n        /* \"#utility.yul\":1488:1493   */\n      dup2\n        /* \"#utility.yul\":1470:1494   */\n      tag_225\n      jump\t// in\n    tag_289:\n        /* \"#utility.yul\":1465:1468   */\n      dup3\n        /* \"#utility.yul\":1458:1495   */\n      mstore\n        /* \"#utility.yul\":1383:1501   */\n      pop\n      pop\n      jump\t// out\n        /* \"#utility.yul\":1507:1839   */\n    tag_38:\n        /* \"#utility.yul\":1628:1632   */\n      0x00\n        /* \"#utility.yul\":1666:1668   */\n      0x40\n        /* \"#utility.yul\":1655:1664   */\n      dup3\n        /* \"#utility.yul\":1651:1669   */\n      add\n        /* \"#utility.yul\":1643:1669   */\n      swap1\n      pop\n        /* \"#utility.yul\":1679:1750   */\n      tag_291\n        /* \"#utility.yul\":1747:1748   */\n      0x00\n        /* \"#utility.yul\":1736:1745   */\n      dup4\n        /* \"#utility.yul\":1732:1749   */\n      add\n        /* \"#utility.yul\":1723:1729   */\n      dup6\n        /* \"#utility.yul\":1679:1750   */\n      tag_230\n      jump\t// in\n    tag_291:\n        /* \"#utility.yul\":1760:1832   */\n      tag_292\n        /* \"#utility.yul\":1828:1830   */\n      0x20\n        /* \"#utility.yul\":1817:1826   */\n      dup4\n        /* \"#utility.yul\":1813:1831   */\n      add\n        /* \"#utility.yul\":1804:1810   */\n      dup5\n        /* \"#utility.yul\":1760:1832   */\n      tag_231\n      jump\t// in\n    tag_292:\n        /* \"#utility.yul\":1507:1839   */\n      swap4\n      swap3\n      pop\n      pop\n      pop\n      jump\t// out\n        /* \"#utility.yul\":1845:2067   */\n    tag_43:\n        /* \"#utility.yul\":1938:1942   */\n      0x00\n        /* \"#utility.yul\":1976:1978   */\n      0x20\n        /* \"#utility.yul\":1965:1974   */\n      dup3\n        /* \"#utility.yul\":1961:1979   */\n      add\n        /* \"#utility.yul\":1953:1979   */\n      swap1\n      pop\n        /* \"#utility.yul\":1989:2060   */\n      tag_294\n        /* \"#utility.yul\":2057:2058   */\n      0x00\n        /* \"#utility.yul\":2046:2055   */\n      dup4\n        /* \"#utility.yul\":2042:2059   */\n      add\n        /* \"#utility.yul\":2033:2039   */\n      dup5\n        /* \"#utility.yul\":1989:2060   */\n      tag_231\n      jump\t// in\n    tag_294:\n        /* \"#utility.yul\":1845:2067   */\n      swap3\n      swap2\n      pop\n      pop\n      jump\t// out\n        /* \"#utility.yul\":2073:2206   */\n    tag_232:\n        /* \"#utility.yul\":2159:2165   */\n      0x00\n        /* \"#utility.yul\":2193:2198   */\n      dup2\n        /* \"#utility.yul\":2187:2199   */\n      mload\n        /* \"#utility.yul\":2177:2199   */\n      swap1\n      pop\n        /* \"#utility.yul\":2073:2206   */\n      swap2\n      swap1\n      pop\n      jump\t// out\n        /* \"#utility.yul\":2212:2415   */\n    tag_233:\n        /* \"#utility.yul\":2330:2341   */\n      0x00\n        /* \"#utility.yul\":2364:2370   */\n      dup3\n        /* \"#utility.yul\":2359:2362   */\n      dup3\n        /* \"#utility.yul\":2352:2371   */\n      mstore\n        /* \"#utility.yul\":2404:2408   */\n      0x20\n        /* \"#utility.yul\":2399:2402   */\n      dup3\n        /* \"#utility.yul\":2395:2409   */\n      add\n        /* \"#utility.yul\":2380:2409   */\n      swap1\n      pop\n        /* \"#utility.yul\":2212:2415   */\n      swap3\n      swap2\n      pop\n      pop\n      jump\t// out\n        /* \"#utility.yul\":2421:2572   */\n    tag_234:\n        /* \"#utility.yul\":2507:2511   */\n      0x00\n        /* \"#utility.yul\":2530:2533   */\n      dup2\n        /* \"#utility.yul\":2522:2533   */\n      swap1\n      pop\n        /* \"#utility.yul\":2560:2564   */\n      0x20\n        /* \"#utility.yul\":2555:2558   */\n      dup3\n        /* \"#utility.yul\":2551:2565   */\n      add\n        /* \"#utility.yul\":2543:2565   */\n      swap1\n      pop\n        /* \"#utility.yul\":2421:2572   */\n      swap2\n      swap1\n      pop\n      jump\t// out\n        /* \"#utility.yul\":2578:2686   */\n    tag_235:\n        /* \"#utility.yul\":2655:2679   */\n      tag_299\n        /* \"#utility.yul\":2673:2678   */\n      dup2\n        /* \"#utility.yul\":2655:2679   */\n      tag_229\n      jump\t// in\n    tag_299:\n        /* \"#utility.yul\":2650:2653   */\n      dup3\n        /* \"#utility.yul\":2643:2680   */\n      mstore\n        /* \"#utility.yul\":2578:2686   */\n      pop\n      pop\n      jump\t// out\n        /* \"#utility.yul\":2692:2800   */\n    tag_236:\n        /* \"#utility.yul\":2769:2793   */\n      tag_301\n        /* \"#utility.yul\":2787:2792   */\n      dup2\n        /* \"#utility.yul\":2769:2793   */\n      tag_225\n      jump\t// in\n    tag_301:\n        /* \"#utility.yul\":2764:2767   */\n      dup3\n        /* \"#utility.yul\":2757:2794   */\n      mstore\n        /* \"#utility.yul\":2692:2800   */\n      pop\n      pop\n      jump\t// out\n        /* \"#utility.yul\":2806:2896   */\n    tag_237:\n        /* \"#utility.yul\":2840:2847   */\n      0x00\n        /* \"#utility.yul\":2883:2888   */\n      dup2\n        /* \"#utility.yul\":2876:2889   */\n      iszero\n        /* \"#utility.yul\":2869:2890   */\n      iszero\n        /* \"#utility.yul\":2858:2890   */\n      swap1\n      pop\n        /* \"#utility.yul\":2806:2896   */\n      swap2\n      swap1\n      pop\n      jump\t// out\n        /* \"#utility.yul\":2902:3001   */\n    tag_238:\n        /* \"#utility.yul\":2973:2994   */\n      tag_304\n        /* \"#utility.yul\":2988:2993   */\n      dup2\n        /* \"#utility.yul\":2973:2994   */\n      tag_237\n      jump\t// in\n    tag_304:\n        /* \"#utility.yul\":2968:2971   */\n      dup3\n        /* \"#utility.yul\":2961:2995   */\n      mstore\n        /* \"#utility.yul\":2902:3001   */\n      pop\n      pop\n      jump\t// out\n        /* \"#utility.yul\":3063:3725   */\n    tag_239:\n        /* \"#utility.yul\":3188:3192   */\n      0x60\n        /* \"#utility.yul\":3183:3186   */\n      dup3\n        /* \"#utility.yul\":3179:3193   */\n      add\n        /* \"#utility.yul\":3277:3281   */\n      0x00\n        /* \"#utility.yul\":3270:3275   */\n      dup3\n        /* \"#utility.yul\":3266:3282   */\n      add\n        /* \"#utility.yul\":3260:3283   */\n      mload\n        /* \"#utility.yul\":3296:3359   */\n      tag_306\n        /* \"#utility.yul\":3353:3357   */\n      0x00\n        /* \"#utility.yul\":3348:3351   */\n      dup6\n        /* \"#utility.yul\":3344:3358   */\n      add\n        /* \"#utility.yul\":3330:3342   */\n      dup3\n        /* \"#utility.yul\":3296:3359   */\n      tag_235\n      jump\t// in\n    tag_306:\n        /* \"#utility.yul\":3203:3369   */\n      pop\n        /* \"#utility.yul\":3453:3457   */\n      0x20\n        /* \"#utility.yul\":3446:3451   */\n      dup3\n        /* \"#utility.yul\":3442:3458   */\n      add\n        /* \"#utility.yul\":3436:3459   */\n      mload\n        /* \"#utility.yul\":3472:3535   */\n      tag_307\n        /* \"#utility.yul\":3529:3533   */\n      0x20\n        /* \"#utility.yul\":3524:3527   */\n      dup6\n        /* \"#utility.yul\":3520:3534   */\n      add\n        /* \"#utility.yul\":3506:3518   */\n      dup3\n        /* \"#utility.yul\":3472:3535   */\n      tag_236\n      jump\t// in\n    tag_307:\n        /* \"#utility.yul\":3379:3545   */\n      pop\n        /* \"#utility.yul\":3632:3636   */\n      0x40\n        /* \"#utility.yul\":3625:3630   */\n      dup3\n        /* \"#utility.yul\":3621:3637   */\n      add\n        /* \"#utility.yul\":3615:3638   */\n      mload\n        /* \"#utility.yul\":3651:3708   */\n      tag_308\n        /* \"#utility.yul\":3702:3706   */\n      0x40\n        /* \"#utility.yul\":3697:3700   */\n      dup6\n        /* \"#utility.yul\":3693:3707   */\n      add\n        /* \"#utility.yul\":3679:3691   */\n      dup3\n        /* \"#utility.yul\":3651:3708   */\n      tag_238\n      jump\t// in\n    tag_308:\n        /* \"#utility.yul\":3555:3718   */\n      pop\n        /* \"#utility.yul\":3157:3725   */\n      pop\n        /* \"#utility.yul\":3063:3725   */\n      pop\n      pop\n      jump\t// out\n        /* \"#utility.yul\":3731:3986   */\n    tag_240:\n        /* \"#utility.yul\":3838:3848   */\n      0x00\n        /* \"#utility.yul\":3859:3943   */\n      tag_310\n        /* \"#utility.yul\":3939:3942   */\n      dup4\n        /* \"#utility.yul\":3931:3937   */\n      dup4\n        /* \"#utility.yul\":3859:3943   */\n      tag_239\n      jump\t// in\n    tag_310:\n        /* \"#utility.yul\":3975:3979   */\n      0x60\n        /* \"#utility.yul\":3970:3973   */\n      dup4\n        /* \"#utility.yul\":3966:3980   */\n      add\n        /* \"#utility.yul\":3952:3980   */\n      swap1\n      pop\n        /* \"#utility.yul\":3731:3986   */\n      swap3\n      swap2\n      pop\n      pop\n      jump\t// out\n        /* \"#utility.yul\":3992:4124   */\n    tag_241:\n        /* \"#utility.yul\":4081:4085   */\n      0x00\n        /* \"#utility.yul\":4113:4117   */\n      0x20\n        /* \"#utility.yul\":4108:4111   */\n      dup3\n        /* \"#utility.yul\":4104:4118   */\n      add\n        /* \"#utility.yul\":4096:4118   */\n      swap1\n      pop\n        /* \"#utility.yul\":3992:4124   */\n      swap2\n      swap1\n      pop\n      jump\t// out\n        /* \"#utility.yul\":4190:5074   */\n    tag_242:\n        /* \"#utility.yul\":4347:4350   */\n      0x00\n        /* \"#utility.yul\":4376:4449   */\n      tag_313\n        /* \"#utility.yul\":4443:4448   */\n      dup3\n        /* \"#utility.yul\":4376:4449   */\n      tag_232\n      jump\t// in\n    tag_313:\n        /* \"#utility.yul\":4465:4570   */\n      tag_314\n        /* \"#utility.yul\":4563:4569   */\n      dup2\n        /* \"#utility.yul\":4558:4561   */\n      dup6\n        /* \"#utility.yul\":4465:4570   */\n      tag_233\n      jump\t// in\n    tag_314:\n        /* \"#utility.yul\":4458:4570   */\n      swap4\n      pop\n        /* \"#utility.yul\":4594:4669   */\n      tag_315\n        /* \"#utility.yul\":4663:4668   */\n      dup4\n        /* \"#utility.yul\":4594:4669   */\n      tag_234\n      jump\t// in\n    tag_315:\n        /* \"#utility.yul\":4692:4699   */\n      dup1\n        /* \"#utility.yul\":4723:4724   */\n      0x00\n        /* \"#utility.yul\":4708:5049   */\n    tag_316:\n        /* \"#utility.yul\":4733:4739   */\n      dup4\n        /* \"#utility.yul\":4730:4731   */\n      dup2\n        /* \"#utility.yul\":4727:4740   */\n      lt\n        /* \"#utility.yul\":4708:5049   */\n      iszero\n      tag_318\n      jumpi\n        /* \"#utility.yul\":4809:4815   */\n      dup2\n        /* \"#utility.yul\":4803:4816   */\n      mload\n        /* \"#utility.yul\":4836:4937   */\n      tag_319\n        /* \"#utility.yul\":4933:4936   */\n      dup9\n        /* \"#utility.yul\":4918:4931   */\n      dup3\n        /* \"#utility.yul\":4836:4937   */\n      tag_240\n      jump\t// in\n    tag_319:\n        /* \"#utility.yul\":4829:4937   */\n      swap8\n      pop\n        /* \"#utility.yul\":4960:5039   */\n      tag_320\n        /* \"#utility.yul\":5032:5038   */\n      dup4\n        /* \"#utility.yul\":4960:5039   */\n      tag_241\n      jump\t// in\n    tag_320:\n        /* \"#utility.yul\":4950:5039   */\n      swap3\n      pop\n        /* \"#utility.yul\":4768:5049   */\n      pop\n        /* \"#utility.yul\":4755:4756   */\n      0x01\n        /* \"#utility.yul\":4752:4753   */\n      dup2\n        /* \"#utility.yul\":4748:4757   */\n      add\n        /* \"#utility.yul\":4743:4757   */\n      swap1\n      pop\n        /* \"#utility.yul\":4708:5049   */\n      jump(tag_316)\n    tag_318:\n        /* \"#utility.yul\":4712:4726   */\n      pop\n        /* \"#utility.yul\":5065:5068   */\n      dup6\n        /* \"#utility.yul\":5058:5068   */\n      swap4\n      pop\n        /* \"#utility.yul\":4352:5074   */\n      pop\n      pop\n      pop\n        /* \"#utility.yul\":4190:5074   */\n      swap3\n      swap2\n      pop\n      pop\n      jump\t// out\n        /* \"#utility.yul\":5080:5529   */\n    tag_56:\n        /* \"#utility.yul\":5261:5265   */\n      0x00\n        /* \"#utility.yul\":5299:5301   */\n      0x20\n        /* \"#utility.yul\":5288:5297   */\n      dup3\n        /* \"#utility.yul\":5284:5302   */\n      add\n        /* \"#utility.yul\":5276:5302   */\n      swap1\n      pop\n        /* \"#utility.yul\":5348:5357   */\n      dup2\n        /* \"#utility.yul\":5342:5346   */\n      dup2\n        /* \"#utility.yul\":5338:5358   */\n      sub\n        /* \"#utility.yul\":5334:5335   */\n      0x00\n        /* \"#utility.yul\":5323:5332   */\n      dup4\n        /* \"#utility.yul\":5319:5336   */\n      add\n        /* \"#utility.yul\":5312:5359   */\n      mstore\n        /* \"#utility.yul\":5376:5522   */\n      tag_322\n        /* \"#utility.yul\":5517:5521   */\n      dup2\n        /* \"#utility.yul\":5508:5514   */\n      dup5\n        /* \"#utility.yul\":5376:5522   */\n      tag_242\n      jump\t// in\n    tag_322:\n        /* \"#utility.yul\":5368:5522   */\n      swap1\n      pop\n        /* \"#utility.yul\":5080:5529   */\n      swap3\n      swap2\n      pop\n      pop\n      jump\t// out\n        /* \"#utility.yul\":5535:5644   */\n    tag_243:\n        /* \"#utility.yul\":5616:5637   */\n      tag_324\n        /* \"#utility.yul\":5631:5636   */\n      dup2\n        /* \"#utility.yul\":5616:5637   */\n      tag_237\n      jump\t// in\n    tag_324:\n        /* \"#utility.yul\":5611:5614   */\n      dup3\n        /* \"#utility.yul\":5604:5638   */\n      mstore\n        /* \"#utility.yul\":5535:5644   */\n      pop\n      pop\n      jump\t// out\n        /* \"#utility.yul\":5650:5860   */\n    tag_61:\n        /* \"#utility.yul\":5737:5741   */\n      0x00\n        /* \"#utility.yul\":5775:5777   */\n      0x20\n        /* \"#utility.yul\":5764:5773   */\n      dup3\n        /* \"#utility.yul\":5760:5778   */\n      add\n        /* \"#utility.yul\":5752:5778   */\n      swap1\n      pop\n        /* \"#utility.yul\":5788:5853   */\n      tag_326\n        /* \"#utility.yul\":5850:5851   */\n      0x00\n        /* \"#utility.yul\":5839:5848   */\n      dup4\n        /* \"#utility.yul\":5835:5852   */\n      add\n        /* \"#utility.yul\":5826:5832   */\n      dup5\n        /* \"#utility.yul\":5788:5853   */\n      tag_243\n      jump\t// in\n    tag_326:\n        /* \"#utility.yul\":5650:5860   */\n      swap3\n      swap2\n      pop\n      pop\n      jump\t// out\n        /* \"#utility.yul\":5866:6088   */\n    tag_66:\n        /* \"#utility.yul\":5959:5963   */\n      0x00\n        /* \"#utility.yul\":5997:5999   */\n      0x20\n        /* \"#utility.yul\":5986:5995   */\n      dup3\n        /* \"#utility.yul\":5982:6000   */\n      add\n        /* \"#utility.yul\":5974:6000   */\n      swap1\n      pop\n        /* \"#utility.yul\":6010:6081   */\n      tag_328\n        /* \"#utility.yul\":6078:6079   */\n      0x00\n        /* \"#utility.yul\":6067:6076   */\n      dup4\n        /* \"#utility.yul\":6063:6080   */\n      add\n        /* \"#utility.yul\":6054:6060   */\n      dup5\n        /* \"#utility.yul\":6010:6081   */\n      tag_230\n      jump\t// in\n    tag_328:\n        /* \"#utility.yul\":5866:6088   */\n      swap3\n      swap2\n      pop\n      pop\n      jump\t// out\n        /* \"#utility.yul\":6094:6524   */\n    tag_95:\n        /* \"#utility.yul\":6237:6241   */\n      0x00\n        /* \"#utility.yul\":6275:6277   */\n      0x60\n        /* \"#utility.yul\":6264:6273   */\n      dup3\n        /* \"#utility.yul\":6260:6278   */\n      add\n        /* \"#utility.yul\":6252:6278   */\n      swap1\n      pop\n        /* \"#utility.yul\":6288:6359   */\n      tag_330\n        /* \"#utility.yul\":6356:6357   */\n      0x00\n        /* \"#utility.yul\":6345:6354   */\n      dup4\n        /* \"#utility.yul\":6341:6358   */\n      add\n        /* \"#utility.yul\":6332:6338   */\n      dup7\n        /* \"#utility.yul\":6288:6359   */\n      tag_230\n      jump\t// in\n    tag_330:\n        /* \"#utility.yul\":6369:6441   */\n      tag_331\n        /* \"#utility.yul\":6437:6439   */\n      0x20\n        /* \"#utility.yul\":6426:6435   */\n      dup4\n        /* \"#utility.yul\":6422:6440   */\n      add\n        /* \"#utility.yul\":6413:6419   */\n      dup6\n        /* \"#utility.yul\":6369:6441   */\n      tag_231\n      jump\t// in\n    tag_331:\n        /* \"#utility.yul\":6451:6517   */\n      tag_332\n        /* \"#utility.yul\":6513:6515   */\n      0x40\n        /* \"#utility.yul\":6502:6511   */\n      dup4\n        /* \"#utility.yul\":6498:6516   */\n      add\n        /* \"#utility.yul\":6489:6495   */\n      dup5\n        /* \"#utility.yul\":6451:6517   */\n      tag_243\n      jump\t// in\n    tag_332:\n        /* \"#utility.yul\":6094:6524   */\n      swap5\n      swap4\n      pop\n      pop\n      pop\n      pop\n      jump\t// out\n        /* \"#utility.yul\":6530:6699   */\n    tag_244:\n        /* \"#utility.yul\":6614:6625   */\n      0x00\n        /* \"#utility.yul\":6648:6654   */\n      dup3\n        /* \"#utility.yul\":6643:6646   */\n      dup3\n        /* \"#utility.yul\":6636:6655   */\n      mstore\n        /* \"#utility.yul\":6688:6692   */\n      0x20\n        /* \"#utility.yul\":6683:6686   */\n      dup3\n        /* \"#utility.yul\":6679:6693   */\n      add\n        /* \"#utility.yul\":6664:6693   */\n      swap1\n      pop\n        /* \"#utility.yul\":6530:6699   */\n      swap3\n      swap2\n      pop\n      pop\n      jump\t// out\n        /* \"#utility.yul\":6705:6867   */\n    tag_245:\n        /* \"#utility.yul\":6845:6859   */\n      0x5374696c6c206163746976650000000000000000000000000000000000000000\n        /* \"#utility.yul\":6841:6842   */\n      0x00\n        /* \"#utility.yul\":6833:6839   */\n      dup3\n        /* \"#utility.yul\":6829:6843   */\n      add\n        /* \"#utility.yul\":6822:6860   */\n      mstore\n        /* \"#utility.yul\":6705:6867   */\n      pop\n      jump\t// out\n        /* \"#utility.yul\":6873:7239   */\n    tag_246:\n        /* \"#utility.yul\":7015:7018   */\n      0x00\n        /* \"#utility.yul\":7036:7103   */\n      tag_336\n        /* \"#utility.yul\":7100:7102   */\n      0x0c\n        /* \"#utility.yul\":7095:7098   */\n      dup4\n        /* \"#utility.yul\":7036:7103   */\n      tag_244\n      jump\t// in\n    tag_336:\n        /* \"#utility.yul\":7029:7103   */\n      swap2\n      pop\n        /* \"#utility.yul\":7112:7205   */\n      tag_337\n        /* \"#utility.yul\":7201:7204   */\n      dup3\n        /* \"#utility.yul\":7112:7205   */\n      tag_245\n      jump\t// in\n    tag_337:\n        /* \"#utility.yul\":7230:7232   */\n      0x20\n        /* \"#utility.yul\":7225:7228   */\n      dup3\n        /* \"#utility.yul\":7221:7233   */\n      add\n        /* \"#utility.yul\":7214:7233   */\n      swap1\n      pop\n        /* \"#utility.yul\":6873:7239   */\n      swap2\n      swap1\n      pop\n      jump\t// out\n        /* \"#utility.yul\":7245:7664   */\n    tag_106:\n        /* \"#utility.yul\":7411:7415   */\n      0x00\n        /* \"#utility.yul\":7449:7451   */\n      0x20\n        /* \"#utility.yul\":7438:7447   */\n      dup3\n        /* \"#utility.yul\":7434:7452   */\n      add\n        /* \"#utility.yul\":7426:7452   */\n      swap1\n      pop\n        /* \"#utility.yul\":7498:7507   */\n      dup2\n        /* \"#utility.yul\":7492:7496   */\n      dup2\n        /* \"#utility.yul\":7488:7508   */\n      sub\n        /* \"#utility.yul\":7484:7485   */\n      0x00\n        /* \"#utility.yul\":7473:7482   */\n      dup4\n        /* \"#utility.yul\":7469:7486   */\n      add\n        /* \"#utility.yul\":7462:7509   */\n      mstore\n        /* \"#utility.yul\":7526:7657   */\n      tag_339\n        /* \"#utility.yul\":7652:7656   */\n      dup2\n        /* \"#utility.yul\":7526:7657   */\n      tag_246\n      jump\t// in\n    tag_339:\n        /* \"#utility.yul\":7518:7657   */\n      swap1\n      pop\n        /* \"#utility.yul\":7245:7664   */\n      swap2\n      swap1\n      pop\n      jump\t// out\n        /* \"#utility.yul\":7670:7832   */\n    tag_247:\n        /* \"#utility.yul\":7810:7824   */\n      0x416c726561647920646f6e650000000000000000000000000000000000000000\n        /* \"#utility.yul\":7806:7807   */\n      0x00\n        /* \"#utility.yul\":7798:7804   */\n      dup3\n        /* \"#utility.yul\":7794:7808   */\n      add\n        /* \"#utility.yul\":7787:7825   */\n      mstore\n        /* \"#utility.yul\":7670:7832   */\n      pop\n      jump\t// out\n        /* \"#utility.yul\":7838:8204   */\n    tag_248:\n        /* \"#utility.yul\":7980:7983   */\n      0x00\n        /* \"#utility.yul\":8001:8068   */\n      tag_342\n        /* \"#utility.yul\":8065:8067   */\n      0x0c\n        /* \"#utility.yul\":8060:8063   */\n      dup4\n        /* \"#utility.yul\":8001:8068   */\n      tag_244\n      jump\t// in\n    tag_342:\n        /* \"#utility.yul\":7994:8068   */\n      swap2\n      pop\n        /* \"#utility.yul\":8077:8170   */\n      tag_343\n        /* \"#utility.yul\":8166:8169   */\n      dup3\n        /* \"#utility.yul\":8077:8170   */\n      tag_247\n      jump\t// in\n    tag_343:\n        /* \"#utility.yul\":8195:8197   */\n      0x20\n        /* \"#utility.yul\":8190:8193   */\n      dup3\n        /* \"#utility.yul\":8186:8198   */\n      add\n        /* \"#utility.yul\":8179:8198   */\n      swap1\n      pop\n        /* \"#utility.yul\":7838:8204   */\n      swap2\n      swap1\n      pop\n      jump\t// out\n        /* \"#utility.yul\":8210:8629   */\n    tag_110:\n        /* \"#utility.yul\":8376:8380   */\n      0x00\n        /* \"#utility.yul\":8414:8416   */\n      0x20\n        /* \"#utility.yul\":8403:8412   */\n      dup3\n        /* \"#utility.yul\":8399:8417   */\n      add\n        /* \"#utility.yul\":8391:8417   */\n      swap1\n      pop\n        /* \"#utility.yul\":8463:8472   */\n      dup2\n        /* \"#utility.yul\":8457:8461   */\n      dup2\n        /* \"#utility.yul\":8453:8473   */\n      sub\n        /* \"#utility.yul\":8449:8450   */\n      0x00\n        /* \"#utility.yul\":8438:8447   */\n      dup4\n        /* \"#utility.yul\":8434:8451   */\n      add\n        /* \"#utility.yul\":8427:8474   */\n      mstore\n        /* \"#utility.yul\":8491:8622   */\n      tag_345\n        /* \"#utility.yul\":8617:8621   */\n      dup2\n        /* \"#utility.yul\":8491:8622   */\n      tag_248\n      jump\t// in\n    tag_345:\n        /* \"#utility.yul\":8483:8622   */\n      swap1\n      pop\n        /* \"#utility.yul\":8210:8629   */\n      swap2\n      swap1\n      pop\n      jump\t// out\n        /* \"#utility.yul\":8635:8815   */\n    tag_249:\n        /* \"#utility.yul\":8683:8760   */\n      0x4e487b7100000000000000000000000000000000000000000000000000000000\n        /* \"#utility.yul\":8680:8681   */\n      0x00\n        /* \"#utility.yul\":8673:8761   */\n      mstore\n        /* \"#utility.yul\":8780:8784   */\n      0x11\n        /* \"#utility.yul\":8777:8778   */\n      0x04\n        /* \"#utility.yul\":8770:8785   */\n      mstore\n        /* \"#utility.yul\":8804:8808   */\n      0x24\n        /* \"#utility.yul\":8801:8802   */\n      0x00\n        /* \"#utility.yul\":8794:8809   */\n      revert\n        /* \"#utility.yul\":8821:9231   */\n    tag_113:\n        /* \"#utility.yul\":8861:8868   */\n      0x00\n        /* \"#utility.yul\":8884:8904   */\n      tag_348\n        /* \"#utility.yul\":8902:8903   */\n      dup3\n        /* \"#utility.yul\":8884:8904   */\n      tag_225\n      jump\t// in\n    tag_348:\n        /* \"#utility.yul\":8879:8904   */\n      swap2\n      pop\n        /* \"#utility.yul\":8918:8938   */\n      tag_349\n        /* \"#utility.yul\":8936:8937   */\n      dup4\n        /* \"#utility.yul\":8918:8938   */\n      tag_225\n      jump\t// in\n    tag_349:\n        /* \"#utility.yul\":8913:8938   */\n      swap3\n      pop\n        /* \"#utility.yul\":8973:8974   */\n      dup3\n        /* \"#utility.yul\":8970:8971   */\n      dup3\n        /* \"#utility.yul\":8966:8975   */\n      mul\n        /* \"#utility.yul\":8995:9025   */\n      tag_350\n        /* \"#utility.yul\":9013:9024   */\n      dup2\n        /* \"#utility.yul\":8995:9025   */\n      tag_225\n      jump\t// in\n    tag_350:\n        /* \"#utility.yul\":8984:9025   */\n      swap2\n      pop\n        /* \"#utility.yul\":9174:9175   */\n      dup3\n        /* \"#utility.yul\":9165:9172   */\n      dup3\n        /* \"#utility.yul\":9161:9176   */\n      div\n        /* \"#utility.yul\":9158:9159   */\n      dup5\n        /* \"#utility.yul\":9155:9177   */\n      eq\n        /* \"#utility.yul\":9135:9136   */\n      dup4\n        /* \"#utility.yul\":9128:9137   */\n      iszero\n        /* \"#utility.yul\":9108:9191   */\n      or\n        /* \"#utility.yul\":9085:9224   */\n      tag_351\n      jumpi\n        /* \"#utility.yul\":9204:9222   */\n      tag_352\n      tag_249\n      jump\t// in\n    tag_352:\n        /* \"#utility.yul\":9085:9224   */\n    tag_351:\n        /* \"#utility.yul\":8869:9231   */\n      pop\n        /* \"#utility.yul\":8821:9231   */\n      swap3\n      swap2\n      pop\n      pop\n      jump\t// out\n        /* \"#utility.yul\":9237:9417   */\n    tag_250:\n        /* \"#utility.yul\":9285:9362   */\n      0x4e487b7100000000000000000000000000000000000000000000000000000000\n        /* \"#utility.yul\":9282:9283   */\n      0x00\n        /* \"#utility.yul\":9275:9363   */\n      mstore\n        /* \"#utility.yul\":9382:9386   */\n      0x12\n        /* \"#utility.yul\":9379:9380   */\n      0x04\n        /* \"#utility.yul\":9372:9387   */\n      mstore\n        /* \"#utility.yul\":9406:9410   */\n      0x24\n        /* \"#utility.yul\":9403:9404   */\n      0x00\n        /* \"#utility.yul\":9396:9411   */\n      revert\n        /* \"#utility.yul\":9423:9608   */\n    tag_115:\n        /* \"#utility.yul\":9463:9464   */\n      0x00\n        /* \"#utility.yul\":9480:9500   */\n      tag_355\n        /* \"#utility.yul\":9498:9499   */\n      dup3\n        /* \"#utility.yul\":9480:9500   */\n      tag_225\n      jump\t// in\n    tag_355:\n        /* \"#utility.yul\":9475:9500   */\n      swap2\n      pop\n        /* \"#utility.yul\":9514:9534   */\n      tag_356\n        /* \"#utility.yul\":9532:9533   */\n      dup4\n        /* \"#utility.yul\":9514:9534   */\n      tag_225\n      jump\t// in\n    tag_356:\n        /* \"#utility.yul\":9509:9534   */\n      swap3\n      pop\n        /* \"#utility.yul\":9553:9554   */\n      dup3\n        /* \"#utility.yul\":9543:9578   */\n      tag_357\n      jumpi\n        /* \"#utility.yul\":9558:9576   */\n      tag_358\n      tag_250\n      jump\t// in\n    tag_358:\n        /* \"#utility.yul\":9543:9578   */\n    tag_357:\n        /* \"#utility.yul\":9600:9601   */\n      dup3\n        /* \"#utility.yul\":9597:9598   */\n      dup3\n        /* \"#utility.yul\":9593:9602   */\n      div\n        /* \"#utility.yul\":9588:9602   */\n      swap1\n      pop\n        /* \"#utility.yul\":9423:9608   */\n      swap3\n      swap2\n      pop\n      pop\n      jump\t// out\n        /* \"#utility.yul\":9614:9808   */\n    tag_117:\n        /* \"#utility.yul\":9654:9658   */\n      0x00\n        /* \"#utility.yul\":9674:9694   */\n      tag_360\n        /* \"#utility.yul\":9692:9693   */\n      dup3\n        /* \"#utility.yul\":9674:9694   */\n      tag_225\n      jump\t// in\n    tag_360:\n        /* \"#utility.yul\":9669:9694   */\n      swap2\n      pop\n        /* \"#utility.yul\":9708:9728   */\n      tag_361\n        /* \"#utility.yul\":9726:9727   */\n      dup4\n        /* \"#utility.yul\":9708:9728   */\n      tag_225\n      jump\t// in\n    tag_361:\n        /* \"#utility.yul\":9703:9728   */\n      swap3\n      pop\n        /* \"#utility.yul\":9752:9753   */\n      dup3\n        /* \"#utility.yul\":9749:9750   */\n      dup3\n        /* \"#utility.yul\":9745:9754   */\n      sub\n        /* \"#utility.yul\":9737:9754   */\n      swap1\n      pop\n        /* \"#utility.yul\":9776:9777   */\n      dup2\n        /* \"#utility.yul\":9770:9774   */\n      dup2\n        /* \"#utility.yul\":9767:9778   */\n      gt\n        /* \"#utility.yul\":9764:9801   */\n      iszero\n      tag_362\n      jumpi\n        /* \"#utility.yul\":9781:9799   */\n      tag_363\n      tag_249\n      jump\t// in\n    tag_363:\n        /* \"#utility.yul\":9764:9801   */\n    tag_362:\n        /* \"#utility.yul\":9614:9808   */\n      swap3\n      swap2\n      pop\n      pop\n      jump\t// out\n        /* \"#utility.yul\":9814:9969   */\n    tag_251:\n        /* \"#utility.yul\":9954:9961   */\n      0x456e646564000000000000000000000000000000000000000000000000000000\n        /* \"#utility.yul\":9950:9951   */\n      0x00\n        /* \"#utility.yul\":9942:9948   */\n      dup3\n        /* \"#utility.yul\":9938:9952   */\n      add\n        /* \"#utility.yul\":9931:9962   */\n      mstore\n        /* \"#utility.yul\":9814:9969   */\n      pop\n      jump\t// out\n        /* \"#utility.yul\":9975:10340   */\n    tag_252:\n        /* \"#utility.yul\":10117:10120   */\n      0x00\n        /* \"#utility.yul\":10138:10204   */\n      tag_366\n        /* \"#utility.yul\":10202:10203   */\n      0x05\n        /* \"#utility.yul\":10197:10200   */\n      dup4\n        /* \"#utility.yul\":10138:10204   */\n      tag_244\n      jump\t// in\n    tag_366:\n        /* \"#utility.yul\":10131:10204   */\n      swap2\n      pop\n        /* \"#utility.yul\":10213:10306   */\n      tag_367\n        /* \"#utility.yul\":10302:10305   */\n      dup3\n        /* \"#utility.yul\":10213:10306   */\n      tag_251\n      jump\t// in\n    tag_367:\n        /* \"#utility.yul\":10331:10333   */\n      0x20\n        /* \"#utility.yul\":10326:10329   */\n      dup3\n        /* \"#utility.yul\":10322:10334   */\n      add\n        /* \"#utility.yul\":10315:10334   */\n      swap1\n      pop\n        /* \"#utility.yul\":9975:10340   */\n      swap2\n      swap1\n      pop\n      jump\t// out\n        /* \"#utility.yul\":10346:10765   */\n    tag_124:\n        /* \"#utility.yul\":10512:10516   */\n      0x00\n        /* \"#utility.yul\":10550:10552   */\n      0x20\n        /* \"#utility.yul\":10539:10548   */\n      dup3\n        /* \"#utility.yul\":10535:10553   */\n      add\n        /* \"#utility.yul\":10527:10553   */\n      swap1\n      pop\n        /* \"#utility.yul\":10599:10608   */\n      dup2\n        /* \"#utility.yul\":10593:10597   */\n      dup2\n        /* \"#utility.yul\":10589:10609   */\n      sub\n        /* \"#utility.yul\":10585:10586   */\n      0x00\n        /* \"#utility.yul\":10574:10583   */\n      dup4\n        /* \"#utility.yul\":10570:10587   */\n      add\n        /* \"#utility.yul\":10563:10610   */\n      mstore\n        /* \"#utility.yul\":10627:10758   */\n      tag_369\n        /* \"#utility.yul\":10753:10757   */\n      dup2\n        /* \"#utility.yul\":10627:10758   */\n      tag_252\n      jump\t// in\n    tag_369:\n        /* \"#utility.yul\":10619:10758   */\n      swap1\n      pop\n        /* \"#utility.yul\":10346:10765   */\n      swap2\n      swap1\n      pop\n      jump\t// out\n        /* \"#utility.yul\":10771:10935   */\n    tag_253:\n        /* \"#utility.yul\":10911:10927   */\n      0x4d616e75616c6c7920656e646564000000000000000000000000000000000000\n        /* \"#utility.yul\":10907:10908   */\n      0x00\n        /* \"#utility.yul\":10899:10905   */\n      dup3\n        /* \"#utility.yul\":10895:10909   */\n      add\n        /* \"#utility.yul\":10888:10928   */\n      mstore\n        /* \"#utility.yul\":10771:10935   */\n      pop\n      jump\t// out\n        /* \"#utility.yul\":10941:11307   */\n    tag_254:\n        /* \"#utility.yul\":11083:11086   */\n      0x00\n        /* \"#utility.yul\":11104:11171   */\n      tag_372\n        /* \"#utility.yul\":11168:11170   */\n      0x0e\n        /* \"#utility.yul\":11163:11166   */\n      dup4\n        /* \"#utility.yul\":11104:11171   */\n      tag_244\n      jump\t// in\n    tag_372:\n        /* \"#utility.yul\":11097:11171   */\n      swap2\n      pop\n        /* \"#utility.yul\":11180:11273   */\n      tag_373\n        /* \"#utility.yul\":11269:11272   */\n      dup3\n        /* \"#utility.yul\":11180:11273   */\n      tag_253\n      jump\t// in\n    tag_373:\n        /* \"#utility.yul\":11298:11300   */\n      0x20\n        /* \"#utility.yul\":11293:11296   */\n      dup3\n        /* \"#utility.yul\":11289:11301   */\n      add\n        /* \"#utility.yul\":11282:11301   */\n      swap1\n      pop\n        /* \"#utility.yul\":10941:11307   */\n      swap2\n      swap1\n      pop\n      jump\t// out\n        /* \"#utility.yul\":11313:11732   */\n    tag_127:\n        /* \"#utility.yul\":11479:11483   */\n      0x00\n        /* \"#utility.yul\":11517:11519   */\n      0x20\n        /* \"#utility.yul\":11506:11515   */\n      dup3\n        /* \"#utility.yul\":11502:11520   */\n      add\n        /* \"#utility.yul\":11494:11520   */\n      swap1\n      pop\n        /* \"#utility.yul\":11566:11575   */\n      dup2\n        /* \"#utility.yul\":11560:11564   */\n      dup2\n        /* \"#utility.yul\":11556:11576   */\n      sub\n        /* \"#utility.yul\":11552:11553   */\n      0x00\n        /* \"#utility.yul\":11541:11550   */\n      dup4\n        /* \"#utility.yul\":11537:11554   */\n      add\n        /* \"#utility.yul\":11530:11577   */\n      mstore\n        /* \"#utility.yul\":11594:11725   */\n      tag_375\n        /* \"#utility.yul\":11720:11724   */\n      dup2\n        /* \"#utility.yul\":11594:11725   */\n      tag_254\n      jump\t// in\n    tag_375:\n        /* \"#utility.yul\":11586:11725   */\n      swap1\n      pop\n        /* \"#utility.yul\":11313:11732   */\n      swap2\n      swap1\n      pop\n      jump\t// out\n        /* \"#utility.yul\":11738:11896   */\n    tag_255:\n        /* \"#utility.yul\":11878:11888   */\n      0x5a65726f20616d74000000000000000000000000000000000000000000000000\n        /* \"#utility.yul\":11874:11875   */\n      0x00\n        /* \"#utility.yul\":11866:11872   */\n      dup3\n        /* \"#utility.yul\":11862:11876   */\n      add\n        /* \"#utility.yul\":11855:11889   */\n      mstore\n        /* \"#utility.yul\":11738:11896   */\n      pop\n      jump\t// out\n        /* \"#utility.yul\":11902:12267   */\n    tag_256:\n        /* \"#utility.yul\":12044:12047   */\n      0x00\n        /* \"#utility.yul\":12065:12131   */\n      tag_378\n        /* \"#utility.yul\":12129:12130   */\n      0x08\n        /* \"#utility.yul\":12124:12127   */\n      dup4\n        /* \"#utility.yul\":12065:12131   */\n      tag_244\n      jump\t// in\n    tag_378:\n        /* \"#utility.yul\":12058:12131   */\n      swap2\n      pop\n        /* \"#utility.yul\":12140:12233   */\n      tag_379\n        /* \"#utility.yul\":12229:12232   */\n      dup3\n        /* \"#utility.yul\":12140:12233   */\n      tag_255\n      jump\t// in\n    tag_379:\n        /* \"#utility.yul\":12258:12260   */\n      0x20\n        /* \"#utility.yul\":12253:12256   */\n      dup3\n        /* \"#utility.yul\":12249:12261   */\n      add\n        /* \"#utility.yul\":12242:12261   */\n      swap1\n      pop\n        /* \"#utility.yul\":11902:12267   */\n      swap2\n      swap1\n      pop\n      jump\t// out\n        /* \"#utility.yul\":12273:12692   */\n    tag_131:\n        /* \"#utility.yul\":12439:12443   */\n      0x00\n        /* \"#utility.yul\":12477:12479   */\n      0x20\n        /* \"#utility.yul\":12466:12475   */\n      dup3\n        /* \"#utility.yul\":12462:12480   */\n      add\n        /* \"#utility.yul\":12454:12480   */\n      swap1\n      pop\n        /* \"#utility.yul\":12526:12535   */\n      dup2\n        /* \"#utility.yul\":12520:12524   */\n      dup2\n        /* \"#utility.yul\":12516:12536   */\n      sub\n        /* \"#utility.yul\":12512:12513   */\n      0x00\n        /* \"#utility.yul\":12501:12510   */\n      dup4\n        /* \"#utility.yul\":12497:12514   */\n      add\n        /* \"#utility.yul\":12490:12537   */\n      mstore\n        /* \"#utility.yul\":12554:12685   */\n      tag_381\n        /* \"#utility.yul\":12680:12684   */\n      dup2\n        /* \"#utility.yul\":12554:12685   */\n      tag_256\n      jump\t// in\n    tag_381:\n        /* \"#utility.yul\":12546:12685   */\n      swap1\n      pop\n        /* \"#utility.yul\":12273:12692   */\n      swap2\n      swap1\n      pop\n      jump\t// out\n        /* \"#utility.yul\":12698:12855   */\n    tag_257:\n        /* \"#utility.yul\":12838:12847   */\n      0x4e6f206269647300000000000000000000000000000000000000000000000000\n        /* \"#utility.yul\":12834:12835   */\n      0x00\n        /* \"#utility.yul\":12826:12832   */\n      dup3\n        /* \"#utility.yul\":12822:12836   */\n      add\n        /* \"#utility.yul\":12815:12848   */\n      mstore\n        /* \"#utility.yul\":12698:12855   */\n      pop\n      jump\t// out\n        /* \"#utility.yul\":12861:13226   */\n    tag_258:\n        /* \"#utility.yul\":13003:13006   */\n      0x00\n        /* \"#utility.yul\":13024:13090   */\n      tag_384\n        /* \"#utility.yul\":13088:13089   */\n      0x07\n        /* \"#utility.yul\":13083:13086   */\n      dup4\n        /* \"#utility.yul\":13024:13090   */\n      tag_244\n      jump\t// in\n    tag_384:\n        /* \"#utility.yul\":13017:13090   */\n      swap2\n      pop\n        /* \"#utility.yul\":13099:13192   */\n      tag_385\n        /* \"#utility.yul\":13188:13191   */\n      dup3\n        /* \"#utility.yul\":13099:13192   */\n      tag_257\n      jump\t// in\n    tag_385:\n        /* \"#utility.yul\":13217:13219   */\n      0x20\n        /* \"#utility.yul\":13212:13215   */\n      dup3\n        /* \"#utility.yul\":13208:13220   */\n      add\n        /* \"#utility.yul\":13201:13220   */\n      swap1\n      pop\n        /* \"#utility.yul\":12861:13226   */\n      swap2\n      swap1\n      pop\n      jump\t// out\n        /* \"#utility.yul\":13232:13651   */\n    tag_134:\n        /* \"#utility.yul\":13398:13402   */\n      0x00\n        /* \"#utility.yul\":13436:13438   */\n      0x20\n        /* \"#utility.yul\":13425:13434   */\n      dup3\n        /* \"#utility.yul\":13421:13439   */\n      add\n        /* \"#utility.yul\":13413:13439   */\n      swap1\n      pop\n        /* \"#utility.yul\":13485:13494   */\n      dup2\n        /* \"#utility.yul\":13479:13483   */\n      dup2\n        /* \"#utility.yul\":13475:13495   */\n      sub\n        /* \"#utility.yul\":13471:13472   */\n      0x00\n        /* \"#utility.yul\":13460:13469   */\n      dup4\n        /* \"#utility.yul\":13456:13473   */\n      add\n        /* \"#utility.yul\":13449:13496   */\n      mstore\n        /* \"#utility.yul\":13513:13644   */\n      tag_387\n        /* \"#utility.yul\":13639:13643   */\n      dup2\n        /* \"#utility.yul\":13513:13644   */\n      tag_258\n      jump\t// in\n    tag_387:\n        /* \"#utility.yul\":13505:13644   */\n      swap1\n      pop\n        /* \"#utility.yul\":13232:13651   */\n      swap2\n      swap1\n      pop\n      jump\t// out\n        /* \"#utility.yul\":13657:13837   */\n    tag_138:\n        /* \"#utility.yul\":13705:13782   */\n      0x4e487b7100000000000000000000000000000000000000000000000000000000\n        /* \"#utility.yul\":13702:13703   */\n      0x00\n        /* \"#utility.yul\":13695:13783   */\n      mstore\n        /* \"#utility.yul\":13802:13806   */\n      0x32\n        /* \"#utility.yul\":13799:13800   */\n      0x04\n        /* \"#utility.yul\":13792:13807   */\n      mstore\n        /* \"#utility.yul\":13826:13830   */\n      0x24\n        /* \"#utility.yul\":13823:13824   */\n      0x00\n        /* \"#utility.yul\":13816:13831   */\n      revert\n        /* \"#utility.yul\":13843:14002   */\n    tag_259:\n        /* \"#utility.yul\":13983:13994   */\n      0x4e6f206578636573730000000000000000000000000000000000000000000000\n        /* \"#utility.yul\":13979:13980   */\n      0x00\n        /* \"#utility.yul\":13971:13977   */\n      dup3\n        /* \"#utility.yul\":13967:13981   */\n      add\n        /* \"#utility.yul\":13960:13995   */\n      mstore\n        /* \"#utility.yul\":13843:14002   */\n      pop\n      jump\t// out\n        /* \"#utility.yul\":14008:14373   */\n    tag_260:\n        /* \"#utility.yul\":14150:14153   */\n      0x00\n        /* \"#utility.yul\":14171:14237   */\n      tag_391\n        /* \"#utility.yul\":14235:14236   */\n      0x09\n        /* \"#utility.yul\":14230:14233   */\n      dup4\n        /* \"#utility.yul\":14171:14237   */\n      tag_244\n      jump\t// in\n    tag_391:\n        /* \"#utility.yul\":14164:14237   */\n      swap2\n      pop\n        /* \"#utility.yul\":14246:14339   */\n      tag_392\n        /* \"#utility.yul\":14335:14338   */\n      dup3\n        /* \"#utility.yul\":14246:14339   */\n      tag_259\n      jump\t// in\n    tag_392:\n        /* \"#utility.yul\":14364:14366   */\n      0x20\n        /* \"#utility.yul\":14359:14362   */\n      dup3\n        /* \"#utility.yul\":14355:14367   */\n      add\n        /* \"#utility.yul\":14348:14367   */\n      swap1\n      pop\n        /* \"#utility.yul\":14008:14373   */\n      swap2\n      swap1\n      pop\n      jump\t// out\n        /* \"#utility.yul\":14379:14798   */\n    tag_144:\n        /* \"#utility.yul\":14545:14549   */\n      0x00\n        /* \"#utility.yul\":14583:14585   */\n      0x20\n        /* \"#utility.yul\":14572:14581   */\n      dup3\n        /* \"#utility.yul\":14568:14586   */\n      add\n        /* \"#utility.yul\":14560:14586   */\n      swap1\n      pop\n        /* \"#utility.yul\":14632:14641   */\n      dup2\n        /* \"#utility.yul\":14626:14630   */\n      dup2\n        /* \"#utility.yul\":14622:14642   */\n      sub\n        /* \"#utility.yul\":14618:14619   */\n      0x00\n        /* \"#utility.yul\":14607:14616   */\n      dup4\n        /* \"#utility.yul\":14603:14620   */\n      add\n        /* \"#utility.yul\":14596:14643   */\n      mstore\n        /* \"#utility.yul\":14660:14791   */\n      tag_394\n        /* \"#utility.yul\":14786:14790   */\n      dup2\n        /* \"#utility.yul\":14660:14791   */\n      tag_260\n      jump\t// in\n    tag_394:\n        /* \"#utility.yul\":14652:14791   */\n      swap1\n      pop\n        /* \"#utility.yul\":14379:14798   */\n      swap2\n      swap1\n      pop\n      jump\t// out\n        /* \"#utility.yul\":14804:14961   */\n    tag_261:\n        /* \"#utility.yul\":14944:14953   */\n      0x4578636565647300000000000000000000000000000000000000000000000000\n        /* \"#utility.yul\":14940:14941   */\n      0x00\n        /* \"#utility.yul\":14932:14938   */\n      dup3\n        /* \"#utility.yul\":14928:14942   */\n      add\n        /* \"#utility.yul\":14921:14954   */\n      mstore\n        /* \"#utility.yul\":14804:14961   */\n      pop\n      jump\t// out\n        /* \"#utility.yul\":14967:15332   */\n    tag_262:\n        /* \"#utility.yul\":15109:15112   */\n      0x00\n        /* \"#utility.yul\":15130:15196   */\n      tag_397\n        /* \"#utility.yul\":15194:15195   */\n      0x07\n        /* \"#utility.yul\":15189:15192   */\n      dup4\n        /* \"#utility.yul\":15130:15196   */\n      tag_244\n      jump\t// in\n    tag_397:\n        /* \"#utility.yul\":15123:15196   */\n      swap2\n      pop\n        /* \"#utility.yul\":15205:15298   */\n      tag_398\n        /* \"#utility.yul\":15294:15297   */\n      dup3\n        /* \"#utility.yul\":15205:15298   */\n      tag_261\n      jump\t// in\n    tag_398:\n        /* \"#utility.yul\":15323:15325   */\n      0x20\n        /* \"#utility.yul\":15318:15321   */\n      dup3\n        /* \"#utility.yul\":15314:15326   */\n      add\n        /* \"#utility.yul\":15307:15326   */\n      swap1\n      pop\n        /* \"#utility.yul\":14967:15332   */\n      swap2\n      swap1\n      pop\n      jump\t// out\n        /* \"#utility.yul\":15338:15757   */\n    tag_148:\n        /* \"#utility.yul\":15504:15508   */\n      0x00\n        /* \"#utility.yul\":15542:15544   */\n      0x20\n        /* \"#utility.yul\":15531:15540   */\n      dup3\n        /* \"#utility.yul\":15527:15545   */\n      add\n        /* \"#utility.yul\":15519:15545   */\n      swap1\n      pop\n        /* \"#utility.yul\":15591:15600   */\n      dup2\n        /* \"#utility.yul\":15585:15589   */\n      dup2\n        /* \"#utility.yul\":15581:15601   */\n      sub\n        /* \"#utility.yul\":15577:15578   */\n      0x00\n        /* \"#utility.yul\":15566:15575   */\n      dup4\n        /* \"#utility.yul\":15562:15579   */\n      add\n        /* \"#utility.yul\":15555:15602   */\n      mstore\n        /* \"#utility.yul\":15619:15750   */\n      tag_400\n        /* \"#utility.yul\":15745:15749   */\n      dup2\n        /* \"#utility.yul\":15619:15750   */\n      tag_262\n      jump\t// in\n    tag_400:\n        /* \"#utility.yul\":15611:15750   */\n      swap1\n      pop\n        /* \"#utility.yul\":15338:15757   */\n      swap2\n      swap1\n      pop\n      jump\t// out\n        /* \"#utility.yul\":15763:15921   */\n    tag_263:\n        /* \"#utility.yul\":15903:15913   */\n      0x4e6f74206f766572000000000000000000000000000000000000000000000000\n        /* \"#utility.yul\":15899:15900   */\n      0x00\n        /* \"#utility.yul\":15891:15897   */\n      dup3\n        /* \"#utility.yul\":15887:15901   */\n      add\n        /* \"#utility.yul\":15880:15914   */\n      mstore\n        /* \"#utility.yul\":15763:15921   */\n      pop\n      jump\t// out\n        /* \"#utility.yul\":15927:16292   */\n    tag_264:\n        /* \"#utility.yul\":16069:16072   */\n      0x00\n        /* \"#utility.yul\":16090:16156   */\n      tag_403\n        /* \"#utility.yul\":16154:16155   */\n      0x08\n        /* \"#utility.yul\":16149:16152   */\n      dup4\n        /* \"#utility.yul\":16090:16156   */\n      tag_244\n      jump\t// in\n    tag_403:\n        /* \"#utility.yul\":16083:16156   */\n      swap2\n      pop\n        /* \"#utility.yul\":16165:16258   */\n      tag_404\n        /* \"#utility.yul\":16254:16257   */\n      dup3\n        /* \"#utility.yul\":16165:16258   */\n      tag_263\n      jump\t// in\n    tag_404:\n        /* \"#utility.yul\":16283:16285   */\n      0x20\n        /* \"#utility.yul\":16278:16281   */\n      dup3\n        /* \"#utility.yul\":16274:16286   */\n      add\n        /* \"#utility.yul\":16267:16286   */\n      swap1\n      pop\n        /* \"#utility.yul\":15927:16292   */\n      swap2\n      swap1\n      pop\n      jump\t// out\n        /* \"#utility.yul\":16298:16717   */\n    tag_156:\n        /* \"#utility.yul\":16464:16468   */\n      0x00\n        /* \"#utility.yul\":16502:16504   */\n      0x20\n        /* \"#utility.yul\":16491:16500   */\n      dup3\n        /* \"#utility.yul\":16487:16505   */\n      add\n        /* \"#utility.yul\":16479:16505   */\n      swap1\n      pop\n        /* \"#utility.yul\":16551:16560   */\n      dup2\n        /* \"#utility.yul\":16545:16549   */\n      dup2\n        /* \"#utility.yul\":16541:16561   */\n      sub\n        /* \"#utility.yul\":16537:16538   */\n      0x00\n        /* \"#utility.yul\":16526:16535   */\n      dup4\n        /* \"#utility.yul\":16522:16539   */\n      add\n        /* \"#utility.yul\":16515:16562   */\n      mstore\n        /* \"#utility.yul\":16579:16710   */\n      tag_406\n        /* \"#utility.yul\":16705:16709   */\n      dup2\n        /* \"#utility.yul\":16579:16710   */\n      tag_264\n      jump\t// in\n    tag_406:\n        /* \"#utility.yul\":16571:16710   */\n      swap1\n      pop\n        /* \"#utility.yul\":16298:16717   */\n      swap2\n      swap1\n      pop\n      jump\t// out\n        /* \"#utility.yul\":16723:16882   */\n    tag_265:\n        /* \"#utility.yul\":16863:16874   */\n      0x4e6f74206f776e65720000000000000000000000000000000000000000000000\n        /* \"#utility.yul\":16859:16860   */\n      0x00\n        /* \"#utility.yul\":16851:16857   */\n      dup3\n        /* \"#utility.yul\":16847:16861   */\n      add\n        /* \"#utility.yul\":16840:16875   */\n      mstore\n        /* \"#utility.yul\":16723:16882   */\n      pop\n      jump\t// out\n        /* \"#utility.yul\":16888:17253   */\n    tag_266:\n        /* \"#utility.yul\":17030:17033   */\n      0x00\n        /* \"#utility.yul\":17051:17117   */\n      tag_409\n        /* \"#utility.yul\":17115:17116   */\n      0x09\n        /* \"#utility.yul\":17110:17113   */\n      dup4\n        /* \"#utility.yul\":17051:17117   */\n      tag_244\n      jump\t// in\n    tag_409:\n        /* \"#utility.yul\":17044:17117   */\n      swap2\n      pop\n        /* \"#utility.yul\":17126:17219   */\n      tag_410\n        /* \"#utility.yul\":17215:17218   */\n      dup3\n        /* \"#utility.yul\":17126:17219   */\n      tag_265\n      jump\t// in\n    tag_410:\n        /* \"#utility.yul\":17244:17246   */\n      0x20\n        /* \"#utility.yul\":17239:17242   */\n      dup3\n        /* \"#utility.yul\":17235:17247   */\n      add\n        /* \"#utility.yul\":17228:17247   */\n      swap1\n      pop\n        /* \"#utility.yul\":16888:17253   */\n      swap2\n      swap1\n      pop\n      jump\t// out\n        /* \"#utility.yul\":17259:17678   */\n    tag_164:\n        /* \"#utility.yul\":17425:17429   */\n      0x00\n        /* \"#utility.yul\":17463:17465   */\n      0x20\n        /* \"#utility.yul\":17452:17461   */\n      dup3\n        /* \"#utility.yul\":17448:17466   */\n      add\n        /* \"#utility.yul\":17440:17466   */\n      swap1\n      pop\n        /* \"#utility.yul\":17512:17521   */\n      dup2\n        /* \"#utility.yul\":17506:17510   */\n      dup2\n        /* \"#utility.yul\":17502:17522   */\n      sub\n        /* \"#utility.yul\":17498:17499   */\n      0x00\n        /* \"#utility.yul\":17487:17496   */\n      dup4\n        /* \"#utility.yul\":17483:17500   */\n      add\n        /* \"#utility.yul\":17476:17523   */\n      mstore\n        /* \"#utility.yul\":17540:17671   */\n      tag_412\n        /* \"#utility.yul\":17666:17670   */\n      dup2\n        /* \"#utility.yul\":17540:17671   */\n      tag_266\n      jump\t// in\n    tag_412:\n        /* \"#utility.yul\":17532:17671   */\n      swap1\n      pop\n        /* \"#utility.yul\":17259:17678   */\n      swap2\n      swap1\n      pop\n      jump\t// out\n        /* \"#utility.yul\":17684:17875   */\n    tag_195:\n        /* \"#utility.yul\":17724:17727   */\n      0x00\n        /* \"#utility.yul\":17743:17763   */\n      tag_414\n        /* \"#utility.yul\":17761:17762   */\n      dup3\n        /* \"#utility.yul\":17743:17763   */\n      tag_225\n      jump\t// in\n    tag_414:\n        /* \"#utility.yul\":17738:17763   */\n      swap2\n      pop\n        /* \"#utility.yul\":17777:17797   */\n      tag_415\n        /* \"#utility.yul\":17795:17796   */\n      dup4\n        /* \"#utility.yul\":17777:17797   */\n      tag_225\n      jump\t// in\n    tag_415:\n        /* \"#utility.yul\":17772:17797   */\n      swap3\n      pop\n        /* \"#utility.yul\":17820:17821   */\n      dup3\n        /* \"#utility.yul\":17817:17818   */\n      dup3\n        /* \"#utility.yul\":17813:17822   */\n      add\n        /* \"#utility.yul\":17806:17822   */\n      swap1\n      pop\n        /* \"#utility.yul\":17841:17844   */\n      dup1\n        /* \"#utility.yul\":17838:17839   */\n      dup3\n        /* \"#utility.yul\":17835:17845   */\n      gt\n        /* \"#utility.yul\":17832:17868   */\n      iszero\n      tag_416\n      jumpi\n        /* \"#utility.yul\":17848:17866   */\n      tag_417\n      tag_249\n      jump\t// in\n    tag_417:\n        /* \"#utility.yul\":17832:17868   */\n    tag_416:\n        /* \"#utility.yul\":17684:17875   */\n      swap3\n      swap2\n      pop\n      pop\n      jump\t// out\n        /* \"#utility.yul\":17881:18038   */\n    tag_267:\n        /* \"#utility.yul\":18021:18030   */\n      0x546f6f206c6f7700000000000000000000000000000000000000000000000000\n        /* \"#utility.yul\":18017:18018   */\n      0x00\n        /* \"#utility.yul\":18009:18015   */\n      dup3\n        /* \"#utility.yul\":18005:18019   */\n      add\n        /* \"#utility.yul\":17998:18031   */\n      mstore\n        /* \"#utility.yul\":17881:18038   */\n      pop\n      jump\t// out\n        /* \"#utility.yul\":18044:18409   */\n    tag_268:\n        /* \"#utility.yul\":18186:18189   */\n      0x00\n        /* \"#utility.yul\":18207:18273   */\n      tag_420\n        /* \"#utility.yul\":18271:18272   */\n      0x07\n        /* \"#utility.yul\":18266:18269   */\n      dup4\n        /* \"#utility.yul\":18207:18273   */\n      tag_244\n      jump\t// in\n    tag_420:\n        /* \"#utility.yul\":18200:18273   */\n      swap2\n      pop\n        /* \"#utility.yul\":18282:18375   */\n      tag_421\n        /* \"#utility.yul\":18371:18374   */\n      dup3\n        /* \"#utility.yul\":18282:18375   */\n      tag_267\n      jump\t// in\n    tag_421:\n        /* \"#utility.yul\":18400:18402   */\n      0x20\n        /* \"#utility.yul\":18395:18398   */\n      dup3\n        /* \"#utility.yul\":18391:18403   */\n      add\n        /* \"#utility.yul\":18384:18403   */\n      swap1\n      pop\n        /* \"#utility.yul\":18044:18409   */\n      swap2\n      swap1\n      pop\n      jump\t// out\n        /* \"#utility.yul\":18415:18834   */\n    tag_199:\n        /* \"#utility.yul\":18581:18585   */\n      0x00\n        /* \"#utility.yul\":18619:18621   */\n      0x20\n        /* \"#utility.yul\":18608:18617   */\n      dup3\n        /* \"#utility.yul\":18604:18622   */\n      add\n        /* \"#utility.yul\":18596:18622   */\n      swap1\n      pop\n        /* \"#utility.yul\":18668:18677   */\n      dup2\n        /* \"#utility.yul\":18662:18666   */\n      dup2\n        /* \"#utility.yul\":18658:18678   */\n      sub\n        /* \"#utility.yul\":18654:18655   */\n      0x00\n        /* \"#utility.yul\":18643:18652   */\n      dup4\n        /* \"#utility.yul\":18639:18656   */\n      add\n        /* \"#utility.yul\":18632:18679   */\n      mstore\n        /* \"#utility.yul\":18696:18827   */\n      tag_423\n        /* \"#utility.yul\":18822:18826   */\n      dup2\n        /* \"#utility.yul\":18696:18827   */\n      tag_268\n      jump\t// in\n    tag_423:\n        /* \"#utility.yul\":18688:18827   */\n      swap1\n      pop\n        /* \"#utility.yul\":18415:18834   */\n      swap2\n      swap1\n      pop\n      jump\t// out\n        /* \"#utility.yul\":18840:19172   */\n    tag_211:\n        /* \"#utility.yul\":18961:18965   */\n      0x00\n        /* \"#utility.yul\":18999:19001   */\n      0x40\n        /* \"#utility.yul\":18988:18997   */\n      dup3\n        /* \"#utility.yul\":18984:19002   */\n      add\n        /* \"#utility.yul\":18976:19002   */\n      swap1\n      pop\n        /* \"#utility.yul\":19012:19083   */\n      tag_425\n        /* \"#utility.yul\":19080:19081   */\n      0x00\n        /* \"#utility.yul\":19069:19078   */\n      dup4\n        /* \"#utility.yul\":19065:19082   */\n      add\n        /* \"#utility.yul\":19056:19062   */\n      dup6\n        /* \"#utility.yul\":19012:19083   */\n      tag_231\n      jump\t// in\n    tag_425:\n        /* \"#utility.yul\":19093:19165   */\n      tag_426\n        /* \"#utility.yul\":19161:19163   */\n      0x20\n        /* \"#utility.yul\":19150:19159   */\n      dup4\n        /* \"#utility.yul\":19146:19164   */\n      add\n        /* \"#utility.yul\":19137:19143   */\n      dup5\n        /* \"#utility.yul\":19093:19165   */\n      tag_231\n      jump\t// in\n    tag_426:\n        /* \"#utility.yul\":18840:19172   */\n      swap4\n      swap3\n      pop\n      pop\n      pop\n      jump\t// out\n\n    auxdata: 0xa2646970667358221220b31effe6ecf28b13f874f435b62fd62e63dc83a41fdd8f72240c70c3d228279664736f6c634300081e0033\n}\n",
				"bytecode": {
					"linkReferences": {},
					"object": "60c060405234801561000f575f5ffd5b50604051611d32380380611d3283398181016040528101906100319190610100565b610258811015610076576040517f08c379a000000000000000000000000000000000000000000000000000000000815260040161006d90610185565b60405180910390fd5b3373ffffffffffffffffffffffffffffffffffffffff1660808173ffffffffffffffffffffffffffffffffffffffff16815250508060a0818152505080426100be91906101d0565b5f8190555050610203565b5f5ffd5b5f819050919050565b6100df816100cd565b81146100e9575f5ffd5b50565b5f815190506100fa816100d6565b92915050565b5f60208284031215610115576101146100c9565b5b5f610122848285016100ec565b91505092915050565b5f82825260208201905092915050565b7f53686f7274206475726174696f6e0000000000000000000000000000000000005f82015250565b5f61016f600e8361012b565b915061017a8261013b565b602082019050919050565b5f6020820190508181035f83015261019c81610163565b9050919050565b7f4e487b71000000000000000000000000000000000000000000000000000000005f52601160045260245ffd5b5f6101da826100cd565b91506101e5836100cd565b92508282019050808211156101fd576101fc6101a3565b5b92915050565b60805160a051611b006102325f395f610aa501525f81816104d601528181610a570152610acf0152611b005ff3fe60806040526004361061010c575f3560e01c806391f9015711610094578063e0dd89ec11610063578063e0dd89ec14610324578063e11747171461033a578063ecde973d14610364578063ecfc7ecc146103a2578063efb98bcf146103ac57610113565b806391f901571461027c578063b404e001146102a6578063b815a357146102d0578063d57bde79146102fa57610113565b80634b449cba116100db5780634b449cba146101aa5780635dd624df146101d45780637e50bb83146101fe57806386433374146102285780638da5cb5b1461025257610113565b8063093d2769146101175780631211540c1461012d57806322bb26f7146101555780634a874bb91461018057610113565b3661011357005b5f5ffd5b348015610122575f5ffd5b5061012b6103d6565b005b348015610138575f5ffd5b50610153600480360381019061014e919061124e565b6105ad565b005b348015610160575f5ffd5b506101696108e0565b6040516101779291906112c7565b60405180910390f35b34801561018b575f5ffd5b5061019461095e565b6040516101a191906112ee565b60405180910390f35b3480156101b5575f5ffd5b506101be610963565b6040516101cb91906112ee565b60405180910390f35b3480156101df575f5ffd5b506101e8610968565b6040516101f591906112ee565b60405180910390f35b348015610209575f5ffd5b5061021261096e565b60405161021f9190611427565b60405180910390f35b348015610233575f5ffd5b5061023c610a42565b6040516102499190611456565b60405180910390f35b34801561025d575f5ffd5b50610266610a55565b604051610273919061146f565b60405180910390f35b348015610287575f5ffd5b50610290610a79565b60405161029d919061146f565b60405180910390f35b3480156102b1575f5ffd5b506102ba610a9e565b6040516102c791906112ee565b60405180910390f35b3480156102db575f5ffd5b506102e4610aa3565b6040516102f191906112ee565b60405180910390f35b348015610305575f5ffd5b5061030e610ac7565b60405161031b91906112ee565b60405180910390f35b34801561032f575f5ffd5b50610338610acd565b005b348015610345575f5ffd5b5061034e610db0565b60405161035b91906112ee565b60405180910390f35b34801561036f575f5ffd5b5061038a6004803603810190610385919061124e565b610db6565b60405161039993929190611488565b60405180910390f35b6103aa610e16565b005b3480156103b7575f5ffd5b506103c06111b6565b6040516103cd91906112ee565b60405180910390f35b5f544211806103f15750600260149054906101000a900460ff165b610430576040517f08c379a000000000000000000000000000000000000000000000000000000000815260040161042790611517565b60405180910390fd5b600260149054906101000a900460ff1615610480576040517f08c379a00000000000000000000000000000000000000000000000000000000081526004016104779061157f565b60405180910390fd5b6001600260146101000a81548160ff0219169083151502179055505f60015490505f81111561053b575f60646002836104b991906115ca565b6104c39190611638565b90505f81836104d29190611668565b90507f000000000000000000000000000000000000000000000000000000000000000073ffffffffffffffffffffffffffffffffffffffff166108fc8290811502906040515f60405180830381858888f19350505050158015610537573d5f5f3e3d5ffd5b5050505b60025f9054906101000a900473ffffffffffffffffffffffffffffffffffffffff1673ffffffffffffffffffffffffffffffffffffffff167fb76f1dfdec2aecd1c5f01191cc10a8bad0dd5c2280438ccecc3fcd170533b42c826040516105a291906112ee565b60405180910390a250565b5f544211156105f1576040517f08c379a00000000000000000000000000000000000000000000000000000000081526004016105e8906116e5565b60405180910390fd5b600260149054906101000a900460ff1615610641576040517f08c379a00000000000000000000000000000000000000000000000000000000081526004016106389061174d565b60405180910390fd5b5f8111610683576040517f08c379a000000000000000000000000000000000000000000000000000000000815260040161067a906117b5565b60405180910390fd5b5f60045f3373ffffffffffffffffffffffffffffffffffffffff1673ffffffffffffffffffffffffffffffffffffffff1681526020019081526020015f205490505f8111610706576040517f08c379a00000000000000000000000000000000000000000000000000000000081526004016106fd9061181d565b60405180910390fd5b5f60036001836107169190611668565b815481106107275761072661183b565b5b905f5260205f20906003020190505f60025f9054906101000a900473ffffffffffffffffffffffffffffffffffffffff1673ffffffffffffffffffffffffffffffffffffffff163373ffffffffffffffffffffffffffffffffffffffff1614610790575f610794565b6001545b9050808260010154116107dc576040517f08c379a00000000000000000000000000000000000000000000000000000000081526004016107d3906118b2565b60405180910390fd5b808483600101546107ed9190611668565b101561082e576040517f08c379a00000000000000000000000000000000000000000000000000000000081526004016108259061191a565b60405180910390fd5b83826001015f8282546108419190611668565b925050819055503373ffffffffffffffffffffffffffffffffffffffff166108fc8590811502906040515f60405180830381858888f1935050505015801561088b573d5f5f3e3d5ffd5b503373ffffffffffffffffffffffffffffffffffffffff167f8468f8fa62fc679cf8165eab7662a1fa977705b501dd787e9ec07884885425f1856040516108d291906112ee565b60405180910390a250505050565b5f5f600260149054906101000a900460ff16610931576040517f08c379a000000000000000000000000000000000000000000000000000000000815260040161092890611982565b60405180910390fd5b60025f9054906101000a900473ffffffffffffffffffffffffffffffffffffffff16600154915091509091565b600581565b5f5481565b61025881565b60606003805480602002602001604051908101604052809291908181526020015f905b82821015610a39578382905f5260205f2090600302016040518060600160405290815f82015f9054906101000a900473ffffffffffffffffffffffffffffffffffffffff1673ffffffffffffffffffffffffffffffffffffffff1673ffffffffffffffffffffffffffffffffffffffff16815260200160018201548152602001600282015f9054906101000a900460ff16151515158152505081526020019060010190610991565b50505050905090565b600260149054906101000a900460ff1681565b7f000000000000000000000000000000000000000000000000000000000000000081565b60025f9054906101000a900473ffffffffffffffffffffffffffffffffffffffff1681565b600281565b7f000000000000000000000000000000000000000000000000000000000000000081565b60015481565b7f000000000000000000000000000000000000000000000000000000000000000073ffffffffffffffffffffffffffffffffffffffff163373ffffffffffffffffffffffffffffffffffffffff1614610b5b576040517f08c379a0000000000000000000000000000000000000000000000000000000008152600401610b52906119ea565b60405180910390fd5b5f54421180610b765750600260149054906101000a900460ff165b610bb5576040517f08c379a0000000000000000000000000000000000000000000000000000000008152600401610bac90611517565b60405180910390fd5b5f5f90505b600380549050811015610dad575f60038281548110610bdc57610bdb61183b565b5b905f5260205f2090600302019050806002015f9054906101000a900460ff16158015610c77575060025f9054906101000a900473ffffffffffffffffffffffffffffffffffffffff1673ffffffffffffffffffffffffffffffffffffffff16815f015f9054906101000a900473ffffffffffffffffffffffffffffffffffffffff1673ffffffffffffffffffffffffffffffffffffffff1614155b15610d9f576001816002015f6101000a81548160ff0219169083151502179055505f606460028360010154610cac91906115ca565b610cb69190611638565b8260010154610cc59190611668565b9050815f015f9054906101000a900473ffffffffffffffffffffffffffffffffffffffff1673ffffffffffffffffffffffffffffffffffffffff166108fc8290811502906040515f60405180830381858888f19350505050158015610d2c573d5f5f3e3d5ffd5b50815f015f9054906101000a900473ffffffffffffffffffffffffffffffffffffffff1673ffffffffffffffffffffffffffffffffffffffff167f779c86999fb727ca861d0288aa11ed4104347721c571e4f0da5172afb607d88582604051610d9591906112ee565b60405180910390a2505b508080600101915050610bba565b50565b61025881565b60038181548110610dc5575f80fd5b905f5260205f2090600302015f91509050805f015f9054906101000a900473ffffffffffffffffffffffffffffffffffffffff1690806001015490806002015f9054906101000a900460ff16905083565b5f54421115610e5a576040517f08c379a0000000000000000000000000000000000000000000000000000000008152600401610e51906116e5565b60405180910390fd5b600260149054906101000a900460ff1615610eaa576040517f08c379a0000000000000000000000000000000000000000000000000000000008152600401610ea19061174d565b60405180910390fd5b5f60015490505f6064600583610ec091906115ca565b610eca9190611638565b82610ed59190611a08565b90505f8203610ee2575f90505b803411610f24576040517f08c379a0000000000000000000000000000000000000000000000000000000008152600401610f1b90611a85565b60405180910390fd5b5f60045f3373ffffffffffffffffffffffffffffffffffffffff1673ffffffffffffffffffffffffffffffffffffffff1681526020019081526020015f205490505f811115610fbc575f6003600183610f7d9190611668565b81548110610f8e57610f8d61183b565b5b905f5260205f209060030201905034816001015f828254610faf9190611a08565b92505081905550506110ce565b600360405180606001604052803373ffffffffffffffffffffffffffffffffffffffff1681526020013481526020015f1515815250908060018154018082558091505060019003905f5260205f2090600302015f909190919091505f820151815f015f6101000a81548173ffffffffffffffffffffffffffffffffffffffff021916908373ffffffffffffffffffffffffffffffffffffffff160217905550602082015181600101556040820151816002015f6101000a81548160ff021916908315150217905550505060038054905060045f3373ffffffffffffffffffffffffffffffffffffffff1673ffffffffffffffffffffffffffffffffffffffff1681526020019081526020015f20819055505b346001819055503360025f6101000a81548173ffffffffffffffffffffffffffffffffffffffff021916908373ffffffffffffffffffffffffffffffffffffffff1602179055505f61111e6111d8565b90503373ffffffffffffffffffffffffffffffffffffffff167f87f5b2fe112bf269d30fb8ca9dc0bde0afd0cc39258e13fafd75fe794795bf0e345f54604051611169929190611aa3565b60405180910390a280156111b0577fc2b459809119087ca9d2bc10dea53a51b7d848b1a11075db037bdca58292c3e85f546040516111a791906112ee565b60405180910390a15b50505050565b5f5f5442106111c5575f6111d3565b425f546111d29190611668565b5b905090565b5f610258425f546111e99190611668565b11611210576102585f5f8282546112009190611a08565b9250508190555060019050611214565b5f90505b90565b5f5ffd5b5f819050919050565b61122d8161121b565b8114611237575f5ffd5b50565b5f8135905061124881611224565b92915050565b5f6020828403121561126357611262611217565b5b5f6112708482850161123a565b91505092915050565b5f73ffffffffffffffffffffffffffffffffffffffff82169050919050565b5f6112a282611279565b9050919050565b6112b281611298565b82525050565b6112c18161121b565b82525050565b5f6040820190506112da5f8301856112a9565b6112e760208301846112b8565b9392505050565b5f6020820190506113015f8301846112b8565b92915050565b5f81519050919050565b5f82825260208201905092915050565b5f819050602082019050919050565b61133981611298565b82525050565b6113488161121b565b82525050565b5f8115159050919050565b6113628161134e565b82525050565b606082015f82015161137c5f850182611330565b50602082015161138f602085018261133f565b5060408201516113a26040850182611359565b50505050565b5f6113b38383611368565b60608301905092915050565b5f602082019050919050565b5f6113d582611307565b6113df8185611311565b93506113ea83611321565b805f5b8381101561141a57815161140188826113a8565b975061140c836113bf565b9250506001810190506113ed565b5085935050505092915050565b5f6020820190508181035f83015261143f81846113cb565b905092915050565b6114508161134e565b82525050565b5f6020820190506114695f830184611447565b92915050565b5f6020820190506114825f8301846112a9565b92915050565b5f60608201905061149b5f8301866112a9565b6114a860208301856112b8565b6114b56040830184611447565b949350505050565b5f82825260208201905092915050565b7f5374696c6c2061637469766500000000000000000000000000000000000000005f82015250565b5f611501600c836114bd565b915061150c826114cd565b602082019050919050565b5f6020820190508181035f83015261152e816114f5565b9050919050565b7f416c726561647920646f6e6500000000000000000000000000000000000000005f82015250565b5f611569600c836114bd565b915061157482611535565b602082019050919050565b5f6020820190508181035f8301526115968161155d565b9050919050565b7f4e487b71000000000000000000000000000000000000000000000000000000005f52601160045260245ffd5b5f6115d48261121b565b91506115df8361121b565b92508282026115ed8161121b565b915082820484148315176116045761160361159d565b5b5092915050565b7f4e487b71000000000000000000000000000000000000000000000000000000005f52601260045260245ffd5b5f6116428261121b565b915061164d8361121b565b92508261165d5761165c61160b565b5b828204905092915050565b5f6116728261121b565b915061167d8361121b565b92508282039050818111156116955761169461159d565b5b92915050565b7f456e6465640000000000000000000000000000000000000000000000000000005f82015250565b5f6116cf6005836114bd565b91506116da8261169b565b602082019050919050565b5f6020820190508181035f8301526116fc816116c3565b9050919050565b7f4d616e75616c6c7920656e6465640000000000000000000000000000000000005f82015250565b5f611737600e836114bd565b915061174282611703565b602082019050919050565b5f6020820190508181035f8301526117648161172b565b9050919050565b7f5a65726f20616d740000000000000000000000000000000000000000000000005f82015250565b5f61179f6008836114bd565b91506117aa8261176b565b602082019050919050565b5f6020820190508181035f8301526117cc81611793565b9050919050565b7f4e6f2062696473000000000000000000000000000000000000000000000000005f82015250565b5f6118076007836114bd565b9150611812826117d3565b602082019050919050565b5f6020820190508181035f830152611834816117fb565b9050919050565b7f4e487b71000000000000000000000000000000000000000000000000000000005f52603260045260245ffd5b7f4e6f2065786365737300000000000000000000000000000000000000000000005f82015250565b5f61189c6009836114bd565b91506118a782611868565b602082019050919050565b5f6020820190508181035f8301526118c981611890565b9050919050565b7f45786365656473000000000000000000000000000000000000000000000000005f82015250565b5f6119046007836114bd565b915061190f826118d0565b602082019050919050565b5f6020820190508181035f830152611931816118f8565b9050919050565b7f4e6f74206f7665720000000000000000000000000000000000000000000000005f82015250565b5f61196c6008836114bd565b915061197782611938565b602082019050919050565b5f6020820190508181035f83015261199981611960565b9050919050565b7f4e6f74206f776e657200000000000000000000000000000000000000000000005f82015250565b5f6119d46009836114bd565b91506119df826119a0565b602082019050919050565b5f6020820190508181035f830152611a01816119c8565b9050919050565b5f611a128261121b565b9150611a1d8361121b565b9250828201905080821115611a3557611a3461159d565b5b92915050565b7f546f6f206c6f77000000000000000000000000000000000000000000000000005f82015250565b5f611a6f6007836114bd565b9150611a7a82611a3b565b602082019050919050565b5f6020820190508181035f830152611a9c81611a63565b9050919050565b5f604082019050611ab65f8301856112b8565b611ac360208301846112b8565b939250505056fea2646970667358221220b31effe6ecf28b13f874f435b62fd62e63dc83a41fdd8f72240c70c3d228279664736f6c634300081e0033",
					"opcodes": "PUSH1 0xC0 PUSH1 0x40 MSTORE CALLVALUE DUP1 ISZERO PUSH2 0xF JUMPI PUSH0 PUSH0 REVERT JUMPDEST POP PUSH1 0x40 MLOAD PUSH2 0x1D32 CODESIZE SUB DUP1 PUSH2 0x1D32 DUP4 CODECOPY DUP2 DUP2 ADD PUSH1 0x40 MSTORE DUP2 ADD SWAP1 PUSH2 0x31 SWAP2 SWAP1 PUSH2 0x100 JUMP JUMPDEST PUSH2 0x258 DUP2 LT ISZERO PUSH2 0x76 JUMPI PUSH1 0x40 MLOAD PUSH32 0x8C379A000000000000000000000000000000000000000000000000000000000 DUP2 MSTORE PUSH1 0x4 ADD PUSH2 0x6D SWAP1 PUSH2 0x185 JUMP JUMPDEST PUSH1 0x40 MLOAD DUP1 SWAP2 SUB SWAP1 REVERT JUMPDEST CALLER PUSH20 0xFFFFFFFFFFFFFFFFFFFFFFFFFFFFFFFFFFFFFFFF AND PUSH1 0x80 DUP2 PUSH20 0xFFFFFFFFFFFFFFFFFFFFFFFFFFFFFFFFFFFFFFFF AND DUP2 MSTORE POP POP DUP1 PUSH1 0xA0 DUP2 DUP2 MSTORE POP POP DUP1 TIMESTAMP PUSH2 0xBE SWAP2 SWAP1 PUSH2 0x1D0 JUMP JUMPDEST PUSH0 DUP2 SWAP1 SSTORE POP POP PUSH2 0x203 JUMP JUMPDEST PUSH0 PUSH0 REVERT JUMPDEST PUSH0 DUP2 SWAP1 POP SWAP2 SWAP1 POP JUMP JUMPDEST PUSH2 0xDF DUP2 PUSH2 0xCD JUMP JUMPDEST DUP2 EQ PUSH2 0xE9 JUMPI PUSH0 PUSH0 REVERT JUMPDEST POP JUMP JUMPDEST PUSH0 DUP2 MLOAD SWAP1 POP PUSH2 0xFA DUP2 PUSH2 0xD6 JUMP JUMPDEST SWAP3 SWAP2 POP POP JUMP JUMPDEST PUSH0 PUSH1 0x20 DUP3 DUP5 SUB SLT ISZERO PUSH2 0x115 JUMPI PUSH2 0x114 PUSH2 0xC9 JUMP JUMPDEST JUMPDEST PUSH0 PUSH2 0x122 DUP5 DUP3 DUP6 ADD PUSH2 0xEC JUMP JUMPDEST SWAP2 POP POP SWAP3 SWAP2 POP POP JUMP JUMPDEST PUSH0 DUP3 DUP3 MSTORE PUSH1 0x20 DUP3 ADD SWAP1 POP SWAP3 SWAP2 POP POP JUMP JUMPDEST PUSH32 0x53686F7274206475726174696F6E000000000000000000000000000000000000 PUSH0 DUP3 ADD MSTORE POP JUMP JUMPDEST PUSH0 PUSH2 0x16F PUSH1 0xE DUP4 PUSH2 0x12B JUMP JUMPDEST SWAP2 POP PUSH2 0x17A DUP3 PUSH2 0x13B JUMP JUMPDEST PUSH1 0x20 DUP3 ADD SWAP1 POP SWAP2 SWAP1 POP JUMP JUMPDEST PUSH0 PUSH1 0x20 DUP3 ADD SWAP1 POP DUP2 DUP2 SUB PUSH0 DUP4 ADD MSTORE PUSH2 0x19C DUP2 PUSH2 0x163 JUMP JUMPDEST SWAP1 POP SWAP2 SWAP1 POP JUMP JUMPDEST PUSH32 0x4E487B7100000000000000000000000000000000000000000000000000000000 PUSH0 MSTORE PUSH1 0x11 PUSH1 0x4 MSTORE PUSH1 0x24 PUSH0 REVERT JUMPDEST PUSH0 PUSH2 0x1DA DUP3 PUSH2 0xCD JUMP JUMPDEST SWAP2 POP PUSH2 0x1E5 DUP4 PUSH2 0xCD JUMP JUMPDEST SWAP3 POP DUP3 DUP3 ADD SWAP1 POP DUP1 DUP3 GT ISZERO PUSH2 0x1FD JUMPI PUSH2 0x1FC PUSH2 0x1A3 JUMP JUMPDEST JUMPDEST SWAP3 SWAP2 POP POP JUMP JUMPDEST PUSH1 0x80 MLOAD PUSH1 0xA0 MLOAD PUSH2 0x1B00 PUSH2 0x232 PUSH0 CODECOPY PUSH0 PUSH2 0xAA5 ADD MSTORE PUSH0 DUP2 DUP2 PUSH2 0x4D6 ADD MSTORE DUP2 DUP2 PUSH2 0xA57 ADD MSTORE PUSH2 0xACF ADD MSTORE PUSH2 0x1B00 PUSH0 RETURN INVALID PUSH1 0x80 PUSH1 0x40 MSTORE PUSH1 0x4 CALLDATASIZE LT PUSH2 0x10C JUMPI PUSH0 CALLDATALOAD PUSH1 0xE0 SHR DUP1 PUSH4 0x91F90157 GT PUSH2 0x94 JUMPI DUP1 PUSH4 0xE0DD89EC GT PUSH2 0x63 JUMPI DUP1 PUSH4 0xE0DD89EC EQ PUSH2 0x324 JUMPI DUP1 PUSH4 0xE1174717 EQ PUSH2 0x33A JUMPI DUP1 PUSH4 0xECDE973D EQ PUSH2 0x364 JUMPI DUP1 PUSH4 0xECFC7ECC EQ PUSH2 0x3A2 JUMPI DUP1 PUSH4 0xEFB98BCF EQ PUSH2 0x3AC JUMPI PUSH2 0x113 JUMP JUMPDEST DUP1 PUSH4 0x91F90157 EQ PUSH2 0x27C JUMPI DUP1 PUSH4 0xB404E001 EQ PUSH2 0x2A6 JUMPI DUP1 PUSH4 0xB815A357 EQ PUSH2 0x2D0 JUMPI DUP1 PUSH4 0xD57BDE79 EQ PUSH2 0x2FA JUMPI PUSH2 0x113 JUMP JUMPDEST DUP1 PUSH4 0x4B449CBA GT PUSH2 0xDB JUMPI DUP1 PUSH4 0x4B449CBA EQ PUSH2 0x1AA JUMPI DUP1 PUSH4 0x5DD624DF EQ PUSH2 0x1D4 JUMPI DUP1 PUSH4 0x7E50BB83 EQ PUSH2 0x1FE JUMPI DUP1 PUSH4 0x86433374 EQ PUSH2 0x228 JUMPI DUP1 PUSH4 0x8DA5CB5B EQ PUSH2 0x252 JUMPI PUSH2 0x113 JUMP JUMPDEST DUP1 PUSH4 0x93D2769 EQ PUSH2 0x117 JUMPI DUP1 PUSH4 0x1211540C EQ PUSH2 0x12D JUMPI DUP1 PUSH4 0x22BB26F7 EQ PUSH2 0x155 JUMPI DUP1 PUSH4 0x4A874BB9 EQ PUSH2 0x180 JUMPI PUSH2 0x113 JUMP JUMPDEST CALLDATASIZE PUSH2 0x113 JUMPI STOP JUMPDEST PUSH0 PUSH0 REVERT JUMPDEST CALLVALUE DUP1 ISZERO PUSH2 0x122 JUMPI PUSH0 PUSH0 REVERT JUMPDEST POP PUSH2 0x12B PUSH2 0x3D6 JUMP JUMPDEST STOP JUMPDEST CALLVALUE DUP1 ISZERO PUSH2 0x138 JUMPI PUSH0 PUSH0 REVERT JUMPDEST POP PUSH2 0x153 PUSH1 0x4 DUP1 CALLDATASIZE SUB DUP2 ADD SWAP1 PUSH2 0x14E SWAP2 SWAP1 PUSH2 0x124E JUMP JUMPDEST PUSH2 0x5AD JUMP JUMPDEST STOP JUMPDEST CALLVALUE DUP1 ISZERO PUSH2 0x160 JUMPI PUSH0 PUSH0 REVERT JUMPDEST POP PUSH2 0x169 PUSH2 0x8E0 JUMP JUMPDEST PUSH1 0x40 MLOAD PUSH2 0x177 SWAP3 SWAP2 SWAP1 PUSH2 0x12C7 JUMP JUMPDEST PUSH1 0x40 MLOAD DUP1 SWAP2 SUB SWAP1 RETURN JUMPDEST CALLVALUE DUP1 ISZERO PUSH2 0x18B JUMPI PUSH0 PUSH0 REVERT JUMPDEST POP PUSH2 0x194 PUSH2 0x95E JUMP JUMPDEST PUSH1 0x40 MLOAD PUSH2 0x1A1 SWAP2 SWAP1 PUSH2 0x12EE JUMP JUMPDEST PUSH1 0x40 MLOAD DUP1 SWAP2 SUB SWAP1 RETURN JUMPDEST CALLVALUE DUP1 ISZERO PUSH2 0x1B5 JUMPI PUSH0 PUSH0 REVERT JUMPDEST POP PUSH2 0x1BE PUSH2 0x963 JUMP JUMPDEST PUSH1 0x40 MLOAD PUSH2 0x1CB SWAP2 SWAP1 PUSH2 0x12EE JUMP JUMPDEST PUSH1 0x40 MLOAD DUP1 SWAP2 SUB SWAP1 RETURN JUMPDEST CALLVALUE DUP1 ISZERO PUSH2 0x1DF JUMPI PUSH0 PUSH0 REVERT JUMPDEST POP PUSH2 0x1E8 PUSH2 0x968 JUMP JUMPDEST PUSH1 0x40 MLOAD PUSH2 0x1F5 SWAP2 SWAP1 PUSH2 0x12EE JUMP JUMPDEST PUSH1 0x40 MLOAD DUP1 SWAP2 SUB SWAP1 RETURN JUMPDEST CALLVALUE DUP1 ISZERO PUSH2 0x209 JUMPI PUSH0 PUSH0 REVERT JUMPDEST POP PUSH2 0x212 PUSH2 0x96E JUMP JUMPDEST PUSH1 0x40 MLOAD PUSH2 0x21F SWAP2 SWAP1 PUSH2 0x1427 JUMP JUMPDEST PUSH1 0x40 MLOAD DUP1 SWAP2 SUB SWAP1 RETURN JUMPDEST CALLVALUE DUP1 ISZERO PUSH2 0x233 JUMPI PUSH0 PUSH0 REVERT JUMPDEST POP PUSH2 0x23C PUSH2 0xA42 JUMP JUMPDEST PUSH1 0x40 MLOAD PUSH2 0x249 SWAP2 SWAP1 PUSH2 0x1456 JUMP JUMPDEST PUSH1 0x40 MLOAD DUP1 SWAP2 SUB SWAP1 RETURN JUMPDEST CALLVALUE DUP1 ISZERO PUSH2 0x25D JUMPI PUSH0 PUSH0 REVERT JUMPDEST POP PUSH2 0x266 PUSH2 0xA55 JUMP JUMPDEST PUSH1 0x40 MLOAD PUSH2 0x273 SWAP2 SWAP1 PUSH2 0x146F JUMP JUMPDEST PUSH1 0x40 MLOAD DUP1 SWAP2 SUB SWAP1 RETURN JUMPDEST CALLVALUE DUP1 ISZERO PUSH2 0x287 JUMPI PUSH0 PUSH0 REVERT JUMPDEST POP PUSH2 0x290 PUSH2 0xA79 JUMP JUMPDEST PUSH1 0x40 MLOAD PUSH2 0x29D SWAP2 SWAP1 PUSH2 0x146F JUMP JUMPDEST PUSH1 0x40 MLOAD DUP1 SWAP2 SUB SWAP1 RETURN JUMPDEST CALLVALUE DUP1 ISZERO PUSH2 0x2B1 JUMPI PUSH0 PUSH0 REVERT JUMPDEST POP PUSH2 0x2BA PUSH2 0xA9E JUMP JUMPDEST PUSH1 0x40 MLOAD PUSH2 0x2C7 SWAP2 SWAP1 PUSH2 0x12EE JUMP JUMPDEST PUSH1 0x40 MLOAD DUP1 SWAP2 SUB SWAP1 RETURN JUMPDEST CALLVALUE DUP1 ISZERO PUSH2 0x2DB JUMPI PUSH0 PUSH0 REVERT JUMPDEST POP PUSH2 0x2E4 PUSH2 0xAA3 JUMP JUMPDEST PUSH1 0x40 MLOAD PUSH2 0x2F1 SWAP2 SWAP1 PUSH2 0x12EE JUMP JUMPDEST PUSH1 0x40 MLOAD DUP1 SWAP2 SUB SWAP1 RETURN JUMPDEST CALLVALUE DUP1 ISZERO PUSH2 0x305 JUMPI PUSH0 PUSH0 REVERT JUMPDEST POP PUSH2 0x30E PUSH2 0xAC7 JUMP JUMPDEST PUSH1 0x40 MLOAD PUSH2 0x31B SWAP2 SWAP1 PUSH2 0x12EE JUMP JUMPDEST PUSH1 0x40 MLOAD DUP1 SWAP2 SUB SWAP1 RETURN JUMPDEST CALLVALUE DUP1 ISZERO PUSH2 0x32F JUMPI PUSH0 PUSH0 REVERT JUMPDEST POP PUSH2 0x338 PUSH2 0xACD JUMP JUMPDEST STOP JUMPDEST CALLVALUE DUP1 ISZERO PUSH2 0x345 JUMPI PUSH0 PUSH0 REVERT JUMPDEST POP PUSH2 0x34E PUSH2 0xDB0 JUMP JUMPDEST PUSH1 0x40 MLOAD PUSH2 0x35B SWAP2 SWAP1 PUSH2 0x12EE JUMP JUMPDEST PUSH1 0x40 MLOAD DUP1 SWAP2 SUB SWAP1 RETURN JUMPDEST CALLVALUE DUP1 ISZERO PUSH2 0x36F JUMPI PUSH0 PUSH0 REVERT JUMPDEST POP PUSH2 0x38A PUSH1 0x4 DUP1 CALLDATASIZE SUB DUP2 ADD SWAP1 PUSH2 0x385 SWAP2 SWAP1 PUSH2 0x124E JUMP JUMPDEST PUSH2 0xDB6 JUMP JUMPDEST PUSH1 0x40 MLOAD PUSH2 0x399 SWAP4 SWAP3 SWAP2 SWAP1 PUSH2 0x1488 JUMP JUMPDEST PUSH1 0x40 MLOAD DUP1 SWAP2 SUB SWAP1 RETURN JUMPDEST PUSH2 0x3AA PUSH2 0xE16 JUMP JUMPDEST STOP JUMPDEST CALLVALUE DUP1 ISZERO PUSH2 0x3B7 JUMPI PUSH0 PUSH0 REVERT JUMPDEST POP PUSH2 0x3C0 PUSH2 0x11B6 JUMP JUMPDEST PUSH1 0x40 MLOAD PUSH2 0x3CD SWAP2 SWAP1 PUSH2 0x12EE JUMP JUMPDEST PUSH1 0x40 MLOAD DUP1 SWAP2 SUB SWAP1 RETURN JUMPDEST PUSH0 SLOAD TIMESTAMP GT DUP1 PUSH2 0x3F1 JUMPI POP PUSH1 0x2 PUSH1 0x14 SWAP1 SLOAD SWAP1 PUSH2 0x100 EXP SWAP1 DIV PUSH1 0xFF AND JUMPDEST PUSH2 0x430 JUMPI PUSH1 0x40 MLOAD PUSH32 0x8C379A000000000000000000000000000000000000000000000000000000000 DUP2 MSTORE PUSH1 0x4 ADD PUSH2 0x427 SWAP1 PUSH2 0x1517 JUMP JUMPDEST PUSH1 0x40 MLOAD DUP1 SWAP2 SUB SWAP1 REVERT JUMPDEST PUSH1 0x2 PUSH1 0x14 SWAP1 SLOAD SWAP1 PUSH2 0x100 EXP SWAP1 DIV PUSH1 0xFF AND ISZERO PUSH2 0x480 JUMPI PUSH1 0x40 MLOAD PUSH32 0x8C379A000000000000000000000000000000000000000000000000000000000 DUP2 MSTORE PUSH1 0x4 ADD PUSH2 0x477 SWAP1 PUSH2 0x157F JUMP JUMPDEST PUSH1 0x40 MLOAD DUP1 SWAP2 SUB SWAP1 REVERT JUMPDEST PUSH1 0x1 PUSH1 0x2 PUSH1 0x14 PUSH2 0x100 EXP DUP2 SLOAD DUP2 PUSH1 0xFF MUL NOT AND SWAP1 DUP4 ISZERO ISZERO MUL OR SWAP1 SSTORE POP PUSH0 PUSH1 0x1 SLOAD SWAP1 POP PUSH0 DUP2 GT ISZERO PUSH2 0x53B JUMPI PUSH0 PUSH1 0x64 PUSH1 0x2 DUP4 PUSH2 0x4B9 SWAP2 SWAP1 PUSH2 0x15CA JUMP JUMPDEST PUSH2 0x4C3 SWAP2 SWAP1 PUSH2 0x1638 JUMP JUMPDEST SWAP1 POP PUSH0 DUP2 DUP4 PUSH2 0x4D2 SWAP2 SWAP1 PUSH2 0x1668 JUMP JUMPDEST SWAP1 POP PUSH32 0x0 PUSH20 0xFFFFFFFFFFFFFFFFFFFFFFFFFFFFFFFFFFFFFFFF AND PUSH2 0x8FC DUP3 SWAP1 DUP2 ISZERO MUL SWAP1 PUSH1 0x40 MLOAD PUSH0 PUSH1 0x40 MLOAD DUP1 DUP4 SUB DUP2 DUP6 DUP9 DUP9 CALL SWAP4 POP POP POP POP ISZERO DUP1 ISZERO PUSH2 0x537 JUMPI RETURNDATASIZE PUSH0 PUSH0 RETURNDATACOPY RETURNDATASIZE PUSH0 REVERT JUMPDEST POP POP POP JUMPDEST PUSH1 0x2 PUSH0 SWAP1 SLOAD SWAP1 PUSH2 0x100 EXP SWAP1 DIV PUSH20 0xFFFFFFFFFFFFFFFFFFFFFFFFFFFFFFFFFFFFFFFF AND PUSH20 0xFFFFFFFFFFFFFFFFFFFFFFFFFFFFFFFFFFFFFFFF AND PUSH32 0xB76F1DFDEC2AECD1C5F01191CC10A8BAD0DD5C2280438CCECC3FCD170533B42C DUP3 PUSH1 0x40 MLOAD PUSH2 0x5A2 SWAP2 SWAP1 PUSH2 0x12EE JUMP JUMPDEST PUSH1 0x40 MLOAD DUP1 SWAP2 SUB SWAP1 LOG2 POP JUMP JUMPDEST PUSH0 SLOAD TIMESTAMP GT ISZERO PUSH2 0x5F1 JUMPI PUSH1 0x40 MLOAD PUSH32 0x8C379A000000000000000000000000000000000000000000000000000000000 DUP2 MSTORE PUSH1 0x4 ADD PUSH2 0x5E8 SWAP1 PUSH2 0x16E5 JUMP JUMPDEST PUSH1 0x40 MLOAD DUP1 SWAP2 SUB SWAP1 REVERT JUMPDEST PUSH1 0x2 PUSH1 0x14 SWAP1 SLOAD SWAP1 PUSH2 0x100 EXP SWAP1 DIV PUSH1 0xFF AND ISZERO PUSH2 0x641 JUMPI PUSH1 0x40 MLOAD PUSH32 0x8C379A000000000000000000000000000000000000000000000000000000000 DUP2 MSTORE PUSH1 0x4 ADD PUSH2 0x638 SWAP1 PUSH2 0x174D JUMP JUMPDEST PUSH1 0x40 MLOAD DUP1 SWAP2 SUB SWAP1 REVERT JUMPDEST PUSH0 DUP2 GT PUSH2 0x683 JUMPI PUSH1 0x40 MLOAD PUSH32 0x8C379A000000000000000000000000000000000000000000000000000000000 DUP2 MSTORE PUSH1 0x4 ADD PUSH2 0x67A SWAP1 PUSH2 0x17B5 JUMP JUMPDEST PUSH1 0x40 MLOAD DUP1 SWAP2 SUB SWAP1 REVERT JUMPDEST PUSH0 PUSH1 0x4 PUSH0 CALLER PUSH20 0xFFFFFFFFFFFFFFFFFFFFFFFFFFFFFFFFFFFFFFFF AND PUSH20 0xFFFFFFFFFFFFFFFFFFFFFFFFFFFFFFFFFFFFFFFF AND DUP2 MSTORE PUSH1 0x20 ADD SWAP1 DUP2 MSTORE PUSH1 0x20 ADD PUSH0 KECCAK256 SLOAD SWAP1 POP PUSH0 DUP2 GT PUSH2 0x706 JUMPI PUSH1 0x40 MLOAD PUSH32 0x8C379A000000000000000000000000000000000000000000000000000000000 DUP2 MSTORE PUSH1 0x4 ADD PUSH2 0x6FD SWAP1 PUSH2 0x181D JUMP JUMPDEST PUSH1 0x40 MLOAD DUP1 SWAP2 SUB SWAP1 REVERT JUMPDEST PUSH0 PUSH1 0x3 PUSH1 0x1 DUP4 PUSH2 0x716 SWAP2 SWAP1 PUSH2 0x1668 JUMP JUMPDEST DUP2 SLOAD DUP2 LT PUSH2 0x727 JUMPI PUSH2 0x726 PUSH2 0x183B JUMP JUMPDEST JUMPDEST SWAP1 PUSH0 MSTORE PUSH1 0x20 PUSH0 KECCAK256 SWAP1 PUSH1 0x3 MUL ADD SWAP1 POP PUSH0 PUSH1 0x2 PUSH0 SWAP1 SLOAD SWAP1 PUSH2 0x100 EXP SWAP1 DIV PUSH20 0xFFFFFFFFFFFFFFFFFFFFFFFFFFFFFFFFFFFFFFFF AND PUSH20 0xFFFFFFFFFFFFFFFFFFFFFFFFFFFFFFFFFFFFFFFF AND CALLER PUSH20 0xFFFFFFFFFFFFFFFFFFFFFFFFFFFFFFFFFFFFFFFF AND EQ PUSH2 0x790 JUMPI PUSH0 PUSH2 0x794 JUMP JUMPDEST PUSH1 0x1 SLOAD JUMPDEST SWAP1 POP DUP1 DUP3 PUSH1 0x1 ADD SLOAD GT PUSH2 0x7DC JUMPI PUSH1 0x40 MLOAD PUSH32 0x8C379A000000000000000000000000000000000000000000000000000000000 DUP2 MSTORE PUSH1 0x4 ADD PUSH2 0x7D3 SWAP1 PUSH2 0x18B2 JUMP JUMPDEST PUSH1 0x40 MLOAD DUP1 SWAP2 SUB SWAP1 REVERT JUMPDEST DUP1 DUP5 DUP4 PUSH1 0x1 ADD SLOAD PUSH2 0x7ED SWAP2 SWAP1 PUSH2 0x1668 JUMP JUMPDEST LT ISZERO PUSH2 0x82E JUMPI PUSH1 0x40 MLOAD PUSH32 0x8C379A000000000000000000000000000000000000000000000000000000000 DUP2 MSTORE PUSH1 0x4 ADD PUSH2 0x825 SWAP1 PUSH2 0x191A JUMP JUMPDEST PUSH1 0x40 MLOAD DUP1 SWAP2 SUB SWAP1 REVERT JUMPDEST DUP4 DUP3 PUSH1 0x1 ADD PUSH0 DUP3 DUP3 SLOAD PUSH2 0x841 SWAP2 SWAP1 PUSH2 0x1668 JUMP JUMPDEST SWAP3 POP POP DUP2 SWAP1 SSTORE POP CALLER PUSH20 0xFFFFFFFFFFFFFFFFFFFFFFFFFFFFFFFFFFFFFFFF AND PUSH2 0x8FC DUP6 SWAP1 DUP2 ISZERO MUL SWAP1 PUSH1 0x40 MLOAD PUSH0 PUSH1 0x40 MLOAD DUP1 DUP4 SUB DUP2 DUP6 DUP9 DUP9 CALL SWAP4 POP POP POP POP ISZERO DUP1 ISZERO PUSH2 0x88B JUMPI RETURNDATASIZE PUSH0 PUSH0 RETURNDATACOPY RETURNDATASIZE PUSH0 REVERT JUMPDEST POP CALLER PUSH20 0xFFFFFFFFFFFFFFFFFFFFFFFFFFFFFFFFFFFFFFFF AND PUSH32 0x8468F8FA62FC679CF8165EAB7662A1FA977705B501DD787E9EC07884885425F1 DUP6 PUSH1 0x40 MLOAD PUSH2 0x8D2 SWAP2 SWAP1 PUSH2 0x12EE JUMP JUMPDEST PUSH1 0x40 MLOAD DUP1 SWAP2 SUB SWAP1 LOG2 POP POP POP POP JUMP JUMPDEST PUSH0 PUSH0 PUSH1 0x2 PUSH1 0x14 SWAP1 SLOAD SWAP1 PUSH2 0x100 EXP SWAP1 DIV PUSH1 0xFF AND PUSH2 0x931 JUMPI PUSH1 0x40 MLOAD PUSH32 0x8C379A000000000000000000000000000000000000000000000000000000000 DUP2 MSTORE PUSH1 0x4 ADD PUSH2 0x928 SWAP1 PUSH2 0x1982 JUMP JUMPDEST PUSH1 0x40 MLOAD DUP1 SWAP2 SUB SWAP1 REVERT JUMPDEST PUSH1 0x2 PUSH0 SWAP1 SLOAD SWAP1 PUSH2 0x100 EXP SWAP1 DIV PUSH20 0xFFFFFFFFFFFFFFFFFFFFFFFFFFFFFFFFFFFFFFFF AND PUSH1 0x1 SLOAD SWAP2 POP SWAP2 POP SWAP1 SWAP2 JUMP JUMPDEST PUSH1 0x5 DUP2 JUMP JUMPDEST PUSH0 SLOAD DUP2 JUMP JUMPDEST PUSH2 0x258 DUP2 JUMP JUMPDEST PUSH1 0x60 PUSH1 0x3 DUP1 SLOAD DUP1 PUSH1 0x20 MUL PUSH1 0x20 ADD PUSH1 0x40 MLOAD SWAP1 DUP2 ADD PUSH1 0x40 MSTORE DUP1 SWAP3 SWAP2 SWAP1 DUP2 DUP2 MSTORE PUSH1 0x20 ADD PUSH0 SWAP1 JUMPDEST DUP3 DUP3 LT ISZERO PUSH2 0xA39 JUMPI DUP4 DUP3 SWAP1 PUSH0 MSTORE PUSH1 0x20 PUSH0 KECCAK256 SWAP1 PUSH1 0x3 MUL ADD PUSH1 0x40 MLOAD DUP1 PUSH1 0x60 ADD PUSH1 0x40 MSTORE SWAP1 DUP2 PUSH0 DUP3 ADD PUSH0 SWAP1 SLOAD SWAP1 PUSH2 0x100 EXP SWAP1 DIV PUSH20 0xFFFFFFFFFFFFFFFFFFFFFFFFFFFFFFFFFFFFFFFF AND PUSH20 0xFFFFFFFFFFFFFFFFFFFFFFFFFFFFFFFFFFFFFFFF AND PUSH20 0xFFFFFFFFFFFFFFFFFFFFFFFFFFFFFFFFFFFFFFFF AND DUP2 MSTORE PUSH1 0x20 ADD PUSH1 0x1 DUP3 ADD SLOAD DUP2 MSTORE PUSH1 0x20 ADD PUSH1 0x2 DUP3 ADD PUSH0 SWAP1 SLOAD SWAP1 PUSH2 0x100 EXP SWAP1 DIV PUSH1 0xFF AND ISZERO ISZERO ISZERO ISZERO DUP2 MSTORE POP POP DUP2 MSTORE PUSH1 0x20 ADD SWAP1 PUSH1 0x1 ADD SWAP1 PUSH2 0x991 JUMP JUMPDEST POP POP POP POP SWAP1 POP SWAP1 JUMP JUMPDEST PUSH1 0x2 PUSH1 0x14 SWAP1 SLOAD SWAP1 PUSH2 0x100 EXP SWAP1 DIV PUSH1 0xFF AND DUP2 JUMP JUMPDEST PUSH32 0x0 DUP2 JUMP JUMPDEST PUSH1 0x2 PUSH0 SWAP1 SLOAD SWAP1 PUSH2 0x100 EXP SWAP1 DIV PUSH20 0xFFFFFFFFFFFFFFFFFFFFFFFFFFFFFFFFFFFFFFFF AND DUP2 JUMP JUMPDEST PUSH1 0x2 DUP2 JUMP JUMPDEST PUSH32 0x0 DUP2 JUMP JUMPDEST PUSH1 0x1 SLOAD DUP2 JUMP JUMPDEST PUSH32 0x0 PUSH20 0xFFFFFFFFFFFFFFFFFFFFFFFFFFFFFFFFFFFFFFFF AND CALLER PUSH20 0xFFFFFFFFFFFFFFFFFFFFFFFFFFFFFFFFFFFFFFFF AND EQ PUSH2 0xB5B JUMPI PUSH1 0x40 MLOAD PUSH32 0x8C379A000000000000000000000000000000000000000000000000000000000 DUP2 MSTORE PUSH1 0x4 ADD PUSH2 0xB52 SWAP1 PUSH2 0x19EA JUMP JUMPDEST PUSH1 0x40 MLOAD DUP1 SWAP2 SUB SWAP1 REVERT JUMPDEST PUSH0 SLOAD TIMESTAMP GT DUP1 PUSH2 0xB76 JUMPI POP PUSH1 0x2 PUSH1 0x14 SWAP1 SLOAD SWAP1 PUSH2 0x100 EXP SWAP1 DIV PUSH1 0xFF AND JUMPDEST PUSH2 0xBB5 JUMPI PUSH1 0x40 MLOAD PUSH32 0x8C379A000000000000000000000000000000000000000000000000000000000 DUP2 MSTORE PUSH1 0x4 ADD PUSH2 0xBAC SWAP1 PUSH2 0x1517 JUMP JUMPDEST PUSH1 0x40 MLOAD DUP1 SWAP2 SUB SWAP1 REVERT JUMPDEST PUSH0 PUSH0 SWAP1 POP JUMPDEST PUSH1 0x3 DUP1 SLOAD SWAP1 POP DUP2 LT ISZERO PUSH2 0xDAD JUMPI PUSH0 PUSH1 0x3 DUP3 DUP2 SLOAD DUP2 LT PUSH2 0xBDC JUMPI PUSH2 0xBDB PUSH2 0x183B JUMP JUMPDEST JUMPDEST SWAP1 PUSH0 MSTORE PUSH1 0x20 PUSH0 KECCAK256 SWAP1 PUSH1 0x3 MUL ADD SWAP1 POP DUP1 PUSH1 0x2 ADD PUSH0 SWAP1 SLOAD SWAP1 PUSH2 0x100 EXP SWAP1 DIV PUSH1 0xFF AND ISZERO DUP1 ISZERO PUSH2 0xC77 JUMPI POP PUSH1 0x2 PUSH0 SWAP1 SLOAD SWAP1 PUSH2 0x100 EXP SWAP1 DIV PUSH20 0xFFFFFFFFFFFFFFFFFFFFFFFFFFFFFFFFFFFFFFFF AND PUSH20 0xFFFFFFFFFFFFFFFFFFFFFFFFFFFFFFFFFFFFFFFF AND DUP2 PUSH0 ADD PUSH0 SWAP1 SLOAD SWAP1 PUSH2 0x100 EXP SWAP1 DIV PUSH20 0xFFFFFFFFFFFFFFFFFFFFFFFFFFFFFFFFFFFFFFFF AND PUSH20 0xFFFFFFFFFFFFFFFFFFFFFFFFFFFFFFFFFFFFFFFF AND EQ ISZERO JUMPDEST ISZERO PUSH2 0xD9F JUMPI PUSH1 0x1 DUP2 PUSH1 0x2 ADD PUSH0 PUSH2 0x100 EXP DUP2 SLOAD DUP2 PUSH1 0xFF MUL NOT AND SWAP1 DUP4 ISZERO ISZERO MUL OR SWAP1 SSTORE POP PUSH0 PUSH1 0x64 PUSH1 0x2 DUP4 PUSH1 0x1 ADD SLOAD PUSH2 0xCAC SWAP2 SWAP1 PUSH2 0x15CA JUMP JUMPDEST PUSH2 0xCB6 SWAP2 SWAP1 PUSH2 0x1638 JUMP JUMPDEST DUP3 PUSH1 0x1 ADD SLOAD PUSH2 0xCC5 SWAP2 SWAP1 PUSH2 0x1668 JUMP JUMPDEST SWAP1 POP DUP2 PUSH0 ADD PUSH0 SWAP1 SLOAD SWAP1 PUSH2 0x100 EXP SWAP1 DIV PUSH20 0xFFFFFFFFFFFFFFFFFFFFFFFFFFFFFFFFFFFFFFFF AND PUSH20 0xFFFFFFFFFFFFFFFFFFFFFFFFFFFFFFFFFFFFFFFF AND PUSH2 0x8FC DUP3 SWAP1 DUP2 ISZERO MUL SWAP1 PUSH1 0x40 MLOAD PUSH0 PUSH1 0x40 MLOAD DUP1 DUP4 SUB DUP2 DUP6 DUP9 DUP9 CALL SWAP4 POP POP POP POP ISZERO DUP1 ISZERO PUSH2 0xD2C JUMPI RETURNDATASIZE PUSH0 PUSH0 RETURNDATACOPY RETURNDATASIZE PUSH0 REVERT JUMPDEST POP DUP2 PUSH0 ADD PUSH0 SWAP1 SLOAD SWAP1 PUSH2 0x100 EXP SWAP1 DIV PUSH20 0xFFFFFFFFFFFFFFFFFFFFFFFFFFFFFFFFFFFFFFFF AND PUSH20 0xFFFFFFFFFFFFFFFFFFFFFFFFFFFFFFFFFFFFFFFF AND PUSH32 0x779C86999FB727CA861D0288AA11ED4104347721C571E4F0DA5172AFB607D885 DUP3 PUSH1 0x40 MLOAD PUSH2 0xD95 SWAP2 SWAP1 PUSH2 0x12EE JUMP JUMPDEST PUSH1 0x40 MLOAD DUP1 SWAP2 SUB SWAP1 LOG2 POP JUMPDEST POP DUP1 DUP1 PUSH1 0x1 ADD SWAP2 POP POP PUSH2 0xBBA JUMP JUMPDEST POP JUMP JUMPDEST PUSH2 0x258 DUP2 JUMP JUMPDEST PUSH1 0x3 DUP2 DUP2 SLOAD DUP2 LT PUSH2 0xDC5 JUMPI PUSH0 DUP1 REVERT JUMPDEST SWAP1 PUSH0 MSTORE PUSH1 0x20 PUSH0 KECCAK256 SWAP1 PUSH1 0x3 MUL ADD PUSH0 SWAP2 POP SWAP1 POP DUP1 PUSH0 ADD PUSH0 SWAP1 SLOAD SWAP1 PUSH2 0x100 EXP SWAP1 DIV PUSH20 0xFFFFFFFFFFFFFFFFFFFFFFFFFFFFFFFFFFFFFFFF AND SWAP1 DUP1 PUSH1 0x1 ADD SLOAD SWAP1 DUP1 PUSH1 0x2 ADD PUSH0 SWAP1 SLOAD SWAP1 PUSH2 0x100 EXP SWAP1 DIV PUSH1 0xFF AND SWAP1 POP DUP4 JUMP JUMPDEST PUSH0 SLOAD TIMESTAMP GT ISZERO PUSH2 0xE5A JUMPI PUSH1 0x40 MLOAD PUSH32 0x8C379A000000000000000000000000000000000000000000000000000000000 DUP2 MSTORE PUSH1 0x4 ADD PUSH2 0xE51 SWAP1 PUSH2 0x16E5 JUMP JUMPDEST PUSH1 0x40 MLOAD DUP1 SWAP2 SUB SWAP1 REVERT JUMPDEST PUSH1 0x2 PUSH1 0x14 SWAP1 SLOAD SWAP1 PUSH2 0x100 EXP SWAP1 DIV PUSH1 0xFF AND ISZERO PUSH2 0xEAA JUMPI PUSH1 0x40 MLOAD PUSH32 0x8C379A000000000000000000000000000000000000000000000000000000000 DUP2 MSTORE PUSH1 0x4 ADD PUSH2 0xEA1 SWAP1 PUSH2 0x174D JUMP JUMPDEST PUSH1 0x40 MLOAD DUP1 SWAP2 SUB SWAP1 REVERT JUMPDEST PUSH0 PUSH1 0x1 SLOAD SWAP1 POP PUSH0 PUSH1 0x64 PUSH1 0x5 DUP4 PUSH2 0xEC0 SWAP2 SWAP1 PUSH2 0x15CA JUMP JUMPDEST PUSH2 0xECA SWAP2 SWAP1 PUSH2 0x1638 JUMP JUMPDEST DUP3 PUSH2 0xED5 SWAP2 SWAP1 PUSH2 0x1A08 JUMP JUMPDEST SWAP1 POP PUSH0 DUP3 SUB PUSH2 0xEE2 JUMPI PUSH0 SWAP1 POP JUMPDEST DUP1 CALLVALUE GT PUSH2 0xF24 JUMPI PUSH1 0x40 MLOAD PUSH32 0x8C379A000000000000000000000000000000000000000000000000000000000 DUP2 MSTORE PUSH1 0x4 ADD PUSH2 0xF1B SWAP1 PUSH2 0x1A85 JUMP JUMPDEST PUSH1 0x40 MLOAD DUP1 SWAP2 SUB SWAP1 REVERT JUMPDEST PUSH0 PUSH1 0x4 PUSH0 CALLER PUSH20 0xFFFFFFFFFFFFFFFFFFFFFFFFFFFFFFFFFFFFFFFF AND PUSH20 0xFFFFFFFFFFFFFFFFFFFFFFFFFFFFFFFFFFFFFFFF AND DUP2 MSTORE PUSH1 0x20 ADD SWAP1 DUP2 MSTORE PUSH1 0x20 ADD PUSH0 KECCAK256 SLOAD SWAP1 POP PUSH0 DUP2 GT ISZERO PUSH2 0xFBC JUMPI PUSH0 PUSH1 0x3 PUSH1 0x1 DUP4 PUSH2 0xF7D SWAP2 SWAP1 PUSH2 0x1668 JUMP JUMPDEST DUP2 SLOAD DUP2 LT PUSH2 0xF8E JUMPI PUSH2 0xF8D PUSH2 0x183B JUMP JUMPDEST JUMPDEST SWAP1 PUSH0 MSTORE PUSH1 0x20 PUSH0 KECCAK256 SWAP1 PUSH1 0x3 MUL ADD SWAP1 POP CALLVALUE DUP2 PUSH1 0x1 ADD PUSH0 DUP3 DUP3 SLOAD PUSH2 0xFAF SWAP2 SWAP1 PUSH2 0x1A08 JUMP JUMPDEST SWAP3 POP POP DUP2 SWAP1 SSTORE POP POP PUSH2 0x10CE JUMP JUMPDEST PUSH1 0x3 PUSH1 0x40 MLOAD DUP1 PUSH1 0x60 ADD PUSH1 0x40 MSTORE DUP1 CALLER PUSH20 0xFFFFFFFFFFFFFFFFFFFFFFFFFFFFFFFFFFFFFFFF AND DUP2 MSTORE PUSH1 0x20 ADD CALLVALUE DUP2 MSTORE PUSH1 0x20 ADD PUSH0 ISZERO ISZERO DUP2 MSTORE POP SWAP1 DUP1 PUSH1 0x1 DUP2 SLOAD ADD DUP1 DUP3 SSTORE DUP1 SWAP2 POP POP PUSH1 0x1 SWAP1 SUB SWAP1 PUSH0 MSTORE PUSH1 0x20 PUSH0 KECCAK256 SWAP1 PUSH1 0x3 MUL ADD PUSH0 SWAP1 SWAP2 SWAP1 SWAP2 SWAP1 SWAP2 POP PUSH0 DUP3 ADD MLOAD DUP2 PUSH0 ADD PUSH0 PUSH2 0x100 EXP DUP2 SLOAD DUP2 PUSH20 0xFFFFFFFFFFFFFFFFFFFFFFFFFFFFFFFFFFFFFFFF MUL NOT AND SWAP1 DUP4 PUSH20 0xFFFFFFFFFFFFFFFFFFFFFFFFFFFFFFFFFFFFFFFF AND MUL OR SWAP1 SSTORE POP PUSH1 0x20 DUP3 ADD MLOAD DUP2 PUSH1 0x1 ADD SSTORE PUSH1 0x40 DUP3 ADD MLOAD DUP2 PUSH1 0x2 ADD PUSH0 PUSH2 0x100 EXP DUP2 SLOAD DUP2 PUSH1 0xFF MUL NOT AND SWAP1 DUP4 ISZERO ISZERO MUL OR SWAP1 SSTORE POP POP POP PUSH1 0x3 DUP1 SLOAD SWAP1 POP PUSH1 0x4 PUSH0 CALLER PUSH20 0xFFFFFFFFFFFFFFFFFFFFFFFFFFFFFFFFFFFFFFFF AND PUSH20 0xFFFFFFFFFFFFFFFFFFFFFFFFFFFFFFFFFFFFFFFF AND DUP2 MSTORE PUSH1 0x20 ADD SWAP1 DUP2 MSTORE PUSH1 0x20 ADD PUSH0 KECCAK256 DUP2 SWAP1 SSTORE POP JUMPDEST CALLVALUE PUSH1 0x1 DUP2 SWAP1 SSTORE POP CALLER PUSH1 0x2 PUSH0 PUSH2 0x100 EXP DUP2 SLOAD DUP2 PUSH20 0xFFFFFFFFFFFFFFFFFFFFFFFFFFFFFFFFFFFFFFFF MUL NOT AND SWAP1 DUP4 PUSH20 0xFFFFFFFFFFFFFFFFFFFFFFFFFFFFFFFFFFFFFFFF AND MUL OR SWAP1 SSTORE POP PUSH0 PUSH2 0x111E PUSH2 0x11D8 JUMP JUMPDEST SWAP1 POP CALLER PUSH20 0xFFFFFFFFFFFFFFFFFFFFFFFFFFFFFFFFFFFFFFFF AND PUSH32 0x87F5B2FE112BF269D30FB8CA9DC0BDE0AFD0CC39258E13FAFD75FE794795BF0E CALLVALUE PUSH0 SLOAD PUSH1 0x40 MLOAD PUSH2 0x1169 SWAP3 SWAP2 SWAP1 PUSH2 0x1AA3 JUMP JUMPDEST PUSH1 0x40 MLOAD DUP1 SWAP2 SUB SWAP1 LOG2 DUP1 ISZERO PUSH2 0x11B0 JUMPI PUSH32 0xC2B459809119087CA9D2BC10DEA53A51B7D848B1A11075DB037BDCA58292C3E8 PUSH0 SLOAD PUSH1 0x40 MLOAD PUSH2 0x11A7 SWAP2 SWAP1 PUSH2 0x12EE JUMP JUMPDEST PUSH1 0x40 MLOAD DUP1 SWAP2 SUB SWAP1 LOG1 JUMPDEST POP POP POP POP JUMP JUMPDEST PUSH0 PUSH0 SLOAD TIMESTAMP LT PUSH2 0x11C5 JUMPI PUSH0 PUSH2 0x11D3 JUMP JUMPDEST TIMESTAMP PUSH0 SLOAD PUSH2 0x11D2 SWAP2 SWAP1 PUSH2 0x1668 JUMP JUMPDEST JUMPDEST SWAP1 POP SWAP1 JUMP JUMPDEST PUSH0 PUSH2 0x258 TIMESTAMP PUSH0 SLOAD PUSH2 0x11E9 SWAP2 SWAP1 PUSH2 0x1668 JUMP JUMPDEST GT PUSH2 0x1210 JUMPI PUSH2 0x258 PUSH0 PUSH0 DUP3 DUP3 SLOAD PUSH2 0x1200 SWAP2 SWAP1 PUSH2 0x1A08 JUMP JUMPDEST SWAP3 POP POP DUP2 SWAP1 SSTORE POP PUSH1 0x1 SWAP1 POP PUSH2 0x1214 JUMP JUMPDEST PUSH0 SWAP1 POP JUMPDEST SWAP1 JUMP JUMPDEST PUSH0 PUSH0 REVERT JUMPDEST PUSH0 DUP2 SWAP1 POP SWAP2 SWAP1 POP JUMP JUMPDEST PUSH2 0x122D DUP2 PUSH2 0x121B JUMP JUMPDEST DUP2 EQ PUSH2 0x1237 JUMPI PUSH0 PUSH0 REVERT JUMPDEST POP JUMP JUMPDEST PUSH0 DUP2 CALLDATALOAD SWAP1 POP PUSH2 0x1248 DUP2 PUSH2 0x1224 JUMP JUMPDEST SWAP3 SWAP2 POP POP JUMP JUMPDEST PUSH0 PUSH1 0x20 DUP3 DUP5 SUB SLT ISZERO PUSH2 0x1263 JUMPI PUSH2 0x1262 PUSH2 0x1217 JUMP JUMPDEST JUMPDEST PUSH0 PUSH2 0x1270 DUP5 DUP3 DUP6 ADD PUSH2 0x123A JUMP JUMPDEST SWAP2 POP POP SWAP3 SWAP2 POP POP JUMP JUMPDEST PUSH0 PUSH20 0xFFFFFFFFFFFFFFFFFFFFFFFFFFFFFFFFFFFFFFFF DUP3 AND SWAP1 POP SWAP2 SWAP1 POP JUMP JUMPDEST PUSH0 PUSH2 0x12A2 DUP3 PUSH2 0x1279 JUMP JUMPDEST SWAP1 POP SWAP2 SWAP1 POP JUMP JUMPDEST PUSH2 0x12B2 DUP2 PUSH2 0x1298 JUMP JUMPDEST DUP3 MSTORE POP POP JUMP JUMPDEST PUSH2 0x12C1 DUP2 PUSH2 0x121B JUMP JUMPDEST DUP3 MSTORE POP POP JUMP JUMPDEST PUSH0 PUSH1 0x40 DUP3 ADD SWAP1 POP PUSH2 0x12DA PUSH0 DUP4 ADD DUP6 PUSH2 0x12A9 JUMP JUMPDEST PUSH2 0x12E7 PUSH1 0x20 DUP4 ADD DUP5 PUSH2 0x12B8 JUMP JUMPDEST SWAP4 SWAP3 POP POP POP JUMP JUMPDEST PUSH0 PUSH1 0x20 DUP3 ADD SWAP1 POP PUSH2 0x1301 PUSH0 DUP4 ADD DUP5 PUSH2 0x12B8 JUMP JUMPDEST SWAP3 SWAP2 POP POP JUMP JUMPDEST PUSH0 DUP2 MLOAD SWAP1 POP SWAP2 SWAP1 POP JUMP JUMPDEST PUSH0 DUP3 DUP3 MSTORE PUSH1 0x20 DUP3 ADD SWAP1 POP SWAP3 SWAP2 POP POP JUMP JUMPDEST PUSH0 DUP2 SWAP1 POP PUSH1 0x20 DUP3 ADD SWAP1 POP SWAP2 SWAP1 POP JUMP JUMPDEST PUSH2 0x1339 DUP2 PUSH2 0x1298 JUMP JUMPDEST DUP3 MSTORE POP POP JUMP JUMPDEST PUSH2 0x1348 DUP2 PUSH2 0x121B JUMP JUMPDEST DUP3 MSTORE POP POP JUMP JUMPDEST PUSH0 DUP2 ISZERO ISZERO SWAP1 POP SWAP2 SWAP1 POP JUMP JUMPDEST PUSH2 0x1362 DUP2 PUSH2 0x134E JUMP JUMPDEST DUP3 MSTORE POP POP JUMP JUMPDEST PUSH1 0x60 DUP3 ADD PUSH0 DUP3 ADD MLOAD PUSH2 0x137C PUSH0 DUP6 ADD DUP3 PUSH2 0x1330 JUMP JUMPDEST POP PUSH1 0x20 DUP3 ADD MLOAD PUSH2 0x138F PUSH1 0x20 DUP6 ADD DUP3 PUSH2 0x133F JUMP JUMPDEST POP PUSH1 0x40 DUP3 ADD MLOAD PUSH2 0x13A2 PUSH1 0x40 DUP6 ADD DUP3 PUSH2 0x1359 JUMP JUMPDEST POP POP POP POP JUMP JUMPDEST PUSH0 PUSH2 0x13B3 DUP4 DUP4 PUSH2 0x1368 JUMP JUMPDEST PUSH1 0x60 DUP4 ADD SWAP1 POP SWAP3 SWAP2 POP POP JUMP JUMPDEST PUSH0 PUSH1 0x20 DUP3 ADD SWAP1 POP SWAP2 SWAP1 POP JUMP JUMPDEST PUSH0 PUSH2 0x13D5 DUP3 PUSH2 0x1307 JUMP JUMPDEST PUSH2 0x13DF DUP2 DUP6 PUSH2 0x1311 JUMP JUMPDEST SWAP4 POP PUSH2 0x13EA DUP4 PUSH2 0x1321 JUMP JUMPDEST DUP1 PUSH0 JUMPDEST DUP4 DUP2 LT ISZERO PUSH2 0x141A JUMPI DUP2 MLOAD PUSH2 0x1401 DUP9 DUP3 PUSH2 0x13A8 JUMP JUMPDEST SWAP8 POP PUSH2 0x140C DUP4 PUSH2 0x13BF JUMP JUMPDEST SWAP3 POP POP PUSH1 0x1 DUP2 ADD SWAP1 POP PUSH2 0x13ED JUMP JUMPDEST POP DUP6 SWAP4 POP POP POP POP SWAP3 SWAP2 POP POP JUMP JUMPDEST PUSH0 PUSH1 0x20 DUP3 ADD SWAP1 POP DUP2 DUP2 SUB PUSH0 DUP4 ADD MSTORE PUSH2 0x143F DUP2 DUP5 PUSH2 0x13CB JUMP JUMPDEST SWAP1 POP SWAP3 SWAP2 POP POP JUMP JUMPDEST PUSH2 0x1450 DUP2 PUSH2 0x134E JUMP JUMPDEST DUP3 MSTORE POP POP JUMP JUMPDEST PUSH0 PUSH1 0x20 DUP3 ADD SWAP1 POP PUSH2 0x1469 PUSH0 DUP4 ADD DUP5 PUSH2 0x1447 JUMP JUMPDEST SWAP3 SWAP2 POP POP JUMP JUMPDEST PUSH0 PUSH1 0x20 DUP3 ADD SWAP1 POP PUSH2 0x1482 PUSH0 DUP4 ADD DUP5 PUSH2 0x12A9 JUMP JUMPDEST SWAP3 SWAP2 POP POP JUMP JUMPDEST PUSH0 PUSH1 0x60 DUP3 ADD SWAP1 POP PUSH2 0x149B PUSH0 DUP4 ADD DUP7 PUSH2 0x12A9 JUMP JUMPDEST PUSH2 0x14A8 PUSH1 0x20 DUP4 ADD DUP6 PUSH2 0x12B8 JUMP JUMPDEST PUSH2 0x14B5 PUSH1 0x40 DUP4 ADD DUP5 PUSH2 0x1447 JUMP JUMPDEST SWAP5 SWAP4 POP POP POP POP JUMP JUMPDEST PUSH0 DUP3 DUP3 MSTORE PUSH1 0x20 DUP3 ADD SWAP1 POP SWAP3 SWAP2 POP POP JUMP JUMPDEST PUSH32 0x5374696C6C206163746976650000000000000000000000000000000000000000 PUSH0 DUP3 ADD MSTORE POP JUMP JUMPDEST PUSH0 PUSH2 0x1501 PUSH1 0xC DUP4 PUSH2 0x14BD JUMP JUMPDEST SWAP2 POP PUSH2 0x150C DUP3 PUSH2 0x14CD JUMP JUMPDEST PUSH1 0x20 DUP3 ADD SWAP1 POP SWAP2 SWAP1 POP JUMP JUMPDEST PUSH0 PUSH1 0x20 DUP3 ADD SWAP1 POP DUP2 DUP2 SUB PUSH0 DUP4 ADD MSTORE PUSH2 0x152E DUP2 PUSH2 0x14F5 JUMP JUMPDEST SWAP1 POP SWAP2 SWAP1 POP JUMP JUMPDEST PUSH32 0x416C726561647920646F6E650000000000000000000000000000000000000000 PUSH0 DUP3 ADD MSTORE POP JUMP JUMPDEST PUSH0 PUSH2 0x1569 PUSH1 0xC DUP4 PUSH2 0x14BD JUMP JUMPDEST SWAP2 POP PUSH2 0x1574 DUP3 PUSH2 0x1535 JUMP JUMPDEST PUSH1 0x20 DUP3 ADD SWAP1 POP SWAP2 SWAP1 POP JUMP JUMPDEST PUSH0 PUSH1 0x20 DUP3 ADD SWAP1 POP DUP2 DUP2 SUB PUSH0 DUP4 ADD MSTORE PUSH2 0x1596 DUP2 PUSH2 0x155D JUMP JUMPDEST SWAP1 POP SWAP2 SWAP1 POP JUMP JUMPDEST PUSH32 0x4E487B7100000000000000000000000000000000000000000000000000000000 PUSH0 MSTORE PUSH1 0x11 PUSH1 0x4 MSTORE PUSH1 0x24 PUSH0 REVERT JUMPDEST PUSH0 PUSH2 0x15D4 DUP3 PUSH2 0x121B JUMP JUMPDEST SWAP2 POP PUSH2 0x15DF DUP4 PUSH2 0x121B JUMP JUMPDEST SWAP3 POP DUP3 DUP3 MUL PUSH2 0x15ED DUP2 PUSH2 0x121B JUMP JUMPDEST SWAP2 POP DUP3 DUP3 DIV DUP5 EQ DUP4 ISZERO OR PUSH2 0x1604 JUMPI PUSH2 0x1603 PUSH2 0x159D JUMP JUMPDEST JUMPDEST POP SWAP3 SWAP2 POP POP JUMP JUMPDEST PUSH32 0x4E487B7100000000000000000000000000000000000000000000000000000000 PUSH0 MSTORE PUSH1 0x12 PUSH1 0x4 MSTORE PUSH1 0x24 PUSH0 REVERT JUMPDEST PUSH0 PUSH2 0x1642 DUP3 PUSH2 0x121B JUMP JUMPDEST SWAP2 POP PUSH2 0x164D DUP4 PUSH2 0x121B JUMP JUMPDEST SWAP3 POP DUP3 PUSH2 0x165D JUMPI PUSH2 0x165C PUSH2 0x160B JUMP JUMPDEST JUMPDEST DUP3 DUP3 DIV SWAP1 POP SWAP3 SWAP2 POP POP JUMP JUMPDEST PUSH0 PUSH2 0x1672 DUP3 PUSH2 0x121B JUMP JUMPDEST SWAP2 POP PUSH2 0x167D DUP4 PUSH2 0x121B JUMP JUMPDEST SWAP3 POP DUP3 DUP3 SUB SWAP1 POP DUP2 DUP2 GT ISZERO PUSH2 0x1695 JUMPI PUSH2 0x1694 PUSH2 0x159D JUMP JUMPDEST JUMPDEST SWAP3 SWAP2 POP POP JUMP JUMPDEST PUSH32 0x456E646564000000000000000000000000000000000000000000000000000000 PUSH0 DUP3 ADD MSTORE POP JUMP JUMPDEST PUSH0 PUSH2 0x16CF PUSH1 0x5 DUP4 PUSH2 0x14BD JUMP JUMPDEST SWAP2 POP PUSH2 0x16DA DUP3 PUSH2 0x169B JUMP JUMPDEST PUSH1 0x20 DUP3 ADD SWAP1 POP SWAP2 SWAP1 POP JUMP JUMPDEST PUSH0 PUSH1 0x20 DUP3 ADD SWAP1 POP DUP2 DUP2 SUB PUSH0 DUP4 ADD MSTORE PUSH2 0x16FC DUP2 PUSH2 0x16C3 JUMP JUMPDEST SWAP1 POP SWAP2 SWAP1 POP JUMP JUMPDEST PUSH32 0x4D616E75616C6C7920656E646564000000000000000000000000000000000000 PUSH0 DUP3 ADD MSTORE POP JUMP JUMPDEST PUSH0 PUSH2 0x1737 PUSH1 0xE DUP4 PUSH2 0x14BD JUMP JUMPDEST SWAP2 POP PUSH2 0x1742 DUP3 PUSH2 0x1703 JUMP JUMPDEST PUSH1 0x20 DUP3 ADD SWAP1 POP SWAP2 SWAP1 POP JUMP JUMPDEST PUSH0 PUSH1 0x20 DUP3 ADD SWAP1 POP DUP2 DUP2 SUB PUSH0 DUP4 ADD MSTORE PUSH2 0x1764 DUP2 PUSH2 0x172B JUMP JUMPDEST SWAP1 POP SWAP2 SWAP1 POP JUMP JUMPDEST PUSH32 0x5A65726F20616D74000000000000000000000000000000000000000000000000 PUSH0 DUP3 ADD MSTORE POP JUMP JUMPDEST PUSH0 PUSH2 0x179F PUSH1 0x8 DUP4 PUSH2 0x14BD JUMP JUMPDEST SWAP2 POP PUSH2 0x17AA DUP3 PUSH2 0x176B JUMP JUMPDEST PUSH1 0x20 DUP3 ADD SWAP1 POP SWAP2 SWAP1 POP JUMP JUMPDEST PUSH0 PUSH1 0x20 DUP3 ADD SWAP1 POP DUP2 DUP2 SUB PUSH0 DUP4 ADD MSTORE PUSH2 0x17CC DUP2 PUSH2 0x1793 JUMP JUMPDEST SWAP1 POP SWAP2 SWAP1 POP JUMP JUMPDEST PUSH32 0x4E6F206269647300000000000000000000000000000000000000000000000000 PUSH0 DUP3 ADD MSTORE POP JUMP JUMPDEST PUSH0 PUSH2 0x1807 PUSH1 0x7 DUP4 PUSH2 0x14BD JUMP JUMPDEST SWAP2 POP PUSH2 0x1812 DUP3 PUSH2 0x17D3 JUMP JUMPDEST PUSH1 0x20 DUP3 ADD SWAP1 POP SWAP2 SWAP1 POP JUMP JUMPDEST PUSH0 PUSH1 0x20 DUP3 ADD SWAP1 POP DUP2 DUP2 SUB PUSH0 DUP4 ADD MSTORE PUSH2 0x1834 DUP2 PUSH2 0x17FB JUMP JUMPDEST SWAP1 POP SWAP2 SWAP1 POP JUMP JUMPDEST PUSH32 0x4E487B7100000000000000000000000000000000000000000000000000000000 PUSH0 MSTORE PUSH1 0x32 PUSH1 0x4 MSTORE PUSH1 0x24 PUSH0 REVERT JUMPDEST PUSH32 0x4E6F206578636573730000000000000000000000000000000000000000000000 PUSH0 DUP3 ADD MSTORE POP JUMP JUMPDEST PUSH0 PUSH2 0x189C PUSH1 0x9 DUP4 PUSH2 0x14BD JUMP JUMPDEST SWAP2 POP PUSH2 0x18A7 DUP3 PUSH2 0x1868 JUMP JUMPDEST PUSH1 0x20 DUP3 ADD SWAP1 POP SWAP2 SWAP1 POP JUMP JUMPDEST PUSH0 PUSH1 0x20 DUP3 ADD SWAP1 POP DUP2 DUP2 SUB PUSH0 DUP4 ADD MSTORE PUSH2 0x18C9 DUP2 PUSH2 0x1890 JUMP JUMPDEST SWAP1 POP SWAP2 SWAP1 POP JUMP JUMPDEST PUSH32 0x4578636565647300000000000000000000000000000000000000000000000000 PUSH0 DUP3 ADD MSTORE POP JUMP JUMPDEST PUSH0 PUSH2 0x1904 PUSH1 0x7 DUP4 PUSH2 0x14BD JUMP JUMPDEST SWAP2 POP PUSH2 0x190F DUP3 PUSH2 0x18D0 JUMP JUMPDEST PUSH1 0x20 DUP3 ADD SWAP1 POP SWAP2 SWAP1 POP JUMP JUMPDEST PUSH0 PUSH1 0x20 DUP3 ADD SWAP1 POP DUP2 DUP2 SUB PUSH0 DUP4 ADD MSTORE PUSH2 0x1931 DUP2 PUSH2 0x18F8 JUMP JUMPDEST SWAP1 POP SWAP2 SWAP1 POP JUMP JUMPDEST PUSH32 0x4E6F74206F766572000000000000000000000000000000000000000000000000 PUSH0 DUP3 ADD MSTORE POP JUMP JUMPDEST PUSH0 PUSH2 0x196C PUSH1 0x8 DUP4 PUSH2 0x14BD JUMP JUMPDEST SWAP2 POP PUSH2 0x1977 DUP3 PUSH2 0x1938 JUMP JUMPDEST PUSH1 0x20 DUP3 ADD SWAP1 POP SWAP2 SWAP1 POP JUMP JUMPDEST PUSH0 PUSH1 0x20 DUP3 ADD SWAP1 POP DUP2 DUP2 SUB PUSH0 DUP4 ADD MSTORE PUSH2 0x1999 DUP2 PUSH2 0x1960 JUMP JUMPDEST SWAP1 POP SWAP2 SWAP1 POP JUMP JUMPDEST PUSH32 0x4E6F74206F776E65720000000000000000000000000000000000000000000000 PUSH0 DUP3 ADD MSTORE POP JUMP JUMPDEST PUSH0 PUSH2 0x19D4 PUSH1 0x9 DUP4 PUSH2 0x14BD JUMP JUMPDEST SWAP2 POP PUSH2 0x19DF DUP3 PUSH2 0x19A0 JUMP JUMPDEST PUSH1 0x20 DUP3 ADD SWAP1 POP SWAP2 SWAP1 POP JUMP JUMPDEST PUSH0 PUSH1 0x20 DUP3 ADD SWAP1 POP DUP2 DUP2 SUB PUSH0 DUP4 ADD MSTORE PUSH2 0x1A01 DUP2 PUSH2 0x19C8 JUMP JUMPDEST SWAP1 POP SWAP2 SWAP1 POP JUMP JUMPDEST PUSH0 PUSH2 0x1A12 DUP3 PUSH2 0x121B JUMP JUMPDEST SWAP2 POP PUSH2 0x1A1D DUP4 PUSH2 0x121B JUMP JUMPDEST SWAP3 POP DUP3 DUP3 ADD SWAP1 POP DUP1 DUP3 GT ISZERO PUSH2 0x1A35 JUMPI PUSH2 0x1A34 PUSH2 0x159D JUMP JUMPDEST JUMPDEST SWAP3 SWAP2 POP POP JUMP JUMPDEST PUSH32 0x546F6F206C6F7700000000000000000000000000000000000000000000000000 PUSH0 DUP3 ADD MSTORE POP JUMP JUMPDEST PUSH0 PUSH2 0x1A6F PUSH1 0x7 DUP4 PUSH2 0x14BD JUMP JUMPDEST SWAP2 POP PUSH2 0x1A7A DUP3 PUSH2 0x1A3B JUMP JUMPDEST PUSH1 0x20 DUP3 ADD SWAP1 POP SWAP2 SWAP1 POP JUMP JUMPDEST PUSH0 PUSH1 0x20 DUP3 ADD SWAP1 POP DUP2 DUP2 SUB PUSH0 DUP4 ADD MSTORE PUSH2 0x1A9C DUP2 PUSH2 0x1A63 JUMP JUMPDEST SWAP1 POP SWAP2 SWAP1 POP JUMP JUMPDEST PUSH0 PUSH1 0x40 DUP3 ADD SWAP1 POP PUSH2 0x1AB6 PUSH0 DUP4 ADD DUP6 PUSH2 0x12B8 JUMP JUMPDEST PUSH2 0x1AC3 PUSH1 0x20 DUP4 ADD DUP5 PUSH2 0x12B8 JUMP JUMPDEST SWAP4 SWAP3 POP POP POP JUMP INVALID LOG2 PUSH5 0x6970667358 0x22 SLT KECCAK256 0xB3 0x1E SELFDESTRUCT DUPN 0xEC CALLCODE DUP12 SGT EXTCALL PUSH21 0xF435B62FD62E63DC83A41FDD8F72240C70C3D22827 SWAP7 PUSH5 0x736F6C6343 STOP ADDMOD 0x1E STOP CALLER "
				},
				"gasEstimates": {
					"creation": {
						"codeDepositCost": "1382400",
						"executionCost": "infinite",
						"totalCost": "infinite"
					},
					"external": {
						"COMMISSION_PERCENT()": "370",
						"EXTENSION_DURATION()": "370",
						"EXTENSION_THRESHOLD()": "369",
						"MIN_BID_INCREASE_PERCENT()": "415",
						"auctionEndTime()": "2447",
						"auctionEnded()": "2606",
						"bidHistory(uint256)": "infinite",
						"concludeAuction()": "infinite",
						"getBidHistory()": "infinite",
						"getRemainingTime()": "infinite",
						"getWinnerInfo()": "6998",
						"highestBid()": "2514",
						"highestBidder()": "2531",
						"initialDuration()": "infinite",
						"owner()": "infinite",
						"placeBid()": "infinite",
						"withdrawFull()": "infinite",
						"withdrawPartial(uint256)": "infinite"
					},
					"internal": {
						"_extendAuctionIfNeeded()": "infinite"
					}
				},
				"methodIdentifiers": {
					"COMMISSION_PERCENT()": "b404e001",
					"EXTENSION_DURATION()": "5dd624df",
					"EXTENSION_THRESHOLD()": "e1174717",
					"MIN_BID_INCREASE_PERCENT()": "4a874bb9",
					"auctionEndTime()": "4b449cba",
					"auctionEnded()": "86433374",
					"bidHistory(uint256)": "ecde973d",
					"concludeAuction()": "093d2769",
					"getBidHistory()": "7e50bb83",
					"getRemainingTime()": "efb98bcf",
					"getWinnerInfo()": "22bb26f7",
					"highestBid()": "d57bde79",
					"highestBidder()": "91f90157",
					"initialDuration()": "b815a357",
					"owner()": "8da5cb5b",
					"placeBid()": "ecfc7ecc",
					"withdrawFull()": "e0dd89ec",
					"withdrawPartial(uint256)": "1211540c"
				}
			},
			"storageLayout": {
				"storage": [
					{
						"astId": 20,
						"contract": "Auctionator.sol:Auctionator",
						"label": "auctionEndTime",
						"offset": 0,
						"slot": "0",
						"type": "t_uint256"
					},
					{
						"astId": 22,
						"contract": "Auctionator.sol:Auctionator",
						"label": "highestBid",
						"offset": 0,
						"slot": "1",
						"type": "t_uint256"
					},
					{
						"astId": 24,
						"contract": "Auctionator.sol:Auctionator",
						"label": "highestBidder",
						"offset": 0,
						"slot": "2",
						"type": "t_address"
					},
					{
						"astId": 26,
						"contract": "Auctionator.sol:Auctionator",
						"label": "auctionEnded",
						"offset": 20,
						"slot": "2",
						"type": "t_bool"
					},
					{
						"astId": 37,
						"contract": "Auctionator.sol:Auctionator",
						"label": "bidHistory",
						"offset": 0,
						"slot": "3",
						"type": "t_array(t_struct(Bid)33_storage)dyn_storage"
					},
					{
						"astId": 41,
						"contract": "Auctionator.sol:Auctionator",
						"label": "_bidIndices",
						"offset": 0,
						"slot": "4",
						"type": "t_mapping(t_address,t_uint256)"
					}
				],
				"types": {
					"t_address": {
						"encoding": "inplace",
						"label": "address",
						"numberOfBytes": "20"
					},
					"t_array(t_struct(Bid)33_storage)dyn_storage": {
						"base": "t_struct(Bid)33_storage",
						"encoding": "dynamic_array",
						"label": "struct Auctionator.Bid[]",
						"numberOfBytes": "32"
					},
					"t_bool": {
						"encoding": "inplace",
						"label": "bool",
						"numberOfBytes": "1"
					},
					"t_mapping(t_address,t_uint256)": {
						"encoding": "mapping",
						"key": "t_address",
						"label": "mapping(address => uint256)",
						"numberOfBytes": "32",
						"value": "t_uint256"
					},
					"t_struct(Bid)33_storage": {
						"encoding": "inplace",
						"label": "struct Auctionator.Bid",
						"members": [
							{
								"astId": 28,
								"contract": "Auctionator.sol:Auctionator",
								"label": "bidder",
								"offset": 0,
								"slot": "0",
								"type": "t_address"
							},
							{
								"astId": 30,
								"contract": "Auctionator.sol:Auctionator",
								"label": "amount",
								"offset": 0,
								"slot": "1",
								"type": "t_uint256"
							},
							{
								"astId": 32,
								"contract": "Auctionator.sol:Auctionator",
								"label": "withdrawn",
								"offset": 0,
								"slot": "2",
								"type": "t_bool"
							}
						],
						"numberOfBytes": "96"
					},
					"t_uint256": {
						"encoding": "inplace",
						"label": "uint256",
						"numberOfBytes": "32"
					}
				}
			},
			"userdoc": {
				"kind": "user",
				"methods": {
					"concludeAuction()": {
						"notice": "Concludes the auction and distributes funds"
					},
					"constructor": {
						"notice": "Contract deployer becomes the owner"
					},
					"getBidHistory()": {
						"notice": "Gets complete bid history"
					},
					"getRemainingTime()": {
						"notice": "Gets remaining auction time"
					},
					"getWinnerInfo()": {
						"notice": "Gets winner information"
					},
					"placeBid()": {
						"notice": "Allows participants to place bidsExtends auction by 10 minutes if placed within last 10 minutes"
					},
					"withdrawFull()": {
						"notice": "Allows the owner to refund all non-winning participants"
					},
					"withdrawPartial(uint256)": {
						"notice": "Allows partial withdrawal during auction"
					}
				},
				"notice": "Implements an auction system.",
				"version": 1
			}
		}
	}
}